:020000040800F2
:10000000F8D2042439030008C75600084F4D0008F1
:10001000C556000893050008456D00080000000063
:100020000000000000000000000000004B0300087A
:1000300095050008000000004F0300085103000868
:100040005303000853030008530300085303000838
:100050005303000853030008530300085303000828
:100060005303000853030008530300085303000818
:100070005303000853030008530300085303000808
:1000800053030008530300085303000853030008F8
:1000900053030008530300085303000853030008E8
:1000A00053030008530300085303000853030008D8
:1000B00053030008530300085303000853030008C8
:1000C00053030008530300085303000853030008B8
:1000D00053030008530300085303000853030008A8
:1000E00053030008530300080000000053030008F6
:1000F0005303000853030008530300085303000888
:100100005303000853030008530300085303000877
:100110005303000853030008215E00082D5E000809
:100120005303000853030008530300085303000857
:100130005303000853030008530300085303000847
:1001400000000000000000000000000000000000AF
:100150005303000853030008530300085303000827
:100160005303000853030008530300085303000817
:1001700053030008D5560008530300085303000832
:1001800053030008530300085303000853030008F7
:1001900053030008530300085303000853030008E7
:1001A000B950000853030008530300085303000824
:1001B00053030008530300085303000853030008C7
:1001C00053030008530300085303000853030008B7
:1001D00053030008C95600085303000853030008DE
:1001E0005303000853030008530300085303000897
:1001F0005303000853030008530300085303000887
:100200005303000853030008530300085303000876
:100210005303000853030008530300085303000866
:1002200053030008530300085303000800000000B4
:1002300053030008530300080000000053030008A4
:100240005303000853030008530300085303000836
:100250005303000853030008530300085303000826
:100260005303000853030008530300085303000816
:100270005303000853030008530300080000000064
:100280005303000853030008530300080000000054
:10029000000000005303000800F002F800F03CF8F2
:1002A0000AA090E8000C82448344AAF10107DA45D1
:1002B00001D100F031F8AFF2090EBAE80F0013F0E7
:1002C000010F18BFFB1A43F001031847086F000025
:1002D000286F0000103A24BF78C878C1FAD85207B6
:1002E00024BF30C830C144BF04680C6070470000B0
:1002F0000023002400250026103A28BF78C1FBD82F
:10030000520728BF30C148BF0B6070471FB506F0C9
:1003100011FF1FBD10B510BD00F001F91146FFF728
:10032000F5FF06F083FE00F01FF903B4FFF7F2FFBC
:1003300003BC00F027F9000009488047094800473E
:10034000FEE7FEE7FEE7FEE7FEE7FEE7FEE7FEE785
:10035000FEE7FEE704480549054A064B70470000E2
:10036000455D000899020008F8C20424F8D204246C
:10037000F8CA0424F8CA042453EA020C00F0698085
:100380002DE9F04B4FF00006002B1FBFB3FA83F5A9
:1003900003FA05F424FA05F65E4012BF1643B2FADA
:1003A00082F502FA05F4C5F120051EBF22FA05FC0C
:1003B00044EA0C04203556EA044C4FEA144418BFB2
:1003C000641C4FF000084FF00009904271EB030CE1
:1003D00039D3002919BFB1FA81F701FA07F6B0FA4B
:1003E00080F700FA07F6C7F120071EBF20FA07FCC6
:1003F00046EA0C062037B6FBF4FCA7EB0507103FD6
:1004000007F01F0BCBF120060CFA0BFB2CFA06F6BB
:1004100044BFB3460026202FA4BF5E464FF0000B1A
:100420005BEA060C08BF4FF0010B19EB0B09ABFBA5
:10043000027C48EB0608C01B06FB02CC0BFB03CC7E
:1004400071EB0C01C1E70B46024641464846BDE848
:10045000F08B13B54FF000004FF00001AFF30080B8
:10046000BDE81C40704710B5203AC0F00B80B1E8E1
:100470001850203AA0E81850B1E81850A0E81850D9
:10048000BFF4F5AF5FEA027C24BFB1E81850A0E8E2
:10049000185044BF18C918C0BDE810405FEA827CFC
:1004A00024BF51F8043B40F8043B08BF7047D20713
:1004B00028BF31F8023B48BF11F8012B28BF20F8B4
:1004C000023B48BF00F8012B70474FF0000200B517
:1004D000134694469646203922BFA0E80C50A0E867
:1004E0000C50B1F12001BFF4F7AF090728BFA0E815
:1004F0000C5048BF0CC05DF804EB890028BF40F8E1
:10050000042B08BF704748BF20F8022B11F0804F22
:1005100018BF00F8012B7047704770477047754649
:1005200000F02CF8AE4605006946534620F007005F
:10053000854618B020B5FFF70DFFBDE820404FF00D
:1005400000064FF000074FF000084FF0000B21F0BD
:100550000701AC46ACE8C009ACE8C009ACE8C0098A
:10056000ACE8C0098D46704710B50446AFF3008073
:100570002046BDE81040FFF7D8BE00000048704795
:1005800094C2042401491820ABBEFEE726000200F5
:100590007047FEE7704772B6FEE70000F0B50368EB
:1005A0004FF6FC716D4C426BD3F884508D4345EA95
:1005B0008205C3F88450036853F8845F068F25F4DE
:1005C0007F0545EA06451D60836B654D9F180268EF
:1005D000D2F888308B4343EA8703C2F88830026838
:1005E00052F8883F868F23F4FE0343EA06431360E4
:1005F000066856F8A03FC26B8B4307EB420243EA02
:1006000082033360076857F8A03FB0F8406023F4D6
:10061000FE0343EA06433B60D0E9103603FB0622A3
:100620000368D3F8B0608E4346EA8206C3F8B06030
:100630000368B0F84860D3F8B07027F4FE0747EAC3
:100640000646C3F8B060D0E91267036806FB0722CC
:10065000D3F8AC608E4346EA8206C3F8AC60D0E9BA
:100660001467036806FB0722D3F8F0608E4346EA5E
:100670008206C3F8F0600368B0F85860D3F8F070F1
:1006800027F47C1747EA0646C3F8F0600368876DD5
:1006900053F8C06F02EB47028E4346EA82011960AD
:1006A0000168B0F85C20D1F8C03023F47C1343EA31
:1006B0000242C1F8C020016890F86020D1F8C03033
:1006C00023F07C5343EA0262C1F8C020416B04EB83
:1006D0008101C166826B01EB82020267C36B02EB90
:1006E000C3024267D0E91034634302EB830282679E
:1006F000D0E91234634302EB8302C267D0E91434B9
:10070000634302EB8302C0F88020836D02EBC303D6
:10071000C0F88430C46D826E544303EB8403C0F888
:100720008830046E544303EB8402C0F89020AA4240
:100730000AD9D0F89C20032142F02002C0F89C2066
:1007400080F898100120F0BD002200E004C1D0F82C
:1007500090308B42FAD80020F0BD000000AC004081
:10076000FCD300407CB50D46144600210191020ADD
:100770008DF80500FF2608480223BA218DF80420D1
:1007800001AA009600F06AFE0348BB2123462A46D0
:10079000009600F0D1FD7CBDB80500241CB50022F8
:1007A000030A0192FF248DF8043003238DF805001D
:1007B00001AA04488DF80610BA21009400F04EFEFC
:1007C0001CBD0000B8050024F0B50446C8074FF072
:1007D000000010D01E23012603F01F0706FA07F5BC
:1007E0000D4201D15B1EF7D27AB1082A0BD0102A34
:1007F00006D0182A01D00120F0BD072BFBD204E05F
:10080000082BF8D201E0102BF5D22368596121683A
:100810008B6823F0180313438B60F0BD10B5040000
:1008200010D0607F20B900202077204600F032F8F9
:1008300021790220607739B1D4E902122046FFF70E
:10084000C3FF48B1012010BD2168114848612068EC
:10085000816821F0180181606079A0B12168206968
:100860000861012220686369816821F060011943F1
:1008700081602068A369816821F08001194381604B
:100880006277002010BD21684FF0FF30E8E70000DC
:10089000B71DC10408B500680649884208D106485A
:1008A000016841F400210160006800F4002000901C
:1008B00008BD0000004C0258E0440258F0B590F822
:1008C0006020012A22D0C1EBC102012780F86070AC
:1008D000022380F8613000EB8202284D138F168EC0
:1008E000B2F83CC0D46A1B05283244EA064643EA03
:1008F0004C530A2C46EA03060AD0092C08D0137B75
:1009000046EA036349B10B2C1AD01DE00220F0BD6A
:10091000D36803F07F433343F4E701684C6AAC4388
:100920001C434C62016813688B6151680A2901D02D
:1009300009291BD1D168026821F07F41916215E03D
:10094000118B0F4D43EA81430168CC69AC431C43D2
:10095000CC61016813680B6151680A2901D009292B
:1009600004D1D168026821F07F411162002180F832
:10097000617080F860100846F0BD00000F0033FF82
:100980000F003FFF2DE9F041040004D094F861000E
:10099000002518B107E00120BDE8F081204684F869
:1009A000605000F033F8184E022084F861000123F3
:1009B000D4E90010D4F81CC040F207120F6840EAD6
:1009C0000C003740384308602068A769A168466B6F
:1009D00039439643314341632068E268016C6FF309
:1009E0000F01114301642068218AA28A466B090520
:1009F00041EA425126F4401211434163656684F88E
:100A000061300020C8E70000BFFFF8FF08B50068AC
:100A10000649884208D10648016841F0100101608A
:100A2000006800F01000009008BD000000100052A7
:100A3000D444025870B5044600F096FA0546601C8E
:100A400002D004480078044400F08EFA401BA04213
:100A5000FAD370BD100000242DE9F04194B08D4907
:100A60004C2204466846FFF7FEFC64B18A4D2068BC
:100A7000A84202D100F58070606094F898004FF0B1
:100A8000000820B108E0012014B0BDE8F081204644
:100A900084F8998000F002F92068816921F0100142
:100AA000816100F061FA0327064604E000F05CFA79
:100AB000801B0A2811D8206880690007F6D42068B6
:100AC000816941F00101816100F04EFA06460DE0B6
:100AD00000F04AFA801B0A2808D9D4F89C0040F09C
:100AE0000100C4F89C0084F89870CCE72068806905
:100AF000C007EDD02068816941F002018161207C4E
:100B000001282068816937D041F040018161607C13
:100B100001282068816932D021F480418161A07C64
:100B20000128206881692DD041F4805181612068BD
:100B3000A268816921F44071114381612068816953
:100B400021F0A40181612068016921F01001016197
:100B5000E068012819D010B302281BD020688169F1
:100B600041F0800181612068016941F0100101615B
:100B7000E06803280ED012E021F04001C6E741F4FE
:100B80008041CBE721F48051D0E72068816941F0B2
:100B9000040103E02068816941F020018161207E29
:100BA0006FF0FF02D4E90773A68A1102400602EB38
:100BB0000727A0F10070384327685B1E184301EB3C
:100BC00006463043F861A068B0F5407F11D104F1CA
:100BD0002800A68C6FF00F0C89C801EB0641401E5F
:100BE00002EB0322104322680CEB0713184308435F
:100BF000D060206E30B12068626ED0F8C010114312
:100C0000C0F8C010D4E917126846D14209D0216853
:100C1000A36E51F8C82F50F8233022F007021A4370
:100C20000A60216C49B12168626C51F8BC3F50F8F0
:100C3000226023F0070232430A60A16C51B121689F
:100C4000E36C51F8BC2F50F8233022F0700242EAD6
:100C500003120A60216D51B12168626D51F8BC3FE9
:100C600050F8220023F4E06242EA00200860206885
:100C7000A84204D16068816821F003018160C4F852
:100C800094800121C4F89C8084F898102046FFF7D6
:100C900085FCF9E65071000800A0004010B5B6B020
:100CA0000446142130A8FFF710FCC0216846FFF766
:100CB0000CFC1949206888422CD100204FF40041D7
:100CC000CDE900104A0368461C9201F051FD08B1BD
:100CD000FFF761FC1148016841F480710160006810
:100CE00000F4807035900D480C38016841F008011F
:100CF000016000680923032100F0080035900020FE
:100D00003091022230A9CDE93120CDE933030448E6
:100D100000F008F836B010BD00A00040EC440258C6
:100D2000000C02582DE9F84F03247D4D00234FF0AD
:100D300001094FF0B04B4FF00F0AE9E009FA03F751
:100D40003A4076D00E7906F00306012E01D0022E2D
:100D500018D1D0F808C04FEA430ECE6804FA0EF856
:100D60002CEA080C06FA0EF646EA0C068660D0F865
:100D700004C00E792CEA070CC6F300169E4046EA22
:100D80000C0646600E79F643B6070BD0C6684FEAEC
:100D900043088F6804FA08FC26EA0C0607FA08F7ED
:100DA0003743C7600E7906F00306022E12D1DE0823
:100DB0000F694FEA437C00EB8606B646366A4FEA77
:100DC000DC6C0AFA0CF807FA0CF726EA0806374337
:100DD000CEF820700F7906684FEA430807F0030742
:100DE00004FA08FC07FA08F726EA0C0637430760FE
:100DF0004E6816F4403F1CD04A4E376847F0020751
:100E0000376036689F0706F00206009623F0030657
:100E100006F1B046B6463F0FD6F80864DFF8088101
:100E20000AFA07FC404526EA0C0603D14FF0000CF5
:100E300041E06CE0DFF8F4C0604502D14FF0010CF6
:100E400039E0DFF8ECC0604502D14FF0020C32E02F
:100E5000DFF8E0C0604502D14FF0030C2BE0DFF873
:100E6000D8C0604502D14FF0040C24E0DFF8CCC0BC
:100E7000604502D14FF0050C1DE0DFF8C4C06045AD
:100E800002D14FF0060C16E0DFF8B8C0604502D181
:100E90004FF0070C0FE0DFF8B0C0604502D14FF013
:100EA000080C08E0DFF8A4C0604502D14FF0090C3F
:100EB00001E04FF00A0C0CFA07FC4CEA060CCEF8E5
:100EC00008C44F68DBF80060FF0226EA020600D57E
:100ED00016435F46CBF80060D1F804C0DBF804602D
:100EE0005FEA8C2C26EA020600D516437E606E6807
:100EF0004F6826EA0206BF0300D516436E602E68CF
:100F00004F6826EA0206FF0300D516432E605B1CDD
:100F10000A6832FA03F67FF411AFBDE8F88F0000DB
:100F200080000058F444025800000258000402589F
:100F300000080258000C0258001002580014025811
:100F400000180258001C02580020025800240258C1
:100F50000AB1816170470904FBE70000014800689D
:100F6000000C70470010005C01488068704700006A
:100F70001000002470477047704700002DE9F041D1
:100F800006680446304605F0E9FC012877D1206860
:100F900005F0FDFD002872D0206805F0F8FD800204
:100FA00003D521684FF400104861206805F0EFFD7B
:100FB000C00203D521684FF480104861206805F015
:100FC000E6FD400103D521684FF08060486120684C
:100FD00005F0DDFD800702D5216802204861206808
:100FE00005F0D5FD800018D521684FF0005048610C
:100FF000D6F84004C00710D11021304605F083FC1C
:10100000304605F064FC607A022803D12068012193
:1010100005F070FD2046FFF7AEFF206805F0B7FD34
:10102000C00102D5204603F004FE206805F0AFFDA4
:10103000000705D5204600F0C7F821680820486160
:10104000206805F0A4FD800124D5206805F0F5FC9A
:10105000002507464FF0010815E000BF05F00F011D
:1010600008FA01F038420DD006EB4510D0F8000523
:10107000E9B20004204603D503F08EFA02E01CE03A
:1010800003F05EFC6D1C6079A842E7D821684FF040
:1010900000704861206805F07AFDC043C0060CD49A
:1010A0002068816921F010018161204603F00BFE68
:1010B0002068816941F010018161BDE8F08138B597
:1010C000040003D094F8D50310B107E0012038BD27
:1010D000002084F8D403204600F024F8032084F88C
:1010E000D503206805F072FB207C8DF8000094E8A1
:1010F0000F0005F03DFA022560B92068012105F0D6
:101100006AFD38B9207C8DF8000094E80F0005F0E6
:1011100099FC10B184F8D553D8E7012084F8D503A1
:10112000002038BD10B5B6B00446142130A8FFF732
:10113000CCF9C0216846FFF7C8F91F4920688842EA
:1011400038D100204FF480214FF440122292CDE993
:101150000010684601F00CFB08B1FFF71CFA01F023
:10116000E5F81648016841F00201016000680C23AF
:10117000022200F00200359000204FF440413091EF
:1011800030A9CDE93120CDE933030D48FFF7CAFD81
:101190000A480838016841F00071016000680022C7
:1011A000052100F0007035904D2000F0B3FC4D207B
:1011B00000F0A2FC36B010BD00000440E04402582C
:1011C0000004025870477047704730B590F84120CE
:1011D000202A24D190F84020012A20D0012380F831
:1011E0004030242280F84120202300240268156822
:1011F00025F0010515600268156825F48055156015
:10120000026815680D43156001680A6842F0010222
:101210000A6080F8413080F84040002030BD022054
:1012200030BD30B590F84120202A22D190F84020DE
:10123000012A1ED0012380F84030242280F841206A
:10124000202400250268136823F00103136002685C
:10125000136823F4706343EA0121116001680A688E
:1012600042F001020A6080F8414080F840500020BE
:1012700030BD022030BD000070B5040004D094F8E9
:101280004100002510B106E0012070BD204684F821
:10129000405000F089F9242084F84100206801685A
:1012A00021F001010160D4E9001020F070600861B4
:1012B0002068816821F400418160E068216801288C
:1012C000A06830D040F404408860E06802282068BC
:1012D00041682BD021F40061416020682021154A2B
:1012E0004368134343602068C26822F40042C2602E
:1012F00054F8106B0DCC104340EA0320F06054F812
:101300001C3CD4E900021043186054F81C0D02681C
:1013100042F001020260656484F84110256384F89C
:101320004250002070BD40F40040CDE741F4006120
:10133000D2E70000008000022DE9F84F044690F843
:1013400041001F469046DDF828A08B4620287ED11C
:1013500094F8400001287AD0012084F84000FFF77B
:1013600003FE0122064619230090D103204603F014
:10137000A1FDE0BB0025222184F84110102084F853
:10138000420065646785618DFF2732484FF0007920
:10139000C4F82480FF294FF08078656303D927853E
:1013A0003A46009039E0618D218500903AE0594637
:1013B000204603F067FD13E003F0BAFDB8B92068DA
:1013C000616A406A0870606A401C6062208D401E3D
:1013D00081B22185608D401E6085608D00B169B14C
:1013E000608D3246514600282046E5D100E002E0FB
:1013F00003F0F2FDD0B10120BDE8F88F0022534682
:1014000080212046009603F055FD0028F3D1608D21
:10141000FF2804D927853A4600954346C7E7608DE3
:10142000208500954B4694F82820C0E720682021AD
:10143000094AC161206843681340436084F8411041
:1014400084F84250002084F84050D5E7FFE702209E
:10145000D2E700000024008000E800FE2DE9FF4FE5
:1014600081B0044690F8410099469046DDF838B0C6
:1014700020287BD194F84000012877D0012084F8FF
:101480004000FFF771FD0122064619230090D103A9
:10149000204603F00FFD002853D1414921220025A9
:1014A000C4F82480102084F84120FF2784F84200EB
:1014B0006564A4F82A90608D4FF080794FF0007A2F
:1014C0006563FF2802D94B46278505E0608D5346AA
:1014D00020850004000C10D0226898F8000090626B
:1014E000606A401C6062608D401E6085208D401ED9
:1014F0002085401C0091C2B201E0002200910299B7
:10150000204603F0BFFC13E003F092FDC8B9606A07
:10151000216800788862606A401C6062608D401EAD
:101520006085208D401E80B22085618D01B160B143
:10153000608D3246594600282046E5D103F04CFD27
:10154000E0B1012005B0BDE8F08F00225B468021AC
:101550002046009603F0AEFC0028F2D1608DFF28F3
:1015600005D927853A464B460095C8E716E0608DB9
:1015700053462085009594F82820C0E72168202054
:10158000084AC86121684B6813404B6084F84100E9
:1015900084F84250002084F84050D3E70220D1E77D
:1015A0000020008000E800FEF0B5B7B0044614212A
:1015B00030A8FEF78AFFC0216846FEF786FF39494A
:1015C000122620680427364D002488423AD1002094
:1015D00021940821CDE90010684601F0C9F808B14E
:1015E000FEF7D9FF286840F004002860286800F062
:1015F00004003590286840F001002860286830A970
:1016000000F0010035904FF400703090CDE9316466
:101610002548CDE93347FFF785FB4FF480703090C4
:10162000CDE93164214830A9CDE93347FFF77AFB92
:101630001B480830016841F400010160006800F4B3
:10164000000029E01A49884227D100202694102161
:10165000CDE90010684601F08BF808B1FEF79BFF5A
:10166000286840F008002860286830A900F00800C9
:1016700035904FF440503090CDE931640D48CDE9BC
:101680003347FFF74FFB06481430016841F08001F3
:101690000160006800F08000359037B0F0BD0000B8
:1016A000E0440258005C0040000802580000025864
:1016B000001C0058000C025802488168027811444E
:1016C0008160704710000024032010B500F042FA3A
:1016D00001F0C6FE0F4A104914681368C4F30322D0
:1016E00003F00F038A5CC95C02F01F0201F01F01C6
:1016F000D0400A4A20FA01F111600949086000202F
:1017000000F010F808B1012010BD00F0E3F900204E
:1017100010BD000018440258C471000820000024C5
:101720001C00002410B5102804468AB02CD20022D8
:101730000146372000F0EEF9372000F0DDF91748B8
:1017400004601748016841F020010160006809A9A0
:1017500000F020000890684601F00EFE0598B0B138
:1017600001F05AFE40000F4900220F4CB0FBF1F18E
:101770000E4840F2E7330460C0E90332491EC0E975
:10178000011202F0B1FC28B101200AB010BD01F035
:1017900043FEE8E7054802F0F7FCF6E714000024F2
:1017A000E844025840420F000014004048C204249C
:1017B00070472DE9F0410446006800274FF0040807
:1017C000856B466B690715D5710713D5426B22F0FF
:1017D000040242632068C0F83C80D4F8A40040F0C2
:1017E0000100C4F8A40084F8A180204684F8A07009
:1017F000FFF7DEFFA80716D5B00714D52068022230
:10180000436B23F0020343632068C263D4F8A4004F
:1018100040F00200C4F8A40084F8A180204684F8B7
:10182000A070FFF7C5FF05EA06004FF00108C007EA
:101830000ED021684A6B22F001024A632168C1F888
:101840003C8084F8A180204684F8A07000F092F8D3
:10185000280710D530070ED520680822436B23F0E7
:10186000080343632068C26384F8A180204684F89B
:10187000A07000F02DF9BDE8F08100002DE9F041E5
:10188000040004D094F8A100002518B107E001205D
:10189000BDE8F081204684F8A05000F06DF834488F
:1018A000022184F8A110012202CC8B6923F070433D
:1018B0008B6194E84A001943E3681E4354F8043DE1
:1018C00031439E693143996121688B6803408B6085
:1018D0002168A68AA7698B683B4343EA06438B606D
:1018E0002168CB680340CB602168A38B276ACE6850
:1018F0003E4346EA0346CE6021680B6903400B6114
:101900002368A68CA76A1969394341EA064119611F
:1019100021684B6903404B612068A38D266B4169A8
:10192000314341EA03414161236894F8351094F84A
:101930003600DE6A000406F07F46DE62236840EA75
:10194000012094F83460D96A31430143D962206898
:10195000416B41F0060141632068816941F001015A
:101960008161C4F8A45084F8A120002090E7000011
:1019700000F800F0704700002DE9F041B6B00446D1
:10198000142130A8FEF7A1FDC0216846FEF79DFD99
:101990004849206888427CD10DF1280800210224A2
:1019A0000D460122062388E81C0040041191CDE970
:1019B00000010DA968460F265F024FF4007C81E804
:1019C000D01000F0D5FE08B1FEF7E5FD3A480168F9
:1019D00041F008010160006800F0080035903648C9
:1019E000001F016841F004010160016801F0040179
:1019F0003591016841F001010160016801F00101C8
:101A00003591016841F002010160016801F00201B5
:101A10003591016841F010010160016801F0100189
:101A20003591016841F008010160006830A9032682
:101A300000F0080035900E27C12081E8F1001F4812
:101A4000FFF770F930A9782081E8F1001C48FFF712
:101A500069F90920DFF86C80CDE93064329530A94E
:101A6000CDE933604046FFF75DF930A94FF4784087
:101A700081E8F1001448FFF755F930A94FF4706080
:101A800081E8F1004046FFF74DF930A94FF481603D
:101A900000E00CE081E8F1000C48FFF743F9002278
:101AA0000521582000F036F8582000F025F836B00F
:101AB000BDE8F08100100050E444025800080258CC
:101AC000000002580004025800100258000C02588E
:101AD00070470000074882B0016841F002010160D0
:101AE000006800220F2100F002000090901E02B05A
:101AF00000F010B8F4440258002809DB410900F056
:101B00001F028900012001F1E0219040C1F800018D
:101B1000704700000E4BF0B41B680D46C3F3022360
:101B2000C3F10706042E00D90426191D072901D286
:101B3000002300E0DB1E012404FA06F19C40491E4C
:101B40002940641E994014402143F0BC05F0FBB8C5
:101B50000CED00E0064900F0070210B54FF6FF0457
:101B60000868044B204040EA02201843086010BD7A
:101B70000CED00E00000FA0501680123C0F8D8343C
:101B8000002280F8CC248869044A40F00060886113
:101B9000486D1043486500207047000003000010A6
:101BA000704770477047704770470A0601F00F0191
:101BB00001EBC10100EB810101D5143101E001F518
:101BC0001571006804F034BE2DE9FC5F0568044619
:101BD000284604F0C3FE00287ED1206804F0D7FF19
:101BE000002879D0D5F80808C0F30D20C4F8D40433
:101BF000206804F0CCFF800704D52068416901F01B
:101C000002014161206804F0C2FFC10604F29C4059
:101C1000009035D52068816921F0100181612F6A1B
:101C200007F00F01C7F3434001EBC101022804EBA9
:101C3000810606F5157602D0062812D01BE047F67D
:101C4000F070074217D0C7F30A12F168174628460A
:101C500004F0A1FF7169F068394471613844F060A3
:101C600009E000990822284604F095FF7069C7F33F
:101C70000A11084470612068816941F01001816196
:101C8000206804F084FF00034FF0080B4FF0000AB7
:101C90004FF001097CD52068002604F057FF074665
:101CA00074E0F80770D02068F1B204F068FF804655
:101CB000C00707D005EB4611C1F8089B3146204606
:101CC00003F00EFD5FEA087024D505EB4611C1F85C
:101CD00008BBFA49206800E03EE2026C00EB4610C7
:101CE00001928A42D0F8081B05D9090403D54FF4A4
:101CF0000041C0F8081B204600F0EBFAEF490198BC
:101D0000884207D9A079012804D120680121009ACE
:101D100004F062FD5FEAC86004D505EB46111020AF
:101D2000C1F8080B5FEA88701DD56869000605D503
:101D3000D5F8040840F48061C5F8041806EBC60025
:101D400004EB800090F8571200F51570012905D1B9
:101D500080F803A02046F1B200F001FA05EB46112D
:101D60000220C1F8080B5FEA886004D505EB461134
:101D70002020C1F8080B5FEA884005D505EB461125
:101D80004FF40050C1F8080B7F08761C002F88D153
:101D9000206804F0FCFE40036ED5206804F0CFFEFE
:101DA0000026074666E0F80762D02068F1B204F02A
:101DB000D4FE8046C00723D0D5F8342806F00F01A2
:101DC00005EB461309FA01F18A43C5F83428C3F834
:101DD0000899A07901280FD106EBC60004EB80001A
:101DE000D0E907211144016236B9606A20B9206840
:101DF0000121009A04F0F0FC2046F1B2FFF7D2FE78
:101E00005FEA087003D505EB4611C1F808B95FEA2F
:101E1000C86004D505EB46111020C1F808095FEA37
:101E2000486004D505EB46114020C1F808095FEA77
:101E3000887016D53146284604F065FD06EBC600CD
:101E400004EB8000C17D1430012905D180F803A086
:101E50002046F1B200F082F905EB46110220C1F8EC
:101E600008095FEA086003D53146204603F09EFC6E
:101E70007F08761C002F96D1206804F088FE002889
:101E800011DAD5F8040820F00101C5F8041894F817
:101E9000CC0401283BD0204600F019FA20684169A3
:101EA00001F000414161206804F071FE00050BD58E
:101EB000D5F80808C00702D0204600F00BFA2068C9
:101EC000416901F400614161206804F060FE000195
:101ED0000AD52068416901F00061416194F8CC04A1
:101EE000E0B1204600F0F6F9206804F050FEC0048E
:101EF00072D5D5F8040820F00101C5F8041820684F
:101F0000102104F000FD00214FF67F322DE000216A
:101F1000204684F8CCA4FFF743FEBFE784F8CC94B6
:101F20002068406D0121C0F38300C4F8D00420462E
:101F3000FFF736FED8E700BF05EB4110C0F80829CF
:101F4000D0F8003923F40013C0F80039C0F8082B8A
:101F5000D0F8003B23F40013C0F8003BD0F8003B5E
:101F600043F00063C0F8003B491C20798842E3D865
:101F7000D5F81C0840F00111C5F81C18E07B68B1C9
:101F8000D5F8840840F00B01C5F88418D5F844084A
:101F900040F00B012846C5F844180DE0D5F81408A8
:101FA00042F22B010843C5F81408D5F8100840F098
:101FB0000B012846C5F81018D0F8000820F4FE617F
:101FC000C5F80018A1792068009A04F005FC206883
:101FD000416901F480514161206804F0D8FD80041A
:101FE00015D5206804F0B6FA206804F0AAFCE07168
:101FF00001F0F0F9E2790146206804F01BFE20466A
:1020000000F064F92068416901F4005141612068E1
:1020100004F0BDFD000707D5204600F059F92068FF
:10202000416901F008014161206804F0B0FD00063B
:1020300016D5A869012620F08001A9610DE000BF36
:1020400006EBC60004EB800090F85702012803D18C
:102050002046F1B2FFF7A9FD761C2079B042EFD8F7
:10206000206804F094FDC0021FD501264F4614E0FD
:1020700006EBC60105EB461004EB8101D0F8000920
:102080000A7E012A08D1002806DAF0B2CF7540F0A6
:1020900080012046FFF789FD761C2079B042E7D801
:1020A0002068416901F480114161206804F06FFDEE
:1020B000800234D501204B4629E000000A30544FFD
:1020C00000EBC00205EB401104EB8202D1F8001BCB
:1020D00092F85862012E19D1002917DA94F8D464C5
:1020E00001F4803106F00106B1420FD182F8573277
:1020F000A96941F08002AA616969090606D4D5F888
:10210000040840F40070C5F8040803E0401C21797D
:102110008142D5D82068416901F4001141612068ED
:1021200004F035FD400007D52046FFF73AFD206852
:10213000416901F080414161206804F028FD4007B9
:102140000AD520684568680702D52046FFF72CFDB0
:102150002068416829434160BDE8FC9F7047704793
:10216000F8B5040004D094F89504002510B106E0F9
:102170000120F8BD204684F8945400F057F803205D
:1021800084F89504206804F021FB207C8DF8000081
:1021900094E80F0004F0ECF90226B0BB206800219F
:1021A00004F019FD88BB002001270CE000EBC00102
:1021B000421C04EB81014F750D76CD610D624D62BD
:1021C0000875C885D0B221798142EFD8002011E08E
:1021D00000EBC001421C04EB810181F8555281F8EB
:1021E0005852C1F85C52C1F86052C1F8645281F88B
:1021F0005402D0B221798142EAD8207C8DF80000C7
:1022000094E80F0004F02CFA10B184F89564AFE75D
:10221000207B657484F89574012802D12046FFF76D
:10222000ABFC206804F00EFA0020F8BD10B5B6B083
:102230000446142130A8FEF748F9C0216846FEF78D
:1022400044F91F492068884238D100204FF480218A
:102250004FF440122292CDE90010684600F088FA4F
:1022600008B1FEF798F900F061F81648016841F0EE
:102270000101016000680A23022200F0010035908C
:1022800000204FF4C051309130A9CDE93120CDE983
:1022900033030D48FEF746FD0A480838016841F04F
:1022A0000061016000680022052100F000603590A7
:1022B0006520FFF72FFC6520FFF71EFC36B010BD30
:1022C00000000840E0440258000002587047704780
:1022D0007047704770470000134970B50A68D243D1
:1022E000520705D5096801F00701814213D118E0B2
:1022F0000A6822F0070202430A60FEF735FE0A4D23
:102300004FF47A760446083D07E000BFFEF72CFE46
:10231000001BB04201D9012070BD2868C043800471
:10232000F4D4002070BD00000C4802580248016837
:1023300041F08071016070470C480258F8B50446BE
:10234000FEF712FE05461CB194F8410010B107E0FB
:102350000120F8BD204600F047F841F28830A06423
:1023600020686FF0FF02A168036802EB012223F4EA
:10237000F85111430160A06C002220212B460090EF
:10238000204603F064FA0028E3D12268D4E9073537
:102390002679E168176845EA0665DFF844C0194305
:1023A000104B29430025012607EA0C073943116029
:1023B0002268D4E90517B4F810C0D2F804E0394314
:1023C0000EEA030E4EEA0C431943516021680A6875
:1023D00042F001020A60656484F84160F8BD0000C3
:1023E0002FFFFF00FEF8E0FF70B5B6B004461421E1
:1023F00030A8FEF76AF8C0216846FEF766F82C4957
:102400002068884251D1002013904FF0007104469B
:10241000CDE90010684600F0ABF908B1FEF7BBF853
:102420002448016841F480410160006800F4804064
:10243000359020480C30016841F0020101600168CC
:1024400001F002013591016841F01001016001685D
:1024500001F010013591016841F00401016000684C
:102460000926022500F00400359004203090CDE9C3
:102470003154114830A9CDE93346FEF753FC0A2107
:102480004FF4F0603090CDE93154CDE933410B4841
:1024900030A9FEF747FCA8023090CDE93154084836
:1024A00030A9CDE93346FEF73DFC36B070BD0000E3
:1024B00000500052D4440258000402580010025840
:1024C0000008025810B500F085FF05490968054A63
:1024D000C1F30211515C01F01F01C84010BD0000A2
:1024E00020440258C4710008494930B5484C0B1DBE
:1024F0000A68143409681D68246802F00303C5F3F0
:102500000012C1F30531C4F3CC04002914FB02F21C
:1025100000EE102AF8EE400A75D03F4A9FED3D1AB2
:10252000B7EE000A6BB1DFED3D1A012B01D0022B93
:1025300064D002EE101A1168F8EE422A81EEA22A47
:1025400021E0334C283C23689B0612D5344B246889
:1025500001EE901A1168C4F3C104F8EE612AE34059
:1025600001EE903AC1F30801F8EE611A81EEA22A59
:102570000BE001EE901ADFED2B2A00BFF8EE611A96
:10258000116882EEA12AC1F3080101EE901A1168C8
:10259000F8EE611A40EE811A71EE800A62EE200AAE
:1025A000C1F3462101EE101AB8EE411A31EE001ABD
:1025B000C0EE811ABCEEE11A80ED001A1168C1F379
:1025C000064101EE101AB8EE411A31EE001AC0EEC3
:1025D000811ABCEEE11A80ED011A1168C1F306619F
:1025E00001EE101AB8EE411A31EE000A80EE801AA0
:1025F000BCEEC10A80ED020A30BD04E001EE901A83
:10260000DFED092ABAE70021016041608160F3E74C
:102610002844025800000039384402580024744A03
:102620000090D0030024744C20BCBE4B494930B507
:10263000484C0B1D0A681C3409681D68246802F0A8
:102640000303C5F30022C1F30551C4F3CC040029F0
:1026500014FB02F200EE102AF8EE400A75D03F4A51
:102660009FED3D1AB7EE000A6BB1DFED3D1A012B6D
:1026700001D0022B64D002EE101A1168F8EE422A43
:1026800081EEA22A21E0334C283C23689B0612D518
:10269000344B246801EE901A1168C4F3C104F8EEBB
:1026A000612AE34001EE903AC1F30801F8EE611AA5
:1026B00081EEA22A0BE001EE901ADFED2B2A00BF7B
:1026C000F8EE611A116882EEA12AC1F3080101EE49
:1026D000901A1168F8EE611A40EE811A71EE800AC4
:1026E00062EE200AC1F3462101EE101AB8EE411A3B
:1026F00031EE001AC0EE811ABCEEE11A80ED001A2C
:102700001168C1F3064101EE101AB8EE411A31EE1C
:10271000001AC0EE811ABCEEE11A80ED011A1168B0
:10272000C1F3066101EE101AB8EE411A31EE000A4B
:1027300080EE801ABCEEC10A80ED020A30BD04E0D2
:1027400001EE901ADFED092ABAE70021016041602D
:102750008160F3E7284402580000003940440258E1
:102760000024744A0090D0030024744C20BCBE4B5B
:102770002DE9FE4F0546DFF8E48350F8081B0024DE
:10278000F64FC943019005F12800264608F12408B8
:10279000009008011DD4A86E50B1B0F5801F0CD078
:1027A000B0F5001F0ED0B0F5401F1ED001240FE081
:1027B000386840F40030386017E00198022103F0D7
:1027C00079F803E00098022103F004F904000CD02A
:1027D00026462888C043C00523D4A86D05281ED2EC
:1027E000DFE800F00C11161B1B00AA6ED8F80010D1
:1027F00021F440111143C8F80010EAE7386840F4AA
:102800000030386009E00198002103F053F803E03C
:102810000098002103F0DEF8044674B100E00124C2
:1028200026462888C043800528D4E86D80281ED01D
:102830000CDC90B140280ED114E0AA6DD8F800103D
:1028400021F007011143C8F80010EAE7C02813D0AF
:10285000B0F5807F10D001240FE0386840F40030DC
:10286000386009E00198002103F024F803E00098A3
:10287000002103F0AFF804469CB126462888DFF813
:10288000DC92C04309F12C0940052CD4D5F8A800EE
:10289000B0F5800F20D00DDCA0B1B0F5001F0FD136
:1028A00015E0EA6DD8F8001021F4E0711143C8F882
:1028B0000010E3E7B0F5C00F13D0B0F5000F10D053
:1028C00001240FE0386840F40030386009E00198D6
:1028D000002102F0EFFF03E00098002103F07AF8F6
:1028E00004467CB126462888C04300052DD4D5F87F
:1028F000AC00B0F1007F21D00EDCA8B1B0F1807F38
:1029000010D116E0D5F8A820D9F8001021F4600104
:102910001143C9F80010E6E7B0F1407F13D0B0F1E1
:10292000806F10D001240FE0386840F40030386028
:1029300009E00198002102F0BDFF03E000980021AA
:1029400003F048F8044674B126462868C043800165
:102950001FD4E86CD8B110280FD0202812D030280E
:1029600015D0012414E0D5F8AC20D9F8001021F0DE
:10297000E0611143C9F80010E7E7386840F400301F
:10298000386004E00198022102F094FF044674B11B
:1029900026462888C043C0042BD4286EB0F5005FBB
:1029A00020D00DDCA0B1B0F5805F0FD115E06B48F1
:1029B000EA6C2030016821F0300111430160E8E742
:1029C000B0F5405F13D0B0F5804F10D001240FE078
:1029D000386840F40030386009E00198002102F0C6
:1029E00069FF03E00098002102F0F4FF04468CB177
:1029F00026462888C043800429D4686EB0F5403F3D
:102A000023D010DC08B3B0F5803F14D0B0F5003F00
:102A10000FD115E02A6ED8F8001021F4E0411143DF
:102A2000C8F80010E5E7B0F5802F0ED0B0F5A02F64
:102A30000BD001240AE00198012102F03BFF03E0E2
:102A40000098012102F0C6FF044694B1264628886A
:102A5000C04340042AD4D5F8B000B0F1405F23D081
:102A600010DC08B3B0F1805F14D0B0F1005F0FD17B
:102A700015E06A6ED8F8001021F4E0211143C8F87F
:102A80000010E4E7B0F1804F0ED0B0F1A04F0BD0B2
:102A900001240AE00198012102F00CFF03E00098F4
:102AA000012102F097FF044674B126462888C043EE
:102AB00000041FD4286FD8B1B0F1805F0ED0B0F100
:102AC000005F10D0012414E0D5F8B020D9F8001030
:102AD00021F0E0411143C9F80010E7E7386840F4FD
:102AE0000030386004E00198012102F0E3FE044662
:102AF00074B126462868C043C0011ED4A86CD0B16A
:102B000001280ED0022811D0032814D0012413E08C
:102B10002A6FD8F8001021F040511143C8F8001076
:102B2000E8E7386840F40030386004E0019802219A
:102B300002F0C0FE0446ACB126462868DFF81CB09F
:102B4000C043ABF11C0B400252D40548016841F46C
:102B500080710160FEF708FA824611E02C440258A9
:102B600000480258FA48AA6C016821F00301114399
:102B70000160E2E7FEF7F8F9A0EB0A00642835D817
:102B8000F4480068C005F5D58CBBDFF8C4A3B5F8E0
:102B9000B4100AF1240ADAF8000001F4407100F4DC
:102BA0004070884211D0DAF80010DAF8002021F4E1
:102BB000407142F48032CAF80020DAF8002022F492
:102BC0008032CAF80020CAF80010D5F8B400B0F579
:102BD000807F1AD1FEF7C8F9029012E0FEF7C4F91F
:102BE0000299411A41F2883081420AD903242646CB
:102BF0002878DFF85CA3C0430AF1080AC00721D097
:102C00003CE0DAF800008007E8D5D5F8B410C1F34D
:102C10000120032858460DD0016821F47C51016041
:102C2000B5F8B420DAF80010C2F30B021143CAF869
:102C30000010DDE7C84A036802EA111223F47C5150
:102C40001143ECE7E86F182816D005DCA0B108287E
:102C500008D0102804D10AE020280DD028280BD055
:102C600001240AE00198012102F024FE03E000980B
:102C7000012102F0AFFE044664B126462878C04325
:102C800080071ED4A86F062819D2DFE800F0160CC2
:102C900011161616EA6FDAF8001021F03801114308
:102CA000CAF80010EAE70198012102F003FE03E0F0
:102CB0000098012102F08EFE04467CB100E0012460
:102CC00026462878C04340071FD4D5F8940006282C
:102CD00019D2DFE800F0160C11161616AA6FDAF8F2
:102CE000001021F007011143CAF80010E9E701982C
:102CF000012102F0DFFD03E00098012102F06AFEED
:102D00000446A4B100E0012426462878C04380068A
:102D10002BD4D5F89000B0F1405F24D011DC10B373
:102D2000B0F1805F15D0B0F1005F10D116E0D5F89A
:102D30009420D9F8001021F007011143C9F80010C0
:102D4000E3E7B0F1804F0ED0B0F1A04F0BD00124DB
:102D50000AE00198002102F0ADFD03E00098022195
:102D600002F038FE044694B126462878C043400657
:102D70002BD4D5F89C00B0F5406F24D011DC10B3F3
:102D8000B0F5806F15D0B0F5006F10D116E0D5F812
:102D90009020DAF8001021F0E0411143CAF8001049
:102DA000E3E7B0F5805F0ED0B0F5A05F0BD0012453
:102DB0000AE00198002102F07DFD03E00098022165
:102DC00002F008FE044694B126462878C043000667
:102DD0002BD4D5F8A000B0F5C04F24D011DC10B32F
:102DE000B0F5005F15D0B0F5804F10D116E0D5F8E2
:102DF0009C20D9F8001021F4E0511143C9F80010CB
:102E0000E3E7B0F5004F0ED0B0F5204F0BD0012412
:102E10000AE00198002102F04DFD03E00098022134
:102E200002F0D8FD044654B126462878C043000776
:102E30001ED4D5F88400B0F5805F0AD00FE0D5F835
:102E4000A020D9F8001021F460411143C9F8001006
:102E5000EBE70098022102F0BDFD00B10126D5F894
:102E60008420DAF8001021F440511143CAF8001010
:102E70002878C043C00613D4D5F89800B0F5807FF9
:102E800005D10098022102F0A5FD00B10126D5F878
:102E90009820D9F8001021F440711143C9F80010AE
:102EA0002868C043000316D4D5F8A40038B1B0F5A3
:102EB000803F09D0B0F5003F0BD001240AE0019813
:102EC000002102F0F7FC03E00098022102F082FDED
:102ED00004468CB126462868C043400322D4D5F866
:102EE0008800B0F5801F11D0B0F5001F13D0B0F5E9
:102EF000401F15D0012414E0D5F8A420D9F8001003
:102F000021F440311143C9F80010E4E7386840F477
:102F10000030386004E00098012102F05BFD0446B7
:102F20005CB126462868C043C00323D4286DA8B1ED
:102F3000B0F5803F17D001241BE0D5F88820DAF8DF
:102F4000001021F440111143CAF80010EAE7000014
:102F50004C44025800480258CFFFFF00386840F444
:102F60000030386004E00198022102F0A3FC04461E
:102F7000E4B126462868C043800005D400980221A9
:102F800002F028FD00B101262868C04380031BD44D
:102F9000D5F88000B0B1B0F5807F0FD0B0F5007FDC
:102FA00010D0B0F5407F0DD001240CE05A482A6DB6
:102FB000016821F4803111430160DBE7386840F497
:102FC00000303860ECB326462868C043C00207D4FE
:102FD0006A6FD8F8001021F000411143C8F80010C2
:102FE0002868C043C00008D4D5F8B820DBF800102A
:102FF00021F480411143CBF800102868C0438002BF
:1030000007D4EA6ED8F8001021F080711143C8F897
:1030100000102868C04340000CD4DBF8001021F4F5
:103020000041CBF80010DBF80010D5F8BC201143AC
:10303000CBF800102868C04308D437486A6D01688F
:1030400000E018E021F04051114301602868C043BE
:10305000000208D4D5F88C20DAF8001021F44001E1
:103060001143CAF8001028790024C04300F0010081
:1030700020430AD00FE0D5F88020DAF8001021F4C0
:1030800040711143CAF800109EE70198002102F038
:1030900011FC00B106462879C04300F0020020432D
:1030A00005D10198012102F005FC00B106462879FE
:1030B000C04300F00400204305D10198022102F032
:1030C000F9FB00B106462879C04300F00800204310
:1030D00005D10098002102F07DFC00B10646287958
:1030E000C04300F01000204305D10098012102F0F8
:1030F00071FC00B106462879C04300F0200004436B
:1031000004D10098022102F065FC00B916B101203B
:10311000BDE8FE8F0020FBE74C4402582DE9F05F2C
:1031200004000F467ED0DFF83882D8F8000000F0A7
:103130000F00B8420CD2D8F8001021F00F0139432B
:10314000C8F80010D8F8000000F00F00B84269D1AC
:103150002078844D40070AD52069296801F0700164
:10316000884204D9296821F0700101432960207840
:103170007C4E361D00070AD56069316801F0700188
:10318000884204D9316821F0700101433160207810
:10319000C0060AD5A069316801F4E061884204D90B
:1031A000316821F4E061014331602078DFF8B4B187
:1031B00080060BF1080B0CD5E1695846DBF80020BE
:1031C00002F07002914204D9026822F070020A43B0
:1031D0000260207880070AD5E068296801F00F01B5
:1031E000884204D9296821F00F0101432960207821
:1031F000C0073ED05B49A2682868183920F4706087
:10320000104328606068022818D0032819D0096884
:10321000012819D0490700294ADADFF848A1AAF1A4
:10322000080A00E044E0DAF8002022F00702024336
:10323000CAF80020FDF798FE814612E0096889036C
:10324000E9E709688901E6E7C905E4E7FDF78CFECF
:10325000A0EB090141F28830814202D90320BDE888
:10326000F09F6168DAF8000000F03800B0EBC10FA1
:10327000ECD1207880070AD5E068296801F00F01B9
:10328000884204D2296821F00F0101432960D8F84F
:103290000010404601F00F01B9420BD9016821F03E
:1032A0000F0139430160006800F00F00B84201D0FF
:1032B0000120D4E7207840070AD52069296801F069
:1032C0007001884204D2296821F07001014329600D
:1032D000207800070AD56069316801F070018842E2
:1032E00004D2316821F07001014331602078C006BA
:1032F0000AD5A069316801F4E061884204D23168DE
:1033000021F4E06101433160207880060CD5E16949
:103310005846DBF8002002F07002914204D20268A5
:1033200022F070020A43026000F09AF80E492A68FF
:103330002B68C2F3032203F00F038A5CC95C02F01E
:103340001F0201F01F01D040084A20FA01F111606C
:103350000749086007480068BDE8F05FFEF7E2B97A
:103360000020005218440258C471000820000024B4
:103370001C0000241400002470B5144C3F2202608D
:10338000124A24680832131D114D04F007044460EA
:1033900016681C1D06F470668660166806F00F0637
:1033A000C660126802F0700202611A6802F07002D0
:1033B00042611A6802F4E0628261226802F07002DF
:1033C000C261286800F00F00086070BD1044025808
:1033D0000020005230B500F043F80B4A0B490C4B6B
:1033E00015681468C5F3032204F00F048A5C095DB4
:1033F00002F01F0201F01F01D040064A20FA01F13D
:1034000019601060084630BD18440258C4710008A5
:10341000200000241C00002400B5FFF7DBFF054955
:103420000968054AC1F30211515C01F01F01C8404F
:1034300000BD00001C440258C471000800B5FFF72D
:10344000C9FF05490968054AC1F30221515C01F031
:103450001F01C84000BD00001C440258C471000890
:10346000454970B545480968434B103B11F0380297
:1034700008D00111082A03D0102A0BD0182A0BD02B
:10348000084670BD19688906FBD51968C1F3C101EA
:10349000C84070BD3A4870BD3749374D18310C1DD2
:1034A00024350A68096826682D6802F0030406F0CE
:1034B0000102C1F30511C5F3CC0515FB02F200EEC4
:1034C000102AB8EE400AE9B32F4ADFED2E0AB7EE14
:1034D000001A6CB1DFED2D1A012C01D0022C43D063
:1034E00002EE101A1068F8EE422A81EEA22A1EE0BF
:1034F0001C68A40611D51B6801EE901A1168C3F36D
:10350000C103F8EE612AD84001EE900AC1F3080029
:10351000F8EE611A81EEA22A0BE001EE901ADFEDBF
:103520001C2A00BFF8EE611A106882EEA12AC0F3CF
:10353000080001EE900AF8EE611A40EE201A31EE12
:10354000810A00E015E022EE000A1068C0F3462070
:10355000401C00EE900AF8EE600A80EE201ABCEEE5
:10356000C10A10EE100A70BD01EE901ADFED092AB3
:10357000D8E7002070BD0000104402580090D0032E
:1035800040787D0100000039304402580024744A1C
:103590000024744C20BCBE4B2DE9F05F04007DD0AC
:1035A000FF4F2078FE4D1837DFF8F493103DC00729
:1035B00048D0D9F80000396800F03800102815D03C
:1035C000182803D101F0030002280FD06068B0F57D
:1035D000803F12D010B1B0F5A02F18D0286820F489
:1035E00080302860286820F4802009E02868800363
:1035F00028D560680028D2D024E0286840F48030C4
:103600002860606888B1FDF7AFFC064609E02868CD
:1036100040F480202860F0E7FDF7A6FC801B6428BA
:103620006FD828688003F7D50CE0FDF79DFC0646AF
:1036300005E000BFFDF798FC801B6428F0D82868DF
:103640008003F7D4207841F20308D54E0C3E800762
:1036500069D5D9F80000396810F038000ED0182864
:1036600001D188070AD0E06890B3296821F01901D8
:1036700001432960FDF778FC824631E02868400765
:1036800002D5E06800288AD0E168286820F0190097
:1036900008432860FDF768FC824607E0DFE000BFD2
:1036A000FDF762FCA0EB0A000228B9D828684007A1
:1036B000F6D500BFFDF752FC40451BD820694028D5
:1036C00012D0316821F47C3141EA003030602AE0C8
:1036D00018E000BFFDF748FCA0EB0A0002289FD8C5
:1036E00028684007F6D5E5E7306820F47C3040F4E0
:1036F0000030EBE7207C316821F0FE4141EA0060B8
:10370000E4E70DE1286820F001002860FDF72CFCBB
:10371000824605E0FDF728FCA0EB0A0002288DD8C0
:1037200028684007F6D42078C0065DD5D9F8000097
:10373000DFF86CB2396800F03800ABF1040B0828F0
:1037400010D0182803D101F0030001280AD0E06945
:103750000028286838D040F080002860FDF704FC7D
:10376000824623E02868C00523D5E069802876D109
:103770001FE0206A202821D0316821F0F84141EA79
:103780008060306030E000BF94F82010DBF800204B
:1037900022F07C5242EA0161CBF8001024E000BF25
:1037A000FDF7E2FBA0EB0A00022898D82868C005C4
:1037B000F6D5FDF7D3FB4045E6D8DAE7306820F0D0
:1037C000F84040F08040DCE720F080002860FDF702
:1037D000CBFB064605E000BFFDF7C6FB801B0228B9
:1037E0009DD82868C005F7D42078000729D56C48F3
:1037F0006169643000298046016811D041F00101FF
:103800000160FDF7B1FB064605E000BFFDF7ACFB2C
:10381000801B0228C9D8D8F800008007F6D510E030
:1038200021F001010160FDF79FFB064605E000BFA6
:10383000FDF79AFB801B022872D8D8F80000800799
:10384000F6D42078800623D5A0690028286810D0F7
:1038500040F480502860FDF787FB064605E036E11E
:10386000FDF782FB801B02285AD828688004F7D510
:103870000EE020F480502860FDF776FB064604E059
:10388000FDF772FB801B02284AD828688004F7D411
:10389000207840074FD5DFF80C81D8F8001041F4AC
:1038A0008071C8F80010FDF75FFB064605E000BF19
:1038B000FDF75AFB801B642832D8D8F80000C005F9
:1038C000F6D5374EA068603601280AD008B1052821
:1038D00013D0306820F001003060306820F0040020
:1038E00002E0306840F001003060A06841F2883AA0
:1038F00090B1FDF739FB80460AE0306840F00400E3
:103900003060EEE7FDF730FBA0EB0801514507D82A
:1039100030688007F6D50EE0FDF726FB804607E00D
:1039200084E000BFFDF720FBA0EB080151457DD8E6
:1039300030688007F6D4606AB0B3DFF86480D9F8E5
:10394000001008F120084FF6F87B08F10409C1F3D4
:10395000C2010329A8F1040A69D00228286820F0CE
:103960008070286003D0FDF7FFFA044684E0FDF77D
:10397000FBFA064605E000BFFDF7F6FA801B0228B9
:1039800077D828688001F7D4E26A40F2F3313868CA
:1039900054F8283F884340EA02101843386004E096
:1039A0001044025800480258B5E0217B4346228962
:1039B0004FF4FE0C208A4FF0FE474902267D521E2E
:1039C000401EA1F50071C2F308088AB2761E0CEA07
:1039D000004042EA08020243504607EA06610A43F1
:1039E0001A60DAF8002022F00102CAF80020D9F8A3
:1039F0000020266A22EA0B0242EAC602C9F8002029
:103A0000DAF80010A26921F00C011143CAF8001085
:103A10000168E26921F0020111430160016841F48B
:103A200080310160016841F4003101E021E027E0CC
:103A30000160016841F480210160016841F00101E9
:103A40000160286840F080702860FDF78DFA044618
:103A500005E000BFFDF788FA001B022809D8286896
:103A60008001F7D557E000BFFDF77EFA001B022862
:103A700002D90320BDE8F09F28688001F4D44AE011
:103A800039680128D8F8000021D0A26A01F00303A8
:103A900093421CD1E26AC1F305118A4217D1216B0E
:103AA000C0F30802491E8A4211D1616BC0F346225D
:103AB000491E91420BD1A16BC0F30642491E9142AF
:103AC00005D1E16BC0F30660491E814201D001209F
:103AD000D0E7A16C4E46D9F80000C0F3CC0081427B
:103AE00019D0DAF80000554620F00100CAF80000AD
:103AF000FDF73AFA4FEA0007FDF736FAB842FBD075
:103B0000A26C306820EA0B0040EAC20030602868EE
:103B100040F0010028600020ACE700002DE9F041F2
:103B200004001D4616460F4603D0D4F8880018B18D
:103B300008E00120BDE8F081002084F884002046E0
:103B400000F0BCFC2420C4F888002068016821F043
:103B500001010160A06A10B1204602F0F7F9204689
:103B600002F0D8FA0128E5D0206871050D4A41EA33
:103B70000541836843F4804383602068836823F4AD
:103B800000433B4383602068036813400B4303609A
:103B90002068016841F0010101602046BDE8F04164
:103BA00002F038BAFFFF00FC2DE9F047040029D0ED
:103BB000594A4FF000092068584B594D9042C4F8BB
:103BC000289006D0984204D0A84202D0E1680F297C
:103BD00018D8E1684FF0010AE76B0831C9080AEB11
:103BE00057167143904205D0984203D0A84201D0A5
:103BF000082907D8904203D0984201D0A84204D1A6
:103C0000102902D90120BDE8F08794F8810020B97D
:103C1000204684F8809000F085F8022084F8810026
:103C20002068016821F0010101602068A1698268B3
:103C3000B1F1806F02F4F81110D16268B2F5800F13
:103C400001D01AB10AE0A26B22B107E0A26BB2F177
:103C5000805F03D1026842F48052026060684002D3
:103C600009D5E068072806D32068236D026822F48E
:103C700080721A4303E02068026822F480720260B6
:103C8000A66AE069E26B25683043E3680A431043A3
:103C90001843A860D4E90D02D4E90581636A256957
:103CA0001843D4F820C00A43266810432843A56D62
:103CB000D4E90172D4E9123140EA080040EA0C006C
:103CC00038430843104318432843F060606868B9DC
:103CD0002068816821F4C05141F40061816020684E
:103CE000816821F4C06141F4806181602068016DC8
:103CF00021F0010101656068400206D52068626D0F
:103D0000C16821F000411143C160C4F8849084F877
:103D100081A0002077E7000000300140003800401B
:103D2000003C00402DE9F041B6B00446142130A813
:103D3000FCF7CBFBC0216846FCF7C7FB2C4E0227E3
:103D40002C494FF005082068103E294D0024884278
:103D500023D1811418940020CDE900106846FEF7A5
:103D600007FD08B1FCF717FC286840F48050286074
:103D7000286800F480503590306840F002003060D0
:103D800030683821309130A900F00200CDE931745B
:103D90003394CDE93480184825E01849884224D16D
:103DA000411419940020CDE900106846FEF7E0FCAC
:103DB00008B1FCF7F0FB286840F400502860286840
:103DC00000F400503590306840F0100030603068EA
:103DD0006421309130A900F01000CDE931743394A2
:103DE000CDE934800648FCF79DFF36B0BDE8F08190
:103DF000F0440258003001400004025800340140F1
:103E0000001002582DE9F84F994617468A46044695
:103E1000FDF7AAF8064694F88100012839D1BAF1D5
:103E2000000F7CD0002FFCD094F88000012830D007
:103E3000A26800254FF0010884F88080032184F8EF
:103E40008110C4F88450C4F85CA06566A4F868507A
:103E5000656725672C34B2F5C02FA786E786E5870E
:103E600054F82C0D18D0C16821F4C02141F4003160
:103E7000C160206841686FF30F01394341602068D9
:103E8000016841F0010101606068B0F5800F08D061
:103E90000CE00220BDE8F88F016841F40061016088
:103EA000E7E72068016841F400710160E0680F28CD
:103EB0001CD820E02068416989070BD5E16D0968AD
:103EC0000162E06D001DE065B4F86200401EA4F8D8
:103ED00062000BE0FDF748F8811B494503D3B9F1B7
:103EE000FF3F03D09BE0B9F1000F31D0B4F862007E
:103EF0000028DFD177E007282ED870E020684169DC
:103F000089071DD5B4F8621001290DD9E16B59B1AB
:103F1000E16D09680162E06D001DE06500E07CE094
:103F2000B4F86200801E08E0E16D09880184E06D4C
:103F3000801CE065B4F86200401EA4F862000BE04B
:103F4000FDF712F8811B494503D3B9F1FF3F03D0B8
:103F500065E0B9F1000F62D0B4F862000028CDD15D
:103F600041E02068416989072DD5B4F86210032922
:103F70000CD9E16B402909D9E16D09680162E06D56
:103F8000001DE065B4F86200001F19E0B4F862108B
:103F900001290BD9E16B49B1E16D09880184E06D1C
:103FA000801CE065B4F86200801E09E0E16D0978CC
:103FB00080F82010E06D401CE065B4F86200401EFF
:103FC000A4F862000BE0FCF7CFFF811B494503D347
:103FD000B9F1FF3F03D022E0B9F1000F1FD0B4F8D0
:103FE00062000028BDD100224B46082120460096E1
:103FF00001F0DEFD28B1D4F8840040F02000C4F8C0
:104000008400204601F076FD84F88180D4F8840095
:1040100084F8805000283FF43DAF01203AE7204665
:1040200001F068FDD4F8841084F8805041F4807168
:10403000C4F8841084F8818003202BE77047704710
:1040400070470000F0B590F83C20012A3BD01F4E8D
:10405000012480F83C40022280F83D2002681C4D7B
:104060005368B242D2F808C001D0AA4203D14F68C7
:1040700023F470033B430F6823F070031F43576022
:104080000268B24213D0B2F1804F10D0114B9A4265
:104090000DD0114B9A420AD0104B9A4207D0AA4237
:1040A00005D00F4B9A4202D00E4B9A4204D1896838
:1040B0002CF0800319439160002180F83D4080F886
:1040C0003C100846F0BD0220F0BD00000000014099
:1040D000000401400004004000080040000C0040C3
:1040E000001800400040014010B5040003D094F8CF
:1040F0003D0010B107E0012010BD002084F83C0015
:10410000204600F023F8022084F83D002068211D9D
:1041100001F092FE012084F8480084F83E0084F803
:104120003F0084F8400084F8410084F8420084F89D
:10413000430084F8440084F8450084F8460084F87D
:10414000470084F83D00002010BD000008B500685D
:104150000B49884212D10B48016841F010010160FF
:1041600000680022052100F0100000903620FDF7C5
:10417000D1FCBDE808403620FDF7BEBC08BD0000FC
:1041800000100040E844025890F83D10012901D089
:1041900001207047174A022180F83D100168CB6862
:1041A00043F00103CB600068904214D0B0F1804F1F
:1041B00011D0114988420ED0104988420BD01049C5
:1041C000884208D00F49884205D00F49884202D062
:1041D0000E49884207D181680D4A1140062906D050
:1041E000B1F5803F03D0016841F00101016000207A
:1041F000704700000000014000040040000800403B
:10420000000C004000040140001800400040014044
:104210000700010070472DE9F041044600680027BF
:10422000C6680569A90713D5B10711D5FA1E026141
:1042300001212177206880698007204602D0FFF79E
:10424000E9FF04E000F08BF8204600F089F82777BA
:10425000680716D5700714D5226802206FF0040194
:10426000116120772068806910F4407F204602D0D9
:10427000FFF7D0FF04E000F072F8204600F070F87D
:104280002777280715D5300713D5226804206FF04B
:104290000801116120772068C0698007204602D09C
:1042A000FFF7B8FF04E000F05AF8204600F058F895
:1042B0002777E80616D5F00614D5226808206FF097
:1042C0001001116120772068C06910F4407F2046FA
:1042D00002D0FFF79FFF04E000F041F8204600F015
:1042E0003FF82777E80708D0F00706D021686FF07D
:1042F00001000861204600F035F8280601D4A80422
:1043000008D5300606D521686FF4025008612046B2
:10431000FFF795FEE80508D5300606D521686FF44D
:10432000807008612046FFF789FE680608D5700690
:1043300006D521686FF040000861204600F01CF8A7
:10434000A8060AD5B00608D521686FF020000861DC
:104350002046BDE8F041FFF773BEBDE8F08170472D
:104360007047000000680349884201D1FDF7A4B9F5
:104370007047000000140040704730B590F884107A
:10438000012918D0012280F884202421C0F8881047
:104390000022202401680B680D6823F0005325F0EB
:1043A00001050D60426601680B60C0F8884080F826
:1043B0008420104630BD022030BD70B5044690F810
:1043C000840001281DD0012284F884202420C4F810
:1043D000880020680568026822F0010202602068F7
:1043E000826822F060620A438260204601F08CFD00
:1043F0002268202100201560C4F8881084F8840009
:1044000070BD022070BD70B5044690F8840001288C
:104410001DD0012284F884202420C4F8880020685C
:104420000568026822F0010202602068826822F0BA
:1044300060420A438260204601F066FD2268202126
:1044400000201560C4F8881084F8840070BD022034
:1044500070BD10B5040003D0D4F8880010B107E097
:10446000012010BD002084F88400204600F026F8CA
:104470002420C4F888002068016821F0010101604F
:10448000A06A10B1204601F061FD204601F042FE15
:104490000128E6D02068416821F4904141602068FD
:1044A000816821F02A0181602068016841F00101E2
:1044B00001602046BDE8104001F0ACBDF0B5B7B0DA
:1044C0000446142130A8FCF700F8C0216846FBF729
:1044D000FCFF2D490226206807272A4D0024884228
:1044E00024D100201F940121CDE900106846FEF779
:1044F0003FF908B1FCF74FF822481030016841F04D
:1045000010010160006800F010003590286840F04C
:1045100001002860286830A900F0010035904FF4B0
:10452000C06030901948CDE9316425E018498842CF
:1045300026D100201E940221CDE900106846FEF726
:1045400017F908B1FCF727F80E480830016841F464
:1045500000310160006800F400303590286840F0B8
:1045600008002860286830A900F008003590702005
:1045700030900848CDE93164CDE93347FCF7D2FBF0
:1045800037B0F0BDE044025800100140000002586E
:1045900000440040000C02582DE9F05F0546006819
:1045A0000E46074602F0C3FAC6EB06114FF00708A5
:1045B00040074FF0040905EB810404D507EB4612D0
:1045C000C2F8089539E02868314602F0B0FAC00513
:1045D0004FF0080A08D507EB46124FF48071C2F875
:1045E000081584F84DA02AE02868314602F09FFAA9
:1045F000000707D507EB46120621C2F808A584F884
:104600004D101CE02868314602F091FA400509D5AA
:1046100007EB461209204FF48061C2F8081584F8B0
:104620004D000CE02868314602F081FA00060AD5F8
:1046300007EB46128021C2F8081584F84D803146F8
:10464000286802F08FF92868314602F070FA800578
:104650002868314606D502F085F907EB46114FF47C
:10466000007069E102F063FAC0074FF0200B4FF0D1
:10467000010A4FF000084FD007EB4617C7F808B5FE
:10468000E07E012807D184F81B80D7F8040520F4C8
:104690008030C7F80405A87930B1D7F81015206B21
:1046A000C1F31201401AA06384F84DA05246C4F829
:1046B0004480C7F808A594F8260030B1022804D039
:1046C00003280AD0012808D013E02868314602F0F8
:1046D00049F91020C7F808050BE0D7F8000540F0AD
:1046E0000050C7F800053146284684F84C20FCF7F6
:1046F00043FCA879012807D1208DA16B0144491EF4
:10470000B1FBF0F0C00705D094F83C0080F0010048
:1047100084F83C00BDE8F09F2868314602F007FAB3
:1047200080060CD507EB4611C1F808B5A07E01281C
:10473000F0D184F81BA0032184F84D10C1E0286853
:10474000314602F0F4F980074FF0050B70D507EB06
:1047500046100221C0F8081594F84D20012A16D001
:10476000062A19D0072A1CD0092A1AD0052A33D0C4
:10477000032A5ED0042A79D0082A76D0022AC9D02A
:1047800094F84C2031462846FCF7F6FBC2E784F843
:104790004D1084F84CA0F3E784F84D1084F84CB029
:1047A000EEE7626C84F84D10521C6264022A10D944
:1047B000A27E4146C4F84480012A07D1E1762177E0
:1047C000D0F8041521F48031C0F8041584F84C9019
:1047D000D6E794F826204DE0E27E84F84D10012AB9
:1047E000CED194F82620032A08D084F84C1000BFBC
:1047F00094F82610B9B3022941D0C1E7A26C521C2B
:10480000A264022A11D9626CC4F84880032A84F891
:104810001B8001D284F81CA0D0F8042522F4803239
:10482000C0F8042584F84C90E2E784F84C10A7E720
:1048300036E0E27E84F84D10012AA1D184F84C10B4
:10484000D0F8041541F48031C0F80415D0F80C15E7
:1048500041F04001C0F80C15D0F80C1521F02001F2
:10486000C0F80C15C4E70AE000E011E094F8262037
:1048700084F84D1084F84C100AB1022A80D1D0F887
:10488000001521F0804141F00041C0F8001577E7A4
:10489000606C84F84D1084F84C90401C60646FE7A5
:1048A0002868314602F043F9400610D507EB46125E
:1048B0004021C2F8081584F84DB0A07E08B9C4F8AC
:1048C000448031462868BDE8F05F02F04BB82868A4
:1048D000314602F02CF9C0067FF558AF94F8260057
:1048E000032803D028B1022803D00FE0C4F8448085
:1048F00006E0C4F84480A87910B1E07E012818D100
:1049000084F84D903146286802F02CF8E07E0128AA
:104910000FD107EB461084F81B80D0F8041521F462
:104920008031C0F80415D0F80C1541F02001C0F812
:104930000C15102007EB4611C1F80805EAE6000047
:104940002DE9F05F054600680F46064602F0EFF8D5
:10495000C7EB07114FF0040A400705EB810404D5AB
:104960000720514606EB471289E02868394602F0D5
:10497000DEF880064FF000084FF001094FF0020BFF
:1049800028D506EB471120200326C1F80805607ED4
:10499000012809D184F81980394684F84CB084F88C
:1049A0004D60286801F0DEFFA07E012810D1E07E76
:1049B00000280DD194F82600012801D084F81B901E
:1049C000394684F84D60286801F0CCFFC4F8448073
:1049D000BDE8F09F2868394602F0A9F8800506D5A1
:1049E00006EB47114FF40070C1F808054BE028684A
:1049F000394602F09CF8C00720D0C4F844803946FC
:104A0000286802F094F8400606D506EB471284F8B1
:104A100019904020C2F80805E07E48B106EB471027
:104A200084F81B80D0F8041521F48031C0F80415F7
:104A300006EB47114846C1F8089522E02868394638
:104A400002F075F8400610D5A17E052084F84D00CF
:104A500009B984F819903946C4F84480286801F0EF
:104A600081FF402006EB47112AE02868394602F012
:104A70005EF800070DD50821062006EB4712C2F8A4
:104A8000081584F84D0039462868BDE8F05F01F04C
:104A900069BF2868394602F04AF8C00613D5627E1D
:104AA000C4F8448084F84DA01AB9207E08B984F86F
:104AB00019903946286801F055FF102006EB471180
:104AC000C1F8080584E72868394602F030F8000686
:104AD0001ED5A87970B1606C401C6064022811D9A1
:104AE000C4F8448052463946284684F84CA0FCF766
:104AF00043FA09E0072084F84D002868394601F0A0
:104B000031FF01E084F84CB0802006EB4711D7E775
:104B10002868394602F00BF840050BD5092084F8C7
:104B20004D002868394601F01DFF06EB47114FF490
:104B30008060C5E72868394601F0F9FF8007C1D5D4
:104B400006EB47125846C2F808B594F84D100129F3
:104B500017D003293AD0042941D005294FD006297E
:104B600050D0072901D00929ACD1616C84F84D00DF
:104B7000491C616402294BD9C4F8448084F84CA0D4
:104B800050E094F8261084F84D00022984F84C90E7
:104B900001D0032946D1A87928B994F83D0080F0C6
:104BA000010084F83D00A87901283BD1606B28B34F
:104BB000218D0844401EB0FBF1F0C00732D094F8BC
:104BC0003D0080F0010084F83D002BE0E17E84F898
:104BD0004D00012926D100BF84F84C0022E0E17E7F
:104BE00084F84D00012984F84C001BD184F81B8007
:104BF000D2F8040520F48030C2F8040512E084F8ED
:104C00004D00E9E784F84D00052184F84C1009E0D7
:104C100084F84C00D2F8000520F0804040F00040BD
:104C2000C2F8000594F84C2039462846FCF7A4F950
:104C3000CEE67CB504680546D4F840040190D4F86B
:104C4000400420F02E0000900198800709D50198BB
:104C5000C00702D02846FCF78DF9009840F002000A
:104C600000900198000724D5009840F008000090BB
:104C7000019840071AD5687A022803D0E8790128FC
:104C80000CD00FE00198C0F341400228286803D0FF
:104C9000012101F02FFF05E00221FAE74EF6602026
:104CA000C4F804042846FCF78EFA02E02846FCF714
:104CB00089FA01988006009802D540F02000009003
:104CC000C4F840047CBD2DE9F04102460068016A49
:104CD000074601F00F06C1F34343022BC1F30A1547
:104CE0002FD1002D2DD0C6EB061102EB8104E16A15
:104CF000002926D0D4E90D322A449A4223D82A46E4
:104D000001F049FFE16A07EB46102944E162A16B1B
:104D10002944A163D0F81015228DAA42C1F3C941DC
:104D20000FD100290DD0D0F8001521F0804141F0BD
:104D30000041C0F8001594F83C0080F0010084F8B0
:104D40003C00BDE8F081042084F84C00F9E7FEE760
:104D500001688A69D243920701D400228A620068FE
:104D60008169C943C90703D0816941F001018161AB
:104D7000704700002DE9F047044600680026894688
:104D800017464FF0200835468169C90641D51021E4
:104D9000C1612FE0B9F1FF3F2CD0FCF7E5F8C11B52
:104DA000494502D8B9F1000F24D12068426894F82F
:104DB0004210836902F48042DB431B0415D4B2F530
:104DC000804F12D0202910D0416841F480414160C9
:104DD000FCF7CAF8074608E0FCF7C6F8C01B19281C
:104DE00003D9012645F0200504E020688069C0430E
:104DF0008006F1D420688069C043800602D5002E69
:104E0000C8D003E016B92168C1F81C80012645F01E
:104E1000040521688869C20505D54FF48072CA610E
:104E200045F00105012641050AD5216880054FF4AA
:104E3000806245F00805CA614FF0010602D40AE01D
:104E4000800507D5206801264FF4007145F0020562
:104E5000C16100E08EB12046FFF77AFF2068002193
:104E6000074F43683B404360606C2843606484F8AC
:104E7000418084F8421084F840103046BDE8F08745
:104E800000E800FE70B50068C1F3090141EA024183
:104E9000074D049C19434FF480664268214306EA9B
:104EA00054532B439A4321F000410A43426070BDA2
:104EB000FF63FF032DE9F0411D4617460E460446E9
:104EC000DDF8188028E0424629462046FFF752FFC9
:104ED00010B10120BDE8F081681C1DD0FCF744F83A
:104EE000A0EB0800A84200D8B5B92068806936EA6E
:104EF00000000FD00020B8420ED1626C002084F870
:104F00004000202142F02002626484F8411084F8BD
:104F10004200DEE70120EEE72068806936EA000003
:104F200004D00020B842CED00020D3E70120F9E71A
:104F30002DE9F0470026914620278846044635464D
:104F40003DE04A4641462046FFF714FF00B10125E7
:104F500020688169C943890619D4C5B98169816905
:104F6000C943C90612D41021C161042219496264DF
:104F700001252068C761206842680A40426084F8C1
:104F8000417084F8426084F8406000E06664FBF79A
:104F9000EBFFA0EB0901414502D8B8F1000F0ED19B
:104FA0006DB920688069C043400708D5606C012551
:104FB00084F8406040F02000606484F8417020680C
:104FC0008069C043400701D5002DBAD02846BDE80E
:104FD000F087000000E800FE70B516460D46044656
:104FE0001FE0324629462046FFF7C4FE08B10120E3
:104FF00070BDFBF7B9FF801BA84200D88DB92068AF
:105000008069C04380060CD5626C002084F84000A3
:10501000202142F02002626484F8411084F84200AA
:10502000E5E720688069C0438006DAD4002070BDBF
:1050300070B516460D46044621E032462946204604
:10504000FFF798FE08B1012070BD681C17D0FBF770
:105050008BFF801BA84200D88DB920688069C043AF
:1050600080070CD5626C002084F84000202142F0BB
:105070002002626484F8411084F84200E3E720686B
:105080008069C0438007D8D4002070BD10B5094C9A
:10509000002208212046FBF75BFFC820FBF7CAFC73
:1050A000012220460821FBF753FFBDE81040C8202D
:1050B000FBF7C0BC001002580148FCF77ABB0000A7
:1050C0000CB604240A480021084B012210B50360E5
:1050D00001714171416102628161FBF79FFB002810
:1050E00003D0BDE81040FBF756BA10BD004C025883
:1050F00038040024104802220E4B002110B5036032
:10510000C0E90112C160C0E91112C16401654165C5
:105110008165C165FBF736FC08B1FBF73CFA064830
:105120000121FBF7CBFB002803D0BDE81040FBF7C3
:1051300032BA10BD001000525C0400241748002150
:1051400070B5154D02240560012381601025C160F2
:1051500004220174417481744561C0E90634C0E9D8
:1051600008438362C362C0E90C318163C163C0E953
:105170001012C0E91212C0E914128165C1650166FE
:10518000C0E91912FBF768FC002803D0BDE87040A5
:10519000FBF701BA70BD000000A00040C404002469
:1051A0002DE9F04F87B014216846FBF78EF955487A
:1051B000016841F010010160016801F010010591E2
:1051C000016841F080010160016801F080010591F2
:1051D000016841F004010160016801F004010591DA
:1051E000016841F001010160016801F001010591D0
:1051F000016841F002010160016801F002010591BE
:10520000016841F00801016000680122DFF8F8B090
:10521000192100F0080005905846FBF799FEDFF8C9
:10522000EC80002201214046FBF792FEDFF8E0907F
:1052300001224FF441514846FBF78AFEDFF8D4A023
:105240004FF48047002239465046FBF781FE012487
:10525000694600250920CDE90004CDE902455846FC
:10526000FBF760FD10206946CDE900045846029422
:105270000394FBF757FD00946946CDE9014540468C
:105280000395FBF74FFD0226009603206946CDE902
:1052900001054046FBF746FD20206946CDE90005A3
:1052A0001D480295FBF73EFD4FF440506946CDE99D
:1052B0000004484602940394FBF734FD00976946C6
:1052C000CDE9014550460395FBF72CFDE003694607
:1052D000CDE9000550460295FBF724FD40206946C4
:1052E000CDE90004CDE902454846FBF71BFD0096D9
:1052F0006946CDE901545846FBF714FD07B0BDE8F7
:10530000F08F0000E04402580010025800000258DC
:1053100000040258000C02580008025813480021EB
:1053200010B5114C0123124A0460C0E90121C0E903
:10533000033141618161C1610162FBF79DFF08B1E9
:10534000FBF729F909480021FBF73FFF08B1FBF7FC
:1053500022F906480021FBF764FF002803D0BDE8CE
:105360001040FBF718B910BD005C00406405002434
:10537000B17570301348002110B5114C0123124A49
:105380000460C0E90121C0E9033141618161C1616B
:105390000162FBF771FF08B1FBF7FDF80948002136
:1053A000FBF713FF08B1FBF7F6F806480021FBF7FF
:1053B00038FF002803D0BDE81040FBF7ECB810BD63
:1053C000001C0058B8050024B1757030F0B58DB0E0
:1053D00034216846FBF779F817480022154E01235F
:1053E00004241D07C0E9006282604FF4A276C26007
:1053F00040F25312056140F2F31543614FF4F27726
:10540000C0E90634C0E90B2500F12002FF2182E843
:10541000D00080F8341080F8351080F83610FCF792
:105420002DFA08B1FBF7B7F80549044808600DB03C
:10543000F0BD0000001000500CB604240C0600243F
:10544000080000240D48002170B501220A4B802578
:10545000C0E90221FF24C0E90421C0E90615016268
:10546000C0E90034FCF76AFF002803D0BDE87040B3
:10547000FBF791B870BD000000500052B4B6042490
:1054800070B5144803224FF48004114D002123010C
:10549000C0E9021201611A01C0E90513C16101628C
:1054A00041628162C162C0E90D21C163016441644E
:1054B0008164C164016541658165C0E90054FEF7FE
:1054C00073FB002803D0BDE87040FBF764B870BDE3
:1054D0000030014000B704241548082270B50021AF
:1054E000124ED405C0E9021201614FF0A043C0E999
:1054F0000514C0E907314162D20681624FF480058C
:10550000C162C0E90D21C163016441648164C16469
:10551000016541658165C0E90065FEF745FB00282E
:1055200003D0BDE87040FBF736B870BD00340140D1
:1055300088B704243EB51048002440F2E7320D4DF0
:10554000EF2300940194802102948161C0E902421A
:10555000C0E90053FEF7C8FD08B1FBF71CF8064888
:10556000694600940294FEF76DFD002801D0FBF718
:1055700012F83EBD0010004010B804241848002165
:1055800010B5164C0C224FF4E1330460C0E9013130
:10559000C160C0E904128161C1610162416281623E
:1055A000FEF757FF08B1FAF7F6FF0D480021FEF7A6
:1055B0002AFF08B1FAF7EFFF09480021FEF7FDFEC8
:1055C00008B1FAF7E8FF0648FEF7D7FE002803D037
:1055D000BDE81040FAF7DFBF10BD00000010014029
:1055E0005CB804241948002110B5174C4FF4E1337E
:1055F0000C220460C0E90131C1600B46C0E904120D
:1056000081610A46C161016241628162FEF786FAE8
:1056100008B1FAF7C0FF0D480021FEF7F4FE08B10B
:10562000FAF7B9FF09480021FEF7C7FE08B1FAF7FB
:10563000B2FF0648FEF7A1FE002803D0BDE81040E7
:10564000FAF7A9BF10BD000000440040F0B80424E0
:105650000D48092310B50B4C022200210460037190
:10566000C271817142728172C1720173417381731F
:10567000C173FCF775FD002803D0BDE81040FAF7B0
:105680008ABF10BD0000084084B904240C481023D0
:1056900070B50A4A01240260002143710225C471D9
:1056A000817145728172C1720174FBF708FD002897
:1056B00003D0BDE87040FAF76EBF70BD0000044033
:1056C00068BE0424FEE7FEE70148FCF77DBA00004F
:1056D00084B904240148FBF751BC000068BE0424CF
:1056E0002DE9F041044680790D46202723680128E2
:1056F0004FF4004604F29C4203EB4511D3F840C03E
:10570000D1F8080B09D0DFF89CE0F4453AD1020447
:1057100033D500BFC1F8086B40E0234B5FEA007E41
:1057200004D59C453AD90004F4D437E05FEA806E92
:1057300002D5C1F8087B31E010F0280F2ED19C452E
:1057400001D90004E6D4D1F8101B05EBC50004EB29
:105750008000C1F31201D0F87432A3EB0101C0F84C
:10576000681200F51570ADB903691BB1C268114428
:10577000C1600FE0206801210AE080060AD5C1F867
:10578000087B07E035B9D4F8640218B9002118463F
:1057900001F022F82046E9B2FCF705FA0020BDE846
:1057A000F08100000A31544F0A30544F2DE9F84F70
:1057B0000E460568814601EBC60100EB8104D4E981
:1057C00009201434904202D90120BDE8F88FA16865
:1057D000101A814200D20846C01C05EB4618870803
:1057E0001BE000BFA268A0EB010A524500D292461E
:1057F00099F806100AF1030000911FFA8AF3E16894
:1058000087082846F2B201F089FAE16801EB0A0044
:10581000E060616901EB0A006061D8F8180980B2A4
:10582000B84205D3D4E90401814201D20028D9D17C
:10583000D4E90401884208D8D5F83418012006F0CC
:105840000F0290408143C5F834180020BDE72DE9D0
:10585000F041984616460F460446069D08E0681C2F
:1058600006D0FBF781FBA0EB0800A8420AD84DB197
:1058700020688068384000D00120B042EFD100207D
:10588000BDE8F081042084F84100606C40F0010024
:1058900060640120F4E7022A09D3531C07D00023D7
:1058A000036043608360C0E9031201207047002059
:1058B000704700002DE9F047454D044689464FF0FA
:1058C000000A2868C04380070AD0414E283E30684D
:1058D00020F080603060FBF747FB0746B04608E0E9
:1058E0000120BDE8F08700BFFBF73EFBC01B02288C
:1058F00067D8D8F800000001F6D4206829684FF472
:10590000FE0721F47C313E0241EA00302860207A13
:10591000A389B4F804C040022D4D2D495B1E227CA2
:10592000ACF1010C1035091DA0F5007080B2521EBB
:10593000CCF3080C07EA034340EA0C00184306EADC
:105940000262104328600868626920F0C0001043BA
:1059500008600A68A06922F0200202430A60281D3C
:105960000A6822F010020A6002684FF6F873E469D0
:105970009A4342EAC40202600868B9F1000F40F09D
:1059800010020A6011D00868B9F1010F11D040F47B
:1059900000100860D8F80000444640F08060C8F865
:1059A0000000FBF7E1FA05460DE0086840F400202E
:1059B000EFE740F48010ECE7FBF7D6FA401B022833
:1059C00001D903208DE720680001F5D5504688E70E
:1059D000284402582DE9F047454D044689464FF0CA
:1059E000000A2868C04380070AD0414E283E30682C
:1059F00020F080503060FBF7B7FA0746B04608E069
:105A00000120BDE8F08700BFFBF7AEFAC01B0228FB
:105A100067D8D8F800008000F6D4208829684FF4B1
:105A2000FE0721F07C713E0241EA00502860207A96
:105A3000A389B4F804C040022D4D2D495B1E227C81
:105A4000ACF1010C1835091DA0F5007080B2521E92
:105A5000CCF3080C07EA034340EA0C00184306EABB
:105A60000262104328600868626920F440601043B5
:105A700008600A68A06922F4007202430A60281DC7
:105A80000A6822F480720A6002684FF6F873E469CB
:105A90009A4342EAC40202600868B9F1000F40F478
:105AA00080720A6011D00868B9F1010F11D040F07E
:105AB00080700860D8F80000444640F08050C8F874
:105AC0000000FBF751FA05460DE0086840F480003D
:105AD000EFE740F40000ECE7FBF746FA401B022832
