:020000040800F2
:10000000E0710624C10010089D2700089F22000807
:100010009D31100861030008CB3910080000000072
:1000200000000000000000000000000001001008B7
:10003000EB011008000000005D0010082D2B0008E7
:10004000DB001008DB001008DB001008DB001008E4
:10005000DB001008DB001008DB001008DB001008D4
:10006000DB001008DB001008DB001008DB001008C4
:10007000DB001008DB001008DB001008DB001008B4
:10008000DB001008DB001008DB001008DB001008A4
:10009000DB001008DB001008DB001008DB00100894
:1000A000DB001008DB001008DB001008DB00100884
:1000B000DB001008DB001008DB001008DB00100874
:1000C000DB001008DB001008DB001008DB00100864
:1000D000DB001008DB001008DB001008DB00100854
:1000E000DB001008DB00100800000000DB00100837
:1000F000DB001008DB001008DB001008DB00100834
:10010000DB001008DB001008DB001008DB00100823
:10011000DB001008DB001008F1331008D52C0008B4
:10012000DB001008DB001008DB001008DB00100803
:10013000DB001008DB001008DB001008DB001008F3
:1001400000000000000000000000000000000000AF
:10015000DB001008DB001008DB001008DB001008D3
:10016000DB001008DB001008DB001008DB001008C3
:10017000DB001008A1270008DB001008DB001008D6
:10018000DB001008DB001008DB001008DB001008A3
:10019000DB001008DB001008DB001008DB00100893
:1001A000F12C1008DB00100865030008DB001008C4
:1001B000DB001008DB001008DB001008DB00100873
:1001C000DB001008DB001008DB001008DB00100863
:1001D000DB001008A1311008DB001008DB0010085C
:1001E000DB001008DB001008DB001008DB00100843
:1001F000DB001008DB001008DB001008DB00100833
:10020000DB001008DB001008DB001008DB00100822
:10021000DB001008DB001008DB001008DB00100812
:10022000DB001008DB001008DB00100800000000F5
:10023000DB001008DB00100800000000DB001008E5
:10024000DB001008DB001008DB001008DB001008E2
:10025000DB001008DB001008DB001008DB001008D2
:10026000DB001008DB001008DB001008DB001008C2
:10027000DB001008DB001008DB00100800000000A5
:10028000DB001008DB001008DB0010080000000095
:1002900000000000DB001008DFF80CD000F04EF882
:1002A000004800472D2E0108E07106242DE9F05F7B
:1002B0000546002092469B468846064681464024D5
:1002C0001BE0284641464746224600F027F85346A1
:1002D0005A46C01A914110D3114618462246FFF0E3
:1002E0004AFF2D1A67EB01084F46224601200021E4
:1002F000FFF041FF17EB00094E41201EA4F101045D
:10030000DFDC484631462A464346BDE8F09F421CA2
:1003100010F8011B0029FBD1801A7047202A04DB4A
:10032000203A21FA02F00021704721FA02F3D0406E
:10033000C2F120029140084319467047064C074D10
:1003400006E0E06840F0010394E8070098471034A5
:10035000AC42F6D3FFF7A4FF287E0108587E0108BF
:10036000FEE700000B484168890711D5016889053F
:100370000ED5016821F400710160022181600648F8
:100380000178012904D10021017040680CF040B8C7
:1003900070470000001000529002002472B6FEE781
:1003A0007CB50E46154600210191FF248DF805000D
:1003B000000A8DF8040002230648BA2101AA00941D
:1003C00000F0EAFB0348BB212B463246009400F0C4
:1003D00051FB7CBD4808002410B5040010D0607F9C
:1003E00020B900202077204600F122F80220607713
:1003F000207938B1D4E902122046FFF0EDFF48B170
:10040000012010BD2168104848612068816821F0F2
:10041000180181606079A0B12069216808612068B5
:100420008168626921F06001114381602068816800
:10043000A26921F0800111438160012060770020D2
:1004400010BD4FF0FF30E8E7B71DC104F0B590F8DC
:100450006020012A20D0012780F86070022280F8F5
:100460006120C1EBC10200EB8202138ED56A948F2A
:1004700045EA0346138F28321B0543EA4453224CB6
:100480001E430A2D0AD0092D08D0137B46EA0363C8
:1004900049B10B2D1AD01DE00220F0BDD36803F046
:1004A0007F433343F4E701684D6AA5431D434D6222
:1004B00003681168996151680A2901D009291BD183
:1004C000D168026821F07F41916215E0118B0F4CD9
:1004D00043EA81430168CD69A5431D43CD610368AB
:1004E0001168196151680A2901D0092904D1D1681C
:1004F000026821F07F41116280F86170002180F86C
:1005000060100846F0BD00000F0033FF0F003FFFF2
:100510002DE9F84F694C00224FF0B04A4FF0010B23
:100520004FF003084FF00F09C0E00BFA02F633401A
:1005300073D00D7905F00305012D01D0022D15D1E1
:100540008768550008FA05FC27EA0C07D1F80CC0AB
:100550000CFA05FC4CEA070CC0F808C04568B54326
:100560000E79C6F3001696402E4346600D79ED4392
:10057000AD0708D0C668550008FA05F7BE438F6876
:10058000AF403743C7600D7905F00305022D11D147
:10059000D50800EB85073E6A5507ED0E09FA05FC04
:1005A00026EA0C06D1F810C00CFA05FC4CEA060C41
:1005B000C7F820C00668550008FA05F7BE430F7952
:1005C00007F00307AF40374307604D6815F4403F1D
:1005D0006BD03B4D2E6846F002062E602D6822F04F
:1005E000030606F1B04605F002050095D6F808743A
:1005F00095074FEA157C09FA0CF5AF43314DA84237
:1006000001D100252EE0304DA84201D1012529E07D
:100610002E4DA84202D1022524E046E02C4DA842EE
:1006200001D103251EE02B4DA84201D1042519E07C
:10063000294DA84201D1052514E0284DA84201D139
:1006400006250FE0264DA84201D107250AE0254DD9
:10065000A84201D1082505E0234DA84201D1092572
:1006600000E00A2505FA0CF53D43C6F80854DAF80F
:10067000005056464F689D43FF0200D51D4335602C
:1006800075684F689D43BF0200D51D43756065685E
:100690004E689D43B60300D51D43656025684E68CE
:1006A0009D43F60300D51D432560521C0B6833FAA9
:1006B00002F57FF43AAFBDE8F88F000080000058E3
:1006C000F44402580000025800040258000802587E
:1006D000000C02580010025800140258001802586A
:1006E000001C02580020025800240258426921EAE6
:1006F00002030A4043EA0241816170470AB1816105
:1007000070470904FBE7000001488068704700005B
:1007100010000024704770472DE9F041044600683E
:10072000064603F197F8012876D1206803F117F9FE
:10073000002871D0206803F112F9800203D52168E6
:100740004FF400104861206803F109F9C00203D595
:1007500021684FF480104861206803F100F94001DE
:1007600003D521684FF080604861206803F1F7F8F5
:10077000800702D5216802204861206803F1EFF864
:10078000800018D521684FF000504861D6F8400429
:10079000C00710D11021304603F13EF8304602F078
:1007A000D1FD607A022803D12068012103F1ACF861
:1007B000204600F133F8206803F1D1F8C00102D5DA
:1007C000204602F100F9206803F1C9F8000705D5B9
:1007D000204600F125F8216808204861206803F1CF
:1007E000BEF8800123D5206802F03FFE00250746B1
:1007F0004FF0010814E005F00F0108FA01F038424B
:100800000DD006EB4510D0F80005E9B200042046F3
:1008100003D501F119FF02E01CE001F0CDFB6D1CD6
:100820006079A842E7D821684FF0007048612068DD
:1008300003F195F8C043C0060CD42068816921F00B
:1008400010018161204602F108F92068816941F0B8
:1008500010018161BDE8F08138B5040003D094F83F
:10086000D50310B107E0012038BD002084F8D4037F
:10087000204600F025F8032084F8D503206802F113
:10088000C5FF207C8DF8000094E80F0002F06AFCA0
:10089000022560B92068012102F00CFE38B9207CE5
:1008A0008DF8000094E80F0002F1D8FF10B184F831
:1008B000D553D8E7012084F8D503002038BD0000C7
:1008C00010B5B6B00446142130A8FFF032FCC021A8
:1008D0006846FFF02EFC1F492068884238D100216D
:1008E0004FF48020CDE900014FF44010229068467B
:1008F00000F1C4FA08B1FFF751FD00F119FA1648EA
:10090000016841F002010160006830A900F00200B6
:1009100035904FF4404030900220319000203290CA
:1009200033900C2034900D48FFF7F2FD0A48083848
:10093000016841F00071016000680022052100F0AB
:10094000007035904D2000F0A7FB4D2000F1DCF841
:1009500036B010BD00000440E044025800040258C4
:10096000704790F84120202A24D190F84020012A95
:1009700020D0012280F84020242280F84120026803
:10098000136823F0010313600268136823F4805393
:100990001360026813680B43136001680A6842F031
:1009A00001020A60202180F84110002180F84010E7
:1009B000084670470220704770B5040004D094F8D0
:1009C0004100002510B106E0012070BD204684F8EA
:1009D000405000F087F9242084F841002068016825
:1009E00021F0010101602168606820F070600861F9
:1009F0002068816821F400418160E0680128A068D6
:100A000030D040F4044021688860E0680228206803
:100A100041682AD021F40061416020684168144A8D
:100A2000114341602068C16821F40041C160D4E9EC
:100A300004010843A16940EA01202168C860D4E9A3
:100A400007010843216808602068016841F001013E
:100A500001606564202084F84100256384F84250D9
:100A6000002070BD40F40040CDE741F40061D3E7C1
:100A7000008000022DE9F84F044690F841001F461F
:100A80009046DDF828A08B4620287ED194F84000BF
:100A900001287AD0012084F84000FFF735FE0122BA
:100AA000064619230090D103204602F1B7F8E0BBB7
:100AB000222084F84100102084F84200002565645B
:100AC000C4F8248067856563618DFF2730484FF047
:100AD0008078FF294FF0007903D927853A460090A6
:100AE00039E0618D218500903AE05946204602F1B7
:100AF0007DF813E001F0E6FBB8B92068406A616A4E
:100B00000870606A401C6062208D401E80B22085A3
:100B1000618D491E6185618D01B168B1608D32467C
:100B2000514600282046E5D100E002E002F1B4F889
:100B3000D0B10120BDE8F88F002253468021204625
:100B4000009602F16BF80028F3D1608DFF2804D9DC
:100B500027853A4600954346C7E7608D2085009576
:100B60004B4694F82820C0E720682021C161206806
:100B70004268084B1A40426084F8411084F84250A1
:100B8000002084F84050D5E7FFE70220D2E70000BC
:100B90000024008000E800FE2DE9FF4F81B00446EC
:100BA00090F841001F469046DDF838B020287AD1F1
:100BB00094F84000012876D0012084F84000FFF727
:100BC000A3FD0122064619230090D103204602F11D
:100BD00025F8002852D1212084F84100102084F803
:100BE000420000256564C4F8248067856563608DD4
:100BF000FF273A494FF08079FF284FF0007A02D959
:100C00004B46278505E0608D534620850004000C87
:100C100010D0226898F800009062606A401C606200
:100C2000608D401E6085208D401E2085401C0091F7
:100C3000C2B201E0002200910299204601F1D6FFE4
:100C400013E001F093FBC8B9606A216800788862FC
:100C5000606A401C6062608D401E6085208D401E71
:100C600080B22085618D01B160B1608D32465946F8
:100C700000282046E5D102F10FF8E0B1012005B0CF
:100C8000BDE8F08F00225B4680212046009601F1EE
:100C9000C5FF0028F2D1608DFF2805D927853A4687
:100CA0004B460095C8E716E0608D534620850095B9
:100CB00094F82820C0E720682021C161206842689C
:100CC000074B1A40426084F8411084F842500020DB
:100CD00084F84050D3E70220D1E7000000200080D4
:100CE00000E800FEF0B5B7B00446142130A8FFF0CC
:100CF00020FAC0216846FFF01CFA38491226206805
:100D00000427374C002588423AD10020219508213C
:100D1000CDE90010684600F1B1F808B1FFF73EFBDD
:100D2000206840F004002060206800F00400359046
:100D3000206840F001002060206830A900F0010028
:100D400035904FF400703090CDE931652548CDE9FC
:100D50003357FFF7DDFB4FF480703090CDE93165FC
:100D6000214830A9CDE93357FFF7D2FB1C480830A2
:100D7000016841F400010160006800F4000029E00E
:100D80001A49884227D1002126951020CDE900017B
:100D9000684600F173F808B1FFF700FB206840F0E7
:100DA00008002060206830A900F0080035904FF45A
:100DB00040503090CDE931650D48CDE93357FFF70C
:100DC000A7FB07481430016841F08001016000680A
:100DD00000F08000359037B0F0BD0000005C0040AE
:100DE000E04402580008025800000258001C005855
:100DF000000C0258024881680278114481607047F3
:100E00001000002410B5102804468AB02CD200220D
:100E10000146372000F040F93720FFF075FE1748F3
:100E200004601748016841F020010160006809A9C9
:100E300000F020000890684600F1F4FC0598B0B17D
:100E400000F0CCFE40000F490F4AB0FBF1F10F4813
:100E5000026040F2E732491E41600021C0E90321EF
:100E6000816000F03CFF28B101200AB010BD00F005
:100E7000B5FEE8E7054800F081FFF6E7140000241E
:100E8000E844025840420F0000140040D8140024E7
:100E9000704700002DE9F041B6B00446142130A897
:100EA000FFF047F9C0216846FFF043F94D4920683B
:100EB00088427DD1002140040E460225CDE9000183
:100EC00001200A900620CDE90B050F20CDE90D5039
:100ED0004FF440600F902802CDE910016846FFF002
:100EE000CDFF08B1FFF75AFA3F48016841F0080109
:100EF0000160006800F0080035903B48001F016861
:100F000041F004010160016801F0040135910168BC
:100F100041F001010160016801F0010135910168B2
:100F200041F002010160016801F0020135910168A0
:100F300041F010010160016801F010013591016874
:100F400041F008010160006830A90E2700F0080098
:100F50003590C12081E8610003242448CDE933475E
:100F6000FFF7D6FA30A9782081E861002048CDE962
:100F70003347FFF7CDFA30A8DFF8788030A980E852
:100F800070000920CDE933404046FFF7C1FA30A98F
:100F90004FF4784081E861001748CDE93347FFF707
:100FA000B7FA30A94FF4706081E86100404600E074
:100FB00015E0CDE93347FFF7ABFA30A94FF4816074
:100FC00081E861000D48CDE93347FFF7A1FA00221F
:100FD0000521582000F060F85820FFF095FD36B04C
:100FE000BDE8F08100100050E444025800080258A7
:100FF000000002580004025800100258000C025869
:1010000070470000134A41781160124908310A689C
:1010100022F001020A600B1F42681A60027BC37A49
:10102000120742EA0362837A42EAC342437B42EAFE
:101030008342837B42EA4342C37B42EA0342437AD0
:1010400042EA0322037A007842EA430202430A603A
:101050007047000098ED00E0BFF35F8F044801681F
:1010600021F480310160024900207031086070472E
:1010700024ED00E0074940F00100086005487038A1
:10108000016841F480310160BFF34F8FBFF36F8F70
:101090007047000094ED00E00E4BF0B41B68C3F302
:1010A0000223C3F10704042C00D904241D1D072DBD
:1010B00001D2002300E0DB1E012606FA04F56D1EB6
:1010C0000D409D409E40761E164045EA0601F0BC4C
:1010D00002F17CBC0CED00E001680122C0F8D824CC
:1010E000002280F8CC24886940F000608861486D57
:1010F000024A1043486500207047000003000010BA
:10110000704770472DE9F84F05680446284602F1FC
:10111000A1FB00287DD1206802F121FC002878D0B5
:10112000D5F80808C0F30D20C4F8D404206802F1F3
:1011300016FC800704D52068416901F00201416175
:10114000206802F10CFCC10604F29C40009034D5EA
:101150002068816921F0100181612F6A07F00F007A
:1011600000EBC00004EB8006C7F34340022806F5FD
:10117000157602D0062811D01AE047F6F070074223
:1011800016D0C7F30A12F1681746284602F1EBFBA6
:10119000F0683844F0607069384408E0009908222B
:1011A000284602F1E0FB7069C7F30A110844706138
:1011B0002068816941F010018161206802F1CFFB54
:1011C00000034FF0010A7AD52068002602F1B8FB2F
:1011D000DFF8B0B480466FE05FEAC87069D020687D
:1011E000F1B202F1B4FB0746C00707D005EB461188
:1011F000C1F808AB3146204601F0D8FA380722D5AD
:1012000005EB46110820C1F8080B2068D0F8409083
:1012100000E035E200EB4610D0F8082BD94505D99F
:10122000110403D54FF40041C0F8081B2046FFF01D
:1012300056FDD94507D9A079012804D1206801219C
:10124000009A02F005F8F80604D505EB46111020C7
:10125000C1F8080BB8071DD56869000605D5D5F893
:10126000040840F48061C5F8041806EBC60004EBDE
:10127000800090F8571200F51570012905D1002162
:10128000C1702046F1B2FFF071FC05EB461102205F
:10129000C1F8080BB80604D505EB46102021C0F8AC
:1012A000081BB80405D505EB46104FF40051C0F8F3
:1012B000081B761C4FEA5808B8F1000F8CD1206843
:1012C00002F14DFB40036DD5206802F0DAF80026EC
:1012D000804664E05FEAC8705ED02068F1B202F038
:1012E000D7F80746C00723D006F00F020AFA02F02B
:1012F000D5F834288243C5F8342805EB4610C0F8E9
:1013000008A9A07901280FD106EBC60004EB8000E4
:10131000D0E907211144016236B9606A20B920681A
:101320000121009A01F094FF2046F1B2FFF00DFC7C
:10133000380704D505EB46110820C1F80809F8065E
:1013400004D505EB46111020C1F80809780604D52C
:1013500005EB46104021C0F80819B80716D53146EC
:10136000284602F159FA06EBC60004EB8000C17D65
:101370001430012905D10021C1702046F1B200F0DE
:1013800083F905EB46110220C1F80809380603D598
:101390003146204601F070FA761C4FEA5808B8F141
:1013A000000F97D1206802F1DAFA002811DAD5F897
:1013B000040820F00101C5F8041894F8CC040128B1
:1013C0003BD02046FFF08AFC2068416901F00041D3
:1013D0004161206802F1C3FA00050BD5D5F8080871
:1013E000C00702D0204600F052F92068416901F49C
:1013F00000614161206802F1B2FA00010AD520685B
:10140000416901F00061416194F8CC04E8B12046E3
:1014100000F03DF9206802F1A2FAC00474D5D5F8B5
:10142000040820F00101C5F804182068102102F119
:10143000F3F900214FF67F322DE0002084F8CC0430
:1014400001462046FFF080FBBEE784F8CCA420686C
:10145000406D0121C0F38300C4F8D0042046FFF0A2
:1014600073FBD7E705EB4110C0F80829D0F8003925
:1014700023F40013C0F80039C0F8082BD0F8003B63
:1014800023F40013C0F8003BD0F8003B43F00063A6
:10149000C0F8003B491C20798842E3D8D5F81C08E5
:1014A00040F00111C5F81C18E07B002828460DD03B
:1014B000D0F8840840F00B01C5F88418D5F844082A
:1014C00040F00B012846C5F844180DE0D0F8140888
:1014D00042F22B010843C5F81408D5F8100840F073
:1014E0000B012846C5F81018D0F8000820F4FE615A
:1014F000C5F80018A1792068009A01F0A9FE2068BB
:10150000416901F480514161206802F128FA8004A8
:1015100015D5206802F1B6F8206801F02FFFE071C0
:1015200000F1B0F9E2790146206801F0F1FF2046B0
:1015300000F0ABF82068416901F400514161206876
:1015400002F10DFA000707D5204600F09FF8206849
:10155000416901F008014161206802F100FA0006CA
:1015600015D5A86920F08001A96101260CE006EBE1
:10157000C60004EB800090F85702012803D12046F2
:10158000F1B2FFF0E4FA761C2079B042EFD820687F
:1015900002F1E5F9C0021FD50126574614E005EB1C
:1015A0004610D0F8001906EBC60004EB8000027E5E
:1015B000012A08D1002906DAC775F0B240F080018F
:1015C0002046FFF0C4FA761C2079B042E7D82068A4
:1015D000416901F480114161206802F1C0F9800283
:1015E00031D50120534626E005EB4011D1F8001B10
:1015F00000EBC00204EB820292F85862012E19D16E
:10160000002917DA94F8D46401F4803106F0010659
:10161000B1420FD182F85732A96941F08002AA6124
:101620006969090606D4D5F8040840F40070C5F8C5
:10163000040803E0401C21798142D5D82068416923
:1016400001F400114161206802F189F9400007D5D9
:101650002046FFF755FD2068416901F08041416156
:10166000206802F17CF940070AD5206845686807C0
:1016700002D52046FFF06AFA20684168294341609C
:10168000BDE8F88F0A30544F704770477047704775
:1016900038B50446FFF738F805461CB194F8410008
:1016A00010B107E0012038BD204600F041F841F2BA
:1016B0008830A064206801686FF0FF03A26821F4FD
:1016C000F85103EB022211430160A06C002220219B
:1016D0002B460090204601F169FD0028E3D1E26825
:1016E000E16923790A43216A41EA03610A432168D7
:1016F0000B680D4D2B401A430A60D4E905210A43BB
:1017000021684B68094D2B40258A43EA05431A435B
:101710004A6021680A6842F001020A60002161649F
:10172000012184F8411038BD2FFFFF00FEF8E0FFD3
:1017300070B5B6B00446142130A8FEF0FAFCC02102
:101740006846FEF0F6FC2C492068884251D1002101
:1017500013914FF000700C46CDE900016846FFF090
:101760008DFB08B1FEF71AFE2448016841F4804160
:101770000160006800F48040359020480C3001681A
:1017800041F002010160016801F002013591016838
:1017900041F010010160016801F01001359101680C
:1017A00041F00401016000680926022500F00400F0
:1017B000359004203090CDE93154114830A9CDE95D
:1017C0003346FEF7A5FE4FF4F06030900A20CDE9D5
:1017D000315430A9CDE933400A48FEF799FEA802FA
:1017E0003090CDE93154084830A9CDE93346FEF7B1
:1017F0008FFE36B070BD000000500052D444025835
:1018000000040258001002580008025810B500F1F8
:1018100039F805490968054AC1F30211515C01F024
:101820001F01C84010BD000020440258407101084B
:10183000484910B50A68096802F00302454B1B1DB0
:10184000C1F305311B68434C1434C3F300132468FF
:10185000C4F3CC0414FB03F300EE103AB8EE400AD4
:10186000E9B33C4B9FED3C1A1033F7EE000A62B12E
:10187000DFED3A1A012A01D0022A5ED002EE101AD8
:10188000F8EE422A81EEA22A1AE0324A283A146877
:10189000A4060DD51268C2F3C104314AE24001EE3C
:1018A000902AF8EE612A01EE901AF8EE611A05E02E
:1018B00001EE901ADFED2B2AF8EE611A82EEA12AD2
:1018C0001968C1F3080101EE901A1968F8EE611A5F
:1018D00040EE011A31EEA00A22EE000A00E033E0E9
:1018E000C1F3462101EE101AB8EE411A31EE201A6A
:1018F000C0EE011ABCEEE11A80ED001A1968C1F3BE
:10190000064101EE101AB8EE411A31EE201AC0EE6F
:10191000011ABCEEE11A80ED011A1968C1F30661E3
:1019200001EE101AB8EE411A71EE200A80EE201A6C
:10193000BCEEC10A80ED020A10BD01EE901ADFED87
:101940000A2AF8EE611AB9E700210160416081605E
:1019500010BD000028440258000000390024744AD9
:101960000090D0030024744C20BCBE4B2DE9F05FE6
:1019700004000D467ED0DFF84492D9F8000000F054
:101980000F00A8420CD2D9F8001021F00F01294312
:10199000C9F80010D9F8000000F00F00A84269D182
:1019A0002078874E40070AD52069316801F0700120
:1019B000884204D9316821F07001014331602078F8
:1019C000DFF8008200070CD560694146D8F8002096
:1019D00002F07002904204D90A6822F070020243B9
:1019E0000A602078C0060CD5A0694146D8F80020CE
:1019F00002F4E062904204D90A6822F4E0620243F1
:101A00000A602078DFF8C0B180060CD5E06959463D
:101A1000DBF8002002F07002904204D90A6822F03C
:101A2000700202430A60207880070AD5E0683168B6
:101A300001F00F01884204D9316821F00F01014300
:101A400031602078C0073DD03068A16820F4706014
:101A5000084330605A4960681839022818D00328B2
:101A600019D00968012819D04907002949DADFF897
:101A700050A100E045E0AAF1080ADAF8001021F0D0
:101A800007010143CAF80010FEF73EFE074611E0C9
:101A900009688903E9E709688901E6E7C905E4E718
:101AA000FEF732FEC11B41F28830814202D9032089
:101AB000BDE8F09FDAF80000616800F03800B0EB94
:101AC000C10FEDD1207880070AD5E068316801F0B8
:101AD0000F01884204D2316821F00F0101433160C7
:101AE000D9F80010484601F00F01A9420BD901684E
:101AF00021F00F0129430160006800F00F00A842A7
:101B000001D00120D4E7207840070AD52069316848
:101B100001F07001884204D2316821F07001014364
:101B20003160207800070CD560694146D8F8002064
:101B300002F07002904204D20A6822F0700202435E
:101B40000A602078C0060CD5A0694246D8F800107B
:101B500001F4E061884204D2116821F4E06101439C
:101B60001160207880060CD5E0695946DBF800202A
:101B700002F07002904204D20A6822F0700202431E
:101B80000A60FFF0B3FE3168C1F303220F498A5C9B
:101B900002F01F02D040326802F00F02895C0C4A4A
:101BA00001F01F0120FA01F111600A4908600A489A
:101BB0000068BDE8F05FFFF725B900000020005283
:101BC000184402581C44025820440258407101082D
:101BD000200000241C0000241400002400B5FFF0A5
:101BE00051FE05490968054AC1F30211515C01F033
:101BF0001F01C84000BD00001C440258407101088C
:101C00002DE9F041B6B00446142130A8FEF091FA57
:101C1000C0216846FEF08DFA2C4E02272A494FF06B
:101C200005082068103E294D0024884221D18114E6
:101C300018940020CDE900106846FFF01FF908B1A4
:101C4000FEF7ACFB286840F480502860286800F458
:101C500080503590306840F002003060306830A924
:101C600000F002003590382030901948CDE93174E9
:101C700023E01849884224D1002119944014CDE969
:101C800000016846FFF0FAF808B1FEF787FB286804
:101C900040F400502860286800F400503590306807
:101CA00040F010003060306830A900F0100035902E
:101CB000642030900848CDE93174CDE93348FEF70F
:101CC00027FC36B0BDE8F08100300140F0440258F6
:101CD000000402580034014000100258704710B54B
:101CE000040003D094F83D0010B107E0012010BDBE
:101CF000002084F83C00204600F022F8022084F8FE
:101D00003D002068211D01F179FB012084F8480085
:101D100084F83E0084F83F0084F8400084F84100D5
:101D200084F8420084F8430084F8440084F84500B5
:101D300084F8460084F8470084F83D00002010BD78
:101D400008B500680B49884212D10B48016841F080
:101D50001001016000680022052100F010000090D1
:101D60003620FFF799F9BDE808403620FEF0CCBEDA
:101D700008BD000000100040E844025890F83D10F3
:101D8000012901D001207047022180F83D1001682F
:101D9000CA6842F00102CA6000681349884214D040
:101DA000B0F1804F11D0114988420ED010498842BD
:101DB0000BD01049884208D00F49884205D00F49FE
:101DC000884202D00E49884207D181680D4A1140ED
:101DD000062906D0B1F5803F03D0016841F001012A
:101DE0000160002070470000000001400004004036
:101DF00000080040000C00400004014000180040B2
:101E000000400140070001002DE9F0410446006850
:101E1000C66805694FF00007A90713D5B10711D5AA
:101E2000F91E016101202077206880698007204623
:101E300002D000F117FB04E000F08BF8204600F11F
:101E400012FB2777680716D5700714D521686FF045
:101E500004000861022020772068806910F4407F28
:101E6000204602D000F1FEFA04E000F072F82046AD
:101E700000F1F9FA2777280715D5300713D521681F
:101E80006FF008000861042020772068C06980078F
:101E9000204602D000F1E6FA04E000F05AF82046AD
:101EA00000F1E1FA2777E80616D5F00614D5216887
:101EB0006FF010000861082020772068C06910F4D6
:101EC000407F204602D000F1CDFA04E000F041F856
:101ED000204600F1C8FA2777E80708D0F00706D0B7
:101EE00021686FF001000861204600F033F82806F1
:101EF00001D4A80408D5300606D521686FF4025035
:101F000008612046FFF7EAFEE80508D5300606D549
:101F100021686FF480700861204600F14EFA68066F
:101F200008D5700606D521686FF04000086120468C
:101F300000F022F8A8060AD5B00608D521686FF08F
:101F4000200008612046BDE8F04100F137BABDE845
:101F5000F081704700680649884201D1FEF74ABF08
:101F60000449884202D1012010F0B2BC7047000041
:101F70000014004000100040704790F884100129C0
:101F800018D0012180F884102421C0F8881001683D
:101F90000A680B6823F001030B6022F00051002255
:101FA0004266036819602021C0F8881080F88420F8
:101FB00010467047022070472DE9F05F0546006823
:101FC0000F46064601F055FAC7EB07114FF0040A19
:101FD000400705EB810405D506EB4711C1F808A5BC
:101FE000072089E02868394601F043FA80064FF05F
:101FF00000084FF001094FF0020B28D506EB4711FE
:102000002020C1F808050326607E012809D184F844
:102010001980394684F84CB084F84D60286801F086
:10202000BAF9A07E012810D1E07E00280DD194F8E5
:102030002600012801D084F81B90394684F84D60B1
:10204000286801F0A8F9C4F84480BDE8F09F28682A
:10205000394601F00EFA800506D506EB47114FF41C
:102060000070C1F8080549E02868394601F001FA16
:10207000C00720D0C4F844803946286801F0F9F937
:10208000400606D506EB471184F819904020C1F8A8
:102090000805E07E48B106EB471084F81B80D0F8B5
:1020A000041521F48031C0F8041506EB47114846A9
:1020B000C1F8089520E02868394601F0DAF94006B1
:1020C0000ED5052084F84D00A07E08B984F819903B
:1020D0003946C4F84480286801F05DF9402028E0C2
:1020E0002868394601F0C5F900070DD506EB471100
:1020F0000820C1F80805062084F84D0039462868F4
:10210000BDE8F05F01F047B92868394601F0B1F940
:10211000C00613D5C4F8448084F84DA0607E18B979
:10212000207E08B984F819903946286801F033F9FF
:10213000102006EB4711C1F8080586E728683946E4
:1021400001F097F900061CD5A87970B1606C401CAD
:102150006064022811D9C4F84480524639462846A2
:1021600084F84CA0FEF7D7FA09E0072084F84D0068
:102170002868394601F00FF901E084F84CB080205E
:10218000D7E72868394601F074F9400509D50920D8
:1021900084F84D002868394601F0FDF84FF480605E
:1021A000C7E72868394601F064F98007C5D506EB12
:1021B00047115A46C1F808B594F84D00012817D0C8
:1021C00003283AD0042840D005284ED006284FD006
:1021D000072801D00928B0D184F84D20606C401C3C
:1021E000606402284AD9C4F8448084F84CA04FE0C7
:1021F00084F84D2084F84C9094F82600022801D0F1
:10220000032845D1A87928B994F83D0080F0010051
:1022100084F83D00A87901283AD1606B20B3218D64
:102220000844401EB0FBF1F0C00731D094F83D00E7
:1022300080F0010084F83D002AE084F84D20E07E23
:10224000012825D184F84C2022E084F84D2084F820
:102250004C20E07E01281BD184F81B80D1F80405B6
:1022600020F48030C1F8040512E084F84D20E9E73D
:1022700084F84D20052084F84C0009E084F84C20B7
:10228000D1F8000520F0804040F00040C1F8000582
:1022900094F84C2039462846FEF73DFAD5E6FEE78D
:1022A00001688A69D243920701D400228A620068D9
:1022B0008169C943C90703D0816941F00101816186
:1022C000704700002DE9F047002591460E46044670
:1022D0002F464FF020083CE04A463146204600F1A8
:1022E00001FC00B1012520688169C94389061AD41F
:1022F000CDB981698169C943C90613D41021C1616F
:10230000042060642068C0F81C8020684268164B76
:102310001A40426084F8418084F84270012584F8B4
:10232000407000E06764FEF7EFF9A0EB0900B042EF
:1023300000D876B96DB920688069C043400708D5D8
:10234000606C40F02000606484F84180012584F8CE
:10235000407020688069C043400701D5002DBBD084
:102360002846BDE8F087000000E800FE70B516467C
:102370000D46044621E032462946204600F1B2FBD4
:1023800008B1012070BD681C17D0FEF7BDF9801B95
:10239000A84200D88DB920688069C04380070CD559
:1023A000606C40F020006064202084F84100002030
:1023B00084F8420084F84000E3E720688069C04365
:1023C0008007D8D4002070BD10B5094C0022082128
:1023D0002046FEF793F9C820FEF09CF80122204623
:1023E0000821FEF78BF9BDE81040C820FEF092B836
:1023F00000100258F0B504688B88E568C5F30B45FA
:102400002B441D04882303EBC213E65806F47046E0
:10241000E65004680F68E668C6F30B46761C3E4437
:102420002E43E65003688C89DD68C5F30A052C4409
:1024300025048C2404EBC2141E5906F470461E5168
:1024400003688F68DE68C6F30A06761C3E442E4396
:102450001E510468942303EBC213E55825F00705C9
:10246000E55005680C69EC5091F8313005681F02A1
:1024700091F832301C040B7E1E069C2303EBC21322
:1024800055F803C04FF0000C45F803C091F83050E8
:1024900034433D4325430468E5500468982303EB27
:1024A000C213E55825F0FF05E55005684C69EC506E
:1024B0000468A02303EBC213E55840F20776B54346
:1024C000E550D1E907452C430568EC500468AC237E
:1024D00003EBC213E55844F803C005684C6AEC509E
:1024E0000B698BB3012B32D0042B32D0022B30D0AE
:1024F000032B2ED0072B2CD001230568B02404EB2E
:10250000C2142E5906F0E0262E51D1E90065AD1B0C
:102510000E8D5D435E43ED1D45EA064305682B5174
:102520000468B42303EBC213E5586FF30A05E550C2
:102530000468C96AE1500068842101EBC211425865
:1025400042F001024250F0BDFFE70423D5E7032328
:10255000D3E70223D1E71FB500240094019402942D
:102560000394FEF779FD01208DF80C001F218DF8F2
:10257000081087218DF809108DF80D008DF80000E6
:1025800068468DF80A408DF80E408DF801400194A0
:102590008DF80B408DF80F40FEF734FD0420FEF758
:1025A00069FD1FBD0A48094910B50160002101718C
:1025B00041714161816101210162FDF70DFF002838
:1025C00003D0BDE81040FDF7E9BE10BD004C025835
:1025D000C8060024174810221549022310B50160CF
:1025E00000218160C16001744174817442610122E3
:1025F000C0E90623C0E908328262C262C0E90C2148
:1026000004228163C163C0E91012C0E91212C0E95B
:1026100014128165C1650166C0E91912FDF08CFFD5
:10262000002803D0BDE81040FDF7B8BE10BD000083
:1026300000A000405407002413480122114910B59E
:102640000160124941600021C0E90212016141614B
:102650008161C1610162FEF7AFF908B1FDF79EFE2D
:1026600009480021FEF77DF908B1FDF797FE0648FD
:102670000021FEF0D6F8002803D0BDE81040FDF799
:102680008DBE10BD001C005848080024B0757010A5
:1026900015480322134910B501604FF480014160D1
:1026A0000021C0E902124FF080620161C0E9051209
:1026B000C1611201016241628162C162C0E90D2102
:1026C000C163016441648164C164016541658165E0
:1026D000FFF0A2FC002803D0BDE81040FDF75EBE6D
:1026E00010BD000000300140900900243EB51048A4
:1026F00000240E490094019402940160EF21C0E986
:10270000011440F2E731C16080218161FFF7E7FAEF
:1027100008B1FDF743FE0648694600940294FFF0B5
:102720004FFE002801D0FDF739FE3EBD00100040ED
:10273000A00A002418480C22164910B501604FF475
:10274000E131416000218160C160C0E90412816112
:10275000C161016241628162FFF0D2FE08B1FDF702
:102760001DFE0D480021FFF0A5FE08B1FDF716FE85
:1027700009480021FFF078FE08B1FDF70FFE06487A
:10278000FFF7FBFB002803D0BDE81040FDF706BEB5
:1027900010BD000000100140EC0A0024FEE700001C
:1027A0000148FDF7B9BF0000F81000242DE9F04101
:1027B000066805460C46306C06EB4411D1F8083B20
:1027C0004FF4004795F806C005F29C424FF0200EEA
:1027D000BCF1010F08D0DFF898C0604538D118046B
:1027E00031D5C1F8087B3FE0224E5FEA037C04D577
:1027F000B04239D91804F4D436E05FEA836C02D5CC
:10280000C1F808EB30E013F0280F2DD1B04201D908
:102810001804E6D404EBC400D1F8101B05EB8000CB
:10282000D0F87432C1F31201591AC0F8681200F5D9
:102830001570ACB903691BB1C2681144C1600FE0E7
:10284000286801210AE098060AD5C1F808EB07E0DC
:1028500034B9D5F8640218B90021304600F0F8FC0C
:102860002846E1B2FEF74DFC0020BDE8F0810000F3
:102870000A31544F0A30544F2DE9F84F0E46D0F824
:102880000080814601EBC60100EB8104D4E9091008
:102890001434884202D90120BDE8F88F081AA168D3
:1028A000814200D20846C01C08EB461A870815E092
:1028B000451AA068A84200D20546E81CABB28708BA
:1028C00099F8060000904046E168F2B201F16AF81A
:1028D000E0682844E060606928446061DAF818091B
:1028E00080B2B84205D3D4E90401814201D2002864
:1028F000DED1D4E90401884208D8012006F00F0196
:102900008840D8F834188143C8F834180020C3E749
:10291000022A09D3531C07D000230360436083605D
:10292000C0E9031201207047002070472DE9F047ED
:10293000DFF8088104460E464FF00009D8F8000081
:10294000C043800709D03D4D283D286820F08050C5
:102950002860FDF7D9FE074607E00120BDE8F087B3
:10296000FDF7D2FEC01B022860D828688000F7D48B
:10297000D8F80010228821F07C7141EA0251C8F891
:102980000010207A4FF4FE02A1884002491EA0F5F3
:10299000007080B2C1F308010843A189491E02EA10
:1029A00001410843217C1202491E02EA01610843E9
:1029B0002249183108602148001D0168626921F42C
:1029C0004061114301600168A26921F40071114363
:1029D0000160016821F48071016018491C310A68A6
:1029E0004FF6F8739A43E36942EAC3020A6001684A
:1029F00041F4807101606EB10168012E0ED041F08A
:102A000080710160286840F080502860FDF77CFEEE
:102A100004460DE0016841F48001F2E741F4000151
:102A2000EFE7FDF771FE001B022801D9032095E7AF
:102A300028688000F5D5484690E7000028440258F1
:102A40002DE9F0411C4616460D460746DDF8188074
:102A500009E0FDF759FEA0EB0800A04202D3601C7C
:102A600001D00BE054B13868406935EA000007D066
:102A70000020B042EDD00020BDE8F0810320FBE74C
:102A80000120F6E738B50A4C00221021ADF800000D
:102A90002046FDF733FE0748FF2301226946FFF079
:102AA00073FB012220461021FDF728FE38BD0000EF
:102AB00000100258180A002438B50B4C40F48070FE
:102AC00000221021ADF800002046FDF717FE074850
:102AD000FF2301226946FFF057FB01222046102107
:102AE000FDF70CFE38BD000000100258180A002443
:102AF0004FF40055084C6E1029462046FDF7F6FDB0
:102B0000C82010F1FBF931462046FDF7EFFDC82043
:102B100010F1F4F9F0E700000004025801F172FE30
:102B20000FF1A8FD142010F1E9F9F9E74FF0E020CA
:102B300010B5006911F124FC012803D0BDE8104054
:102B400011F17ABB10BD000030B59DB04C21684634
:102B5000FDF0EFFA202113A8FDF0EBFA0220FEF0C1
:102B6000BFF823480024016821F0010101600068DA
:102B70002048016821F4404141F4004101600168AE
:102B800001F440411B9101688904FCD5212000908B
:102B900005214FF480300190012006900220099019
:102BA000CDE90A016021CDE90C100F21129408250E
:102BB000CDE90E10CDE910546846FEF02FFF08B1A4
:102BC00072B6FEE714A93F201390032081E831007C
:102BD000402017901A900101CDE91801022113A895
:102BE000FEF7C4FE002801D072B6FEE71DB030BD6E
:102BF0002C040058184802582C4810B5016841F4BC
:102C0000700101602A4A106800F00F00072804D202
:102C1000106820F00F00C01D10602649086840F0C1
:102C200001000860234B0020103318600B68224C11
:102C300023400B60136803F00F03072B04D91368BC
:102C400023F00F03DB1D13601A4A18321060121DA7
:102C50001060121D1060174B184A28331A601B1D94
:102C6000174A1A601B1D174A1A601B1D18601B1D8E
:102C70001A601B1D18601B1D1A601A1D10600A685F
:102C800022F480220A600B49603108600E48006817
:102C90006FF30F00B0F1005F03D20C490120C1F8BF
:102CA000080143F2D2000A49086010BD88ED00E037
:102CB00000200052004402587FEDF6EA00020202B2
:102CC0000000FF01800201010010005C0080005143
:102CD000004000520148FFF797B80000D8140024C4
:102CE00010B5016851E8002F22F4907241E80023EA
:102CF000002BF6D10E4B0168083151E8002F1A4025
:102D000041E80024002CF6D1C16E012908D10168E8
:102D100051E8002F22F0100241E80023002BF6D1E9
:102D20002021C0F88C100021C166416710BD000051
:102D3000FEFFFFEF2DE9F043044600680025DFF8B1
:102D4000548387B02269A168E369114362691A4319
:102D500011430268D04B1A400A4302602068416860
:102D6000E26821F44051114341602168A069414566
:102D700001D0226A10438A68C84B1A4002438A6015
:102D80002068C16A626A21F00F011143C162C4491F
:102D90002268C4488A420ED1006800F03800182822
:102DA00073D047DCB8B3082879D010286FD178E009
:102DB00028287ED17BE0BC498A4209D1006800F016
:102DC0000700062875D2DFE800F0546A6C6E707256
:102DD000B6498A4209D1006800F00700062868D287
:102DE000DFE800F0475D5F616365B1498A4209D160
:102DF000006800F0070006285BD2DFE800F03A50D8
:102E000052545658AB498A420BD1006800F0070073
:102E100006284ED200E010E0DFE800F02B414345E9
:102E20004749A5498A420AD1006800F038001828AD
:102E300039D0B7DD2028BBD137E001213AE09F49E6
:102E40008A4209D1006800F00700062831D2DFE885
:102E500000F01026282A2C2E99498A420BD10068AE
:102E600000F00700062824D2DFE800F003191B1D3C
:102E70001F2100211EE042451BD18A48001D006829
:102E800000F00700062814D202E00CE007E010E092
:102E9000DFE800F0030507090B0D02210AE0042119
:102EA00008E0082106E0102104E0202102E0402192
:102EB00000E0802183487B4B4FF4004C824E4FF062
:102EC00000090711543B42454DD1102919D006DCA9
:102ED000022909D004290AD008297DD10CE0202933
:102EE0003DD0402978D13CE0FEF790FC10E06846E8
:102EF000FEF79EFC01980BE003A8FDF021FF04986B
:102F000006E01968890605D51968C1F3C101C840F2
:102F1000002823D0616A36F811206668B0FBF2F110
:102F200006EB46038B4257D8B1EB063F54D800233B
:102F30004F461946FDF7BAF90902020241EA10614B
:102F400070081018324679410023FDF7AFF95F4A47
:102F5000A0F5407191423FD82168C86086E03846AC
:102F6000D8E76046D6E7E2694FF6EF78624545D18B
:102F7000082918D005DC59B101290CD0042974D1D5
:102F80000CE0102914D0202934D040296DD133E031
:102F9000FEF724FE13E0FEF097FC10E06846FEF713
:102FA00047FC01980BE003A8FDF0CAFE049806E078
:102FB0001968890604D51968C1F3C101C84080B3F6
:102FC000616A36F81110B0FBF1F04100606801EB66
:102FD0005001B1FBF0F000E047E0A0F110024245E3
:102FE00043D84FF6F0710140C0F34200014320681E
:102FF000C1603BE03846E3E76046E1E7082919D0C5
:1030000005DC59B101290DD004292ED10DE010297C
:1030100015D0202937D0402927D136E0FEF7DEFD34
:1030200014E023E0FEF050FC10E06846FEF700FCE0
:1030300001980BE003A8FDF083FE049806E01968F0
:10304000890604D51968C1F3C101C84070B1616A2D
:1030500036F81110B0FBF1F1606801EB5001B1FBE3
:10306000F0F0A0F11001414511D901250120A4F88B
:103070006A00A4F868002846C4F87490C4F87890F0
:1030800007B0BDE8F0833846E1E76046DFE780B28D
:1030900062E70000000C0058F369FFCFFFF4FF1156
:1030A00000100140544402580044004000480040D1
:1030B000004C0040005000400014014000780040E7
:1030C000007C00400090D00328710108FFFC0F0035
:1030D0002DE9F0471F4690460D460446089E4FF0E6
:1030E000000932E0701C30D0FDF70EFBC01BB0426F
:1030F00018D8BEB120680168490726D5802D24D094
:10310000402D22D0C169C94309070DD408250562A5
:103110002046FFF7E5FDC4F89050012084F8849024
:10312000BDE8F0870320FBE7C069C04300050CD46D
:1031300021684FF4006008622046FFF7D1FD20208F
:10314000C4F8900084F88490ECE72068C06935EA00
:10315000000004D000204045C4D00020E0E701205A
:10316000F9E7000070B50D460446C2F307201E467D
:103170000499012822D0E06840F04000E060204639
:1031800000F03AF8C6F307210029A16B2DD021F4F5
:103190008031A163C5F3074101290ED1E16D89B2E8
:1031A000E165E16D124A1143E165A16841F0060154
:1031B000A160A16841F02001A16070BDA06B20F466
:1031C0008030A063E0680B4A1040E060E06820F4C3
:1031D0004010E060C8B2012803D1E06840F48010DC
:1031E000E060204600F008F8D4E741F48031D0E7F1
:1031F0000000EE03BFFFBDFF08B500234FF0706273
:1032000000930099491C009191420CD80169002952
:10321000F7DA0093016941F0010101610099491C4D
:103220000091914201D9032008BD0169C907F5D178
:10323000002008BDD0F8001E21F00301C0F8001ED8
:10324000D0F8041841F00201C0F8041800207047BB
:1032500010B5036C134CA34203D9D0F8003B002BEC
:103260001EDB0023C0F8103BD0F8103B43F40023D2
:10327000C0F8103BD0F8103B43F01803C0F8103BE7
:10328000D0F8103B43F0C043C0F8103B012907D1F0
:10329000C0F8142BD0F8001B41F08021C0F8001BAF
:1032A000002010BD0A30544F38B5002200920B7830
:1032B0004D7800EB431442F21073012D19D0D4F86D
:1032C000005B002D3CDAD4F8005B45F00065C4F8E3
:1032D000005B0C7800EB4414D4F8005B45F08045AB
:1032E000C4F8005B009C641C00949C4221D901221C
:1032F00026E0D4F80059002D22DAD4F8005945F020
:103300000065C4F800590C7800EB4414D4F8005957
:1033100045F08045C4F80059009C641C00949C4210
:10332000E5D80C7800EB4414D4F80049002CF3DB0A
:1033300006E00C7800EB4414D4F8004B002CD1DBF1
:10334000104638BD08B500234FF070620093009915
:10335000491C009191420AD801690029F7DA0093CB
:10336000102101610099491C0091914201D903206B
:1033700008BD0169C906F5D4002008BDD0F80808C9
:1033800010F0060004D0022803D0062801D00F2038
:1033900070470220704738B500EB411100220092BF
:1033A000D1F80025D1F80035C2F38142D1F80445A7
:1033B000DB0F8568E40FAD0605D524B93BB3012AC0
:1033C00025D0032A23D04FF47A736AB1022A0BD096
:1033D000D1F8002542F08042C1F80025D0F8100451
:1033E00010F47F0F2BD00CE0D1F8002542F0804282
:1033F000C1F800258268920603D4C06A10F47F0FDA
:1034000007D0D1F8000540F00040C1F800050020C9
:1034100038BDD1F8000520F00040C1F80005D1F812
:10342000000540F00040C1F800050098401C0090E5
:103430009842ECD8D1F800050028F6DBE7E7D1F890
:10344000000520F00040C1F80005D1F8000540F06B
:103450000040C1F800050098401C00909842D6D862
:10346000D1F800050028F6DBD1E7D0F8140480B2CB
:10347000704700EB4110D0F80815D0F80C05084053
:103480007047D0F81818D0F81C08084080B2704770
:1034900010B5D0F81038D0F8342801F00F0400EB44
:1034A0004110E24002F00102D0F8080943EAC212DA
:1034B000104010BD70B50546C068002420F0C04023
:1034C000E860012901D079B120E0E86840F00050BF
:1034D000E8600A20FDF01EF868690A3410F0010F58
:1034E00010D1C82CF5D30DE0E86840F08040E860CA
:1034F0000A20FDF00FF868690A3410F0010F01D0BE
:10350000C82CF5D3C82C01D0002070BD012070BD9F
:10351000022A3ED1264A274B0A449A4201D20F2161
:1035200038E0254A254B0A449A4201D20E2131E067
:10353000234A244B0A449A4201D20D212AE0224A0E
:10354000224B0A449A4201D20C2123E0204A214B0B
:103550000A449A4201D20B211CE01F4A1F4B0A4425
:103560009A4201D20A2115E01D4A1E4B0A449A4292
:103570000FD31D4A1D4B0A449A4201D2082109E08B
:103580001B4A11441B4A914201D2072102E0062145
:1035900000E00921C26822F47052C260C2684FF490
:1035A000705303EA81210A43C26000207047000083
:1035B000405327FF00350C00401E1BFF40420F0008
:1035C00000DC0BFF804F1200808CF9FE20D6130028
:1035D00060B6E5FE60E3160000D3CEFE40771B0028
:1035E000C05BB3FEC091210000CA91FE2075380077
:1035F000E05459FEE09C410002E008C8121F08C1D7
:10360000002AFAD170477047002001E001C1121F63
:10361000002AFBD1704700000848402110B500F196
:103620006CFD074800220A210EF1FEFF054CA06048
:1036300001F038FA0020207010BD00008C630024D7
:103640004D4B000814020024B0F90020B1F90430F9
:103650009A4213DCB0F90420B1F900309A420DDB34
:10366000B0F90220B1F906309A4207DCB0F9060041
:10367000B1F90210884201DB012070470020704739
:103680002DE9FC410546B1F900000F461446B5F995
:10369000001088423BDBB5F90410884237DCB7F9EB
:1036A0000200B5F90210884231DBB5F906108842F4
:1036B0002DDC002C76DD284607F06CFF00EBD07087
:1036C0004610284606F17FFF00EBD070401086427E
:1036D00000DA3046844200DD04462888ADF8000058
:1036E0000022288839462044ADF804006888ADF8E7
:1036F000020068882044ADF806006846FFF7C0FF66
:1037000040B1BDF804002044ADF804003FE00020C3
:10371000BDE8FC81E88800223946001BADF80200B4
:10372000E888ADF806006846FFF7AAFF28B1BDF8A3
:1037300004002044ADF8040011E0A88800223946B6
:10374000001BADF80000A888ADF804006846FFF73C
:1037500097FF50B1BDF80000001BADF80000BDF8A8
:103760000200001BADF8020016E068880022ADF8E8
:103770000200394668882044ADF806006846FFF725
:103780007FFF70B1BDF80000001BADF80000BDF870
:1037900006002044ADF80600394668460DF112FED9
:1037A000B6E7FFE70120B3E7FEB505460EF114FFCB
:1037B000784C0026074600960DB1E86801E008F154
:1037C0006BF9606000690DF011FD6068406908B137
:1037D0000DF00CFD6068C0690DF008FD6068006ABE
:1037E0000DF004FD60680169F1B30DF17DFE0DF08F
:1037F00093FE6068B0F8501199B30168097C89079D
:1038000015D508F169F9401E05B2606808F018FE88
:10381000401E009503B2002201A8114607F0D3FE16
:10382000606801A90268926B516002F0C7FB606892
:103830004FF4807130300BF030FC6068202100F5CF
:1038400098700BF02AFC6068A0F8506138460FF0C1
:1038500038F8009060680068436A13B122680099E4
:1038600098470BF085FB00E007E000F0B7F800F0A8
:103870009FF8494F7D691DB149E0A0F85061FEBD38
:1038800008F10AF908F10EF90AF17CFE002205465A
:103890007F210DF039FC00221146104608F044FC4F
:1038A00001900022BDF8041028460DF021FCFF22F3
:1038B0001146104608F038FC01900022BDF80410B3
:1038C00028460DF11BFD0022284603210DF04CFC7B
:1038D0000022284603210DF1FFFC00222846032187
:1038E0000DF03CFC0022284603210DF1FBFC0022D8
:1038F000284603210DF1FCFC28A128460BF10CF908
:103900000023284603211A460BF00EFE7D6138681D
:103910000EF0D7FFB0F5967F0CD2206841F28831C7
:103920008842ACD97868009908447860B868401C2F
:10393000B860FEBD0EF150FE38604FF47A716068D9
:1039400040680068B1FBF0F0796809B9012179603D
:10395000B968E1B14FF47A7251437A68B1FBF2F47D
:103960007E60BE60844200D90446386920443861D4
:10397000F868401CF8600EF177FE03B02246C0F1F3
:103980006403284606A1BDE8F0400BF1FCB80446EC
:10399000E6E70000D0000024F86100243F000000AA
:1039A0002575204650530A2575252520435055007E
:1039B00070B5094E0024C4EBC40556F8250008B1C3
:1039C0000BF1ACFA1C2106EB85000BF066FB641CC6
:1039D000E4B2042CEFD370BD6864002470472DE975
:1039E000FE4F0446DDE90C0513B9B0F5807F7ED0AB
:1039F000B5F900604FF0FF3C764246430CEB2626BB
:103A000036B22680B5F902707F4247430CEB272778
:103A10003FB26780B5F900C0A1EB0C014FF0020C7A
:103A200041430CEB212109B2A180B5F90280A2EB40
:103A300008024243002B0CEB222000B2E0807ED033
:103A40004FF00A0A93FBFAF6704206F1010900EB07
:103A5000800003EB400730B20EF1F2FE00900FFA47
:103A600089F00EF1EDFE5A36834630B20EF1E8FED3
:103A7000804609F15A0000B20EF1E2FE009A0146BA
:103A8000C7F10A00B5F800C000FB02F300FB08F024
:103A90000BFB073301FB070193FBFAF291FBFAF1F1
:103AA000E6465011B4F900204FEA611BB4F9021048
:103AB0000BFB02F600FB116300FB02F90CEBA323E6
:103AC000B5F802C0CDF800C00FFA83FAB4F904309B
:103AD0000BFB01920BFB03F800FB11850CEBA22200
:103AE00000FB03FC0EEBA52512B22DB200E02EE088
:103AF0000BFB01C1CDE901C8DDF800C0B4F90670C7
:103B00000CEBA121DDF808800BB200FB176100FB74
:103B100017800EEBA1210EB20BFB07910EEBA0203C
:103B200000B20CEBA121DDF804C00BFB07C7DDF8E8
:103B300000C009B20CEBA727D4463FB200E00FE06B
:103B4000564500DAB446A84217DA804616E000204F
:103B500020806080491EA180521EE280BDE8FE8F59
:103B60002A88324422806A883A4462802A88114432
:103B7000A18069880844E080F0E7A846C44504DADB
:103B80005645D44606DAB44604E0A84201DA844633
:103B900000E0AC46A4F800C05645D44600DDB4466B
:103BA000A84201DD804600E0A846C44504DD564534
:103BB000504604DD304602E0A84200DC2846A080E2
:103BC000914201DA084600E010469F4201DA3D4684
:103BD00000E01D46A84205DA914201DA084606E0F7
:103BE000104604E09F4201DA384600E01846608043
:103BF000914201DD084600E010469F4201DD3D464E
:103C000000E01D46A84203DD914206DC114604E0B7
:103C10009F4201DD394600E01946E1809EE72DE92B
:103C2000F04F90F83C100446D0F8009087B090F820
:103C30003E0070294FF0FF3607DAB4F940203546D0
:103C4000012A00D5002580310DE0902916DDB4F958
:103C500040200125B4F90430521C9A4200DB0025B3
:103C6000A1F27F114942C9B27028884609DAB4F935
:103C70004210012900D50026803010E00025FF21E8
:103C8000F2E790280DDDB4F942100126B4F90620C0
:103C9000491C914200DB0026A0F27F104042C7B2CF
:103CA00001E00026FF2760690590A07D01900020BB
:103CB00000908346824694F83400400744D594F837
:103CC00048100222606C11FB050104A849440BF066
:103CD000ADF9A088022294F8481010FB01F0616C45
:103CE00006FB001103A849440BF0A0F9A18894F841
:103CF0004800626C11FB00F110FB059006FB0122ED
:103D00001118022202A80BF091F994F834008007F0
:103D100061D594F84800616C00EB090210FB0513B3
:103D2000134413F8013C0093A38813FB00F310FB2A
:103D3000050006FB03110A44014401EB090012F8D7
:103D400001BC10F8010C45E0B4F84000B4F9422081
:103D50002844236901B204F11800814609F11AFDD3
:103D60000490B4F84200B4F94010304402B248461E
:103D700054F8103F09F10EFD0390608E2368304423
:103D800002B2208E284401B2484609F103FD029098
:103D900094F82400103C80071DD5B4F9422034F873
:103DA000400F284401B248460AF000F900906088AC
:103DB000B4F90010304402B248460AF0F7F88346DE
:103DC0006088304402B234F84009284401B24846C1
:103DD0000AF0ECF8824694F83400424645468007E3
:103DE00035D5019800991BFB08F610FB08F3C8F1C4
:103DF000FF0011FB00311AFB0060C7F1FF06C1F3A1
:103E00000721C0F3072011FB07F310FB06331B0A41
:103E1000A375022907D8022803D8002007B0BDE8FF
:103E2000F08F002702E0022800D8FF27019802281F
:103E300000D800220098022800D8FF22BBF1020F10
:103E400000D80025BAF1020F03D8FF2501E0FF20BA
:103E5000A075DAB1FF2A1BD0DDE9041007F12CFBB5
:103E60000190BDB1FF2D17D0DDE902102A4607F100
:103E700023FB00903FB1FF2F10D03A460146019836
:103E800007F11AFB0090BDF8000009E00498E7E78D
:103E90000598E5E70298ECE70398EAE7BDF8040027
:103EA000A0820120BAE700002DE9F041124C15462E
:103EB0000E4607460EF190FB80462B4632463946A9
:103EC00020460AF027F920B10020A062E06950B135
:103ED00010E02C2120460BF0E0F84FF00040A062EB
:103EE0000020BDE8F08140460EF0EBFCE06108B92F
:103EF0000120E0612046F4E7BC63002470B50D4664
:103F00000446102128460BF0C8F8206800780128E4
:103F100004D0022807D0042807D008E0208A28808F
:103F2000608A688003E0E06800E00A20686020683A
:103F30004268002A03D02946BDE87040104770BD92
:103F4000FEB5856A0446BDB9A08A218A0844A082CC
:103F5000E08A618A0844E082204604F149FB0500BA
:103F600079D0204605F136FD00222846092109F1C5
:103F70006BF9607880076ED4208A10B9608A0028B7
:103F800069D00026ADF80860ADF8046094F83C00F4
:103F900000F00F000328284616D00BF00EFE07464F
:103FA00028460BF0CBFC03463A460C200090B4F9AF
:103FB0001210284604F15EF9ADF8040028460BF013
:103FC0000FFDC10712D017E00BF092FD07462846FF
:103FD0000BF02EFD02463B4603200090B4F9101072
:103FE000284604F147F9ADF80800E7E7BDF90810E5
:103FF000002901DDADF80860810705D4BDF908107E
:10400000002901DAADF80860410705D4BDF90410B4
:10401000002901DDADF80460000705D4BDF90400F6
:10402000002801DAADF8046001AA02A920460FF0C9
:1040300006FEBDF904200023BDF9081028460CF146
:104040003DFEA08ABDF808100844A082E08ABDF8B1
:1040500004100844E082FEBD7FB504000D4603D184
:1040600007F11AFD040023D00026FDB1ADF8006071
:10407000ADF8026008F0E4F9401EADF804002046F7
:1040800007F12AFD401E6A462946ADF8060002A83F
:10409000FFF0CAFC00280BD02068017C890708D5F6
:1040A000DDE90001C4E90C01012029E0A0F850611C
:1040B0007FBD82690AB102A9904700250AE004EB9E
:1040C000C5010022303102A8FFF0D6FC0028EFD154
:1040D0006D1CADB2B4F85001A842F0D880B22028CF
:1040E00004D204EBC000303002A904E004F1300037
:1040F0006946A4F8506107F002FAB4F85001401C78
:10410000A4F8500160680028D2D00EF038FC7FBDC2
:1041100070B5054600F012F804460CE0214628462A
:10412000FFF0E4FF06462146284600F044F820460A
:104130000AF1F4FE3446002CF0D170BD002800D006
:10414000406870470022034600B5FFF7F7FF03E021
:10415000521C1846FFF0CAFF0100F9D1104600BDFD
:10416000002800D08068704770B5044600680830A9
:104170000AF172FE050013D00022014620460EF11E
:10418000B4FEA268294620460FF078F8A16819B15C
:104190002A4620460EF1A9FEA560606800B9656058
:1041A000284670BD28B1416809B9806808B100206F
:1041B00070470120704770B504000DD0FFF7BEFFB7
:1041C00000228842204608D1FFF090FF606010B1C5
:1041D000002201461EE0A26070BDFFF7C1FF8842C9
:1041E000206808440AD10168A16029B12046BDE8D1
:1041F000704000220EF179BE626070BD05682046F5
:10420000FFF074FF06460246294620460EF16DFE79
:104210002A4631462046BDE870400FF02FB810B551
:104220000446006882680AB1214690472068006809
:10423000002801D02060F5E710BD8068002801D07B
:10424000B0F9160070470000014840687047000050
:10425000D00000242DE9F04F87B01F4693468A46D0
:1042600000210446DDE9105805B129805CB12078B1
:10427000002809D0BAF1000F05D0002618F0060F6B
:1042800015D0002004E0002007B0BDE8F08F401CEE
:10429000215C0A2904D00D2902D00029F7D100E0C1
:1042A000401C002DF0D04FF0FF312980ECE75FEA91
:1042B000887001D541F6FF77894608468DF81010C1
:1042C000059125E00598CDF8189058B300215A467D
:1042D0000DF1180C04ABCDE90231CDE9008C20447E
:1042E0003B4651460EF1D6FA06997A1A314417B276
:1042F0000EB288B105990844059021780A290BD09F
:104300000D2909D0205C0A280ED00D280CD0059864
:10431000205C08B1002FD5DC059848B105B12E808E
:104320000598B1E70121D2E70598401C0590F3E715
:10433000064A05A9204652689047002D0146EFD055
:104340000022504609F0A3FC06B2E8E7540200241C
:104350002DE9F0410B460F460021804602460846F3
:104360000EF058FD00260546401C0AF175FD0400BC
:1043700008D0691C3B46424666550EF04BFD204670
:10438000BDE8F081FEE72DE9F047984614460D465A
:104390008246DDF8209013E066084A46504606FB48
:1043A000085739469047002808DD44F30000C0EB69
:1043B000540407EB0805A4F1010401E005DA3446D2
:1043C000002CE9D12046BDE8F0873846FBE72DE90F
:1043D000FC5F0CAD9E4692468B46DDE9113295E8B6
:1043E0001201DDE90F7C96074FF0300519D453B167
:1043F000D60708D002F00C0656EA080603D05B1E6A
:1044000001E00D55641C644504D2202CF9D301E071
:104410000D55641C5FEAC27903D09C4201D2202C66
:10442000F6D3D60624D556050AD44CB1644501D03E
:104430009C4205D1641E03D0102F03D1641E04E0FA
:10444000102F02D0022F0AD00EE0960603D4202CA3
:104450001ED2782606E0202C1AD2582602E0202C04
:1044600016D262260E55641C202C11D20D55641CE8
:10447000202C0DD2B8F1000F01D02D2506E05507F4
:1044800001D52B2502E0150702D520250D55641C0A
:104490000646CDE900EB900755468B469846914677
:1044A00013D1274606E02A466D1C2020DDE90031A5
:1044B000B0477F1C4745F6D307E02A466D1C641EB3
:1044C000DDE900311BF80400B047002CF5D15FEAAC
:1044D000897006D409E02A466D1C2020DDE90031F0
:1044E000B047A5EB0A014145F5D32846BDE8FC9F3E
:1044F0002DE9F04F8FB099468B4692468646DDE90E
:104500001818DDE91C63DDE91A47002009B923F01A
:10451000100307AD5A0500D5C9B1B1FBF4F204FB95
:104520001212D2B20A2A01D2303209E05FEA836C59
:1045300002D54FF0410C01E04FF0610C62440A3AA1
:10454000B1FBF4F12A54401C09B12028E5D3CDF881
:1045500008805246CDE90563CDE90050CDE9034717
:104560004B4659467046FFF732FF0FB0BDE8F08F5B
:104570002DE9FF4F89B0824600240A98169D002835
:1045800001D1DFF8F0A367E1252802D02246641CA0
:10459000E2E1491C0C910026084601782B291BD02A
:1045A00004DC20291BD0232904D11BE02D290ED0A7
:1045B000302909D00027C8B2FFF02FFAA8B10CA803
:1045C000FFF014FA07461CE046F0010601E046F051
:1045D0000206401C0C90E0E746F00406F9E746F0BE
:1045E0000806F6E746F01006F3E70C9801782A294A
:1045F00007D180CD002F02DA7F4246F00206401C30
:104600000C900C984FF0000801782E2917D1401C0F
:104610000C9046F480660078FFF0FFF920B10CA8FA
:10462000FFF0E4F980460AE00C9908782A2806D1C0
:1046300001CD002800DC0020491C80460C910C981C
:1046400001786C290AD004DC68290FD06A2918D1B6
:1046500027E0742928D07A2913D125E0401C0C903A
:1046600046F4807601786C291BD00AE0401C0C903F
:1046700046F080060178682903D146F04006401CC8
:104680000C9002460078692822D015DC62281FD0E1
:104690000DDC252877D050281AD058287FF476AF23
:1046A00016E046F40076EAE746F48076E7E763280A
:1046B0006AD06428F2D10BE073286FD004DC6F2835
:1046C00006D07028EAD103E0752801D07828E5D11A
:1046D00078280DD058280BD070280BD0502809D03E
:1046E0006F2816D0622816D00A2126F0100616E090
:1046F000102107E05078102146F48876562804D11E
:10470000521C0C921078582807D01078502804D0EA
:1047100005E0082108E0022106E046F020061078B6
:10472000692803D0642801D026F00C06700501D555
:1047300026F001061078692813D0642811D0562875
:1047400054D0B00560D5ED1DCDF818800020029042
:1047500025F00705CDE90410CDE90776F5E802015B
:1047600021E0B00528D5ED1D25F007050DF1100954
:104770000023F5E8020289E80A01002ACDE907765C
:1047800003DA012102E0E4E070E00021029100235D
:1047900019461B1A914102DA114604E08EE000210D
:1047A000404261EB02012246CDE90001DDE90A1336
:1047B0005046FFF01CFF4BE0F00503D501CD0BE0A8
:1047C000404210E0700602D515F8040B04E03006F4
:1047D000F4D535F8040B00B2CDE90218C10F00285A
:1047E000CDE90476ECDDCDE900012BE001CD416897
:1047F0000968009103680B98021B0A98011950463A
:10480000FFF7B6FE044424E0F00508D50020CDE90A
:104810000218CDE9047602CDCDE9001012E0700651
:1048200002D515F8040B06E0300603D535F8040B65
:1048300080B200E001CDCDE902180021CDE90001F0
:10484000CDE90476DDE90A1322465046FFF750FE13
:1048500004460C98401C0C900C99087800287FF4B2
:1048600093AE0B9884427BD222467AE0B0074FF099
:10487000010807D50BE02246D446641C2020DDE960
:104880000A13E0474046B84208F10108F3D315F88F
:10489000040BDDE90A132246D446641CE047B00746
:1048A00006D4D6E72246641C2020DDE90A13D0474F
:1048B0004146B94208F10108F4D3CAE755F804BBF0
:1048C000B8F100005A4601D0014601E04FF0FF3137
:1048D000584600E0401C03780BB1491EFAD2A0EB09
:1048E0000209700505D5C1454846414600D3084632
:1048F0008146B00707D514E02246D446641C202028
:10490000DDE90A13E0474946B94209F10109F3D349
:1049100007E0DDE90A130BF1010B2246641CD446C3
:10492000E0479BF8000020B17105F2D5B8F101080D
:10493000EFD2B00706D48CE72246641C2020DDE9C4
:104940000A13D0474946B94209F10109F4D380E777
:1049500006E02246641C2520DDE90A13D04778E7EB
:10496000421E034600200A99D0470DB02046BDE8FC
:10497000F08F0000774610084A1E0844401E9043FE
:10498000114200D0FEE7704770B586B0444C00225B
:1049900014258DF808204FF4B4768DF80C208DF88E
:1049A000102090F83C20A37802F00302012A23D0C3
:1049B000022A59D09A4211D010F8263F03EB031374
:1049C00003EB4303B3FBF5F32370407800EB0010D7
:1049D00000EB4000B0FBF5F06070A27004AA03A8E1
:1049E00002ABCDE9000201EB41004FF6FF716278A6
:1049F00001EA400021781AE09A4210D0838C03EB40
:104A000043035B02B3FBF6F3A38090F8270000EBAF
:104A1000001000EB4000B0FBF5F06070A27004AA3B
:104A200003A802ABCDE900026278C9B236E004F017
:104A30006BFB9DF810009DF80C109DF80820C30832
:104A4000BDF80000890863F3040080B261F34A10E6
:104A500080B2D10861F3CF20ADF8000080B20090A1
:104A6000BDF8000006B070BD9A4210D0838C03EBF5
:104A700043035B02B3FBF6F3A38090F8260000EB40
:104A8000001000EB4000B0FBF5F02070A27004AA0B
:104A900003A802ABCDE90002CAB22178A088C6E71C
:104AA0008801002410B5084C012020700748FFF74A
:104AB00045FB0028A06803D0BDE810400DF05FBFA3
:104AC000BDE810400DF172BE140200248C63002476
:104AD00010B5044690F83E00616B820707D4A28FA0
:104AE0003AB1A2F57F43FF3B15D0521EA287A28F99
:104AF0008AB909B182070ED513482146FFF75BFB3F
:104B0000FFF7D0FFE16809B1204688472046BDE89D
:104B100010400AF103BAA26B5242E262002911D09E
:104B2000820702D4226B5242E2624210521C62F3AC
:104B3000410084F83E00626AE069E2616062A06A56
:104B4000A162606310BD00008C63002470B5304E1C
:104B500070680DF0B6FE0546707880F00100707048
:104B600047E00020307094F83E007178C0F3800276
:104B70008A4242D061F3820084F83E00E16A4A1919
:104B8000030719D4002917DC002A15DBC00709D157
:104B9000216939B120468847E1690144E161616AD0
:104BA00008446062A16809B12046884794F83E0035
:104BB00040F0080084F83E00E06A4019E06216D434
:104BC000A16A884200DDE1622046A169884701466A
:104BD000206A884204D0216262680AB12068904746
:104BE000D4E90A01814202DB2046FFF771FF3078E9
:104BF00018B10848FFF7A2FA03E006482146FFF083
:104C000075FA0400ADD10DF1E7FC706070BD0000D5
:104C1000140200248C63002410B505F0A1FB09F1F7
:104C200041FC0CF1EBFBBDE810400CF013BB70B580
:104C3000044640680D4608B1FFF7F9FF2268002AD4
:104C400004D029462046BDE87040104770BD89B2A7
:104C500006F019BC4068103120F00300884201D3EF
:104C6000012070470020704710B5044600F00FF88F
:104C7000046010BD10B50446FFF7F6FF416841F02F
:104C800002014160606840F00100606010BD10B535
:104C9000426800F1080122F00302121F8C18FFF095
:104CA0002CFE00B1FEE7204610BD70B50C00064694
:104CB0004FF000001FD0FAB12079154610F0010F17
:104CC0001BD011462046FFF7C5FF78B12946204684
:104CD00000F025F805462046FFF7C6FF686829461C
:104CE00040F0020068603046FFF0D2FD2046FFF041
:104CF0005FFE04F1080070BDFEE7FEE77CB50546E7
:104D000048680C466A4620F0030001A90EF0D1F96C
:104D1000DDE90032214628460EF1B2FD7CBD2DE9C9
:104D2000F04104460D460830091F4618606806F138
:104D3000080720F00300401BA0F1040838460421B6
:104D4000FFF71AFE874200D0FEE7606808EB050116
:104D5000091D20F00300884200D0FEE7307900F002
:104D6000030040EA0800706020F003000C2800D225
:104D7000FEE7207900F00300284360603046FFF72B
:104D800079FF3046BDE8F08138B5044609F09AFA5B
:104D9000054609F0C6FA0028204605D0218FE18695
:104DA0000BF029FE012038BD08F131FA0028204619
:104DB0001ED008F1C2F9218FE08E81420CD02087ED
:104DC0001C21E08E6A460090204608F13DFA012839
:104DD000E9D120460BF00FFE284609F1A3FA04287A
:104DE000E0D120460AF07DFD002108F1B2FCD9E7B0
:104DF00008F06CFCD6E700002DE9F04F87B00C46B8
:104E0000002105460AF012FD60B321462846FFF056
:104E10007DFE2146284600F06FF8002128460BF160
:104E200007FA0021059028460BF02AFB0021049088
:104E300028460BF171F9012800D00020002180469E
:104E400028460BF103FB0021064628460BF038FAF2
:104E500042F2D17907464E450BD1688C400508D403
:104E6000012607E007B020461C21BDE8F04F0AF0FC
:104E700014B9002628460AF00AFDDFF878A00021C0
:104E800083462846BAF802200BF024FB2168C2B200
:104E9000D4F810C05846A368CDF800C0CDF80C80F7
:104EA000CDE90131059B314605F0A7F94F45208337
:104EB00004D1688C800501D4012600E00026284634
:104EC0000BF17CF8BAF806200021074628460BF0C3
:104ED00001FB6368C2B2E168002560698DE82B00C0
:104EE000049B3146384605F088F9608307B0BDE879
:104EF000F08F0000FC0000242DE9F34F81B00C4638
:104F0000019803F121FD804601980AF0C0FC834618
:104F1000404600F11EF92061400009F1B3FF206016
:104F20002069400009F1AEFF002541F69A79A060A2
:104F300035E038F91510454E49452FD1DFF810A15D
:104F400000271CE0019839460AF070FC5146009099
:104F50000BF1B8FA90B9009803F1FEFC01280DD1CD
:104F6000009804F093FFA84208D100980BF08BFB47
:104F7000B04203DB00980BF086FB06467F1C0198CD
:104F80000AF1E9FFB842DDD8002E03DBA06820F863
:104F9000156003E0A168002021F815006D1C206950
:104FA000A842C6D8002541F69B762F4628464A4699
:104FB00015E038F91010B14204DB0D44A5F5F855A1
:104FC0009B3D0BE0914204D1A16831F810103944A7
:104FD00003E0A36823F8101039440FB2401C216984
:104FE0008142E6D8019800210BF122F92169C1F133
:104FF000010200FB02B0C01B01B2002900DA00214F
:105000004FF0FF370022104610E038F91030B3425D
:105010000BDBA3F5F853A7689B3B1AB211FB02F315
:10502000B3FBF5F327F810300746401C2369834291
:10503000EBD8002F07DBA81A4843B0FBF5F0081A9D
:10504000A16821F81700BDE8FE8F000001E0FFFF16
:10505000010006002DE9F05F0022054611460BF025
:105060008FFF002128460BF016F900210446284640
:105070000BF124F920440FFA80F9284600210BF0A7
:10508000A4F920440FFA80F828460BF0CBF800EB87
:1050900008014D4C01EB09000FFA80FB28460AF18C
:1050A0005AFF0021824628460BF128F801284FF0CC
:1050B00000062CD06AE0A8684449006850F82670C1
:1050C00038460BF1FFF908BB38460BF14FFB38BBF4
:1050D000002138460BF0B4F810B3032820D006287E
:1050E0001ED008281CD0002138460BF0C5FA68B93C
:1050F00007F11400074606F02FFA4844A04204DBEB
:10510000384606F029FA00EB090424B2761C56450D
:10511000D1D341F6FF70C44241D004EB08003DE01A
:10512000B5F91800B7F91410401A411CA142ECDB84
:105130000C46EAE7A8682549006850F8267038460A
:105140000BF1C0F908BB38460BF110FB88BB0021FE
:1051500038460BF075F860B301282BD0042829D00D
:10516000072827D0002138460BF17EF968B907F1EE
:105170001400074606F0F0F94044A04204DB38462C
:1051800006F0EAF900EB080424B2761C5645D1D3A8
:1051900041F6FF70C44202D004EB090004B241F6AC
:1051A000FF70C442584602D05C4500DD2046BDE891
:1051B000F09FFFE7B7F91800B5F91410401A411C29
:1051C000A142E1DB0C46DFE701E0FFFF0100040044
:1051D000F8B50D460446D0E90C2182B1127872B1BF
:1051E00039B10DF02EFA0E4909688847616B884283
:1051F00011D2206B88B10B4E0020009006E061B107
:10520000EFE7326869469047A84206D0206B0099C4
:10521000415C0029F5D10020F8BD0120F8BD000057
:105220006C020024580200242DE9F04F5FEA010AC5
:1052300005468BB043D0A5F818A0286808B109F13D
:105240006DFE0AEB4A00062101EB400009F104FE65
:10525000286058B3022202EB4A0104220144E960AB
:1052600002EB8A0101440024C5E901010121BAF1E0
:10527000010F1CD04FEACA00083009F103FE00EB11
:105280008A0706464FEA8A00A14600B2ADF8000040
:10529000C0F1010221468010ADF802403F1DA34637
:1052A0004C46ADF8242001910590B3E0FEE7B4220E
:1052B0000270E8680480E8684180A86804800BB048
:1052C000BDE8F08F4FF00008BDF92400002808DC8D
:1052D000BDF80210032202EB41010844ADF824009E
:1052E0000DE0BDF802200523BDF80010521A491E3A
:1052F000ADF8001003EB42021044ADF82400BDF8F5
:105300000200401CADF80200684600F0F0F878B1E9
:10531000BDF9000005AB00F00301821043F828201E
:1053200001AA42F8281008F10108B8F1040FCBDBFC
:10533000B8F1040F74D108990598884212D126F863
:10534000140027F81490DDE901010844DDE9031297
:105350001144084469680855696800010855641CCF
:1053600024B255E00699884219D026F8140027F88F
:1053700014906A68019810556A6800011055641C01
:10538000059A20B2521E26F8102027F81090DDE969
:1053900002120A440499091D11446A6832E007990F
:1053A00026F814008842494627F8149015D0DDE904
:1053B000012010446A6810556A6800011055641C89
:1053C000059A20B2521E26F8102027F81010DDE9A9
:1053D000031211446A68083114E0DDE90102104447
:1053E000039A10446A6810556A6800011055641CDD
:1053F000059A20B2521E26F8102027F810100499A2
:105400006A680C3111546A6809011154401C04B2D5
:1054100009F10109684600F06AF800287FF452AFEC
:1054200040F2D32106EB44021AFB01F132F9022CBF
:105430008812824205D107EB440232F9022C8242E3
:105440001AD0A1EB8021B1F5007F03DC494341F381
:10545000CF3106E0C1F58061494341F3CF31C1F15D
:105460000F0126F8140027F81400686801556868D1
:1054700009010155641C24B2A01E0DE037F810107C
:1054800026F8141036F8101027F8141069680A5C12
:105490000A55641C24B2401E0028EFDAEB68002194
:1054A0000846A3F800B01CE0EA6822F81100AB68D7
:1054B00036F8102023F811200BE0D5F808C036F993
:1054C00010303CF811209A4200DB1A46401C2CF8A0
:1054D000112037F910208A4201D1A042EDDB491C8E
:1054E00009B2A042E0DB304609F058FDE7E6B0F92A
:1054F0000210B0F90000814201DC01207047002059
:10550000704717B5022A81B003D8BDF8080004B06F
:1055100010BDBDF80410BDF80800CB0AC40A13FB87
:1055200004F300F01F04C0F345105B0963F3CF21BF
:1055300001F01F0313FB04F35B0963F30401C1F3E0
:10554000451313FB00F08009FF2A60F34A11ADF800
:10555000041007D0DDE9010106F02EFE0090BDF831
:105560000000D4E788B2D2E717B5022A81B003D889
:10557000BDF8080004B010BDBDF80830BDF8040047
:10558000D90AA1EBD021002900DC002161F3CF2052
:10559000ADF80400C3F34511C0F34514091B0029FD
:1055A00000DC002161F34A10ADF8040003F01F0194
:1055B00000F01F03C91A002900DC0021FF2A61F353
:1055C0000400ADF8040007D0DDE9010106F0F4FDA8
:1055D0000090BDF80000CDE780B2CBE70846114649
:1055E00008B505F1E3FE0090BDF8000008BD2DE907
:1055F000F04F0646C87A89B0154602280F4603D8F0
:10560000012009B0BDE8F08F3A691846B968FEF785
:105610004BFC041EF5D0207D00F01F0008F03EFD7D
:1056200008B1062008E0207D00F01F0008F026FDEC
:1056300008B1052000E00420226A814622B12946F3
:1056400030460EF080FCB7E0A069E8B302A8294616
:1056500004F171FF388818B97888B0F5807F2AD0B6
:10566000A8883B1D29886A88401A401C01B2E88836
:10567000801A401C02B27888CDE90003B7F90030E7
:1056800002A8FEF7ACF9BDF8080029880844ADF877
:105690000800BDF80A0069880844ADF80A00BDF8A2
:1056A0000C0029880844ADF80C00BDF80E0069888C
:1056B0000844ADF80E00B16802AA04A8FEF0B4F9DF
:1056C000002879D004A800E00DE0D6F808802A462A
:1056D000B0603946CDF800903046A36906F1FAFB78
:1056E000C6F8088068E0B16803A82A46FEF09CF975
:1056F000002861D0BDF81000BDF80C10401A401C05
:105700000FFA80FA0AEB4A0009F1BCFB059003A9E5
:10571000D6F808B001A804F10EFF012101A804F198
:1057200097FFBDF90C00B5F90010401A0890BDF9BB
:105730000E80B5F90200A8EB000534E001AA594635
:1057400006A8FEF071F960B305982AB2009053469E
:10575000089801B2204608F03BFD01280CD02046F5
:1057600008F1B7FB059809F019FC204608F1B1FBD8
:105770000020C6F808B044E706A8B060CDF8009055
:1057800001AA059B3946304606F1A4FBBDF8060088
:10579000401CADF80600BDF80A00401CADF80A0038
:1057A0006D1C08F10108BDF912004045C6DAC6F8C3
:1057B00008B0059809F0F2FB204608F18AFB1FE7C4
:1057C000704770B5054608F07DFD0646286B0DF064
:1057D00078F83168898B884223D295F83C006C6A4E
:1057E00010F0030005D06421012806D0022809D159
:1057F00006E0002060F30F0404E061F3174401E0C9
:1058000061F31F64304608F146FE2146284606F142
:105810000FF930B1002228461C2107F115FD01289F
:1058200003D10CF1D9FE2863012070BD2DE9F04FA2
:1058300099B015468A468146044614A806F02CFE07
:105840004FF4A02148460AF002FD9DF85D1060F378
:10585000820128468DF85D1004F1DBFE00EBD0706C
:105860000021461028883044ADF860006888304434
:10587000ADF8620048460AF04DFD8046514602A848
:1058800009F0AFFF14A80A904FF400300F902C4895
:1058900003900020049004F130008346FEF760FC82
:1058A00049E02079032842D1208BADF85000208AAE
:1058B000ADF852006079FD2801D9404602E010FBA6
:1058C00008F0000A8DF85C002568B5F92030E88BF7
:1058D00018440090A068D5E9051209F1ABFAB5F9B2
:1058E00020300746E88B18440090E068D5E905129F
:1058F00009F1A0FA0546608B1A2113943044ADF8E3
:10590000440018A80B9002AA484607F19DFCA9B2D2
:10591000BDF84430B8B218AACDE9000114A9504628
:1059200006F1F0F81B21484602AA07F18DFC21463A
:105930005846FEF0DFFB0400B3D119B0BDE8F08F8C
:1059400068481108F0B5064608698FB0154600286A
:105950000C4671D0A17E02296ED908F1B8FC02284C
:1059600020D0206901A908F1C7FA012864D104A850
:1059700006F0D2FDA0784FF0FF378DF81C00208B89
:10598000ADF81800E07E8DF81A00A07E8DF81B009F
:10599000207FE0B301996888ADF80A0007EB515108
:1059A0000844A8E041F6FF70002702973B46CDE986
:1059B0000070D4E904120DA80DF0DAF8284604F1BD
:1059C00022FE0146BDF934002A8801EBD17102EBB9
:1059D000610100EBD072A1EB6201ADF82C1008441C
:1059E000401EADF83000284605F0AAFD0146BDF97D
:1059F00036006A8801EBD17102EB610100EBD072D5
:105A0000A1EB6201ADF82E100844401E00E015E045
:105A1000ADF8320003A807F02DF860690BAA0390D7
:105A200003A9208BADF81800A07E8DF82600304623
:105A30000097236906F08AFD0FB0F0BD284604F1F7
:105A4000E2FD298800EBD07001EB60000199C1F301
:105A50008A21A0EB5100ADF80800284605F070FD42
:105A6000698800EBD07001EB60010198C0F38A22D5
:105A7000A1EB9051ADF80A10BDF80830521E07EBAB
:105A800050501A44ADF80C200844ADF80E002369BC
:105A900002AA04A9304606F01FFDCDE70199288827
:105AA000ADF80800C1F38A21491E084410E02369BB
:105AB00002AA04A9304606F00FFD0198BDF80810AF
:105AC000C0F38A200144ADF80810BDF80C1008445A
:105AD000ADF80C00BDF90800B5F904108842E6DD08
