:020000040000FA
:1000000080B502F0D5FB00F07BF810B900F0F0F8F5
:1000100008B1012080BD00F0CFFB002818BF0120EF
:1000200080BD00BF00BF00BF80B500F0E1F8002830
:100030001CBF012080BD00F0BFFB002818BF0120BD
:1000400080BD00BF00BF00BF80B500F0D1F810B97F
:1000500000F0B2FA08B1012080BD00F0ADFB00282D
:1000600018BF012080BD00BF10B5044600F1DE407E
:10007000B0F17F4F07D300F0BBF820B904F1E040A6
:1000800000F0C2F908B1012010BD00F095FB002876
:1000900018BF012010BD00BF70B5054600F1DE405D
:1000A000B0F17F4F04D314460E4600F0A1F808B11A
:1000B000012070BD012E14DB05F1E04506F58076C8
:1000C0004FF480722046294600F0EAFA01280ED04B
:1000D000A6F5807605F58075B6F5807F04F5807409
:1000E000EEDC00F069FB002818BF012070BD00F0B5
:1000F00063FB012070BD00000020704700BF00BFFF
:1001000070B59CB044F6180401A84C2100251B953D
:10011000C5F60204CDE91955CDE91755CDE91555B8
:10012000149502F052FC54F80C0C20F0040044F832
:100130000C0C40F22C400095C5F60000016821F03F
:1001400001010160006800F001000090206840F4A7
:1001500040402060206800F440400090009800BFBC
:1001600020688004FCD54FF48030029002200521E5
:10017000CDE90A000C91C021CDE90D10CDE90F00A9
:1001800001A80124019400250495082608951295DC
:10019000119600F07DFF40BB15A93F20149003206D
:1001A00061C140204FF48061CDE91800CDE91A10FB
:1001B00014A8042101F044F808B1012415E044F228
:1001C000F440C5F6020050F8F41C41F0800140F8FC
:1001D000F41C016841F002010160006800F00200B7
:1001E0000090009800F0E8FC002420461CB070BD90
:1001F000B0B540F214054C21C0F2000509EB05042E
:10020000204602F0E2FB45F20000C5F2002049F86A
:100210000500204601F06CFD00284FF0010018BFDA
:10022000B0BD09EB05014860202088601020C8603F
:10023000182008614FF4806048610020C1E9060081
:100240000862084601F000FD002818BF0120B0BD7B
:100250002DE9F04D86B044F2E04041F20044C5F68D
:100260000200C5F6020401AD4FF0020A50F80C1C62
:10027000002641F4804140F80C1C50F80C1C032768
:1002800001F480410191019950F8641C41F48041CE
:1002900040F8641C50F8641C4FF00A0821F48041B7
:1002A00040F8641C016841F040010160016801F000
:1002B000400101910199016841F02001016001684C
:1002C00001F0200101910199016841F020010160D4
:1002D000016801F0200101910199016841F02001BC
:1002E0000160016801F0200101910199016841F06C
:1002F00020010160016801F020010191019901686C
:1003000041F0200101600068294600F020000190C2
:1003100001984020019004F58060CDF808A0039674
:100320000497CDF8148001F0F7FA4FF48060294665
:10033000CDE9010A20464FF0090BCDE90367CDF85E
:1003400014B001F0E9FA4FF480702946CDE9010AB2
:1003500003A880E8C001204601F0DEFA4FF40070E7
:100360002946CDE9010A03A880E8C001204601F032
:10037000D3FA80202946CDE9010A03A880E8C00805
:10038000204601F0C9FA40202946CDE9010A03A818
:1003900080E8C008204601F0BFFA06B0BDE8F08D45
:1003A00010B541F200444021C5F6020404F5806016
:1003B00001F086FB4FF48061204601F081FB4FF491
:1003C0008071204601F07CFB4FF40071204601F063
:1003D00077FB8021204601F073FB4021204601F08D
:1003E0006FFB44F27C40C5F60200016841F4804195
:1003F0000160016821F480410160816D21F4804138
:10040000816510BD00BF00BF2DE9F045A3B0824655
:1004100001A8382102F0D9FA15AD3821284602F09A
:10042000D4FA40F214080620C0F20008159009EB37
:1004300008004FF0FF3229464FF480761B964FF4A8
:100440000054189400271D97CDE9207722971A971A
:100450001C97CDE91E77169701F062FC08B10124C4
:1004600045E0D82001904FF48060089009EB080027
:1004700001A94FF0FF32079604940997CDE90C7754
:100480000E970697CDE90A77CDF808A001F048FC51
:100490004FF0010458BB15AD3821284602F095FAFB
:1004A000002013900F904FF480711B914FF4005176
:1004B000189105211D900FAACDE9200022904FF040
:1004C000FF3315914FF080711C901E9129461A90B0
:1004D0001020CDE911044FF48000149009EB0800BE
:1004E000109401F09DFE0446002818BF0124204608
:1004F00023B0BDE8F08500BF10B58EB06C46382142
:10050000204602F062FA0621009140F214014FF4F5
:100510008070C0F2000106904FF40050039000205C
:100520000890CDE90B000D904FF0FF320590079039
:10053000CDE90900019009EB0100214601F0F0FB33
:10054000002818BF01200EB010BD00BF00BF00BFC3
:1005500010B594B006AC3821204602F036FA0020DF
:10056000049000904FF480710C914FF40051099168
:1005700005210E906A46CDE9110013904FF0FF332C
:1005800006914FF080710D900F9110210B9001207A
:10059000CDE9021040F214010190C0F200014FF4C5
:1005A0008000059009EB0100214601F039FE00288A
:1005B00018BF012014B010BD2DE9F041A2B068466B
:1005C000382102F002FA14AC3821204602F0FDF97D
:1005D00040F214080620C0F20008149009EB08004D
:1005E0004FF0FF3221464FF480771A974FF40056B0
:1005F000179600251C95CDE91F55219519951B953A
:10060000CDE91D55159501F08BFB08B1012442E0A1
:10061000C72000904FF48060079009EB08006946FE
:100620000022069703960895CDE90B550D95019587
:100630000995059501F074FB4FF0010458BB14AD0A
:100640003821284602F0C1F9002012900E904FF494
:1006500080711A914FF40051179105211C900EAA38
:10066000CDE91F0021904FF0FF3314914FF08071BE
:100670001B901D91294619901020CDE910044FF4CC
:100680008000139009EB08000F9401F0C9FD0446A7
:10069000002818BF0124204622B0BDE8F08100BF29
:1006A0002DE9F04DA2B08B468046684638211646AB
:1006B00002F08BF914AF3821384602F086F9062093
:1006C000149040F214004FF0FF32C0F2000039469F
:1006D00048444FF480751A954FF4005ACDF85CA049
:1006E00000241C94CDE91F44219419941B94CDE956
:1006F0001D44159401F014FB08B1012458E04FF09B
:1007000080500D90322000904FF4806007904FF0A1
:1007100040706946CDE9090640F214064FF0FF32F9
:10072000C0F20006069509EB0600CDF80CA008946F
:10073000CDE90B440594CDF804B001F0F1FA08B10D
:10074000012435E009EB06004FF0FF32414601F08D
:100750003FFC4FF0010458BB14AD3821284602F08D
:1007600034F9002012900E904FF480711A914FF4DA
:100770000051179105211C900EAACDE91F00219070
:100780004FF0FF3314914FF080711B901D9129465B
:1007900019901020CDE910044FF48000139009EB5C
:1007A00006000F9401F03CFD0446002818BF012408
:1007B000204622B0BDE8F08D10B590B002AC3821D3
:1007C000204602F002F94FF4807108914FF4005175
:1007D000059140F214010020C0F200010A90CDE919
:1007E0000000CDE90D000F90EB2002904FF4406027
:1007F00009904FF040700B900620079009EB010024
:100800006A46214601F090FD002818BF012010B073
:1008100010BD00000000000080B5032001F050FE74
:1008200000F02EFE44F21841C5F602010A6809687C
:1008300042F29C1301F00F01C2F30322C0F2000345
:100840007B449A5C595C02F01F0201F01F01D0400A
:1008500040F20802C0F2000220FA01F149F8021049
:1008600040F20401C0F2000149F801000F20FFF737
:1008700043FC00281CBF012080BD00F035F800209B
:1008800080BD00BF00BF00BFB0B540F20C01C0F298
:10089000000119F8011011B3044640F20400C0F23F
:1008A00000004FF47A72B2FBF1F159F80000B0FB8E
:1008B000F1F001F081FE0F2C4FF001050DD860B969
:1008C0004FF0FF3000222146002501F009FE40F2E2
:1008D0001000C0F2000049F800402846B0BD0120D9
:1008E000B0BD00BF00BF00BF704700BF00BF00BF6A
:1008F00080B544F27C4045F23101C5F602004CF26D
:100900002302C0F20101C0F6002201600021016053
:10091000426040F271224160826040F2FF72816069
:10092000C0F22832C2601822C16002614CF2FF326C
:100930000161CEF6FF0242614FF49B724161826118
:1009400043F233028161C3F2D712C2614DF6AA624B
:10095000C161C0F220020262016200F005F80020CD
:1009600080BD00BF00BF00BF704700BF00BF00BF19
:1009700040F20C0040F26001C0F20000C0F2000141
:1009800019F8000059F80120104449F80100704797
:1009900040F26000C0F2000059F80000704700BF4C
:1009A00040F21000C0F2000059F80000704700BF8C
:1009B000B0B540F20C04C0F2000419F804508542AE
:1009C00001D10020B0BD40F2100109F80400C0F2CE
:1009D000000159F80100FFF78FFB002818BF09F844
:1009E0000450B0BD00BF00BF40F20C00C0F20000D8
:1009F00019F80000704700BFB0B50446FFF7C8FF04
:100A000040F20C010546C0F20001621C19F8011009
:100A100018BF0C44FFF7BCFF401BA042FAD3B0BD87
:100A20004EF21000CEF20000016821F002010160D8
:100A3000704700BF00BF00BF4EF21000CEF20000B2
:100A4000016841F002010160704700BF00BF00BFB4
:100A50000020C0F20910704741F20000C5F60040C6
:100A60000068000C704700BF41F20000C5F600406E
:100A700000686FF31F3070474EF60000C1F6F1704A
:100A80000068704700BF00BF4EF60400C1F6F17069
:100A90000068704700BF00BF4EF60800C1F6F17055
:100AA0000068704700BF00BF43F60041C5F6000173
:100AB0000A6822F0700210430860704700BF00BF50
:100AC00043F60041C5F600010A6822F00202104315
:100AD0000860704700BF00BF43F60441C5F600013F
:100AE0000A6822F03F0210430860704700BF00BF51
:100AF000B0B543F60045C5F60005286840F0010092
:100B00002860FFF745FF04462868000706D4FFF772
:100B10003FFF001B0B28F7D30320B0BD0020B0BD62
:100B200043F60040C5F60000016821F001010160B4
:100B3000704700BF00BF00BF40F20441C5F600018E
:100B40000A6822F4600210430860704700BF00BFCB
:100B500040F20442C5F60002136823EA000008438D
:100B60001060704700BF00BF40F20440C5F60000AF
:100B7000016841F480710160704700BF00BF00BF91
:100B800040F20440C5F60000016821F48071016064
:100B9000704700BF00BF00BF002840F20870C5F6D4
:100BA000000004D04268C2EA2141416070470268F7
:100BB000C2EA01010160704740F22040C5F6000022
:100BC000016841F001010160704700BF00BF00BF34
:100BD00040F22040C5F60000016821F001010160EB
:100BE000704700BF00BF00BF40F22040C5F60000C4
:100BF000016841F480310160704700BF00BF00BF51
:100C000040F22040C5F60000016821F48031016007
:100C1000704700BF00BF00BF40F22041C5F6000191
:100C20000A6822F0020210430860704700BF00BF4C
:100C300040F2284241EA0010C5F60002136823F092
:100C4000FF0318431060704741F20400C5F60040EE
:100C5000016841F001010160704700BF00BF00BFA3
:100C600041F20400C5F60040016821F00101016075
:100C7000704700BF00BF00BF41F20400C5F600404E
:100C8000016841F002010160704700BF00BF00BF72
:100C900041F20400C5F60040016821F00201016044
:100CA000704700BF00BF00BF41F20400C5F600401E
:100CB000016841F004010160704700BF00BF00BF40
:100CC00041F20400C5F60040016821F00401016012
:100CD000704700BF00BF00BF41F20400C5F60040EE
:100CE000016841F080010160704700BF00BF00BF94
:100CF00041F20400C5F60040016821F08001016066
:100D0000704700BF00BF00BF41F20400C5F60040BD
:100D1000016841F480710160704700BF00BF00BFEF
:100D200041F20400C5F60040016821F480710160C1
:100D3000704700BF00BF00BF44F20001C5F20021B0
:100D40000A6822F0407210430860704700BF00BF7D
:100D500044F20000C5F20020006800F040707047C7
:100D600010B540F2040C00F01F0220F01F00C5F681
:100D7000000C01234FF0B04E03FA02F250F80C3091
:100D8000934340F80C3050F80E30CC0223EA0203B3
:100D900040F80E3004D550F80E30134340F80E30B2
:100DA000890258BF10BD50F80C10114340F80C10C8
:100DB00010BD00BF00BF00BF082300F01F0120F0DE
:100DC0001F00C5F60003012202FA01F1C2581143C7
:100DD000C150704700BF00BF6FF00F01882300F0C3
:100DE0001F0201EA5000C5F6000301219140C150E5
:100DF000704700BF00BF00BFB0B54FF6F07C40F2B7
:100E0000800ECB03C7F6FF7CC5F6000E11D500F0AF
:100E10001F03012404FA03F30CEA50041AB154F836
:100E20000E502B4303E054F80E5025EA030344F818
:100E30000E30890358BFB0BD00F01F0101230CEA3A
:100E4000500003FA01F170441AB142681143416045
:100E5000B0BD426822EA01014160B0BD00BF00BFE1
:100E600010B500F01F034FF0010C40F20C0EC5F658
:100E7000000E0CFA03F439B120F01F0151F80E30C6
:100E8000234341F80E3006E020F01F0C5CF80E10F2
:100E9000A1434CF80E100EF10801C30658BF0EF125
:100EA000040120F01F031E2404EA40004FF0030C4D
:100EB00051F803E00CFA00F42EEA040402FA00F000
:100EC0002043C85010BD00002DE9F04142F2000857
:100ED000C5F20028D8F8000000F00F0006280CD852
:100EE000D8F80000072161F30300C8F80000D8F823
:100EF000000000F00F00072834D144F20047C5F687
:100F00000207FFF745FD0446386840F001003860ED
:100F10003868400707D4FFF73BFD001B0228F7D9CC
:100F20000320BDE8F081786849F2000140F080407C
:100F300078600020386140F20400C0F2D031C0F285
:100F4000000040F21002C0F2000249F8001040F226
:100F50000800C0F2000049F8001059F80200FFF73D
:100F6000CBF810B10120BDE8F081FFF711FD044678
:100F700041F288363D69FFF70BFD15F0380F054645
:100F800005D0281BB042F5D90320BDE8F0814EF60C
:100F900045513868CFF6F67141F28836084038601E
:100FA0003C68FFF7F5FCA103044605D5601BB04281
:100FB000F6D90320BDE8F081386820F080703860F1
:100FC0003D68FFF7E5FCA901054605D5281B022869
:100FD0004FF00300F4D956E0386820F080603860A4
:100FE0003C68FFF7D5FC2101044605D5601B0228AB
:100FF0004FF00300F4D946E0386820F080503860A4
:101000003868800007D5FFF7C3FC001B02284FF0AB
:101010000300F5D937E040F200210020B861C0F2AA
:101020000221F8613862B9620021C0F2FF11F96251
:1010300040F28021C0F2011139637863B963F8632B
:1010400039647864396821F48021396038664FF05A
:10105000FF30B866D7F8D00040F48030C7F8D00031
:10106000D8F8000000070DD5D8F80000072161F37B
:101070000300C8F80000D8F8000000F00F000728AF
:101080007FF470AF0020BDE8F08100BF00BF00BF5B
:1010900010B5002869D00178C90744F20041C5F6AF
:1010A000020132D00A6902F038038A6A102B05D097
:1010B000182B09D102F00302022A05D10A68920313
:1010C00023D542680ABB50E042682AB1B2F5A02F8E
:1010D0000AD0B2F5803F0BD00B6823F480330B604D
:1010E0000B6823F4802306E00B6843F480230B6035
:1010F0000B6843F480330B6022B100BF0A6892038F
:10110000FCD502E00A689203FCD4426A002A00F08F
:1011100094800B6903F03803182B28D1012A8A6ABE
:10112000096B22D002F00303846AA3421DD1C2F3EB
:101130000512C36A9A4218D10A46036B6FF35F2205
:10114000013B9A4211D1C1F34623426B013A9342CB
:101150000BD1C1F30643826B013A934205D1C1F32F
:101160000661C06B0138814267D0012010BD0B6859
:10117000022A23F080720A605CD100BF0A689201E3
:10118000FCD48A6A40F2F33322EA030CD0E90A3233
:10119000D0E90CE443EA0C034FF47E4C43EA02121C
:1011A000AEF101036FF35F238A620CEB44224FF42C
:1011B000FE0C92B2C46B1A44836B0CEB03434FF0EA
:1011C000FE4C03F4FE030CEB04641A4404F0FE43EB
:1011D0001A440A63CA6A4FF6F87322F00102CA621F
:1011E0004A6B846C9A4342EAC4024A63CA6A036C3B
:1011F00022F00C021A43CA62CA6A406C22F0020250
:101200001043C862C86A40F48030C862C86A40F4BB
:101210000030C862C86A40F48020C862C86A40F0E2
:101220000100C862086840F08070086008688001AA
:10123000FCD502E008688001FCD4002010BD00BF8E
:101240002DE9F04581B0002800F0148142F200023F
:10125000C5F20022136803F00F038B420AD2136811
:1012600023F00F030B431360136803F00F038B424B
:1012700040F00081066844F2184416F00408C5F6F0
:1012800002040AD00769236803F070039F4204D95F
:10129000236823F070033B43236016F0080C0AD048
:1012A0004769636803F070039F4204D9636823F0C1
:1012B00070033B43636016F0100E0AD085696368C3
:1012C00003F4E0639D4204D9636823F4E0632B4395
:1012D000636016F0200A0AD0C769A36803F07003A0
:1012E0009F4204D9A36823F070033B43A36016F028
:1012F00002070AD0C368256805F00F05AB4204D980
:10130000256825F00F052B432360F30732D02368AF
:10131000D0E9016523F47063012E43EA05032360DD
:1013200009D0032E0DD0022E11D154F8183C9B0386
:1013300040F1A08010E054F8183CDB0540F19A80A1
:101340000AE054F8183C9B0140F1948004E054F802
:10135000183C5B0740F18E8054F8083C23F00703EB
:10136000334344F8083CF30054F8085C05F03805B2
:101370009D42F9D157B1C368256805F00F05AB420E
:1013800004D2256825F00F052B432360136803F072
:101390000F038B4209D9136823F00F030B4313602B
:1013A000126802F00F028A4264D1B8F1000F0AD02D
:1013B0000169226802F07002914204D2226822F090
:1013C000700211432160BCF1000F0AD041696268CC
:1013D00002F07002914204D2626822F0700211435E
:1013E0006160BEF1000F0AD08169626802F4E062B8
:1013F000914204D2626822F4E06211436160BAF162
:10140000000F0AD0C069A16801F07001884204D2BF
:10141000A16821F070010843A06000F031F8216854
:1014200041F2AE52C0F200022368C1F303217A44B4
:1014300003F00F03515CD25C01F01F01C84002F0C1
:101440001F0140F2080220FA01F1C0F2000249F83F
:10145000021040F2040140F21002C0F20001C0F29A
:10146000000249F8010059F80200FEF745FE01B0FC
:10147000BDE8F085012001B0BDE8F08500BF00BFE8
:1014800044F20041C5F602010869C0F3C200032816
:101490000FD002282AD070BB0868800649F20000ED
:1014A000C0F2D03058BF70470968C1F3C101C840CD
:1014B00070478A6A886AC0F3051CC86ABCF1000FCD
:1014C0004B6B1DD0C3F3CC0300F00100584302F076
:1014D0000302022A00EE100AB8EE400A12D0A2B9A6
:1014E0000868800614D49FED261A1EE047F64000D7
:1014F000C0F27D10704740F60010C0F23D0070470A
:10150000002070479FED1D1A0FE09FED1B1A0CE0A5
:10151000086849F20002C0F2D032C0F3C10022FADA
:1015200000F001EE100AB8EE411A086B9FED153A73
:101530006FF35F2002EE100A086BC0F34620B8EE8E
:10154000422A013000EE032A00EE10CAB7EE003A3C
:10155000B8EE400A81EE000A32EE031A20EE010ACC
:1015600001EE100AB8EE411A80EE010ABCEEC00A84
:1015700010EE100A704700BF0024744A20BCBE4B16
:101580000024744C0000003970B586B0002844F285
:10159000E04640F2000014460D46C5F60206C5F6C8
:1015A00002001DD0316800F5006041F00401316097
:1015B000316801F00401019101994FF4007101912A
:1015C000022102910321049100210391059101A9B7
:1015D00000F0A2F956F8D00CE40120F07E4019E0AA
:1015E000316841F001013160316801F00101019180
:1015F00001994FF48071019102210291032104911C
:1016000000210391059101A900F086F956F8D00C4C
:1016100020F0FE7044EA0501084346F8D00C06B0FD
:1016200070BD00BF00BF00BF44F20040C5F602001D
:10163000016841F400210160704700BF00BF00BF96
:1016400044F20040C5F60200016821F40021016067
:10165000704700BF00BF00BF80B5FFF711FF44F225
:101660001841C5F602010A68096841F2623301F0C7
:101670000F01C2F30322C0F200037B449A5C595C61
:1016800002F01F0220FA02F201F01F0040F20801EE
:1016900022FA00F0C0F2000149F8010040F2040112
:1016A000C0F2000149F8012080BD00BF00BF00BFAB
:1016B00080B5FFF7E5FE44F2184CC5F6020CDCF8E5
:1016C0000020DCF8003041F2063103F00F03C2F3D2
:1016D0000322C0F2000179448A5CCB5C02F01F0255
:1016E000D04003F01F0240F2080320FA02F2C0F2D9
:1016F000000349F8032040F20403C0F2000349F854
:101700000300DCF80400C0F30210085C00F01F00C6
:1017100022FA00F080BD00BF80B5FFF7B1FE44F2B1
:10172000184CC5F6020CDCF80020DCF8003041F261
:101730009E2103F00F03C2F30322C0F2000179449B
:101740008A5CCB5C02F01F02D04003F01F0240F223
:10175000080320FA02F2C0F2000349F8032040F225
:101760000403C0F2000349F80300DCF80400C0F3EE
:101770000220085C00F01F0022FA00F080BD00BFCC
:10178000F0B581B0044644F20045C5F602053F209D
:1017900020602868400304D42868C00304D40020D3
:1017A00004E04FF4A02001E04FF48030606028682E
:1017B00000F08000E061FFF74FF941F204060C21D0
:1017C000B0424FF0180038BF042138BF1A204FF044
:1017D0003F024FF0180738BF1F22695821FA00F066
:1017E00010402062286800F00100E060FFF734F943
:1017F000B0424FF07F0038BF0C2738BF3F206968E8
:10180000F94008402061286F400705D4286FC007C1
:1018100005D10020A06004E00520A06001E00120C7
:10182000A060686F00F0010060612868C0F30030BC
:10183000A0612868C0014FF0020058BF012060621B
:10184000A86A00F00300A062A86AC0F30510E06275
:10185000286B6FF35F2001302063286BC0F30660B4
:101860000130E063286BC0F3462001306063286BD1
:10187000C0F306400130A063E86A00F00C00206469
:10188000E86AC0F340006064686BC0F3CC00A064F9
:1018900001B0F0BD00BF00BF3F22026044F2184219
:1018A000C5F6020252F8083C03F0070343601368D0
:1018B00003F470638360136803F00F03C36013685D
:1018C00003F070030361536803F0700343615368CE
:1018D00003F4E0638361926802F07002C26142F235
:1018E0000000C5F20020006800F00F00086070479B
:1018F00010B544F26444C5F602042068400558BFA0
:1019000010BD00F005F84FF48060606010BD00BFAE
:1019100070470000000000002DE9F04D82B042F257
:1019200000420A23C5F602020F68904208BF09234D
:10193000002F009300F0BE8000F126424FF0010E10
:1019400002F1FF7200244FEAB223009A092B4FF0F4
:10195000000638BF1A464FF0010800920AE000BFA7
:101960000F68043637FA08F208F1010804F102049E
:1019700000F0A080A8F1010B0EFA0BF517EA050A9A
:10198000EED04F68122F16D80EFA07F313F0061F89
:1019900011D00322D0F808C0A240CB682CEA020282
:1019A000A3401A438260C7F300134268AA4303FAB4
:1019B0000BF31A4342600323C26803FA04FC8B68EA
:1019C00047F0100522EA0C02A340122D42EA03025E
:1019D000C26012D16FF0030206F01C0502EA5B023E
:1019E0000F270244AF40136AD1F810E0BB430EFA50
:1019F00005F74FF0010E3B43136202684B6803F09A
:101A000003076FEA0C05A7402A40DB0042EA070201
:101A10000260A5D544F2F44340F2084CC5F6020337
:101A2000C5F6000C0F251A6842F002021A601A6807
:101A300002F0020201922BF00302019B06F00C035C
:101A40004FF0B04B52F80C709D40AF43009D05FA2B
:101A500003F33B4342F80C3040F2040CC5F6000C93
:101A6000DCF87C204B6842EA0A07DD0358BF22EA13
:101A70000A079D03CCF87C70DCF8802042EA0A0754
:101A800058BF22EA0A07DD02CCF88070DBF800209C
:101A900042EA0A0758BF22EA0A079B02CBF8007005
:101AA000DCF8002042EA0A0758BF22EA0A07CCF80D
:101AB000007055E702B0BDE8F08D00BF00BF00BF69
:101AC0002DE9F04D82B042F200420A23C5F602022F
:101AD000904208BF09230029019375D000F12642E6
:101AE000019B02F1FF7200274FEAB2220126092A68
:101AF00038BF134600220091019328E003210568B6
:101B000001FA02F36FF0030101EA5A041D43044491
:101B1000056007F01C050F2101FA05FC256A25EA7E
:101B20000C052562C5689D43C560456825EA080522
:101B30004560856825EA03038360009931FA06F35E
:101B400006F1010607F1040702F102023CD0A6F1FA
:101B5000010A012303FA0AF818EA010CEED040F258
:101B600008414FEA9A0BC5F6000107F00C050F2358
:101B700051F82BE003FA05F1019C0EEA010304FA87
:101B800005F5AB42BAD104254FF0B044C5F60005C7
:101B9000EB6F23EA0C03EB67D5F8803023EA0C03E4
:101BA000C5F88030236823EA0C0323602B6823EAFE
:101BB0000C032B6040F20845C5F6000555F82B30A4
:101BC0008B4345F82B3099E702B0BDE8F08D00BF9C
:101BD0000069084018BF0120704700BF00BF00BF68
:101BE000002A08BF09048161704700BF00BF00BF21
:101BF00042690A408A4208BF09048161704700BFF8
:101C000081B04FF480320092009A0A430092009A09
:101C1000C261C1610099C161C1690091C0690121BE
:101C200021EA104001B0704780B58821C5F6000157
:101C30000A68024208BF80BD086000F001F880BD5C
:101C4000704700000000000010B50446FEF7A0FE3B
:101C5000002C42D094F8410028B92046FEF7F8FA4B
:101C600041F28830A06420686FF0FF03A168026829
:101C700022F4706203EB012111430160816889063F
:101C8000FCD44FF62F720168C0F2FF02636801EACC
:101C9000020EE26842EA0E02D4F810E0D4E907C16D
:101CA00042EA0362636942EA0C02114301604FF6A3
:101CB000FE024168CFF6E0721140A269194341EA81
:101CC0000E4111434160016841F0010101600020B3
:101CD0006064012184F8411010BD012010BD00BFD7
:101CE000704700BF00BF00BF8164704700BF00BFE6
:101CF00070B110B504460068016821F0010101606F
:101D00002046FEF74DFB0020606484F8410010BDC2
:101D10000120704700BF00BF704700BF00BF00BF79
:101D2000B0B50D460446FEF733FE94F84000012896
:101D300001D10220B0BD012084F8400094F8410098
:101D400001284FF002001AD10021616484F841009B
:101D5000206800BF81688906FCD4002220462946FD
:101D600000F012F8686A30B9206800BF81688907FE
:101D7000FCD50221C160012084F84100002000212F
:101D800084F84010B0BD00BF2DE9F04DD1F824C05B
:101D9000B2F1406F18BFBCF1000F03D003688F6A27
:101DA000013F1F61D1F818E0BEF1000F0B6A2CD083
:101DB000002B53D000688C68D1E90486CD69C461DA
:101DC000D1E90B7B002D4C6B4FEA864A69D04CEA77
:101DD0000206B2F1406F46EA0E0643EA0603CE68F9
:101DE00043EA050343EA07030F6843EA0B0343EAA8
:101DF000040343EA0A0343EA080343EA060343EA07
:101E0000070242616FD1BDE8F08D002B55D000680C
:101E10008C68D1E90486CD69C461D1E90B7B002DC2
:101E20004C6B4FEA864A62D04CEA0206B2F1406F30
:101E300046EA0E0643EA060343EA050343EA0703BC
:101E4000CF6843EA0B0343EA040343EA0A0343EA85
:101E5000080343EA07024261D5D044E04B69CF69E9
:101E60004FEA8348D1E90B54002F4E6B4FD04CEA18
:101E70000203006843EA0E03B2F1406F43EA07032E
:101E80000F6843EA0503CD6843EA040343EA060307
:101E900043EA080343EA050343EA07024261B2D07A
:101EA00021E042EA0C0242EA0E021A433A4342EAB5
:101EB0000B02224342EA0A0231E0CB69B3B34CEA97
:101EC0000205CC6A2B430D6B23434E694C6B2B43AD
:101ED00023430068CF6843EA8643B2F1406F43EA88
:101EE000070242618FD049688161BDE8F08D4CEAFC
:101EF000020141EA0E011943394341EA0B01214332
:101F000041EA0A0141EA08014161BDE8F08D42EA77
:101F10000C02006842EA0E022A4322433243096857
:101F200042EA080211434161BDE8F08DBCF1000FA7
:101F300008BFBDE8F08DD1E90B7642EA0C024B698F
:101F40003A43496B32430068114341EA834141619E
:101F5000BDE8F08D00BF00BF70B50D460446FEF72A
:101F600017FD94F84000012825D0012084F8400096
:101F700094F8410001281BD100206064022084F8FD
:101F80004100206881688906FCD4696A09B9032187
:101F9000C1600022204629460026FFF7F5FE686A48
:101FA00058B1012084F84100304684F8406070BD8B
:101FB000002084F84000022070BD84F84060206852
:101FC000016841F440310160304670BD00BF00BF80
:101FD000B0B50D460446FEF7DBFC206894F84010CF
:101FE000012901D10220B0BD012184F8401094F8EC
:101FF0004110012924D14FF00001616475B3122111
:1020000084F8411001690131E16201690131A16285
:102010006562416921F04061416100BFE16A89B1B7
:10202000216800BF8A685207FCD5616A097880F888
:102030002010616AE26A01316162511EE162EDE7DE
:10204000022010E0206800BF81688907FCD50221CA
:10205000C160012084F84100002004E0606C40F081
:10206000080060640120002184F84010B0BD00BF6A
:10207000B0B50D460446FEF78BFC2068816994F8E4
:102080004020012A01D10220B0BD012284F8402065
:1020900094F84120012A26D14FF0000262647DB3FA
:1020A000222284F84120026901230132A2630269DD
:1020B000013262632563426963F39B62426181611D
:1020C000A16B91B1216800BF8A6812F0060FFBD0A6
:1020D00090F82010226B1170216BA26B01312163EB
:1020E000511EA163ECE702200FE020688168890798
:1020F000FCD50221C160012084F84100002004E0E9
:10210000606C40F0080060640120002184F84010F9
:10211000B0BD00BF00BF00BF024690F840000128DC
:102120002DD0012082F8400092F84100012823D1EF
:102130004FF00000506421B3122382F84130D2F8EE
:1021400000C0DCF810300133D362DCF8103001330A
:10215000936251620321CCF80C10DCF8141021F0CA
:102160004061CCF8141082F84000DCF8001041F413
:10217000E021CCF800107047002082F840000220D7
:102180007047516C41F00801516482F84000012011
:10219000704700BF00BF00BF80B5D0F800E0024626
:1021A000DEF818C090F8400001282ED0012082F8F7
:1021B000400092F84100012824D14FF00000506403
:1021C00029B3222382F84130DEF8103001339363C3
:1021D000DEF810300133536311630321CEF80C1085
:1021E0000123DEF8141063F39B61CEF81410CEF8CF
:1021F00018C082F84000DEF8001041F4E021CEF86B
:10220000001080BD002082F84000022080BD516C8B
:1022100041F00801516482F84000012080BD00BFF8
:1022200070B516460D460446FEF7B2FB94F8400022
:10223000012801D1022070BD012084F8400094F8EB
:10224000410001282AD100206064422084F8410026
:10225000206800BF81688906FCD496E80E10816270
:102260004262C3620168326921F4400111434FF0B8
:10227000006241F48001016020462946C5F828C06B
:10228000FFF782FD206800BF81680907FCD508219F
:10229000C160012084F84100002000E002200021FC
:1022A00084F8401070BD00BF70B516460D46044658
:1022B000FEF76EFB94F84000012833D0012084F82B
:1022C000400094F84100012829D100206064422098
:1022D00084F84100206800BF81688906FCD496E834
:1022E0000E1081624262C362016821F44001D6E9A6
:1022F000042311434FF00062194301600921C160BA
:1023000020462946C5F828C0FFF73EFD002084F886
:10231000400021680A6842F410220A6070BD002063
:1023200084F84000022070BD70B516460D46044684
:10233000FEF72EFB94F84000012801D1022070BD69
:10234000012084F8400094F84100012822D10020A7
:102350006064822084F84100206800BF816889069B
:10236000FCD40168726821F00801082A41EA0201E0
:10237000016007D1316801631021C160016841F437
:10238000801101604FF0406220462946FFF7FCFCB7
:10239000002000E00220002184F8401070BD00BF42
:1023A000704700BF00BF00BF704700BF00BF00BF45
:1023B000704700BF00BF00BF704700BF00BF00BF35
:1023C000704700BF00BF00BF704700BF00BF00BF25
:1023D000704700BF00BF00BF704700BF00BF00BF15
:1023E00090F84100704700BF406C704700BF00BFCD
:1023F00010B50446FEF7CCFA94F84100800717D5D3
:10240000002084F840002068016841F0020101606A
:1024100081688907FCD50221C16000BF81688906F7
:10242000FCD4416921F040614161012084F8410000
:10243000002010BD00BF00BF90F84020012A01D14C
:1024400002207047012280F8402090F84120012AA4
:102450000CD1026881606FF0FF0C13680CEB012156
:1024600023F4706319431160002100E0022100226F
:1024700080F840200846704700680068C0F30320D9
:102480000130704700BF00BF90F84020012A01D101
:1024900002207047012280F8402090F84120012A54
:1024A00008D10268C161136823F0800319431160E9
:1024B000002100E00221002280F8402008467047F9
:1024C0004EF60C514FF6FF03CEF200010A681A4097
:1024D00060F30A2242F0806040F0FD7008607047AF
:1024E00070B54EF60C5C4FF0FF36CEF2000C00F1EA
:1024F0006045DCF80030C3F3022E8EF00703042B96
:1025000028BF0423BEF1030406FA03F321EA030102
:1025100000F00F0338BF0024043BB0F1FF3F6344D9
:1025200006FA04F003F10C0301FA04F1C8BF05F543
:10253000644322EA000008430001187070BD00BF28
:10254000002848BF704700F01F01012202FA01F184
:102550004EF200124009CEF2000242F820107047FD
:10256000002848BF70474EF2801300F01F01400959
:10257000CEF20003012202FA01F143F82010BFF36A
:102580004F8FBFF36F8F704700F002F800BF00BF9E
:102590004EF60C500422CEF20000C0F2FA52BFF305
:1025A0004F8F016801F4E06111430160BFF34F8F69
:1025B00000BFFDE700BF00BF411E0020B0EB116F60
:1025C00001D0012070474EF21002F023CEF200023B
:1025D00051604EF62351CEF200010B70072190603E
:1025E0001160704700BF00BF4EF62450CEF20000CD
:1025F000BFF35F8F016821F4803101600021016722
:10260000704700BF00BF00BF4EF6245140F00100EC
:10261000CEF200010867086840F480300860BFF31C
:102620004F8FBFF36F8F7047B0B502784EF69C5C4A
:10263000CEF2000C43784CF8043CF2B14368CCF87D
:102640000030037BC17A90F80AE0457B447A42EA85
:102650000372837B42EA0161C27B41EACE41007A88
:1026600041EA854141EA434141EA024141EA04210C
:1026700041EA4000CCF80400B0BD0020CCF80000D6
:10268000CCF80400B0BD00BF4EF60C50CEF20000F6
:102690000068C0F30220704710B54EF6145400F0E5
:1026A0000F0ECEF2000400F1604C7444B0F1FF3F15
:1026B000C8BF0CF5644401F007004FF0FF3E80F006
:1026C000070194F800C0042928BF042103384FEA09
:1026D0001C1438BF00200EFA01F1C4400EFA00F0BD
:1026E00024EA0101C043116000EA1C10186010BD0B
:1026F000002848BF70474EF2002300F01F01400938
:10270000CEF20003012202FA01F143F820107047D3
:1027100000280DD44EF200224109CEF2000200F052
:102720001F0052F8211021FA00F000F0010070475C
:102730000020704700BF00BF002848BF70474EF21E
:10274000802300F01F014009CEF20003012202FAAB
:1027500001F143F82010704700280DD44EF20032EA
:102760004109CEF2000200F01F0052F8211021FAB8
:1027700000F000F0010070470020704700BF00BF6C
:102780004EF210010428CEF200010A6822F0040281
:1027900008BF04320A60704780B500F001F880BDC0
:1027A000704700BF00BF00BF03207047000000005B
:1027B00080B54EF6885C42F2000ECEF2000CC5F2F7
:1027C000002EDCF8001041F47001CCF80010DEF8A7
:1027D000001001F00F01062906D8DEF800100722CC
:1027E00062F30301CEF8001044F200414EF67F532D
:1027F000C5F60201CEF6F6230A6842F001020A602D
:1028000000220A61086818400860DEF8000000072E
:1028100006D5DEF80000072363F30300CEF80000BE
:1028200040F200208A61CA61C0F202200A62886216
:102830000020C0F2FF10C86240F28020C0F20110F8
:1028400008634A638863CA6308644A64086820F4BA
:102850008020086041F200000A66C5F6004000686A
:10286000B2EB507F05D148F208100121C5F20010EB
:10287000016044F2000043F2D201C5F20020016081
:102880004FF000604CF8800C80BD00BF00BF00BF5F
:1028900044F20040C5F602000169C1F3C2010329F8
:1028A0000CD002292FD099BB016849F20002C0F276
:1028B000D032C1F3C10122FA01F15AE0826A816A81
:1028C000C1F3051CC16ABCF1000F436B25D0C3F3F3
:1028D000CC0301F00101594302F00302022A00EE89
:1028E000101AB8EE400A1AD0E2B9016849F20002A3
:1028F000C0F2D032C1F3C10122FA01F101EE101A87
:10290000B8EE411A10E047F64001C0F27D1130E008
:1029100040F60011C0F23D012BE0002129E09FEDBF
:10292000251A01E09FED221A016B9FED233A6FF308
:102930005F2102EE101A016BC1F34621B8EE422A64
:10294000013100EE032A00EE10CAB7EE003AB8EEED
:10295000400A81EE000A32EE031A20EE010A01EE6F
:10296000101AB8EE411A80EE010ABCEEC00A10EE51
:10297000101A8269806940F2560300F00F00C2F31A
:102980000322C0F200037B449A5C185CD14040F201
:102990000802C0F2000200F01F0021FA00F049F81E
:1029A000020040F20400C0F2000049F80010704735
:1029B0000024744A20BCBE4B00000039D2B201E0B2
:1029C00000F8012B491EFBD270470022F6E710B534
:1029D00013460A4604461946FFF7F0FF204610BD8D
:1029E00000000000010203040102030406070809B5
:1029F000000000000090D0030090D0030100000010
:042A000010000000C2
:020000040000FA
:102A0400010148373530584248365F515350495FC9
:102A1400573235513132384A560000000000000068
:102A240000000000000000000000000000000000A2
:102A34000000000000000000000000000000000092
:102A44000000000000000000000000000000000082
:102A54000000000000000000000000000000000072
:102A64000000000000000000000000000000000062
:102A74000000000000000000000000000000000052
:102A8400000005000000009000000001001000009C
:102A940000000000FF000000E803000070170000C1
:102AA4000000010000000000FFFFFFFFFFFFFFFF29
:102AB4000000000000000000000000000000000012
:102AC4000000000000000000000000000000000002
:102AD40000000000000000000000000000000000F2
:102AE40000000000000000000000000000000000E2
:0400000500000000F7
:00000001FF
