:0200000490006A
:10000000507306246D030090CF580090DF4C009091
:10001000CD5800904B050090916F009000000000BB
:10002000000000000000000000000000AD02009091
:100030008505009000000000090300908D5E00908F
:100040008703009087030090870300908703009048
:100050008703009087030090870300908703009038
:100060008703009087030090870300908703009028
:100070008703009087030090870300908703009018
:100080008703009087030090870300908703009008
:1000900087030090870300908703009087030090F8
:1000A00087030090870300908703009087030090E8
:1000B00087030090870300908703009087030090D8
:1000C00087030090870300908703009087030090C8
:1000D00087030090870300908703009087030090B8
:1000E00087030090870300900000000087030090C2
:1000F0008703009087030090870300908703009098
:100100008703009087030090870300908703009087
:1001100087030090870300906D60009079600090E5
:100120008703009087030090870300908703009067
:100130008703009087030090870300908703009057
:1001400000000000000000000000000000000000AF
:100150008703009087030090870300908703009037
:100160008703009087030090870300908703009027
:1001700087030090DD58009087030090870300906C
:100180008703009087030090870300908703009007
:1001900087030090870300908703009087030090F7
:1001A00049500090870300904D0500908703009010
:1001B00087030090870300908703009087030090D7
:1001C00087030090870300908703009087030090C7
:1001D00087030090D1580090870300908703009018
:1001E00087030090870300908703009087030090A7
:1001F0008703009087030090870300908703009097
:100200008703009087030090870300908703009086
:100210008703009087030090870300908703009076
:100220008703009087030090870300900000000080
:100230008703009087030090000000008703009070
:100240008703009087030090870300908703009046
:100250008703009087030090870300908703009036
:100260008703009087030090870300908703009026
:100270008703009087030090870300900000000030
:100280008703009087030090870300900000000020
:100290000000000087030090DFF80CD000F018F990
:1002A00000480047A1860290507306242C4B196821
:1002B0000868B0E8F04F80F30988BFF36F8F4FF004
:1002C000000080F3118870470000000008480068B3
:1002D000006880F308884FF0000080F3148862B64D
:1002E00061B6BFF34F8FBFF36F8F00DF00BF00BF5A
:1002F00008ED00E0DFF80C00016841F470010160D6
:10030000704700BF88ED00E0EFF30980BFF36F8F07
:10031000134B1A681EF0100F08BF20ED108A20E959
:10032000F04F106009B44FF0500080F31188BFF314
:100330004F8FBFF36F8F2EF063FE4FF0000080F3FE
:10034000118809BC19680868B0E8F04F1EF0100F5A
:1003500008BFB0EC108A80F30988BFF36F8F704735
:1003600024000024EFF30580704700000648804712
:1003700006480047FEE7FEE7FEE7FEE7FEE7FEE78A
:10038000FEE7FEE7FEE7FEE7895F00909902009036
:100390002DE9F05F0546002092469B4688460646BA
:1003A000814640241BE0284641464746224600F04D
:1003B0007FF853465A46C01A914110D31146184649
:1003C000224600F066F82D1A67EB01084F462246D8
:1003D0000120002100F05DF817EB00094E41201EBE
:1003E000A4F10104DFDC484631462A464346BDE815
:1003F000F09F10B5431A934209D28318881803E07E
:1004000010F8011D03F8011D521EF9D210BD40EA7B
:1004100001039B0703D009E008C9121F08C0042A82
:10042000FAD203E011F8013B00F8013B521EF9D269
:1004300010BDD2B201E000F8012B491EFBD270477B
:100440000022F6E710B513460A4604461946FFF7A0
:10045000F0FF204610BD421C10F8011B0029FBD103
:10046000801A704710B5002200E0521C835C8C5C3F
:10047000A34201D1002BF8D1D8B2E1B2401A10BD8D
:10048000034611F8012B00F8012B002AF9D1184678
:100490007047202A04DB203A00FA02F1002070475E
:1004A0009140C2F1200320FA03F3194390407047B2
:1004B000202A04DB203A21FA02F00021704721FAB9
:1004C00002F3D040C2F12002914008431946704720
:1004D000064C074D06E0E06840F0010394E8070091
:1004E00098471034AC42F6D3FFF7DAFE7CFF049055
:1004F000ACFF049070B58C1810F8015B15F0070381
:1005000001D110F8013B2A1106D110F8012B03E0AC
:1005100010F8016B01F8016B5B1EF9D12B0705D4B4
:100520000023521E0DD401F8013BFAE710F8013BFD
:10053000CB1A921C03E013F8015B01F8015B521E19
:10054000F9D5A142D8D3002070BDFEE70B48416821
:10055000890711D5016889050ED50368022208496B
:1005600023F40073036082600878012804D100201E
:100570000870486819F030BF704700000010005242
:10058000A4020024704772B6FEE70000F0B50368CD
:100590004FF6FC716D4C426BD3F884508D4345EAA5
:1005A0008205C3F88450036853F8845F068F25F4EE
:1005B0007F0545EA06451D60836B654D9F180268FF
:1005C000D2F888308B4343EA8703C2F88830026848
:1005D00052F8883F868F23F4FE0343EA06431360F4
:1005E000066856F8A03FC26B8B4307EB420243EA12
:1005F00082033360076857F8A03FB0F8406023F4E7
:10060000FE0343EA06433B60D0E9103603FB0622B3
:100610000368D3F8B0608E4346EA8206C3F8B06040
:100620000368B0F84860D3F8B07027F4FE0747EAD3
:100630000646C3F8B060D0E91267036806FB0722DC
:10064000D3F8AC608E4346EA8206C3F8AC60D0E9CA
:100650001467036806FB0722D3F8F0608E4346EA6E
:100660008206C3F8F0600368B0F85860D3F8F07001
:1006700027F47C1747EA0646C3F8F0600368876DE5
:1006800053F8C06F02EB47028E4346EA82011960BD
:100690000168B0F85C20D1F8C03023F47C1343EA41
:1006A0000242C1F8C020016890F86020D1F8C03043
:1006B00023F07C5343EA0262C1F8C020416B04EB93
:1006C0008101C166826B01EB82020267C36B02EBA0
:1006D000C3024267D0E91034634302EB83028267AE
:1006E000D0E91234634302EB8302C267D0E91434C9
:1006F000634302EB8302C0F88020836D02EBC303E7
:10070000C0F88430C46D826E544303EB8403C0F898
:100710008830046E544303EB8402C0F89020AA4250
:100720000AD9D0F89C20032142F02002C0F89C2076
:1007300080F898100120F0BD002200E004C1D0F83C
:1007400090308B42FAD80020F0BD000000AC004091
:10075000FCD300407CB50D46144600210191020AED
:100760008DF80500FF2608480223BA218DF80420E1
:1007700001AA009600F080FE0348BB2123462A46CA
:10078000009600F0E7FD7CBDF40900241CB50022B2
:10079000030A0192FF248DF8043003238DF805002D
:1007A00001AA04488DF80610BA21009400F064FEF6
:1007B0001CBD0000F4090024F0B50446C8074FF042
:1007C000000010D01E23012603F01F0706FA07F5CC
:1007D0000D4201D15B1EF7D27AB1082A0BD0102A44
:1007E00006D0182A01D00120F0BD072BFBD204E06F
:1007F000082BF8D201E0102BF5D22368596121684B
:100800008B6823F0180313438B60F0BD10B5040010
:1008100010D0607F20B900202077204600F032F809
:1008200021790220607739B1D4E902122046FFF71E
:10083000C3FF48B1012010BD2168114848612068FC
:10084000816821F0180181606079A0B12168206978
:100850000861012220686369816821F06001194301
:1008600081602068A369816821F08001194381605B
:100870006277002010BD21684FF0FF30E8E70000EC
:10088000B71DC10408B500680649884208D106486A
:10089000016841F400210160006800F4002000902C
:1008A00008BD0000004C0258E0440258F0B590F832
:1008B0006020012A22D0C1EBC102012780F86070BC
:1008C000022380F8613000EB8202284D138F168ED0
:1008D000B2F83CC0D46A1B05283244EA064643EA13
:1008E0004C530A2C46EA03060AD0092C08D0137B85
:1008F00046EA036349B10B2C1AD01DE00220F0BD7B
:10090000D36803F07F433343F4E701684C6AAC4398
:100910001C434C62016813688B6151680A2901D03D
:1009200009291BD1D168026821F07F41916215E04D
:10093000118B0F4D43EA81430168CC69AC431C43E2
:10094000CC61016813680B6151680A2901D009293B
:1009500004D1D168026821F07F411162002180F842
:10096000617080F860100846F0BD00000F0033FF92
:100970000F003FFF2DE9F041040004D094F861001E
:10098000002518B107E00120BDE8F081204684F879
:10099000605000F033F8184E022084F86100012303
:1009A000D4E90010D4F81CC040F207120F6840EAE6
:1009B0000C003740384308602068A769A168466B7F
:1009C00039439643314341632068E268016C6FF319
:1009D0000F01114301642068218AA28A466B090530
:1009E00041EA425126F4401211434163656684F89E
:1009F00061300020C8E70000BFFFF8FF08B50068BD
:100A00000B49884212D10B48016841F01001016086
:100A100000680022114600F0100000905A2001F0FA
:100A2000FDF8BDE808405A2001F0EAB808BD000012
:100A300000100052D444025870B5044600F0A2FAE7
:100A40000546601C02D004480078044400F09AFA7D
:100A5000401BA042FAD370BD100000242DE9F041E4
:100A600094B08D494C2204466846FFF7C2FC64B13D
:100A70008A4D2068A84202D100F58070606094F829
:100A800098004FF0000820B108E0012014B0BDE844
:100A9000F081204684F8998000F002F9206881698D
:100AA00021F01001816100F06DFA0327064604E091
:100AB00000F068FA801B0A2811D8206880690007B6
:100AC000F6D42068816941F00101816100F05AFA91
:100AD00006460DE000F056FA801B0A2808D9D4F823
:100AE0009C0040F00100C4F89C0084F89870CCE7AA
:100AF00020688069C007EDD02068816941F002015B
:100B00008161207C01282068816937D041F0400153
:100B10008161607C01282068816932D021F48041A4
:100B20008161A07C0128206881692DD041F4805129
:100B300081612068A268816921F44071114381615B
:100B40002068816921F0A40181612068016921F098
:100B500010010161E068012819D010B302281BD0F0
:100B60002068816941F0800181612068016941F05C
:100B700010010161E06803280ED012E021F040016D
:100B8000C6E741F48041CBE721F48051D0E72068EB
:100B9000816941F0040103E02068816941F020018E
:100BA0008161207E6FF0FF02D4E90773A68A1102EB
:100BB000400602EB0727A0F10070384327685B1E50
:100BC000184301EB06463043F861A068B0F5407F5A
:100BD00011D104F12800A68C6FF00F0C89C801EB2D
:100BE0000641401E02EB0322104322680CEB071360
:100BF00018430843D060206E30B12068626ED0F890
:100C0000C0101143C0F8C010D4E917126846D14291
:100C100009D02168A36E51F8C82F50F8233022F074
:100C200007021A430A60216C49B12168626C51F8CD
:100C3000BC3F50F8226023F0070232430A60A16CE7
:100C400051B12168E36C51F8BC2F50F8233022F0E9
:100C5000700242EA03120A60216D51B12168626D8F
:100C600051F8BC3F50F8220023F4E06242EA002031
:100C700008602068A84204D16068816821F00301FF
:100C80008160C4F894800121C4F89C8084F8981095
:100C90002046FFF77BFCF9E670FC029000A00040C4
:100CA00010B5B6B00446142130A8FFF7C9FBC02127
:100CB0006846FFF7C5FB1949206888422CD10020FF
:100CC0004FF40041CDE900104A0368461C9201F040
:100CD0000FFD08B1FFF757FC1148016841F480711E
:100CE0000160006800F4807035900D480C38016890
:100CF00041F00801016000680923032100F00800A9
:100D0000359000203091022230A9CDE93120CDE983
:100D10003303044800F008F836B010BD00A00040CE
:100D2000EC440258000C02582DE9F84F03247D4D85
:100D300000234FF001094FF0B04B4FF00F0AE9E0EC
:100D400009FA03F73A4076D00E7906F00306012E31
:100D500001D0022E18D1D0F808C04FEA430ECE6859
:100D600004FA0EF82CEA080C06FA0EF646EA0C060F
:100D70008660D0F804C00E792CEA070CC6F3001682
:100D80009E4046EA0C0646600E79F643B6070BD045
:100D9000C6684FEA43088F6804FA08FC26EA0C0686
:100DA00007FA08F73743C7600E7906F00306022EEC
:100DB00012D1DE080F694FEA437C00EB8606B64687
:100DC000366A4FEADC6C0AFA0CF807FA0CF726EAE6
:100DD00008063743CEF820700F7906684FEA4308BB
:100DE00007F0030704FA08FC07FA08F726EA0C06DE
:100DF000374307604E6816F4403F1CD04A4E3768B0
:100E000047F00207376036689F0706F00206009633
:100E100023F0030606F1B046B6463F0FD6F8086445
:100E2000DFF808810AFA07FC404526EA0C0603D1E0
:100E30004FF0000C41E06CE0DFF8F4C0604502D1F7
:100E40004FF0010C39E0DFF8ECC0604502D14FF003
:100E5000020C32E0DFF8E0C0604502D14FF0030C35
:100E60002BE0DFF8D8C0604502D14FF0040C24E03D
:100E7000DFF8CCC0604502D14FF0050C1DE0DFF873
:100E8000C4C0604502D14FF0060C16E0DFF8B8C0D0
:100E9000604502D14FF0070C0FE0DFF8B0C06045AD
:100EA00002D14FF0080C08E0DFF8A4C0604502D181
:100EB0004FF0090C01E04FF00A0C0CFA07FC4CEA69
:100EC000060CCEF808C44F68DBF80060FF0226EA83
:100ED000020600D516435F46CBF80060D1F804C087
:100EE000DBF804605FEA8C2C26EA020600D5164384
:100EF0007E606E684F6826EA0206BF0300D516437F
:100F00006E602E684F6826EA0206FF0300D516437E
:100F10002E605B1C0A6832FA03F67FF411AFBDE85D
:100F2000F88F000080000058F44402580000025876
:100F30000004025800080258000C02580010025821
:100F40000014025800180258001C025800200258D1
:100F5000002402580069084000D00120704742690F
:100F600021EA02030A4043EA0241816170470AB163
:100F7000816170470904FBE701480068000C704775
:100F80000010005C014880687047000010000024D9
:100F900070477047704700002DE9F041066804462D
:100FA000304605F001FE012877D1206805F015FFD5
:100FB000002872D0206805F010FF800203D5216858
:100FC0004FF400104861206805F007FFC00203D508
:100FD00021684FF480104861206805F0FEFE400152
:100FE00003D521684FF080604861206805F0F5FE68
:100FF000800702D5216802204861206805F0EDFED7
:10100000800018D521684FF000504861D6F84004A0
:10101000C00710D11021304605F09BFD304605F089
:101020007CFD607A022803D12068012105F088FE4A
:101030002046FFF7AEFF206805F0CFFEC00102D5C5
:10104000204603F0BEFD206805F0C7FE000705D569
:10105000204600F0C7F8216808204861206805F0A4
:10106000BCFE800124D5206805F00DFE0025074652
:101070004FF0010815E000BF05F00F0108FA01F07C
:1010800038420DD006EB4510D0F80005E9B2000457
:10109000204603D503F048FA02E01CE003F018FCF8
:1010A0006D1C6079A842E7D821684FF00070486154
:1010B000206805F092FEC043C0060CD42068816908
:1010C00021F010018161204603F0C5FD206881698F
:1010D00041F010018161BDE8F08138B5040003D012
:1010E00094F8D50310B107E0012038BD002084F842
:1010F000D403204600F024F8032084F8D5032068A8
:1011000005F08AFC207C8DF8000094E80F0005F0C3
:1011100055FB022560B92068012105F082FE38B92F
:10112000207C8DF8000094E80F0005F0B1FD10B1AF
:1011300084F8D553D8E7012084F8D503002038BDC2
:1011400010B5B6B00446142130A8FFF779F9C021D4
:101150006846FFF775F91F492068884238D100209A
:101160004FF480214FF440122292CDE900106846DE
:1011700001F0BEFA08B1FFF706FA01F05BF9164874
:10118000016841F00201016000680C23022200F0B6
:101190000200359000204FF44041309130A9CDE954
:1011A0003120CDE933030D48FFF7BEFD0A4808386A
:1011B000016841F00071016000680022052100F023
:1011C000007035904D2000F029FD4D2000F018FDF5
:1011D00036B010BD00000440E0440258000402583C
:1011E00070477047704730B590F84120202A24D1CD
:1011F00090F84020012A20D0012380F8403024229A
:1012000080F84120202300240268156825F001059C
:1012100015600268156825F4805515600268156828
:101220000D43156001680A6842F001020A6080F807
:10123000413080F84040002030BD022030BD30B544
:1012400090F84120202A22D190F84020012A1ED077
:10125000012380F84030242280F8412020240025FA
:101260000268136823F0010313600268136823F413
:10127000706343EA0121116001680A6842F00102CB
:101280000A6080F8414080F84050002030BD0220C4
:1012900030BD000070B5040004D094F84100002572
:1012A00010B106E0012070BD204684F8405000F0E7
:1012B00089F9242084F841002068016821F00101A7
:1012C0000160D4E9001020F0706008612068816836
:1012D00021F400418160E06821680128A06830D0D5
:1012E00040F404408860E0680228206841682BD000
:1012F00021F40061416020682021154A43681343AE
:1013000043602068C26822F40042C26054F8106B47
:101310000DCC104340EA0320F06054F81C3CD4E9A3
:1013200000021043186054F81C0D026842F00102DC
:101330000260656484F84110256384F842500020FF
:1013400070BD40F40040CDE741F40061D2E70000F9
:10135000008000022DE9F84F044690F841001F4636
:101360009046DDF828A08B4620287ED194F84000D6
:1013700001287AD0012084F84000FFF703FE012203
:10138000064619230090D103204603F05BFDE0BB25
:101390000025222184F84110102084F84200656461
:1013A0006785618DFF2732484FF00079C4F82480AB
:1013B000FF294FF08078656303D927853A4600906E
:1013C00039E0618D218500903AE05946204603F0CE
:1013D00021FD13E003F074FDB8B92068616A406A2A
:1013E0000870606A401C6062208D401E81B22185B9
:1013F000608D401E6085608D00B169B1608D3246A0
:10140000514600282046E5D100E002E003F0ACFDA3
:10141000D0B10120BDE8F88F00225346802120463C
:10142000009603F00FFD0028F3D1608DFF2804D94A
:1014300027853A4600954346C7E7608D208500958D
:101440004B4694F82820C0E720682021094AC16152
:10145000206843681340436084F8411084F8425088
:10146000002084F84050D5E7FFE70220D2E70000D3
:101470000024008000E800FE2DE9FF4F81B0044603
:1014800090F8410099469046DDF838B020287BD18D
:1014900094F84000012877D0012084F84000FFF73D
:1014A00071FD0122064619230090D103204603F066
:1014B000C9FC002853D1414921220025C4F82480C9
:1014C000102084F84120FF2784F842006564A4F8C6
:1014D0002A90608D4FF080794FF0007A6563FF2885
:1014E00002D94B46278505E0608D534620850004D0
:1014F000000C10D0226898F800009062606A401CCE
:101500006062608D401E6085208D401E2085401CDD
:101510000091C2B201E0002200910299204603F03E
:1015200079FC13E003F04CFDC8B9606A21680078CB
:101530008862606A401C6062608D401E6085208DFC
:10154000401E80B22085618D01B160B1608D324650
:10155000594600282046E5D103F006FDE0B1012000
:1015600005B0BDE8F08F00225B4680212046009642
:1015700003F068FC0028F2D1608DFF2805D927858B
:101580003A464B460095C8E716E0608D53462085E5
:10159000009594F82820C0E721682020084AC861F7
:1015A00021684B6813404B6084F8410084F8425036
:1015B000002084F84050D3E70220D1E700200080CB
:1015C00000E800FEF0B5B7B00446142130A8FEF7DD
:1015D00037FFC0216846FEF733FF394912262068DD
:1015E0000427364D002488423AD100202194082156
:1015F000CDE90010684601F07BF808B1FEF7C3FFA3
:10160000286840F004002860286800F00400359045
:10161000286840F001002860286830A900F0010027
:1016200035904FF400703090CDE931642548CDE914
:101630003347FFF779FB4FF480703090CDE9316488
:10164000214830A9CDE93347FFF76EFB1B4808302E
:10165000016841F400010160006800F4000029E025
:101660001A49884227D1002026941021CDE9001084
:10167000684601F03DF808B1FEF785FF286840F0A4
:1016800008002860286830A900F0080035904FF461
:1016900040503090CDE931640D48CDE93347FFF734
:1016A00043FB06481430016841F080010160006886
:1016B00000F08000359037B0F0BD0000E0440258E3
:1016C000005C00400008025800000258001C00584E
:1016D000000C02580248816802781144816070470A
:1016E00010000024032010B500F0B8FA01F078FED5
:1016F0000F4A104914681368C4F3032203F00F0360
:101700008A5CC95C02F01F0201F01F01D0400A4A46
:1017100020FA01F1116009490860002000F010F87A
:1017200008B1012010BD00F059FA002010BD0000E2
:1017300018440258E4FC0290200000241C000024FD
:1017400010B5102804468AB02CD20022014637205A
:1017500000F064FA372000F053FA17480460174885
:10176000016841F020010160006809A900F0200033
:101770000890684601F0C0FD0598B0B101F00CFE7C
:1017800040000F4900220F4CB0FBF1F10E4840F22F
:10179000E7330460C0E90332491EC0E9011202F0D8
:1017A00063FC28B101200AB010BD01F0F5FDE8E7A7
:1017B000054802F0A9FCF6E714000024E8440258AA
:1017C00040420F0000140040381600242DE9F0417B
:1017D000044690F8A00016460F4601281DD00125AA
:1017E00084F8A050022084F8A10006EB860000EBEC
:1017F000C600342204EB80003830FEF7FAFD324692
:101800003946204603F026FC216800204D6284F80A
:10181000A15084F8A000BDE8F0810220FBE77047EA
:101820002DE9F0410446006800274FF00408856B5D
:10183000466B690715D5710713D5426B22F0040278
:1018400042632068C0F83C80D4F8A40040F0010056
:10185000C4F8A40084F8A180204684F8A070FFF7A3
:10186000DEFFA80716D5B00714D520680222436B07
:1018700023F0020343632068C263D4F8A40040F05D
:101880000200C4F8A40084F8A180204684F8A07067
:10189000FFF7C5FF05EA06004FF00108C0070ED0AC
:1018A00021684A6B22F001024A632168C1F83C803A
:1018B00084F8A180204684F8A07000F091F82807F1
:1018C00010D530070ED520680822436B23F008039B
:1018D00043632068C26384F8A180204684F8A07026
:1018E00000F02CF9BDE8F0812DE9F041040004D0AE
:1018F00094F8A100002518B107E00120BDE8F081AF
:10190000204684F8A05000F06DF83448022184F895
:10191000A110012202CC8B6923F070438B6194E803
:101920004A001943E3681E4354F8043D31439E695D
:101930003143996121688B6803408B602168A68AD6
:10194000A7698B683B4343EA06438B602168CB68F9
:101950000340CB602168A38B276ACE683E4346EAEA
:101960000346CE6021680B6903400B612368A68C97
:10197000A76A1969394341EA0641196121684B692F
:1019800003404B612068A38D266B4169314341EAD6
:1019900003414161236894F8351094F83600DE6AFB
:1019A000000406F07F46DE62236840EA012094F8D6
:1019B0003460D96A31430143D9622068416B41F0F8
:1019C000060141632068816941F001018161C4F829
:1019D000A45084F8A120002090E7000000F800F057
:1019E000704700002DE9F041B6B00446142130A83C
:1019F000FEF726FDC0216846FEF722FD4849206813
:101A000088427CD10DF12808002102240D460122D4
:101A1000062388E81C0040041191CDE900010DA9BE
:101A200068460F265F024FF4007C81E8D01000F07A
:101A30005FFE08B1FEF7A7FD3A48016841F00801D2
:101A40000160006800F0080035903648001F01680A
:101A500041F004010160016801F004013591016861
:101A600041F001010160016801F001013591016857
:101A700041F002010160016801F002013591016845
:101A800041F010010160016801F010013591016819
:101A900041F008010160006830A9032600F0080049
:101AA00035900E27C12081E8F1001F48FFF73CF96F
:101AB00030A9782081E8F1001C48FFF735F90920AA
:101AC000DFF86C80CDE93064329530A9CDE9336020
:101AD0004046FFF729F930A94FF4784081E8F1003A
:101AE0001448FFF721F930A94FF4706081E8F10044
:101AF0004046FFF719F930A94FF4816000E00CE08F
:101B000081E8F1000C48FFF70FF900220521582069
:101B100000F084F8582000F073F836B0BDE8F0818A
:101B200000100050E4440258000802580000025817
:101B30000004025800100258000C025870470000C0
:101B4000154BF0B5083B427813491A600B680A1F21
:101B500023F001030B6043681360057BC67A827A29
:101B6000437B2D07847B45EA0665C77B90F809C057
:101B7000067A90F800E045EAC24040EA834040EA35
:101B8000444040EA074040EA0C2040EA460040EA70
:101B90000E000860F0BD0000A0ED00E0BFF35F8F15
:101BA000044800210368034A23F480330360703241
:101BB0001160704724ED00E0074A40F0010006493B
:101BC00070321060086840F480300860BFF34F8FB7
:101BD000BFF36F8F7047000024ED00E0074882B02C
:101BE000016841F002010160006800220F2100F04D
:101BF00002000090901E02B000F010B8F4440258A9
:101C0000002809DB410900F01F028900012001F1D1
:101C1000E0219040C1F80001704700000E4BF0B485
:101C20001B680D46C3F30223C3F10706042E00D937
:101C30000426191D072901D2002300E0DB1E012420
:101C400004FA06F19C40491E2940641E9940144044
:101C50002143F0BC05F09DB90CED00E0064900F011
:101C6000070210B54FF6FF040868044B204040EA15
:101C700002201843086010BD0CED00E00000FA05DA
:101C800001680123C0F8D834002280F8CC24886988
:101C9000044A40F000608861486D104348650020A8
:101CA000704700000300001070477047704770478E
:101CB00070470A0601F00F0101EBC10100EB810141
:101CC00001D5143101E001F51571006804F0D6BEAC
:101CD0002DE9FC5F05680446284604F065FF0028EE
:101CE0007ED1206805F079F8002879D0D5F8080869
:101CF000C0F30D20C4F8D404206805F06EF8800706
:101D000004D52068416901F002014161206805F0B5
:101D100064F8C10604F29C40009035D520688169C2
:101D200021F0100181612F6A07F00F01C7F34340D2
:101D300001EBC101022804EB810606F5157602D0FD
:101D4000062812D01BE047F6F070074217D0C7F301
:101D50000A12F1681746284605F043F87169F068E1
:101D6000394471613844F06009E00099082228463E
:101D700005F037F87069C7F30A11084470612068EC
:101D8000816941F010018161206805F026F80003A7
:101D90004FF0080B4FF0000A4FF001097CD5206886
:101DA000002604F0F9FF074674E0F80770D02068B9
:101DB000F1B205F00AF88046C00707D005EB4611DE
:101DC000C1F8089B3146204603F08EFD5FEA08709B
:101DD00024D505EB4611C1F808BBFA49206800E09C
:101DE0003EE2026C00EB461001928A42D0F8081BDA
:101DF00005D9090403D54FF40041C0F8081B20465B
:101E000000F0EBFAEF490198884207D9A079012840
:101E100004D120680121009A04F004FE5FEAC86042
:101E200004D505EB46111020C1F8080B5FEA887055
:101E30001DD56869000605D5D5F8040840F4806111
:101E4000C5F8041806EBC60004EB800090F85712A2
:101E500000F51570012905D180F803A02046F1B2E4
:101E600000F001FA05EB46110220C1F8080B5FEA09
:101E7000886004D505EB46112020C1F8080B5FEA05
:101E8000884005D505EB46114FF40050C1F8080B0A
:101E90007F08761C002F88D1206804F09EFF400345
:101EA0006ED5206804F071FF0026074666E0F8074B
:101EB00062D02068F1B204F076FF8046C00723D0DC
:101EC000D5F8342806F00F0105EB461309FA01F1A5
:101ED0008A43C5F83428C3F80899A07901280FD19E
:101EE00006EBC60004EB8000D0E907211144016233
:101EF00036B9606A20B920680121009A04F092FD89
:101F00002046F1B2FFF7D2FE5FEA087003D505EB79
:101F10004611C1F808B95FEAC86004D505EB46115F
:101F20001020C1F808095FEA486004D505EB4611A6
:101F30004020C1F808095FEA887016D53146284666
:101F400004F007FE06EBC60004EB8000C17D1430F0
:101F5000012905D180F803A02046F1B200F082F9F2
:101F600005EB46110220C1F808095FEA086003D5B5
:101F70003146204603F01EFD7F08761C002F96D1C7
:101F8000206804F02AFF002811DAD5F8040820F0B0
:101F90000101C5F8041894F8CC0401283BD0204670
:101FA00000F019FA2068416901F0004141612068A0
:101FB00004F013FF00050BD5D5F80808C00702D0C0
:101FC000204600F00BFA2068416901F4006141618C
:101FD000206804F002FF00010AD52068416901F081
:101FE0000061416194F8CC04E0B1204600F0F6F9BC
:101FF000206804F0F2FEC00472D5D5F8040820F081
:102000000101C5F804182068102104F0A2FD002188
:102010004FF67F322DE00021204684F8CCA4FFF754
:1020200043FEBFE784F8CC942068406D0121C0F3E3
:102030008300C4F8D0042046FFF736FED8E700BF7F
:1020400005EB4110C0F80829D0F8003923F400133B
:10205000C0F80039C0F8082BD0F8003B23F4001377
:10206000C0F8003BD0F8003B43F00063C0F8003BF1
:10207000491C20798842E3D8D5F81C0840F00111AA
:10208000C5F81C18E07B68B1D5F8840840F00B0156
:10209000C5F88418D5F8440840F00B012846C5F867
:1020A00044180DE0D5F8140842F22B010843C5F896
:1020B0001408D5F8100840F00B012846C5F8101890
:1020C000D0F8000820F4FE61C5F80018A179206856
:1020D000009A04F0A7FC2068416901F48051416135
:1020E000206804F07AFE800415D5206804F058FBBF
:1020F000206804F04CFDE07101F02CF9E279014612
:10210000206804F0BDFE204600F064F920684169B3
:1021100001F400514161206804F05FFE000707D51B
:10212000204600F059F92068416901F00801416139
:10213000206804F052FE000616D5A869012620F09A
:102140008001A9610DE000BF06EBC60004EB800032
:1021500090F85702012803D12046F1B2FFF7A9FDFC
:10216000761C2079B042EFD8206804F036FEC00219
:102170001FD501264F4614E006EBC60105EB4610BD
:1021800004EB8101D0F800090A7E012A08D1002859
:1021900006DAF0B2CF7540F080012046FFF789FDE6
:1021A000761C2079B042E7D82068416901F480119B
:1021B0004161206804F011FE800234D501204B46B5
:1021C00029E000000A30544F00EBC00205EB40113B
:1021D00004EB8202D1F8001B92F85862012E19D14B
:1021E000002917DA94F8D46401F4803106F001066E
:1021F000B1420FD182F85732A96941F08002AA6139
:102200006969090606D4D5F8040840F40070C5F8D9
:10221000040803E0401C21798142D5D82068416937
:1022200001F400114161206804F0D7FD400007D59A
:102230002046FFF73AFD2068416901F08041416185
:10224000206804F0CAFD40070AD520684568680781
:1022500002D52046FFF72CFD2068416829434160E4
:10226000BDE8FC9F70477047F8B5040004D094F8AF
:102270009504002510B106E00120F8BD204684F841
:10228000945400F057F8032084F89504206804F073
:10229000C3FB207C8DF8000094E80F0004F08EFA58
:1022A0000226B0BB2068002104F0BBFD88BB0020E3
:1022B00001270CE000EBC001421C04EB81014F75CB
:1022C0000D76CD610D624D620875C885D0B2217959
:1022D0008142EFD8002011E000EBC001421C04EB6A
:1022E000810181F8555281F85852C1F85C52C1F809
:1022F0006052C1F8645281F85402D0B2217981420F
:10230000EAD8207C8DF8000094E80F0004F0CEFAA3
:1023100010B184F89564AFE7207B657484F89574F8
:10232000012802D12046FFF7ABFC206804F0B0FA88
:102330000020F8BD10B5B6B00446142130A8FEF751
:102340007FF8C0216846FEF77BF81F492068884265
:1023500038D100204FF480214FF440122292CDE971
:102360000010684600F0C4F908B1FEF70CF900F05F
:1023700061F81648016841F00101016000680A2314
:10238000022200F00100359000204FF4C05130913E
:1023900030A9CDE93120CDE933030D48FEF7C4FC67
:1023A0000A480838016841F00061016000680022B5
:1023B000052100F0006035906520FFF72FFC6520B7
:1023C000FFF71EFC36B010BD00000840E044025884
:1023D0000000025870477047704770477047000010
:1023E000134970B50A68D243520705D5096801F050
:1023F0000701814213D118E00A6822F00702024364
:102400000A60FEF7BFFD0A4D4FF47A760446083D98
:1024100007E000BFFEF7B6FD001BB04201D9012066
:1024200070BD2868C0438004F4D4002070BD000053
:102430000C4802580248016841F080710160704701
:102440000C48025810B500F085FF05490968054A97
:10245000C1F30211515C01F01F01C84010BD000022
:1024600020440258E4FC0290494930B5484C0B1D09
:102470000A68143409681D68246802F00303C5F370
:102480000012C1F30531C4F3CC04002914FB02F29D
:1024900000EE102AF8EE400A75D03F4A9FED3D1A33
:1024A000B7EE000A6BB1DFED3D1A012B01D0022B14
:1024B00064D002EE101A1168F8EE422A81EEA22AC8
:1024C00021E0334C283C23689B0612D5344B24680A
:1024D00001EE901A1168C4F3C104F8EE612AE340DA
:1024E00001EE903AC1F30801F8EE611A81EEA22ADA
:1024F0000BE001EE901ADFED2B2A00BFF8EE611A17
:10250000116882EEA12AC1F3080101EE901A116848
:10251000F8EE611A40EE811A71EE800A62EE200A2E
:10252000C1F3462101EE101AB8EE411A31EE001A3D
:10253000C0EE811ABCEEE11A80ED001A1168C1F3F9
:10254000064101EE101AB8EE411A31EE001AC0EE43
:10255000811ABCEEE11A80ED011A1168C1F306611F
:1025600001EE101AB8EE411A31EE000A80EE801A20
:10257000BCEEC10A80ED020A30BD04E001EE901A03
:10258000DFED092ABAE70021016041608160F3E7CD
:102590002844025800000039384402580024744A84
:1025A0000090D0030024744C20BCBE4B494930B588
:1025B000484C0B1D0A681C3409681D68246802F029
:1025C0000303C5F30022C1F30551C4F3CC04002971
:1025D00014FB02F200EE102AF8EE400A75D03F4AD2
:1025E0009FED3D1AB7EE000A6BB1DFED3D1A012BEE
:1025F00001D0022B64D002EE101A1168F8EE422AC4
:1026000081EEA22A21E0334C283C23689B0612D598
:10261000344B246801EE901A1168C4F3C104F8EE3B
:10262000612AE34001EE903AC1F30801F8EE611A25
:1026300081EEA22A0BE001EE901ADFED2B2A00BFFB
:10264000F8EE611A116882EEA12AC1F3080101EEC9
:10265000901A1168F8EE611A40EE811A71EE800A44
:1026600062EE200AC1F3462101EE101AB8EE411ABB
:1026700031EE001AC0EE811ABCEEE11A80ED001AAC
:102680001168C1F3064101EE101AB8EE411A31EE9D
:10269000001AC0EE811ABCEEE11A80ED011A116831
:1026A000C1F3066101EE101AB8EE411A31EE000ACC
:1026B00080EE801ABCEEC10A80ED020A30BD04E053
:1026C00001EE901ADFED092ABAE7002101604160AE
:1026D0008160F3E728440258000000394044025862
:1026E0000024744A0090D0030024744C20BCBE4BDC
:1026F0002DE9FE4F0546DFF8E48350F8081B00245F
:10270000F64FC943019005F12800264608F1240838
:10271000009008011DD4A86E50B1B0F5801F0CD0F8
:10272000B0F5001F0ED0B0F5401F1ED001240FE001
:10273000386840F40030386017E00198022103F057
:1027400099F903E00098022103F024FA04000CD068
:1027500026462888C043C00523D4A86D05281ED26C
:10276000DFE800F00C11161B1B00AA6ED8F8001051
:1027700021F440111143C8F80010EAE7386840F42A
:102780000030386009E00198002103F073F903E09C
:102790000098002103F0FEF9044674B100E0012422
:1027A00026462888C043800528D4E86D80281ED09E
:1027B0000CDC90B140280ED114E0AA6DD8F80010BE
:1027C00021F007011143C8F80010EAE7C02813D030
:1027D000B0F5807F10D001240FE0386840F400305D
:1027E000386009E00198002103F044F903E0009803
:1027F000002103F0CFF904469CB126462888DFF873
:10280000DC92C04309F12C0940052CD4D5F8A8006E
:10281000B0F5800F20D00DDCA0B1B0F5001F0FD1B6
:1028200015E0EA6DD8F8001021F4E0711143C8F802
:102830000010E3E7B0F5C00F13D0B0F5000F10D0D3
:1028400001240FE0386840F40030386009E0019856
:10285000002103F00FF903E00098002103F09AF93A
:1028600004467CB126462888C04300052DD4D5F8FF
:10287000AC00B0F1007F21D00EDCA8B1B0F1807FB8
:1028800010D116E0D5F8A820D9F8001021F4600185
:102890001143C9F80010E6E7B0F1407F13D0B0F162
:1028A000806F10D001240FE0386840F400303860A9
:1028B00009E00198002103F0DDF803E00098002111
:1028C00003F068F9044674B126462868C0438001C5
:1028D0001FD4E86CD8B110280FD0202812D030288F
:1028E00015D0012414E0D5F8AC20D9F8001021F05F
:1028F000E0611143C9F80010E7E7386840F40030A0
:10290000386004E00198022103F0B4F8044674B181
:1029100026462888C043C0042BD4286EB0F5005F3B
:1029200020D00DDCA0B1B0F5805F0FD115E06B4871
:10293000EA6C2030016821F0300111430160E8E7C2
:10294000B0F5405F13D0B0F5804F10D001240FE0F8
:10295000386840F40030386009E00198002103F045
:1029600089F803E00098002103F014F904468CB1C3
:1029700026462888C043800429D4686EB0F5403FBD
:1029800023D010DC08B3B0F5803F14D0B0F5003F81
:102990000FD115E02A6ED8F8001021F4E041114360
:1029A000C8F80010E5E7B0F5802F0ED0B0F5A02FE5
:1029B0000BD001240AE00198012103F05BF803E049
:1029C0000098012103F0E6F8044694B126462888D1
:1029D000C04340042AD4D5F8B000B0F1405F23D002
:1029E00010DC08B3B0F1805F14D0B0F1005F0FD1FC
:1029F00015E06A6ED8F8001021F4E0211143C8F800
:102A00000010E4E7B0F1804F0ED0B0F1A04F0BD032
:102A100001240AE00198012103F02CF803E000985A
:102A2000012103F0B7F8044674B126462888C04354
:102A300000041FD4286FD8B1B0F1805F0ED0B0F180
:102A4000005F10D0012414E0D5F8B020D9F80010B0
:102A500021F0E0411143C9F80010E7E7386840F47D
:102A60000030386004E00198012103F003F80446C7
:102A700074B126462868C043C0011ED4A86CD0B1EA
:102A800001280ED0022811D0032814D0012413E00D
:102A90002A6FD8F8001021F040511143C8F80010F7
:102AA000E8E7386840F40030386004E0019802211B
:102AB00002F0E0FF0446ACB126462868DFF81CB0FF
:102AC000C043ABF11C0B400252D40548016841F4ED
:102AD00080710160FEF756FA824611E02C440258DC
:102AE00000480258FA48AA6C016821F0030111431A
:102AF0000160E2E7FEF746FAA0EB0A00642835D849
:102B0000F4480068C005F5D58CBBDFF8C4A3B5F860
:102B1000B4100AF1240ADAF8000001F4407100F45C
:102B20004070884211D0DAF80010DAF8002021F461
:102B3000407142F48032CAF80020DAF8002022F412
:102B40008032CAF80020CAF80010D5F8B400B0F5F9
:102B5000807F1AD1FEF716FA029012E0FEF712FA01
:102B60000299411A41F2883081420AD9032426464B
:102B70002878DFF85CA3C0430AF1080AC00721D017
:102B80003CE0DAF800008007E8D5D5F8B410C1F3CE
:102B90000120032858460DD0016821F47C510160C2
:102BA000B5F8B420DAF80010C2F30B021143CAF8EA
:102BB0000010DDE7C84A036802EA111223F47C51D1
:102BC0001143ECE7E86F182816D005DCA0B10828FF
:102BD00008D0102804D10AE020280DD028280BD0D6
:102BE00001240AE00198012102F044FF03E000986B
:102BF000012102F0CFFF044664B126462878C04385
:102C000080071ED4A86F062819D2DFE800F0160C42
:102C100011161616EA6FDAF8001021F03801114388
:102C2000CAF80010EAE70198012102F023FF03E04F
:102C30000098012102F0AEFF04467CB100E00124BF
:102C400026462878C04340071FD4D5F894000628AC
:102C500019D2DFE800F0160C11161616AA6FDAF872
:102C6000001021F007011143CAF80010E9E70198AC
:102C7000012102F0FFFE03E00098012102F08AFF2B
:102C80000446A4B100E0012426462878C04380060B
:102C90002BD4D5F89000B0F1405F24D011DC10B3F4
:102CA000B0F1805F15D0B0F1005F10D116E0D5F81B
:102CB0009420D9F8001021F007011143C9F8001041
:102CC000E3E7B0F1804F0ED0B0F1A04F0BD001245C
:102CD0000AE00198002102F0CDFE03E000980221F5
:102CE00002F058FF044694B126462878C0434006B7
:102CF0002BD4D5F89C00B0F5406F24D011DC10B374
:102D0000B0F5806F15D0B0F5006F10D116E0D5F892
:102D10009020DAF8001021F0E0411143CAF80010C9
:102D2000E3E7B0F5805F0ED0B0F5A05F0BD00124D3
:102D30000AE00198002102F09DFE03E000980221C4
:102D400002F028FF044694B126462878C0430006C6
:102D50002BD4D5F8A000B0F5C04F24D011DC10B3AF
:102D6000B0F5005F15D0B0F5804F10D116E0D5F862
:102D70009C20D9F8001021F4E0511143C9F800104B
:102D8000E3E7B0F5004F0ED0B0F5204F0BD0012493
:102D90000AE00198002102F06DFE03E00098022194
:102DA00002F0F8FE044654B126462878C0430007D6
:102DB0001ED4D5F88400B0F5805F0AD00FE0D5F8B6
:102DC000A020D9F8001021F460411143C9F8001087
:102DD000EBE70098022102F0DDFE00B10126D5F8F4
:102DE0008420DAF8001021F440511143CAF8001091
:102DF0002878C043C00613D4D5F89800B0F5807F7A
:102E000005D10098022102F0C5FE00B10126D5F8D7
:102E10009820D9F8001021F440711143C9F800102E
:102E20002868C043000316D4D5F8A40038B1B0F523
:102E3000803F09D0B0F5003F0BD001240AE0019893
:102E4000002102F017FE03E00098022102F0A2FE2A
:102E500004468CB126462868C043400322D4D5F8E6
:102E60008800B0F5801F11D0B0F5001F13D0B0F569
:102E7000401F15D0012414E0D5F8A420D9F8001083
:102E800021F440311143C9F80010E4E7386840F4F8
:102E90000030386004E00098012102F07BFE044617
:102EA0005CB126462868C043C00323D4286DA8B16E
:102EB000B0F5803F17D001241BE0D5F88820DAF860
:102EC000001021F440111143CAF80010EAE7000095
:102ED0004C44025800480258CFFFFF00386840F4C5
:102EE0000030386004E00198022102F0C3FD04467E
:102EF000E4B126462868C043800005D4009802212A
:102F000002F048FE00B101262868C04380031BD4AC
:102F1000D5F88000B0B1B0F5807F0FD0B0F5007F5C
:102F200010D0B0F5407F0DD001240CE05A482A6D36
:102F3000016821F4803111430160DBE7386840F417
:102F400000303860ECB326462868C043C00207D47E
:102F50006A6FD8F8001021F000411143C8F8001042
:102F60002868C043C00008D4D5F8B820DBF80010AA
:102F700021F480411143CBF800102868C04380023F
:102F800007D4EA6ED8F8001021F080711143C8F818
:102F900000102868C04340000CD4DBF8001021F476
:102FA0000041CBF80010DBF80010D5F8BC2011432D
:102FB000CBF800102868C04308D437486A6D016810
:102FC00000E018E021F04051114301602868C0433F
:102FD000000208D4D5F88C20DAF8001021F4400162
:102FE0001143CAF8001028790024C04300F0010002
:102FF00020430AD00FE0D5F88020DAF8001021F441
:1030000040711143CAF800109EE70198002102F0B8
:1030100031FD00B106462879C04300F0020020438C
:1030200005D10198012102F025FD00B1064628795D
:10303000C04300F00400204305D10198022102F0B2
:1030400019FD00B106462879C04300F0080020436E
:1030500005D10098002102F09DFD00B106462879B7
:10306000C04300F01000204305D10098012102F078
:1030700091FD00B106462879C04300F020000443CA
:1030800004D10098022102F085FD00B916B101209B
:10309000BDE8FE8F0020FBE74C4402582DE9F05FAD
:1030A00004000F467ED0DFF83882D8F8000000F028
:1030B0000F00B8420CD2D8F8001021F00F013943AC
:1030C000C8F80010D8F8000000F00F00B84269D12D
:1030D0002078844D40070AD52069296801F07001E5
:1030E000884204D9296821F07001014329602078C1
:1030F0007C4E361D00070AD56069316801F0700109
:10310000884204D9316821F0700101433160207890
:10311000C0060AD5A069316801F4E061884204D98B
:10312000316821F4E061014331602078DFF8B4B107
:1031300080060BF1080B0CD5E1695846DBF800203E
:1031400002F07002914204D9026822F070020A4330
:103150000260207880070AD5E068296801F00F0135
:10316000884204D9296821F00F01014329602078A1
:10317000C0073ED05B49A2682868183920F4706007
:10318000104328606068022818D0032819D0096805
:10319000012819D0490700294ADADFF848A1AAF125
:1031A000080A00E044E0DAF8002022F007020243B7
:1031B000CAF80020FDF7E6FE814612E0096889039F
:1031C000E9E709688901E6E7C905E4E7FDF7DAFE02
:1031D000A0EB090141F28830814202D90320BDE809
:1031E000F09F6168DAF8000000F03800B0EBC10F22
:1031F000ECD1207880070AD5E068296801F00F013A
:10320000884204D2296821F00F0101432960D8F8CF
:103210000010404601F00F01B9420BD9016821F0BE
:103220000F0139430160006800F00F00B84201D07F
:103230000120D4E7207840070AD52069296801F0E9
:103240007001884204D2296821F07001014329608D
:10325000207800070AD56069316801F07001884262
:1032600004D2316821F07001014331602078C0063A
:103270000AD5A069316801F4E061884204D231685E
:1032800021F4E06101433160207880060CD5E169CA
:103290005846DBF8002002F07002914204D2026826
:1032A00022F070020A43026000F09AF80E492A6880
:1032B0002B68C2F3032203F00F038A5CC95C02F09F
:1032C0001F0201F01F01D040084A20FA01F11160ED
:1032D0000749086007480068BDE8F05FFEF730BAAC
:1032E0000020005218440258E4FC02902000002400
:1032F0001C0000241400002470B5144C3F2202600E
:10330000124A24680832131D114D04F0070444606A
:1033100016681C1D06F470668660166806F00F06B7
:10332000C660126802F0700202611A6802F0700250
:1033300042611A6802F4E0628261226802F070025F
:10334000C261286800F00F00086070BD1044025888
:103350000020005230B500F043F80B4A0B490C4BEB
:1033600015681468C5F3032204F00F048A5C095D34
:1033700002F01F0201F01F01D040064A20FA01F1BD
:1033800019601060084630BD18440258E4FC0290F1
:10339000200000241C00002400B5FFF7DBFF0549D6
:1033A0000968054AC1F30211515C01F01F01C840D0
:1033B00000BD00001C440258E4FC029000B5FFF779
:1033C000C9FF05490968054AC1F30221515C01F0B2
:1033D0001F01C84000BD00001C440258E4FC0290DC
:1033E000454970B545480968434B103B11F0380218
:1033F00008D00111082A03D0102A0BD0182A0BD0AC
:10340000084670BD19688906FBD51968C1F3C1016A
:10341000C84070BD3A4870BD3749374D18310C1D52
:1034200024350A68096826682D6802F0030406F04E
:103430000102C1F30511C5F3CC0515FB02F200EE44
:10344000102AB8EE400AE9B32F4ADFED2E0AB7EE94
:10345000001A6CB1DFED2D1A012C01D0022C43D0E3
:1034600002EE101A1068F8EE422A81EEA22A1EE03F
:103470001C68A40611D51B6801EE901A1168C3F3ED
:10348000C103F8EE612AD84001EE900AC1F30800AA
:10349000F8EE611A81EEA22A0BE001EE901ADFED40
:1034A0001C2A00BFF8EE611A106882EEA12AC0F350
:1034B000080001EE900AF8EE611A40EE201A31EE93
:1034C000810A00E015E022EE000A1068C0F34620F1
:1034D000401C00EE900AF8EE600A80EE201ABCEE66
:1034E000C10A10EE100A70BD01EE901ADFED092A34
:1034F000D8E7002070BD0000104402580090D003AF
:1035000040787D0100000039304402580024744A9C
:103510000024744C20BCBE4B2DE9F05F04007DD02C
:10352000FF4F2078FE4D1837DFF8F493103DC007A9
:1035300048D0D9F80000396800F03800102815D0BC
:10354000182803D101F0030002280FD06068B0F5FD
:10355000803F12D010B1B0F5A02F18D0286820F409
:1035600080302860286820F4802009E028688003E3
:1035700028D560680028D2D024E0286840F4803044
:103580002860606888B1FDF7FDFC064609E0286800
:1035900040F480202860F0E7FDF7F4FC801B6428ED
:1035A0006FD828688003F7D50CE0FDF7EBFC0646E2
:1035B00005E000BFFDF7E6FC801B6428F0D8286812
:1035C0008003F7D4207841F20308D54E0C3E8007E3
:1035D00069D5D9F80000396810F038000ED01828E5
:1035E00001D188070AD0E06890B3296821F0190159
:1035F00001432960FDF7C6FC824631E02868400798
:1036000002D5E06800288AD0E168286820F0190017
:1036100008432860FDF7B6FC824607E0DFE000BF04
:10362000FDF7B0FCA0EB0A000228B9D828684007D3
:10363000F6D500BFFDF7A0FC40451BD82069402807
:1036400012D0316821F47C3141EA003030602AE048
:1036500018E000BFFDF796FCA0EB0A0002289FD8F7
:1036600028684007F6D5E5E7306820F47C3040F460
:103670000030EBE7207C316821F0FE4141EA006038
:10368000E4E70DE1286820F001002860FDF77AFCEE
:10369000824605E0FDF776FCA0EB0A0002288DD8F3
:1036A00028684007F6D42078C0065DD5D9F8000018
:1036B000DFF86CB2396800F03800ABF1040B082871
:1036C00010D0182803D101F0030001280AD0E069C6
:1036D0000028286838D040F080002860FDF752FCB0
:1036E000824623E02868C00523D5E069802876D18A
:1036F0001FE0206A202821D0316821F0F84141EAFA
:103700008060306030E000BF94F82010DBF80020CB
:1037100022F07C5242EA0161CBF8001024E000BFA5
:10372000FDF730FCA0EB0A00022898D82868C005F5
:10373000F6D5FDF721FC4045E6D8DAE7306820F001
:10374000F84040F08040DCE720F080002860FDF782
:1037500019FC064605E000BFFDF714FC801B02289B
:103760009DD82868C005F7D42078000729D56C4873
:103770006169643000298046016811D041F001017F
:103780000160FDF7FFFB064605E000BFFDF7FAFB11
:10379000801B0228C9D8D8F800008007F6D510E0B1
:1037A00021F001010160FDF7EDFB064605E000BFD9
:1037B000FDF7E8FB801B022872D8D8F800008007CC
:1037C000F6D42078800623D5A0690028286810D078
:1037D00040F480502860FDF7D5FB064605E036E151
:1037E000FDF7D0FB801B02285AD828688004F7D543
:1037F0000EE020F480502860FDF7C4FB064604E08C
:10380000FDF7C0FB801B02284AD828688004F7D443
:10381000207840074FD5DFF80C81D8F8001041F42C
:103820008071C8F80010FDF7ADFB064605E000BF4B
:10383000FDF7A8FB801B642832D8D8F80000C0052B
:10384000F6D5374EA068603601280AD008B10528A1
:1038500013D0306820F001003060306820F00400A0
:1038600002E0306840F001003060A06841F2883A20
:1038700090B1FDF787FB80460AE0306840F0040015
:103880003060EEE7FDF77EFBA0EB0801514507D85D
:1038900030688007F6D50EE0FDF774FB804607E040
:1038A00084E000BFFDF76EFBA0EB080151457DD819
:1038B00030688007F6D4606AB0B3DFF86480D9F866
:1038C000001008F120084FF6F87B08F10409C1F355
:1038D000C2010329A8F1040A69D00228286820F04F
:1038E0008070286003D0FDF74DFB044684E0FDF7AF
:1038F00049FB064605E000BFFDF744FB801B02289C
:1039000077D828688001F7D4E26A40F2F33138684A
:1039100054F8283F884340EA02101843386004E016
:103920001044025800480258B5E0217B43462289E2
:103930004FF4FE0C208A4FF0FE474902267D521EAE
:10394000401EA1F50071C2F308088AB2761E0CEA87
:10395000004042EA08020243504607EA06610A4371
:103960001A60DAF8002022F00102CAF80020D9F823
:103970000020266A22EA0B0242EAC602C9F80020A9
:10398000DAF80010A26921F00C011143CAF8001006
:103990000168E26921F0020111430160016841F40C
:1039A00080310160016841F4003101E021E027E04D
:1039B0000160016841F480210160016841F001016A
:1039C0000160286840F080702860FDF7DBFA04464B
:1039D00005E000BFFDF7D6FA001B022809D82868C9
:1039E0008001F7D557E000BFFDF7CCFA001B022895
:1039F00002D90320BDE8F09F28688001F4D44AE092
:103A000039680128D8F8000021D0A26A01F0030328
:103A100093421CD1E26AC1F305118A4217D1216B8E
:103A2000C0F30802491E8A4211D1616BC0F34622DD
:103A3000491E91420BD1A16BC0F30642491E91422F
:103A400005D1E16BC0F30660491E814201D001201F
:103A5000D0E7A16C4E46D9F80000C0F3CC008142FB
:103A600019D0DAF80000554620F00100CAF800002D
:103A7000FDF788FA4FEA0007FDF784FAB842FBD059
:103A8000A26C306820EA0B0040EAC200306028686F
:103A900040F0010028600020ACE700002DE9F04173
:103AA00004001D4616460F4603D0D4F8880018B10E
:103AB00008E00120BDE8F081002084F88400204661
:103AC00000F0C4FC2420C4F888002068016821F0BC
:103AD00001010160A06A10B1204602F05DFB2046A2
:103AE00002F03EFC0128E5D0206871050D4A41EA4C
:103AF0000541836843F4804383602068836823F42E
:103B000000433B4383602068036813400B4303601A
:103B10002068016841F0010101602046BDE8F041E4
:103B200002F09EBBFFFF00FC2DE9F047040029D006
:103B3000594A4FF000092068584B594D9042C4F83B
:103B4000289006D0984204D0A84202D0E1680F29FC
:103B500018D8E1684FF0010AE76B0831C9080AEB91
:103B600057167143904205D0984203D0A84201D025
:103B7000082907D8904203D0984201D0A84204D126
:103B8000102902D90120BDE8F08794F8810020B9FE
:103B9000204684F8809000F085F8022084F88100A7
:103BA0002068016821F0010101602068A169826834
:103BB000B1F1806F02F4F81110D16268B2F5800F94
:103BC00001D01AB10AE0A26B22B107E0A26BB2F1F8
:103BD000805F03D1026842F4805202606068400254
:103BE00009D5E068072806D32068236D026822F40F
:103BF00080721A4303E02068026822F48072026037
:103C0000A66AE069E26B25683043E3680A43104323
:103C10001843A860D4E90D02D4E90581636A2569D7
:103C20001843D4F820C00A43266810432843A56DE2
:103C3000D4E90172D4E9123140EA080040EA0C00EC
:103C400038430843104318432843F060606868B95C
:103C50002068816821F4C05141F4006181602068CE
:103C6000816821F4C06141F4806181602068016D48
:103C700021F0010101656068400206D52068626D8F
:103C8000C16821F000411143C160C4F8849084F8F8
:103C900081A0002077E7000000300140003800409C
:103CA000003C00402DE9F041B6B00446142130A894
:103CB000FCF7C6FBC0216846FCF7C2FB2C4E02276E
:103CC0002C494FF005082068103E294D00248842F9
:103CD00023D1811418940020CDE900106846FEF726
:103CE00007FD08B1FCF74FFC286840F480502860BD
:103CF000286800F480503590306840F00200306051
:103D000030683821309130A900F00200CDE93174DB
:103D10003394CDE93480184825E01849884224D1ED
:103D2000411419940020CDE900106846FEF7E0FC2C
:103D300008B1FCF728FC286840F400502860286887
:103D400000F400503590306840F01000306030686A
:103D50006421309130A900F01000CDE93174339422
:103D6000CDE934800648FCF7DFFF36B0BDE8F081CE
:103D7000F044025800300140000402580034014071
:103D8000001002582DE9F84F994617468A46044616
:103D9000FDF7F8F8064694F88100012839D1BAF108
:103DA000000F7CD0002FFCD094F88000012830D088
:103DB000A26800254FF0010884F88080032184F870
:103DC0008110C4F88450C4F85CA06566A4F86850FB
:103DD000656725672C34B2F5C02FA786E786E5878F
:103DE00054F82C0D18D0C16821F4C02141F40031E1
:103DF000C160206841686FF30F013943416020685A
:103E0000016841F0010101606068B0F5800F08D0E1
:103E10000CE00220BDE8F88F016841F40061016008
:103E2000E7E72068016841F400710160E0680F284D
:103E30001CD820E02068416989070BD5E16D09682D
:103E40000162E06D001DE065B4F86200401EA4F858
:103E500062000BE0FDF796F8811B494503D3B9F1E9
:103E6000FF3F03D09BE0B9F1000F31D0B4F86200FE
:103E70000028DFD177E007282ED870E0206841695C
:103E800089071DD5B4F8621001290DD9E16B59B12C
:103E9000E16D09680162E06D001DE06500E07CE015
:103EA000B4F86200801E08E0E16D09880184E06DCD
:103EB000801CE065B4F86200401EA4F862000BE0CC
:103EC000FDF760F8811B494503D3B9F1FF3F03D0EB
:103ED00065E0B9F1000F62D0B4F862000028CDD1DE
:103EE00041E02068416989072DD5B4F862100329A3
:103EF0000CD9E16B402909D9E16D09680162E06DD7
:103F0000001DE065B4F86200001F19E0B4F862100B
:103F100001290BD9E16B49B1E16D09880184E06D9C
:103F2000801CE065B4F86200801E09E0E16D09784C
:103F300080F82010E06D401CE065B4F86200401E7F
:103F4000A4F862000BE0FDF71DF8811B494503D37F
:103F5000B9F1FF3F03D022E0B9F1000F1FD0B4F850
:103F600062000028BDD100224B4608212046009661
:103F700001F0FEFE28B1D4F8840040F02000C4F81F
:103F80008400204601F096FE84F88180D4F88400F5
:103F900084F8805000283FF43DAF01203AE72046E6
:103FA00001F088FED4F8841084F8805041F48071C8
:103FB000C4F8841084F8818003202BE77047704791
:103FC00070470000F0B590F83C20012A3BD01F4E0E
:103FD000012480F83C40022280F83D2002681C4DFC
:103FE0005368B242D2F808C001D0AA4203D14F6848
:103FF00023F470033B430F6823F070031F435760A3
:104000000268B24213D0B2F1804F10D0114B9A42E5
:104010000DD0114B9A420AD0104B9A4207D0AA42B7
:1040200005D00F4B9A4202D00E4B9A4204D18968B8
:104030002CF0800319439160002180F83D4080F806
:104040003C100846F0BD0220F0BD00000000014019
:10405000000401400004004000080040000C004043
:10406000001800400040014010B5040003D094F84F
:104070003D0010B107E0012010BD002084F83C0095
:10408000204600F023F8022084F83D002068211D1E
:1040900001F0F8FF012084F8480084F83E0084F81D
:1040A0003F0084F8400084F8410084F8420084F81E
:1040B000430084F8440084F8450084F8460084F8FE
:1040C000470084F83D00002010BD000008B50068DE
:1040D0000B49884212D10B48016841F01001016080
:1040E00000680022052100F0100000903620FDF746
:1040F00095FDBDE808403620FDF782BD08BD0000F3
:1041000000100040E844025890F83D10012901D009
:1041100001207047174A022180F83D100168CB68E2
:1041200043F00103CB600068904214D0B0F1804F9F
:1041300011D0114988420ED0104988420BD0104945
:10414000884208D00F49884205D00F49884202D0E2
:104150000E49884207D181680D4A1140062906D0D0
:10416000B1F5803F03D0016841F0010101600020FA
:1041700070470000000001400004004000080040BB
:10418000000C0040000401400018004000400140C5
:104190000700010070472DE9F04104460068002740
:1041A000C6680569A90713D5B10711D5FA1E0261C2
:1041B00001212177206880698007204602D0FFF71F
:1041C000E9FF04E000F08BF8204600F089F827773B
:1041D000680716D5700714D5226802206FF0040115
:1041E000116120772068806910F4407F204602D05A
:1041F000FFF7D0FF04E000F072F8204600F070F8FE
:104200002777280715D5300713D5226804206FF0CB
:104210000801116120772068C0698007204602D01C
:10422000FFF7B8FF04E000F05AF8204600F058F815
:104230002777E80616D5F00614D5226808206FF017
:104240001001116120772068C06910F4407F20467A
:1042500002D0FFF79FFF04E000F041F8204600F095
:104260003FF82777E80708D0F00706D021686FF0FD
:1042700001000861204600F035F8280601D4A804A2
:1042800008D5300606D521686FF402500861204633
:10429000FFF795FEE80508D5300606D521686FF4CE
:1042A000807008612046FFF789FE680608D5700611
:1042B00006D521686FF040000861204600F024F820
:1042C000A8060AD5B00608D521686FF0200008615D
:1042D0002046BDE8F041FFF773BEBDE8F0817047AE
:1042E0007047000000680649884201D1FDF7F2B925
:1042F0000449884202D1012023F0AABC7047000083
:104300000014004000100040704730B590F8841051
:10431000012918D0012280F884202421C0F88810B7
:104320000022202401680B680D6823F0005325F05B
:1043300001050D60426601680B60C0F8884080F896
:104340008420104630BD022030BD70B5044690F880
:10435000840001281DD0012284F884202420C4F880
:10436000880020680568026822F001020260206867
:10437000826822F060620A438260204601F0EAFE11
:104380002268202100201560C4F8881084F8840079
:1043900070BD022070BD70B5044690F884000128FD
:1043A0001DD0012284F884202420C4F888002068CD
:1043B0000568026822F0010202602068826822F02B
:1043C00060420A438260204601F0C4FE2268202138
:1043D00000201560C4F8881084F8840070BD0220A5
:1043E00070BD10B5040003D0D4F8880010B107E008
:1043F000012010BD002084F88400204600F026F83B
:104400002420C4F888002068016821F001010160BF
:10441000A06A10B1204601F0BFFE204601F0A0FFC7
:104420000128E6D02068416821F49041416020686D
:10443000816821F02A0181602068016841F0010152
:1044400001602046BDE8104001F00ABFF0B5B7B0EA
:104450000446142130A8FBF7F3FFC0216846FBF7A0
:10446000EFFF2D490226206807272A4D00248842A5
:1044700024D100201F940121CDE900106846FEF7E9
:1044800037F908B1FCF77FF822481030016841F095
:1044900010010160006800F010003590286840F0BD
:1044A00001002860286830A900F0010035904FF421
:1044B000C06030901948CDE9316425E01849884240
:1044C00026D100201E940221CDE900106846FEF797
:1044D0000FF908B1FCF757F80E480830016841F4AD
:1044E00000310160006800F400303590286840F029
:1044F00008002860286830A900F008003590702076
:1045000030900848CDE93164CDE93347FCF70CFC25
:1045100037B0F0BDE04402580010014000000258DE
:1045200000440040000C02582DE9F05F0546006889
:104530000E46074602F021FCC6EB06114FF00708B5
:1045400040074FF0040905EB810404D507EB461240
:10455000C2F8089539E02868314602F00EFCC00523
:104560004FF0080A08D507EB46124FF48071C2F8E5
:10457000081584F84DA02AE02868314602F0FDFBBA
:10458000000707D507EB46120621C2F808A584F8F4
:104590004D101CE02868314602F0EFFB400509D5BC
:1045A00007EB461209204FF48061C2F8081584F821
:1045B0004D000CE02868314602F0DFFB00060AD50A
:1045C00007EB46128021C2F8081584F84D80314669
:1045D000286802F0EDFA2868314602F0CEFB80052B
:1045E0002868314606D502F0E3FA07EB46114FF48E
:1045F000007069E102F0C1FBC0074FF0200B4FF0E3
:10460000010A4FF000084FD007EB4617C7F808B56E
:10461000E07E012807D184F81B80D7F8040520F438
:104620008030C7F80405A87930B1D7F81015206B91
:10463000C1F31201401AA06384F84DA05246C4F899
:104640004480C7F808A594F8260030B1022804D0A9
:1046500003280AD0012808D013E02868314602F068
:10466000A7FA1020C7F808050BE0D7F8000540F0BE
:104670000050C7F800053146284684F84C20FCF766
:1046800089FCA879012807D1208DA16B0144491E1E
:10469000B1FBF0F0C00705D094F83C0080F00100B9
:1046A00084F83C00BDE8F09F2868314602F065FBC5
:1046B00080060CD507EB4611C1F808B5A07E01288D
:1046C000F0D184F81BA0032184F84D10C1E02868C4
:1046D000314602F052FB80074FF0050B70D507EB17
:1046E00046100221C0F8081594F84D20012A16D072
:1046F000062A19D0072A1CD0092A1AD0052A33D035
:10470000032A5ED0042A79D0082A76D0022AC9D09A
:1047100094F84C2031462846FCF73CFCC2E784F86C
:104720004D1084F84CA0F3E784F84D1084F84CB099
:10473000EEE7626C84F84D10521C6264022A10D9B4
:10474000A27E4146C4F84480012A07D1E176217750
:10475000D0F8041521F48031C0F8041584F84C9089
:10476000D6E794F826204DE0E27E84F84D10012A29
:10477000CED194F82620032A08D084F84C1000BF2C
:1047800094F82610B9B3022941D0C1E7A26C521C9B
:10479000A264022A11D9626CC4F84880032A84F802
:1047A0001B8001D284F81CA0D0F8042522F48032AA
:1047B000C0F8042584F84C90E2E784F84C10A7E791
:1047C00036E0E27E84F84D10012AA1D184F84C1025
:1047D000D0F8041541F48031C0F80415D0F80C1558
:1047E00041F04001C0F80C15D0F80C1521F0200163
:1047F000C0F80C15C4E70AE000E011E094F82620A8
:1048000084F84D1084F84C100AB1022A80D1D0F8F7
:10481000001521F0804141F00041C0F8001577E714
:10482000606C84F84D1084F84C90401C60646FE715
:104830002868314602F0A1FA400610D507EB46126F
:104840004021C2F8081584F84DB0A07E08B9C4F81C
:10485000448031462868BDE8F05F02F0A9B92868B5
:10486000314602F08AFAC0067FF558AF94F8260068
:10487000032803D028B1022803D00FE0C4F84480F5
:1048800006E0C4F84480A87910B1E07E012818D170
:1048900084F84D903146286802F08AF9E07E0128BC
:1048A0000FD107EB461084F81B80D0F8041521F4D3
:1048B0008031C0F80415D0F80C1541F02001C0F883
:1048C0000C15102007EB4611C1F80805EAE60000B8
:1048D0002DE9F05F054600680F46064602F04DFAE6
:1048E000C7EB07114FF0040A400705EB810404D51C
:1048F0000720514606EB471289E02868394602F046
:104900003CFA80064FF000084FF001094FF0020B0F
:1049100028D506EB471120200326C1F80805607E44
:10492000012809D184F81980394684F84CB084F8FC
:104930004D60286802F03CF9A07E012810D1E07E8D
:1049400000280DD194F82600012801D084F81B908E
:10495000394684F84D60286802F02AF9C4F844808A
:10496000BDE8F09F2868394602F007FA800506D5B1
:1049700006EB47114FF40070C1F808054BE02868BA
:10498000394602F0FAF9C00720D0C4F8448039460D
:10499000286802F0F2F9400606D506EB471284F8C3
:1049A00019904020C2F80805E07E48B106EB471098
:1049B00084F81B80D0F8041521F48031C0F8041568
:1049C00006EB47114846C1F8089522E028683946A9
:1049D00002F0D3F9400610D5A17E052084F84D00E1
:1049E00009B984F819903946C4F84480286802F05F
:1049F000DFF8402006EB47112AE02868394602F02C
:104A0000BCF900070DD50821062006EB4712C2F8B5
:104A1000081584F84D0039462868BDE8F05F02F0BB
:104A2000C7B82868394602F0A8F9C00613D5627ED7
:104A3000C4F8448084F84DA01AB9207E08B984F8DF
:104A400019903946286802F0B3F8102006EB471198
:104A5000C1F8080584E72868394602F08EF9000697
:104A60001ED5A87970B1606C401C6064022811D911
:104A7000C4F8448052463946284684F84CA0FCF7D6
:104A800089FA09E0072084F84D002868394602F0C9
:104A90008FF801E084F84CB0802006EB4711D7E78F
:104AA0002868394602F069F940050BD5092084F8D9
:104AB0004D002868394602F07BF806EB47114FF4A9
:104AC0008060C5E72868394602F057F98007C1D5EC
:104AD00006EB47125846C2F808B594F84D10012964
:104AE00017D003293AD0042941D005294FD00629EF
:104AF00050D0072901D00929ACD1616C84F84D0050
:104B0000491C616402294BD9C4F8448084F84CA044
:104B100050E094F8261084F84D00022984F84C9057
:104B200001D0032946D1A87928B994F83D0080F036
:104B3000010084F83D00A87901283BD1606B28B3BF
:104B4000218D0844401EB0FBF1F0C00732D094F82C
:104B50003D0080F0010084F83D002BE0E17E84F808
:104B60004D00012926D100BF84F84C0022E0E17EEF
:104B700084F84D00012984F84C001BD184F81B8077
:104B8000D2F8040520F48030C2F8040512E084F85D
:104B90004D00E9E784F84D00052184F84C1009E048
:104BA00084F84C00D2F8000520F0804040F000402E
:104BB000C2F8000594F84C2039462846FCF7EAF97B
:104BC000CEE67CB504680546D4F840040190D4F8DC
:104BD000400420F02E0000900198800709D501982C
:104BE000C00702D02846FCF7D3F9009840F0020035
:104BF00000900198000724D5009840F0080000902C
:104C0000019840071AD5687A022803D0E87901286C
:104C10000CD00FE00198C0F341400228286803D06F
:104C2000012102F08DF805E00221FAE74EF660203E
:104C3000C4F804042846FCF7D4FA02E02846FCF73E
:104C4000CFFA01988006009802D540F0200000902D
:104C5000C4F840047CBD2DE9F04102460068016AB9
:104C6000074601F00F06C1F34343022BC1F30A15B7
:104C70002FD1002D2DD0C6EB061102EB8104E16A85
:104C8000002926D0D4E90D322A449A4223D82A4654
:104C900002F0A7F8E16A07EB46102944E162A16B34
:104CA0002944A163D0F81015228DAA42C1F3C9414D
:104CB0000FD100290DD0D0F8001521F0804141F02E
:104CC0000041C0F8001594F83C0080F0010084F821
:104CD0003C00BDE8F081042084F84C00F9E7FEE7D1
:104CE00001688A69D243920701D400228A6200686F
:104CF0008169C943C90703D0816941F0010181611C
:104D0000704700002DE9F0470446006800268946F8
:104D100017464FF0200835468169C90641D5102154
:104D2000C1612FE0B9F1FF3F2CD0FCF72BF9C11B7B
:104D3000494502D8B9F1000F24D12068426894F89F
:104D40004210836902F48042DB431B0415D4B2F5A0
:104D5000804F12D0202910D0416841F48041416039
:104D6000FCF710F9074608E0FCF70CF9C01B1928FE
:104D700003D9012645F0200504E020688069C0437E
:104D80008006F1D420688069C043800602D5002ED9
:104D9000C8D003E016B92168C1F81C80012645F08F
:104DA000040521688869C20505D54FF48072CA617F
:104DB00045F00105012641050AD5216880054FF41B
:104DC000806245F00805CA614FF0010602D40AE08E
:104DD000800507D5206801264FF4007145F00205D3
:104DE000C16100E08EB12046FFF77AFF2068002104
:104DF000074F43683B404360606C2843606484F81D
:104E0000418084F8421084F840103046BDE8F087B5
:104E100000E800FE70B50068C1F3090141EA0241F3
:104E2000074D049C19434FF480664268214306EA0B
:104E300054532B439A4321F000410A43426070BD12
:104E4000FF63FF032DE9F0411D4617460E46044659
:104E5000DDF8188028E0424629462046FFF752FF39
:104E600010B10120BDE8F081681C1DD0FCF78AF864
:104E7000A0EB0800A84200D8B5B92068806936EADE
:104E800000000FD00020B8420ED1626C002084F8E0
:104E90004000202142F02002626484F8411084F82E
:104EA0004200DEE70120EEE72068806936EA000074
:104EB00004D00020B842CED00020D3E70120F9E78B
:104EC0002DE9F047002691462027884604463546BE
:104ED0003DE04A4641462046FFF714FF00B1012558
:104EE00020688169C943890619D4C5B98169816976
:104EF000C943C90612D41021C16104221949626450
:104F000001252068C761206842680A40426084F831
:104F1000417084F8426084F8406000E06664FCF709
:104F200031F8A0EB0901414502D8B8F1000F0ED1CC
:104F30006DB920688069C043400708D5606C0125C1
:104F400084F8406040F02000606484F8417020687C
:104F50008069C043400701D5002DBAD02846BDE87E
:104F6000F087000000E800FE70B516460D460446C6
:104F70001FE0324629462046FFF7C4FE08B1012053
:104F800070BDFBF7FFFF801BA84200D88DB92068D9
:104F90008069C04380060CD5626C002084F8400014
:104FA000202142F02002626484F8411084F842001B
:104FB000E5E720688069C0438006DAD4002070BD30
:104FC00070B516460D46044621E032462946204675
:104FD000FFF798FE08B1012070BD681C17D0FBF7E1
:104FE000D1FF801BA84200D88DB920688069C043DA
:104FF00080070CD5626C002084F84000202142F02C
:105000002002626484F8411084F84200E3E72068DB
:105010008069C0438007D8D4002070BD10B5094C0A
:10502000002208212046FBF7A2FFC820FBF704FD61
:10503000012220460821FBF79AFFBDE81040C82056
:10504000FBF7FABC001002580148FCF7E9BB00006E
:10505000480A00242DE9FE4F8146006888249346C3
:105060008D888C2204EBCB178A46C3689421BE46F8
:10507000C459C3F30B432B4404F470441F04019739
:1050800002EBCB1240F80E4001EBCB13DAF80070C4
:105090009C214FF0AC0C01EBCB1440F20771029154
:1050A0000CEBCB11D9F800C098250020CDF800C03A
:1050B000A02605EBCB15DCF80CC006EBCB16CCF329
:1050C0000B4C0CF1010C07EB0C08DDF800C0019F44
:1050D00048EA07084CF80E80D9F80070BAF80CC0FE
:1050E000B846FF68C7F30A0767444FEA074E58F807
:1050F000027007F4704C48F802C0D9F800C0DAF822
:105100000870DCF80C80C8F30A0808F10108B844FC
:1051100048EA0E084CF80280D9F80020D75827F04A
:105120000707D750D9F80070DAF81020FA509AF82B
:1051300031209AF818304FEA022C9AF832201204E3
:1051400042EA0362D9F800301F5918519AF83030FA
:1051500043EA0C031343D9F800201351D9F8002077
:10516000535923F0FF035351D9F80020DAF81430D3
:105170005351D9F800209359029CA3439351D9F875
:105180000030DAE9072422439A51D9F80020535815
:105190005050D9F80020DAF824005050DAF8100006
:1051A000C8B301283AD004283AD0022838D00328BE
:1051B00036D0072834D00120D9F80030B02505EBCF
:1051C000CB11B42284245D5802EBCB1205F0E0250C
:1051D0005D50DAE9003504EBCB14EB1ABAF828502D
:1051E00043434543D9F80000DB1D43EA05434350E0
:1051F000D9F8000081586FF30A018150D9F80000F6
:10520000DAF82C108150D9F80000015941F0010161
:105210000151BDE8FE8FFFE70420CDE70320CBE777
:105220000220C9E71FB5002400940194029403945E
:10523000FCF7B4FC01208DF80F4012218DF8081006
:1052400003228DF80B208DF80E004FF010538DF8CF
:10525000000068468DF80D408DF80A4001938DF8E6
:1052600001408DF809408DF80C40FCF769FC0420E2
:10527000FCF7A2FC1FBD00000A480021084B0122D8
:1052800010B5036001714171416102628161FBF7F8
:10529000BDFA002803D0BDE81040FBF774B910BD7B
:1052A000004C025874080024104802220E4B0021C2
:1052B00010B50360C0E90112C160C0E91112C164F8
:1052C000016541658165C165FBF754FB08B1FBF7DA
:1052D0005AF906480121FBF7E9FA002803D0BDE896
:1052E0001040FBF750B910BD001000529808002480
:1052F0001748002170B5154D022405600123816017
:105300001025C16004220174417481744561C0E9B3
:105310000634C0E908438362C362C0E90C3181638B
:10532000C163C0E91012C0E91212C0E9141281650C
:10533000C1650166C0E91912FBF790FB002803D094
:10534000BDE87040FBF71FB970BD000000A0004031
:10535000000900240B4A00210B4810B524F05EF828
:105360000A4C0021074A24322060094824F056F8EC
:10537000044A002160600748483224F04FF8A060DA
:1053800010BD0000F4FB0290255E00900400002494
:10539000515E0090615E00902DE9F04F87B01421BE
:1053A0006846FBF74DF85548016841F0100101606F
:1053B000016801F010010591016841F08001016070
:1053C000016801F080010591016841F0040101606C
:1053D000016801F004010591016841F001010160DB
:1053E000016801F001010591016841F002010160CD
:1053F000016801F002010591016841F008010160B6
:1054000000680122DFF8F8B0192100F008000590CB
:105410005846FBF7ACFDDFF8EC8000220121404646
:10542000FBF7A5FDDFF8E09001224FF4415148461B
:10543000FBF79DFDDFF8D4A04FF4804700223946EA
:105440005046FBF794FD0124694600250920CDE96B
:105450000004CDE902455846FBF766FC102069467A
:10546000CDE90004584602940394FBF75DFC0094D8
:105470006946CDE9014540460395FBF755FC0226F8
:10548000009603206946CDE901054046FBF74CFC38
:1054900020206946CDE900051D480295FBF744FC34
:1054A0004FF440506946CDE9000448460294039405
:1054B000FBF73AFC00976946CDE901455046039554
:1054C000FBF732FCE0036946CDE900055046029542
:1054D000FBF72AFC40206946CDE90004CDE90245EE
:1054E0004846FBF721FC00966946CDE90154584631
:1054F000FBF71AFC07B0BDE8F08F0000E04402584B
:10550000001002580000025800040258000C025813
:10551000000802581348002110B5114C0123124A0B
:105520000460C0E90121C0E9033141618161C161C9
:105530000162FBF7AFFE08B1FBF725F8094800212F
:10554000FBF751FE08B1FBF71EF806480021FBF7F8
:1055500076FE002803D0BDE81040FBF714B810BD5C
:10556000005C0040A0090024B17570301348002190
:1055700010B5114C0123124A0460C0E90121C0E9B1
:10558000033141618161C1610162FBF783FE08B1B2
:10559000FAF7F9FF09480021FBF725FE08B1FAF7F1
:1055A000F2FF06480021FBF74AFE002803D0BDE8C1
:1055B0001040FAF7E8BF10BD001C0058F4090024A1
:1055C000B1757030F0B58DB034216846FAF738FF08
:1055D0002B4800240121294D042240F253170B07C8
:1055E000C0E9005484604FF4A275C0E903434161EF
:1055F0004FF4F276C0E9061200F1200140F2F313F5
:10560000036381E8E40080F8344080F8354080F896
:105610003640FCF769F908B1FAF7B5FF02264FF4F6
:10562000F0714FF4A0707202CDE90241CDE9004063
:10563000CDE90642FF258DF8304005238DF8314035
:10564000CDE90A01CDE908340D480022CDE9046511
:1056500069468DF83240FCF7B9F808B1FAF793FFC4
:1056600008480022099069460548FCF7AFF8002871
:1056700001D0FAF788FF0DB0F0BD00000010005017
:10568000480A002420BB012470B5144803224FF4BB
:105690008004114D00212301C0E9021201611A01A9
:1056A000C0E90513C161016241628162C162C0E962
:1056B0000D21C163016441648164C1640165416578
:1056C0008165C0E90054FEF72FFA002803D0BDE839
:1056D0007040FAF758BF70BD00300140F00A002456
:1056E0001548082270B50021124ED405C0E90212F7
:1056F00001614FF0C043C0E90514C0E907314162C0
:10570000D20681624FF48005C162C0E90D21C163F8
:10571000016441648164C164016541658165C0E9DA
:105720000065FEF701FA002803D0BDE87040FAF7E3
:105730002ABF70BD00340140780B00243EB51048EC
:10574000002440F2E7320D4DEF23009401948021B4
:1057500002948161C0E90242C0E90053FEF784FC73
:1057600008B1FAF710FF0648694600940294FEF764
:1057700029FC002801D0FAF706FF3EBD00100040CA
:10578000000C00241848002110B5164C0C224FF4D0
:10579000E1330460C0E90131C160C0E904128161F4
:1057A000C161016241628162FEF71BFE08B1FAF736
:1057B000EAFE0D480021FEF7EEFD08B1FAF7E3FE20
:1057C00009480021FEF7C1FD08B1FAF7DCFE0648E2
:1057D000FEF79BFD002803D0BDE81040FAF7D3BECA
:1057E00010BD0000001001404C0C0024194800219D
:1057F00010B5174C4FF4E1330C220460C0E90131BD
:10580000C1600B46C0E9041281610A46C1610162B0
:1058100041628162FEF742F908B1FAF7B4FE0D4821
:105820000021FEF7B8FD08B1FAF7ADFE09480021E6
:10583000FEF78BFD08B1FAF7A6FE0648FEF765FDF8
:10584000002803D0BDE81040FAF79DBE10BD00004F
:1058500000440040E00C00240D48092310B50B4C17
:105860000222002104600371C2718171427281724F
:10587000C172017341738173C173FCF7F5FC002899
:1058800003D0BDE81040FAF77EBE10BD000008400E
:10589000740D00240C48102370B50A4A01240260DC
:1058A000002143710225C471817145728172C172F8
:1058B0000174FBF712FC002803D0BDE87040FAF732
:1058C00062BE70BD0000044058120024FEE7FEE7EF
:1058D0000148FCF7FDB90000740D00240148FBF7F6
:1058E0005BBB0000581200242DE9F041044680798A
:1058F0000D462027236801284FF4004604F29C42FD
:1059000003EB4511D3F840C0D1F8080B09D0DFF8FC
:105910009CE0F4453AD1020433D500BFC1F8086BCE
:1059200040E0234B5FEA007E04D59C453AD9000451
:10593000F4D437E05FEA806E02D5C1F8087B31E02D
:1059400010F0280F2ED19C4501D90004E6D4D1F8DF
:10595000101B05EBC50004EB8000C1F31201D0F869
:105960007432A3EB0101C0F8681200F51570ADB9EF
:1059700003691BB1C2681144C1600FE020680121B6
:105980000AE080060AD5C1F8087B07E035B9D4F8EB
:10599000640218B90021184601F044F82046E9B223
:1059A000FCF785F90020BDE8F08100000A31544F72
:1059B0000A30544F2DE9F84F0E460568814601EB39
:1059C000C60100EB8104D4E909201434904202D9C5
:1059D0000120BDE8F88FA168101A814200D2084664
:1059E000C01C05EB461887081BE000BFA268A0EBAF
:1059F000010A524500D2924699F806100AF10300B6
:105A000000911FFA8AF3E16887082846F2B201F094
:105A1000ABFAE16801EB0A00E060616901EB0A00A2
:105A20006061D8F8180980B2B84205D3D4E90401FE
:105A3000814201D20028D9D1D4E90401884208D892
:105A4000D5F83418012006F00F0290408143C5F8C4
:105A500034180020BDE7022A09D3531C07D00023C5
:105A6000036043608360C0E9031201207047002097
:105A7000704700002DE9F047454D044689464FF038
:105A8000000A2868C04380070AD0414E283E30688B
:105A900020F080603060FBF775FA0746B04608E0FA
:105AA0000120BDE8F08700BFFBF76CFAC01B02289D
:105AB00067D8D8F800000001F6D4206829684FF4B0
:105AC000FE0721F47C313E0241EA00302860207A52
:105AD000A389B4F804C040022D4D2D495B1E227CE1
