:0200000490006A
:10000000507306246D0300907F570090014C0090C0
:100010007D5700904B050090FB6D009000000000A4
:10002000000000000000000000000000AD02009091
:10003000850500900000000009030090155D009008
:100040008703009087030090870300908703009048
:100050008703009087030090870300908703009038
:100060008703009087030090870300908703009028
:100070008703009087030090870300908703009018
:100080008703009087030090870300908703009008
:1000900087030090870300908703009087030090F8
:1000A00087030090870300908703009087030090E8
:1000B00087030090870300908703009087030090D8
:1000C00087030090870300908703009087030090C8
:1000D00087030090870300908703009087030090B8
:1000E00087030090870300900000000087030090C2
:1000F0008703009087030090870300908703009098
:100100008703009087030090870300908703009087
:100110008703009087030090F95E0090055F0090D0
:100120008703009087030090870300908703009067
:100130008703009087030090870300908703009057
:1001400000000000000000000000000000000000AF
:100150008703009087030090870300908703009037
:100160008703009087030090870300908703009027
:10017000870300908D5700908703009087030090BD
:100180008703009087030090870300908703009007
:1001900087030090870300908703009087030090F7
:1001A000614F0090870300904D05009087030090F9
:1001B00087030090870300908703009087030090D7
:1001C00087030090870300908703009087030090C7
:1001D0008703009081570090870300908703009069
:1001E00087030090870300908703009087030090A7
:1001F0008703009087030090870300908703009097
:100200008703009087030090870300908703009086
:100210008703009087030090870300908703009076
:100220008703009087030090870300900000000080
:100230008703009087030090000000008703009070
:100240008703009087030090870300908703009046
:100250008703009087030090870300908703009036
:100260008703009087030090870300908703009026
:100270008703009087030090870300900000000030
:100280008703009087030090870300900000000020
:100290000000000087030090DFF80CD000F018F990
:1002A00000480047F57F0290507306242C4B1968D4
:1002B0000868B0E8F04F80F30988BFF36F8F4FF004
:1002C000000080F3118870470000000008480068B3
:1002D000006880F308884FF0000080F3148862B64D
:1002E00061B6BFF34F8FBFF36F8F00DF00BF00BF5A
:1002F00008ED00E0DFF80C00016841F470010160D6
:10030000704700BF88ED00E0EFF30980BFF36F8F07
:10031000134B1A681EF0100F08BF20ED108A20E959
:10032000F04F106009B44FF0500080F31188BFF314
:100330004F8FBFF36F8F2EF09BFA4FF0000080F3CA
:10034000118809BC19680868B0E8F04F1EF0100F5A
:1003500008BFB0EC108A80F30988BFF36F8F704735
:1003600024000024EFF30580704700000648804712
:1003700006480047FEE7FEE7FEE7FEE7FEE7FEE78A
:10038000FEE7FEE7FEE7FEE7155E009099020090AB
:100390002DE9F05F0546002092469B4688460646BA
:1003A000814640241BE0284641464746224600F04D
:1003B0007FF853465A46C01A914110D31146184649
:1003C000224600F066F82D1A67EB01084F462246D8
:1003D0000120002100F05DF817EB00094E41201EBE
:1003E000A4F10104DFDC484631462A464346BDE815
:1003F000F09F10B5431A934209D28318881803E07E
:1004000010F8011D03F8011D521EF9D210BD40EA7B
:1004100001039B0703D009E008C9121F08C0042A82
:10042000FAD203E011F8013B00F8013B521EF9D269
:1004300010BDD2B201E000F8012B491EFBD270477B
:100440000022F6E710B513460A4604461946FFF7A0
:10045000F0FF204610BD421C10F8011B0029FBD103
:10046000801A704710B5002200E0521C835C8C5C3F
:10047000A34201D1002BF8D1D8B2E1B2401A10BD8D
:10048000034611F8012B00F8012B002AF9D1184678
:100490007047202A04DB203A00FA02F1002070475E
:1004A0009140C2F1200320FA03F3194390407047B2
:1004B000202A04DB203A21FA02F00021704721FAB9
:1004C00002F3D040C2F12002914008431946704720
:1004D000064C074D06E0E06840F0010394E8070091
:1004E00098471034AC42F6D3FFF7DAFECCF704900D
:1004F000FCF7049070B58C1810F8015B15F0070339
:1005000001D110F8013B2A1106D110F8012B03E0AC
:1005100010F8016B01F8016B5B1EF9D12B0705D4B4
:100520000023521E0DD401F8013BFAE710F8013BFD
:10053000CB1A921C03E013F8015B01F8015B521E19
:10054000F9D5A142D8D3002070BDFEE70B48416821
:10055000890711D5016889050ED5016821F400715C
:1005600001600221816006480178012904D100213F
:100570000170406819F0B2BC7047000000100052D2
:10058000A4020024704772B6FEE7000030B503688D
:10059000426B53F8844F4FF6FC718C4344EA82045B
:1005A0001C60036853F8844F058F24F47F0444EAE9
:1005B00005441C60836B1A440368D3F888408C435D
:1005C00044EA8204C3F88840036853F8884F858F53
:1005D00024F4FE0444EA05441C60C36B02EB4302AE
:1005E0000368D3F8A0408C4344EA8204C3F8A040D7
:1005F000036853F8A04FB0F8405024F4FE0444EAD6
:1006000005441C60D0E9103403FB04220368D3F8CE
:10061000B0408C4344EA8204C3F8B040036853F806
:10062000B04FB0F8485024F4FE0444EA05441C607E
:10063000D0E9123403FB04220368D3F8AC408C43A6
:1006400044EA8204C3F8AC40D0E9143403FB04222A
:100650000368D3F8F0408C4344EA8204C3F8F040C6
:10066000036853F8F04FB0F8585024F47C1444EA6F
:1006700005441C60836D02EB43030268D2F8C0405E
:100680008C4344EA8301C2F8C010016851F8C02FBE
:10069000B0F85C3022F47C1242EA03420A6001683E
:1006A00051F8C02F90F8603022F07C5242EA036289
:1006B0000A60416B234A02EB8101C166826B01EB48
:1006C00082020267C36B02EBC3024267D0E91034B7
:1006D000634302EB83028267D0E91234634302EB87
:1006E0008302C267D0E91434634302EB8302C0F88B
:1006F0008020836D02EBC302C0F88420C46D836E3A
:100700005C4302EB8402C0F88820046E5C430E4B0D
:1007100002EB8402C0F890209A420AD9D0F89C10CB
:1007200041F02001C0F89C10032180F898100120AE
:1007300030BD002200E004C1D0F890308B42FAD8DE
:10074000002030BD00AC0040FCD300407CB50E461C
:10075000154600210191FF248DF80500000A8DF84F
:10076000040002230648BA2101AA009400F04CFEBE
:100770000348BB212B463246009400F0B3FD7CBDFC
:10078000F40900241CB5002203230192020A8DF80B
:10079000042001AA8DF80500FF20009003488DF881
:1007A0000610BA2100F030FE1CBD0000F409002440
:1007B000F0B51F2305460020CC0717D001265B1E8D
:1007C00005D303F01F0706FA07F40C42F7D07AB1FD
:1007D000082A09D0102A04D0182A07D1072B05D2DD
:1007E00006E0082B02D203E0102B01D30120F0BD5C
:1007F0000028FCD12B68596129688B6823F0180305
:1008000013438B60F0BD000010B5040010D0607F72
:1008100020B900202077204600F030F802206077D1
:10082000207938B1D4E902122046FFF7C1FF48B160
:10083000012010BD2168104848612068816821F0BE
:10084000180181606079A0B1206921680861206881
:100850008168626921F060011143816020688168CC
:10086000A26921F08001114381600120607700209E
:1008700010BD4FF0FF30E8E7B71DC10408B50068B0
:100880000649884208D10648016841F40021016008
:10089000006800F40020009008BD0000004C0258E1
:1008A000E0440258F0B590F86020012A20D00127DA
:1008B00080F86070022280F86120C1EBC10200EB79
:1008C0008202138ED56A948F45EA0346138F28322D
:1008D0001B0543EA4453224C1E430A2D0AD0092D1E
:1008E00008D0137B46EA036349B10B2D1AD01DE0F3
:1008F0000220F0BDD36803F07F433343F4E701687F
:100900004D6AA5431D434D620368116899615168A2
:100910000A2901D009291BD1D168026821F07F4141
:10092000916215E0118B0F4C43EA81430168CD6958
:10093000A5431D43CD6103681168196151680A29F7
:1009400001D0092904D1D168026821F07F411162E8
:1009500080F86170002180F860100846F0BD00004A
:100960000F0033FF0F003FFF70B5040004D094F870
:100970006100002510B106E0012070BD204684F81A
:10098000605000F031F8022084F861006168E0698D
:10099000014320680268134B1A4011430160A168AB
:1009A000A06901432068426B40F207139A43114348
:1009B00041632068016CE2686FF30F011143016429
:1009C000208AA18A000540EA41512068426B22F446
:1009D0004012114341636566012084F861000020E4
:1009E00070BD0000BFFFF8FF08B500680B498842E2
:1009F00012D10B48016841F010010160006800222B
:100A0000114600F0100000905A2001F0D5F8BDE822
:100A100008405A2001F0C2B808BD00000010005282
:100A2000D444025870B5044600F07AFA0546601CBA
:100A300002D004480078044400F072FA401BA0423F
:100A4000FAD370BD100000242DE9F04194B08D4917
:100A50004C2204466846FFF7CCFC64B18A4E2068FD
:100A6000B04202D100F58070606094F898004FF0B9
:100A7000000820B108E0012014B0BDE8F081204654
:100A800084F8998000F002F92068816921F0100152
:100A9000816100F045FA0327054604E000F040FAC2
:100AA000401B0A2811D8206880690007F6D4206806
:100AB000816941F00101816100F032FA05460DE0E3
:100AC00000F02EFA401B0A2808D9D4F89C0040F008
:100AD0000100C4F89C0084F89870CCE72068806915
:100AE000C007EDD02068816941F002018161207C5E
:100AF00001282068816937D041F040018161607C24
:100B000001282068816932D021F480418161A07C74
:100B10000128206881692DD041F4805181612068CD
:100B20008169A26821F44071114381612068816963
:100B300021F0A40181612068016921F010010161A7
:100B4000E068012819D010B302281BD02068816901
:100B500041F0800181612068016941F0100101616B
:100B6000E06803280ED012E021F04001C6E741F40E
:100B70008041CBE721F48051D0E72068816941F0C2
:100B8000040103E02068816941F020018161207E39
:100B90006FF0FF02E169A38A400602EB0121A0F198
:100BA00000700843216A491E0843110201EB034308
:100BB00018432368D861A068B0F5407F10D1D4E90C
:100BC0000A03401E02EB03221043226B0B1303EBBC
:100BD00002121043A28C01EB024108432168C86055
:100BE000206E30B12068D0F8C010626E1143C0F89A
:100BF000C010D4E91701C842694609D0206850F8EE
:100C0000C82FA36E22F0070251F823301A43026066
:100C1000206C48B1206850F8BC2F636C22F00702AA
:100C200051F823301A430260A06C50B1206850F88C
:100C3000BC2FE36C22F0700251F8233042EA031219
:100C40000260206D50B1206850F8BC2F636D22F413
:100C5000E06251F8231042EA012101602068B042AD
:100C600004D16068816821F003018160C4F8948038
:100C7000C4F89C80012084F898002046FFF786FC89
:100C8000FAE60000C0F4029000A0004010B5B6B033
:100C90000446142130A8FFF7D3FBC0216846FFF7B4
:100CA000CFFB1949206888422CD100214FF4004025
:100CB000CDE9000140031C90684601F0D5FC08B165
:100CC000FFF761FC1148016841F480710160006820
:100CD00000F4807035900D480C38016841F008012F
:100CE0000160006830A900F00800359003203090C2
:100CF0000220319000203290339009203490044833
:100D000000F008F836B010BD00A00040EC440258D6
:100D1000000C02582DE9F84F694C00224FF0B04A00
:100D20004FF0010B4FF003084FF00F09C0E00BFA32
:100D300002F6334073D00D7905F00305012D01D083
:100D4000022D15D18768550008FA05FC27EA0C0723
:100D5000D1F80CC00CFA05FC4CEA070CC0F808C02E
:100D60004568B5430E79C6F3001696402E4346609B
:100D70000D79ED43AD0708D0C668550008FA05F7B0
:100D8000BE438F68AF403743C7600D7905F0030558
:100D9000022D11D1D50800EB85073E6A5507ED0EEF
:100DA00009FA05FC26EA0C06D1F810C00CFA05FC7D
:100DB0004CEA060CC7F820C00668550008FA05F78B
:100DC000BE430F7907F00307AF40374307604D6814
:100DD00015F4403F6BD03B4D2E6846F002062E6066
:100DE0002D6822F0030606F1B04605F002050095D5
:100DF000D6F8087495074FEA157C09FA0CF5AF434D
:100E0000314DA84201D100252EE0304DA84201D13C
:100E1000012529E02E4DA84202D1022524E046E01A
:100E20002C4DA84201D103251EE02B4DA84201D133
:100E3000042519E0294DA84201D1052514E0284DCB
:100E4000A84201D106250FE0264DA84201D1072571
:100E50000AE0254DA84201D1082505E0234DA8420E
:100E600001D1092500E00A2505FA0CF53D43C6F835
:100E70000854DAF8005056464F689D43FF0200D5EB
:100E80001D43356075684F689D43BF0200D51D4303
:100E9000756065684E689D43B60300D51D43656067
:100EA00025684E689D43F60300D51D432560521CFE
:100EB0000B6833FA02F57FF43AAFBDE8F88F000013
:100EC00080000058F4440258000002580004025800
:100ED00000080258000C0258001002580014025872
:100EE00000180258001C0258002002580024025822
:100EF0000069084000D001207047426921EA0203DE
:100F00000A4043EA0241816170470AB1816170473A
:100F10000904FBE701480068000C70470010005C02
:100F20000148806870470000100000247047704737
:100F300070472DE9F04104460068064605F06FFD54
:100F4000012876D1206805F07FFE002871D0206846
:100F500005F07AFE800203D521684FF40010486145
:100F6000206805F071FEC00203D521684FF480109F
:100F70004861206805F068FE400103D521684FF004
:100F800080604861206805F05FFE800702D5216817
:100F900002204861206805F057FE800018D52168BE
:100FA0004FF000504861D6F84004C00710D110211E
:100FB000304605F009FD304605F0EAFC607A02286B
:100FC00003D12068012105F0F3FD2046FFF7AFFFB4
:100FD000206805F039FEC00102D5204603F082FDED
:100FE000206805F031FE000705D5204600F0C6F860
:100FF000216808204861206805F026FE800123D57D
:10100000206805F07AFD002507464FF0010814E03E
:1010100005F00F0108FA01F038420DD006EB45103B
:10102000D0F80005E9B20004204603D503F028FA01
:1010300002E01CE003F0E3FB6D1C6079A842E7D8F6
:1010400021684FF000704861206805F0FDFDC04345
:10105000C0060CD42068816921F01001816120460E
:1010600003F08AFD2068816941F010018161BDE8CB
:10107000F08138B5040003D094F8D50310B107E02F
:10108000012038BD002084F8D403204600F024F865
:10109000032084F8D503206805F0FAFB207C8DF846
:1010A000000094E80F0005F0C7FA022560B9206837
:1010B000012105F0ECFD38B9207C8DF8000094E8A2
:1010C0000F0005F01FFD10B184F8D553D8E70120BB
:1010D00084F8D503002038BD10B5B6B004461421FD
:1010E00030A8FFF7ADF9C0216846FFF7A9F91F49FD
:1010F0002068884238D100214FF48020CDE90001DA
:101100004FF440102290684601F0AEFA08B1FFF7A4
:101110003AFA01F053F91648016841F00201016002
:10112000006830A900F0020035904FF44040309044
:10113000022031900020329033900C2034900D48E2
:10114000FFF7E8FD0A480838016841F000710160C6
:1011500000680022052100F0007035904D2000F05D
:101160002BFD4D2000F01AFD36B010BD00000440EC
:10117000E04402580004025870477047704790F8E6
:101180004120202A24D190F84020012A20D0012299
:1011900080F84020242280F841200268136823F060
:1011A000010313600268136823F48053136002681C
:1011B00013680B43136001680A6842F001020A6079
:1011C000202180F84110002180F840100846704727
:1011D0000220704790F84120202A22D190F8402028
:1011E000012A1ED0012280F84020242280F84120CC
:1011F0000268136823F0010313600268136823F484
:10120000706343EA0121116001680A6842F001023B
:101210000A60202180F84110002180F84010084623
:10122000704702207047000070B5040004D094F8A5
:101230004100002510B106E0012070BD204684F871
:10124000405000F087F9242084F8410020680168AC
:1012500021F0010101602168606820F07060086180
:101260002068816821F400418160E0680128A0685D
:1012700030D040F4044021688860E068022820688B
:1012800041682AD021F40061416020684168144A15
:10129000114341602068C16821F40041C160D4E974
:1012A00004010843A16940EA01202168C860D4E92B
:1012B00007010843216808602068016841F00101C6
:1012C00001606564202084F84100256384F8425061
:1012D000002070BD40F40040CDE741F40061D3E749
:1012E000008000022DE9F84F044690F841001F46A7
:1012F0009046DDF828A08B4620287ED194F8400047
:1013000001287AD0012084F84000FFF709FE01226D
:10131000064619230090D103204603F01FFDE0BBD1
:10132000222084F84100102084F8420000256564E2
:10133000C4F8248067856563618DFF2730484FF0CE
:101340008078FF294FF0007903D927853A4600902D
:1013500039E0618D218500903AE05946204603F03E
:10136000E5FC13E003F038FDB8B92068406A616A13
:101370000870606A401C6062208D401E80B220852B
:10138000618D491E6185618D01B168B1608D324604
:10139000514600282046E5D100E002E003F070FD50
:1013A000D0B10120BDE8F88F0022534680212046AD
:1013B000009603F0D3FC0028F3D1608DFF2804D9F8
:1013C00027853A4600954346C7E7608D20850095FE
:1013D0004B4694F82820C0E720682021C16120688E
:1013E0004268084B1A40426084F8411084F8425029
:1013F000002084F84050D5E7FFE70220D2E7000044
:101400000024008000E800FE2DE9FF4F81B0044673
:1014100090F841001F469046DDF838B020287AD178
:1014200094F84000012876D0012084F84000FFF7AE
:1014300077FD0122064619230090D103204603F0D0
:101440008DFC002852D1212084F84100102084F81E
:10145000420000256564C4F8248067856563608D5B
:10146000FF273A494FF08079FF284FF0007A02D9E0
:101470004B46278505E0608D534620850004000C0F
:1014800010D0226898F800009062606A401C606288
:10149000608D401E6085208D401E2085401C00917F
:1014A000C2B201E0002200910299204603F03EFC06
:1014B00013E003F011FDC8B9606A21680078886202
:1014C000606A401C6062608D401E6085208D401EF9
:1014D00080B22085618D01B160B1608D3246594680
:1014E00000282046E5D103F0CBFCE0B1012005B097
:1014F000BDE8F08F00225B4680212046009603F075
:101500002DFC0028F2D1608DFF2805D927853A46A9
:101510004B460095C8E716E0608D53462085009540
:1015200094F82820C0E720682021C1612068426823
:10153000074B1A40426084F8411084F84250002062
:1015400084F84050D3E70220D1E70000002000805B
:1015500000E800FEF0B5B7B00446142130A8FEF74D
:101560006FFFC0216846FEF76BFF384912262068DE
:101570000427374C002588423AD1002021950821C4
:10158000CDE90010684601F06FF808B1FEF7FBFFE7
:10159000206840F004002060206800F004003590CE
:1015A000206840F001002060206830A900F00100B0
:1015B00035904FF400703090CDE931652548CDE984
:1015C0003357FFF7A7FB4FF480703090CDE93165BA
:1015D000214830A9CDE93357FFF79CFB1C48083060
:1015E000016841F400010160006800F4000029E096
:1015F0001A49884227D1002126951020CDE9000103
:10160000684601F031F808B1FEF7BDFF206840F0F0
:1016100008002060206830A900F0080035904FF4E1
:1016200040503090CDE931650D48CDE93357FFF793
:1016300071FB07481430016841F0800101600068C7
:1016400000F08000359037B0F0BD0000005C004035
:10165000E04402580008025800000258001C0058DC
:10166000000C02580248816802781144816070477A
:1016700010000024032010B500F0BEFA01F076FE41
:101680000F4A11681268C1F303230E49CB5C03F0C3
:101690001F03D84002F00F02895C0B4A01F01F01C2
:1016A00020FA01F1116009490860002000F010F8EB
:1016B00008B1012010BD00F05FFA002010BD00004D
:1016C0001844025834F50290200000241C00002425
:1016D00010B5102804468AB02CD2002201463720CB
:1016E00000F06AFA372000F059FA174804601748EA
:1016F000016841F020010160006809A900F02000A4
:101700000890684601F0BCFD0598B0B101F00AFEF2
:1017100040000F490F4AB0FBF1F10F48026040F260
:10172000E732491E41600021C0E90321816002F0D7
:1017300047FC28B101200AB010BD01F0F3FDE8E735
:10174000054802F08DFCF6E714000024E844025836
:1017500040420F0000140040381600242DE9F041EB
:10176000044690F8A00015460F4601281DD001261A
:1017700084F8A060022084F8A10005EB850000EB4E
:10178000C500342204EB80003830FEF732FE2A46D2
:101790003946204603F0EAFB2068466284F8A160DF
:1017A000002084F8A000BDE8F0810220FBE770472C
:1017B0002DE9F04104460068856B466B4FF0040844
:1017C0004FF00007690715D5710713D5416B21F05C
:1017D000040141632168C1F83C80D4F8A41041F0B1
:1017E0000101C4F8A41084F8A180204684F8A070F8
:1017F000FFF7DDFFA80716D5B00714D52068416BA9
:1018000021F00201416321680220C863D4F8A400DA
:1018100040F00200C4F8A40084F8A180204684F8B7
:10182000A070FFF7C4FF05EA06004FF00108C007EB
:101830000ED02068416B21F0010141632168C1F89D
:101840003C8084F8A180204684F8A07000F090F8D5
:10185000280710D530070ED52068416B21F008010C
:10186000416321680820C86384F8A180204684F879
:10187000A07000F035F9BDE8F081000070B50400FB
:1018800004D094F8A100002510B106E0012070BD3D
:10189000204684F8A05000F06DF8022084F8A100E2
:1018A0002068816921F070418161D4E90110014310
:1018B000D4E9030210430143206882691143816126
:1018C0002068826829490A408260A08A0204206850
:1018D0008368A6693343134383602068C2680A4063
:1018E000C260A08B02042068C368266A3343134396
:1018F000C360206802690A400261A08C020420686B
:101900000369A66A334313430361206842690A40AE
:101910004261A08D010420684269236B1A430A4387
:10192000426194F83500020294F836000104206800
:10193000C36A03F07F43C3622068C36A114394F80B
:10194000346033430B43C3622068416B41F00601AE
:1019500041632068816941F001018161C4F8A450AC
:10196000012084F8A100002070BD000000F800F004
:10197000704700002DE9F041B6B00446142130A8AC
:10198000FEF75EFDC0216846FEF75AFD4D4920680E
:1019900088427DD1002140040E460225CDE9000198
:1019A00001200A900620CDE90B050F20CDE90D504E
:1019B0004FF440600F902802CDE91001684600F016
:1019C00053FE08B1FEF7DFFD3F48016841F0080112
:1019D0000160006800F0080035903B48001F016876
:1019E00041F004010160016801F0040135910168D2
:1019F00041F001010160016801F0010135910168C8
:101A000041F002010160016801F0020135910168B5
:101A100041F010010160016801F010013591016889
:101A200041F008010160006830A90E2700F00800AD
:101A30003590C12081E8610003242448CDE9334773
:101A4000FFF768F930A9782081E861002048CDE9E6
:101A50003347FFF75FF930A8DFF8788030A980E8D6
:101A600070000920CDE933404046FFF753F930A913
:101A70004FF4784081E861001748CDE93347FFF71C
:101A800049F930A94FF4706081E86100404600E0F8
:101A900015E0CDE93347FFF73DF930A94FF48160F8
:101AA00081E861000D48CDE93347FFF733F90022A3
:101AB0000521582000F080F8582000F06FF836B06B
:101AC000BDE8F08100100050E444025800080258BC
:101AD000000002580004025800100258000C02587E
:101AE00070470000134A41781160124908310A68B2
:101AF00022F001020A600B1F42681A60027BC37A5F
:101B0000120742EA0362837A42EAC342437B42EA13
:101B10008342837B42EA4342C37B42EA0342437AE5
:101B200042EA0322037A007842EA430202430A604F
:101B30007047000098ED00E0BFF35F8F0448016834
:101B400021F4803101600249002070310860704743
:101B500024ED00E0074940F00100086005487038B6
:101B6000016841F480310160BFF34F8FBFF36F8F85
:101B70007047000094ED00E0074882B0016841F032
:101B800002010160006800220F2100F002000090B5
:101B9000901E02B000F010B8F4440258002809DB8F
:101BA000012100F01F0291404009800000F1E02077
:101BB000C0F80011704700000E4BF0B41B68C3F36F
:101BC0000223C3F10704042C00D904241D1D072D92
:101BD00001D2002300E0DB1E012606FA04F56D1E8B
:101BE0000D409D409E40761E164045EA0601F0BC21
:101BF00005F004B90CED00E0064A00F0070110689A
:101C00004FF6FF03184040EA0120034908431060E3
:101C1000704700000CED00E00000FA0501680122A9
:101C2000C0F8D824002280F8CC24886940F00060F5
:101C30008861486D024A10434865002070470000E3
:101C400003000010704770477047704770470A06DE
:101C500001F00F0101EBC10100EB810101D514314D
:101C600001E001F51571006804F044BE2DE9F84F5C
:101C700005680446284604F0D2FE00287DD120687D
:101C800004F0E2FF002878D0D5F80808C0F30D2052
:101C9000C4F8D404206804F0D7FF800704D5206876
:101CA000416901F002014161206804F0CDFFC106E5
:101CB00004F29C40009034D52068816921F0100125
:101CC00081612F6A07F00F0000EBC00004EB800673
:101CD000C7F34340022806F5157602D0062811D036
:101CE0001AE047F6F070074216D0C7F30A12F168FF
:101CF0001746284604F0ACFFF0683844F06070697D
:101D0000384408E000990822284604F0A1FF7069D1
:101D1000C7F30A11084470612068816941F010011D
:101D20008161206804F090FF00034FF0010A7AD52A
:101D30002068002604F067FFDFF8B0B480466FE04B
:101D40005FEAC87069D02068F1B204F075FF0746F9
:101D5000C00707D005EB4611C1F808AB3146204655
:101D600003F01AFD380722D505EB46110820C1F80B
:101D7000080B2068D0F8409000E035E200EB4610F8
:101D8000D0F8082BD94505D9110403D54FF40041EB
:101D9000C0F8081B204600F0E6FAD94507D9A0791B
:101DA000012804D120680121009A04F077FDF8068B
:101DB00004D505EB46111020C1F8080BB8071DD556
:101DC0006869000605D5D5F8040840F48061C5F8B7
:101DD000041806EBC60004EB800090F8571200F5DB
:101DE0001570012905D10021C1702046F1B200F023
:101DF00000FA05EB46110220C1F8080BB80604D51D
:101E000005EB46102021C0F8081BB80405D505EBEA
:101E100046104FF40051C0F8081B761C4FEA5808D2
:101E2000B8F1000F8CD1206804F00EFF40036DD58F
:101E3000206804F0E1FE0026804664E05FEAC87096
:101E40005ED02068F1B204F0E5FE0746C00723D05B
:101E500006F00F020AFA02F0D5F834288243C5F8DA
:101E6000342805EB4610C0F808A9A07901280FD145
:101E700006EBC60004EB8000D0E9072111440162A3
:101E800036B9606A20B920680121009A04F006FD85
:101E90002046F1B2FFF7D8FE380704D505EB46110E
:101EA0000820C1F80809F80604D505EB46111020F2
:101EB000C1F80809780604D505EB46104021C0F8A2
:101EC0000819B80716D53146284604F07DFD06EB03
:101ED000C60004EB8000C17D1430012905D100212A
:101EE000C1702046F1B200F083F905EB46110220E3
:101EF000C1F80809380603D53146204603F0B2FC84
:101F0000761C4FEA5808B8F1000F97D1206804F00A
:101F10009BFE002811DAD5F8040820F00101C5F86D
:101F2000041894F8CC0401283BD0204600F019FA9C
:101F30002068416901F000414161206804F084FE9D
:101F400000050BD5D5F80808C00702D0204600F0E0
:101F50000BFA2068416901F400614161206804F0D6
:101F600073FE00010AD52068416901F000614161FA
:101F700094F8CC04E8B1204600F0F6F9206804F0AB
:101F800063FEC00474D5D5F8040820F00101C5F83B
:101F900004182068102104F017FD00214FF67F324D
:101FA0002DE0002084F8CC0401462046FFF74AFECD
:101FB000BEE784F8CCA42068406D0121C0F3830003
:101FC000C4F8D0042046FFF73DFED7E705EB4110EB
:101FD000C0F80829D0F8003923F40013C0F80039FC
:101FE000C0F8082BD0F8003B23F40013C0F8003BE6
:101FF000D0F8003B43F00063C0F8003B491C207957
:102000008842E3D8D5F81C0840F00111C5F81C1827
:10201000E07B002828460DD0D0F8840840F00B0162
:10202000C5F88418D5F8440840F00B012846C5F8D7
:1020300044180DE0D0F8140842F22B010843C5F80B
:102040001408D5F8100840F00B012846C5F8101800
:10205000D0F8000820F4FE61C5F80018A1792068C6
:10206000009A04F01BFC2068416901F48051416131
:10207000206804F0E9FD800415D5206804F0CDFA4D
:10208000206804F0BFFCE07101F02AF9E279014612
:10209000206804F02BFE204600F062F920684169B8
:1020A00001F400514161206804F0CEFD000707D51E
:1020B000204600F057F92068416901F008014161AC
:1020C000206804F0C1FD000615D5A86920F0800144
:1020D000A96101260CE006EBC60004EB800090F835
:1020E0005702012803D12046F1B2FFF7B0FD761C5C
:1020F0002079B042EFD8206804F0A6FDC0021FD5B9
:102100000126574614E005EB4610D0F8001906EBFF
:10211000C60004EB8000027E012A08D1002906DAFD
:10212000C775F0B240F080012046FFF790FD761CA5
:102130002079B042E7D82068416901F480114161FB
:10214000206804F081FD800231D50120534626E04D
:1021500005EB4011D1F8001B00EBC00204EB82023A
:1021600092F85862012E19D1002917DA94F8D46434
:1021700001F4803106F00106B1420FD182F85732E6
:10218000A96941F08002AA616969090606D4D5F8F7
:10219000040840F40070C5F8040803E0401C2179ED
:1021A0008142D5D82068416901F40011416120685D
:1021B00004F04AFD400007D52046FFF744FD2068A3
:1021C000416901F080414161206804F03DFD400714
:1021D0000AD520684568680702D52046FFF736FD16
:1021E0002068416829434160BDE8F88F0A30544FA8
:1021F00070477047F8B5040004D094F895040025A2
:1022000010B106E00120F8BD204684F8945400F097
:1022100057F8032084F89504206804F039FB207CEB
:102220008DF8000094E80F0004F006FA0226B0BB17
:102230002068002104F02BFD88BB002101270CE061
:1022400001EBC10004EB800047750175C185491C95
:102250000576C9B2C5610562456220798842EFD82A
:10226000002111E001EBC10004EB800080F8555221
:1022700080F85412491C80F85852C9B2C0F85C5218
:10228000C0F86052C0F8645220798842EAD8207CB5
:102290008DF8000094E80F0004F044FA10B184F8BF
:1022A0009564AFE7657484F89574207B012802D1AA
:1022B0002046FFF7B3FC206804F026FA0020F8BDA2
:1022C00010B5B6B00446142130A8FEF7B9F8C02105
:1022D0006846FEF7B5F81F492068884238D10021CA
:1022E0004FF48020CDE900014FF440102290684661
:1022F00000F0BAF908B1FEF746F900F05FF81648A9
:10230000016841F001010160006830A900F001009E
:1023100035904FF4C0503090022031900020329020
:1023200033900A2034900D48FEF7F4FC0A48083830
:10233000016841F00061016000680022052100F0A1
:10234000006035906520FFF737FC6520FFF726FC1D
:1023500036B010BD00000840E044025800000258AA
:10236000704770477047704770470000124970B55A
:102370000A68D243520705D5096801F00701814276
:1023800012D117E00A6822F0070202430A60FEF742
:10239000C7FD094D4FF47A760446083D06E0FEF786
:1023A000BFFD001BB04201D9012070BD2868C043A9
:1023B0008004F4D4002070BD0C4802580248016823
:1023C00041F08071016070470C48025810B500F070
:1023D00087FF05490968054AC1F30211515C01F004
:1023E0001F01C84010BD00002044025834F502907F
:1023F000484910B50A68096802F00302454B1B1DE5
:10240000C1F305311B68434C1434C3F30013246833
:10241000C4F3CC0414FB03F300EE103AB8EE400A08
:10242000E9B33C4B9FED3C1A1033F7EE000A62B162
:10243000DFED3A1A012A01D0022A5ED002EE101A0C
:10244000F8EE422A81EEA22A1AE0324A283A1468AB
:10245000A4060DD51268C2F3C104314AE24001EE70
:10246000902AF8EE612A01EE901AF8EE611A05E062
:1024700001EE901ADFED2B2AF8EE611A82EEA12A06
:102480001968C1F3080101EE901A1968F8EE611A93
:1024900040EE011A31EEA00A22EE000A00E033E01D
:1024A000C1F3462101EE101AB8EE411A31EE201A9E
:1024B000C0EE011ABCEEE11A80ED001A1968C1F3F2
:1024C000064101EE101AB8EE411A31EE201AC0EEA4
:1024D000011ABCEEE11A80ED011A1968C1F3066118
:1024E00001EE101AB8EE411A71EE200A80EE201AA1
:1024F000BCEEC10A80ED020A10BD01EE901ADFEDBC
:102500000A2AF8EE611AB9E7002101604160816092
:1025100010BD000028440258000000390024744A0D
:102520000090D0030024744C20BCBE4B484910B529
:102530000A68096802F00302454B1B1DC1F30551EF
:102540001B68434C1C34C3F300232468C4F3CC043D
:1025500014FB03F300EE103AB8EE400AE9B33C4B2B
:102560009FED3C1A1833F7EE000A62B1DFED3A1A1C
:10257000012A01D0022A5ED002EE101AF8EE422A99
:1025800081EEA22A1AE0324A283A1468A4060DD530
:102590001268C2F3C104314AE24001EE902AF8EE1B
:1025A000612A01EE901AF8EE611A05E001EE901A28
:1025B000DFED2B2AF8EE611A82EEA12A1968C1F329
:1025C000080101EE901A1968F8EE611A40EE011A3E
:1025D00031EEA00A22EE000A00E033E0C1F346210A
:1025E00001EE101AB8EE411A31EE201AC0EE011AAF
:1025F000BCEEE11A80ED001A1968C1F3064101EE44
:10260000101AB8EE411A31EE201AC0EE011ABCEED3
:10261000E11A80ED011A1968C1F3066101EE101A82
:10262000B8EE411A71EE200A80EE201ABCEEC10A03
:1026300080ED020A10BD01EE901ADFED0A2AF8EED5
:10264000611AB9E7002101604160816010BD00009E
:1026500028440258000000390024744A0090D00336
:102660000024744C20BCBE4B2DE9FC5F044600687E
:102670000025FA4FC043DFF8E8832E46010104F13C
:102680000800019004F1280000901DD4A06E50B104
:10269000B0F5801F0CD0B0F5001F0ED0B0F5401F74
:1026A0001ED001250FE0386840F40030386017E094
:1026B0000198022103F030F903E00098022103F0B1
:1026C000B5F905000CD02E462088C043C00523D4A0
:1026D000A06D05281ED2DFE800F00C11161B1B00B0
:1026E000D8F80010A26E21F440111143C8F8001070
:1026F000EAE7386840F40030386009E001980021CA
:1027000003F00AF903E00098002103F08FF9054671
:1027100075B100E001252E462088C043800528D4ED
:10272000E06D80281ED00CDC90B140280ED114E062
:10273000D8F80010A26D21F007011143C8F800106D
:10274000EAE7C02813D0B0F5807F10D001250FE054
:10275000386840F40030386009E00198002103F047
:10276000DBF803E00098002103F060F905468DB125
:102770002E462088DFF8EC92C04340052CD4D4F8D4
:10278000A800B0F5800F20D00DDCA0B1B0F5001F7F
:102790000FD115E0D8F80010E26D21F4E07111437B
:1027A000C8F80010E5E7B0F5C00F13D0B0F5000F82
:1027B00010D001250FE0386840F40030386009E09F
:1027C0000198002103F0A8F803E00098002103F02D
:1027D0002DF905467DB12E462088C04300052DD435
:1027E000D4F8AC00B0F1007F21D00EDCA8B1B0F17C
:1027F000807F10D116E0D9F80010D4F8A82021F479
:1028000060011143C9F80010E6E7B0F1407F13D032
:10281000B0F1806F10D001250FE0386840F400302F
:10282000386009E00198002103F076F803E0009891
:10283000002103F0FBF8054675B12E462068C04321
:1028400080011FD4E06CD8B110280FD0202812D0FE
:10285000302815D0012514E0D9F80010D4F8AC20A8
:1028600021F0E0611143C9F80010E7E7386840F44F
:102870000030386004E00198022103F04DF805466D
:1028800075B12E462088C043C0042BD4206EB0F50D
:10289000005F20D00DDCA0B1B0F5805F0FD115E056
:1028A0006F48001F0168E26C21F0300111430160A4
:1028B000E8E7B0F5405F13D0B0F5804F10D00125A8
:1028C0000FE0386840F40030386009E001980021DA
:1028D00003F022F803E00098002103F0A7F8054672
:1028E0008DB12E462088C043800429D4606EB0F597
:1028F000403F23D010DC08B3B0F5803F14D0B0F5D2
:10290000003F0FD115E0D8F80010226E21F4E0410D
:102910001143C8F80010E5E7B0F5802F0ED0B0F5F0
:10292000A02F0BD001250AE00198012102F0F4FF4D
:1029300003E00098012103F079F8054695B12E4691
:102940002088C04340042AD4D4F8B000B0F1405FDE
:1029500023D010DC08B3B0F1805F14D0B0F1005F79
:102960000FD115E0D8F80010626E21F4E021114378
:10297000C8F80010E4E7B0F1804F0ED0B0F1A04FDE
:102980000BD001250AE00198012102F0C5FF03E008
:102990000098012103F04AF8054675B12E462088BB
:1029A000C04300041FD4206FD8B1B0F1805F0ED0B7
:1029B000B0F1005F10D0012514E0D9F80010D4F870
:1029C000B02021F0E0411143C9F80010E7E7386872
:1029D00040F40030386004E00198012102F09CFFCF
:1029E000054675B12E462068C043C0011ED4A06CB8
:1029F000D0B101280ED0022811D0032814D001250F
:102A000013E0D8F80010226F21F040511143C8F8AC
:102A10000010E8E7386840F40030386004E00198BE
:102A2000022102F079FF05467DB12E462068DFF8CD
:102A300038B0C043400256D40C48016841F480715C
:102A40000160FEF76DFA824618E00548001F016834
:102A5000A26C21F0030111430160E7E72C44025806
:102A60005044025858440258104402580048025832
:102A7000FEF756FAA0EB0A0064282CD8FE4800683E
:102A8000C005F5D545BBFD480068B4F8B41000F4A6
:102A9000407001F4407188420CD0F8480168026827
:102AA00021F4407142F480320260026822F48032E4
:102AB00002600160D4F8B400B0F5807F1AD1FEF74F
:102AC0002FFA824609E0FEF72BFAA0EB0A0141F249
:102AD0008830814201D9032504E0E8480068800776
:102AE000F1D53DB12E462078DFF894A3C043C0074E
:102AF00020D03BE0D4F8B400C0F3012103290ED06C
:102B0000DBF8001021F47C51CBF80010DB480168A1
:102B1000B4F8B420C2F30B0211430160E3E7DBF821
:102B20000020D84B22F47C5203EA10100243CBF869
:102B30000020EBE7E06F182816D005DCA0B10828CC
:102B400008D0102804D10AE020280DD028280BD066
:102B500001250AE00198012102F0DEFE03E0009861
:102B6000012102F063FF054665B12E462078C0437F
:102B700080071ED4A06F062819D2DFE800F0160CDB
:102B800011161616DAF80010E26F21F03801114321
:102B9000CAF80010EAE70198012102F0BDFE03E047
:102BA0000098012102F042FF05467DB100E00125B9
:102BB0002E462078C04340071FD4D4F8940006283E
:102BC00019D2DFE800F0160C11161616DAF800100C
:102BD000A26F21F007011143CAF80010E9E701983C
:102BE000012102F099FE03E00098012102F01EFF8E
:102BF0000546A5B100E001252E462078C043800699
:102C00002BD4D4F89000B0F1405F24D011DC10B385
:102C1000B0F1805F15D0B0F1005F10D116E0D9F8A7
:102C20000010D4F8942021F007011143C9F80010D6
:102C3000E3E7B0F1804F0ED0B0F1A04F0BD00125EB
:102C40000AE00198002102F067FE03E000980221EB
:102C500002F0ECFE054695B12E462078C0434006B2
:102C60002BD4D4F89C00B0F5406F24D011DC10B305
:102C7000B0F5806F15D0B0F5006F10D116E0DAF81E
:102C80000010D4F8902021F0E0411143CAF8001060
:102C9000E3E7B0F5805F0ED0B0F5A05F0BD0012563
:102CA0000AE00198002102F037FE03E000980221BB
:102CB00002F0BCFE054695B12E462078C0430006C2
:102CC0002BD4D4F8A000B0F5C04F24D011DC10B341
:102CD000B0F5005F15D0B0F5804F10D116E0D9F8EF
:102CE0000010D4F89C2021F4E0511143C9F80010E1
:102CF000E3E7B0F5004F0ED0B0F5204F0BD0012523
:102D00000AE00198002102F007FE03E0009802218A
:102D100002F08CFE054655B12E462078C0430007D0
:102D20001ED4D4F88400B0F5805F0AD00FE0D9F843
:102D30000010D4F8A02021F460411143C9F800101C
:102D4000EBE70098022102F071FE00B10126DAF8EB
:102D50000010D4F8842021F440511143CAF8001027
:102D60002078C043C00613D4D4F89800B0F5807F13
:102D700005D10098022102F059FE00B10126D9F8D0
:102D80000010D4F8982021F440711143C9F80010C4
:102D90002068C043000316D4D4F8A40038B1B0F5BD
:102DA000803F09D0B0F5003F0BD001250AE0019823
:102DB000002102F0B1FD03E00098022102F036FE8E
:102DC00005468DB12E462068C043400322D4D4F876
:102DD0008800B0F5801F11D0B0F5001F13D0B0F5FA
:102DE000401F15D0012514E0D9F80010D4F8A42014
:102DF00021F440311143C9F80010E4E7386840F489
:102E00000030386004E00098012102F00FFE054612
:102E10005DB12E462068C043C0031CD4206D70B144
:102E2000B0F5803F10D0012514E0DAF80010D4F896
:102E3000882021F440111143CAF80010EAE73868ED
:102E400040F40030386004E00198022102F064FD93
:102E500005462DB32E462068C043800005D4009857
:102E6000022102F0E3FD00B101262068C043800387
:102E700024D4D4F8800007E0004802587044025877
:102E800054440258CFFFFF00B0B1B0F5807F0FD09F
:102E9000B0F5007F10D0B0F5407F0DD001250CE0DB
:102EA0005A480168226D21F4803111430160D2E754
:102EB000386840F400303860F5B32E462068C043CF
:102EC000C00207D4D8F80010626F21F0004111430E
:102ED000C8F800102068C043C00008D4DBF8001018
:102EE000D4F8B82021F480411143CBF800102068B9
:102EF000C043800207D4D8F80010E26E21F0807140
:102F00001143C8F800102068C04340000CD4DBF81F
:102F1000001021F40041CBF80010DBF80010D4F8C9
:102F2000BC201143CBF800102068C04308D43748B8
:102F3000016821F0405100E017E0626D114301602B
:102F40002068C043000208D4DAF80010D4F88C20BE
:102F500021F440011143CAF8001020790025C04334
:102F600000F0010028430AD00FE0DAF80010D4F88E
:102F7000802021F440711143CAF800109EE70198A7
:102F8000002102F0C9FC00B106462079C04300F0E0
:102F90000200284305D10198012102F0BDFC00B1D7
:102FA00006462079C04300F00400284305D101986B
:102FB000022102F0B1FC00B106462079C04300F0C6
:102FC0000800284305D10098002102F02FFD00B130
:102FD00006462079C04300F01000284305D1009830
:102FE000012102F023FD00B106462079C04300F024
:102FF0002000054304D10098022102F017FD00B91A
:1030000016B10120BDE8FC9F0020FBE74C440258AC
:103010002DE9F05F04000D467ED0DFF84492D9F828
:10302000000000F00F00A8420CD2D9F8001021F0E7
:103030000F012943C9F80010D9F8000000F00F0073
:10304000A84269D12078874E40070AD520693168A7
:1030500001F07001884204D9316821F07001014308
:1030600031602078DFF8008200070CD560694146A6
:10307000D8F8002002F07002904204D90A6822F0C9
:10308000700202430A602078C0060CD5A069414650
:10309000D8F8002002F4E062904204D90A6822F4D1
:1030A000E06202430A602078DFF8C0B180060CD5E8
:1030B000E0695946DBF8002002F07002904204D922
:1030C0000A6822F0700202430A60207880070AD55D
:1030D000E068316801F00F01884204D9316821F0BD
:1030E0000F01014331602078C0073DD03068A168EE
:1030F00020F47060084330605A496068183902282B
:1031000018D0032819D00968012819D049070029C7
:1031100049DADFF850A100E045E0AAF1080ADAF840
:10312000001021F007010143CAF80010FDF7F8FE76
:10313000074611E009688903E9E709688901E6E7BC
:10314000C905E4E7FDF7ECFEC11B41F2883081427E
:1031500002D90320BDE8F09FDAF80000616800F0B2
:103160003800B0EBC10FEDD1207880070AD5E068B8
:10317000316801F00F01884204D2316821F00F015B
:1031800001433160D9F80010484601F00F01A9420F
:103190000BD9016821F00F0129430160006800F09C
:1031A0000F00A84201D00120D4E7207840070AD5BB
:1031B0002069316801F07001884204D2316821F041
:1031C000700101433160207800070CD560694146E9
:1031D000D8F8002002F07002904204D20A6822F06F
:1031E000700202430A602078C0060CD5A0694246EE
:1031F000D8F8001001F4E061884204D2116821F48B
:10320000E06101431160207880060CD5E0695946E1
:10321000DBF8002002F07002904204D20A6822F02B
:10322000700202430A6000F0A1F83168C1F3032282
:103230000F498A5C02F01F02D040326802F00F0290
:10324000895C0C4A01F01F0120FA01F111600A4962
:1032500008600A480068BDE8F05FFEF739BA000070
:1032600000200052184402581C44025820440258BE
:1032700034F50290200000241C00002414000024D7
:103280003F220260144A126802F007024260124AAA
:103290000832136803F470638360136803F00F034C
:1032A000C360126802F0700202610B4A0C321368AC
:1032B00003F070034361126802F4E0628261064A1F
:1032C0001032126802F07002C2610448006800F017
:1032D0000F000860704700001044025800200052A0
:1032E00000B500F043F80B4A11681268C1F30323DC
:1032F0000949CB5C03F01F03D84002F00F02895C40
:10330000064A01F01F0120FA01F11160044A106021
:10331000084600BD1844025834F5029020000024ED
:103320001C00002400B5FFF7DBFF05490968054ACA
:10333000C1F30211515C01F01F01C84000BD000043
:103340001C44025834F5029000B5FFF7C9FF054947
:103350000968054AC1F30221515C01F01F01C84010
:1033600000BD00001C44025834F50290434830B5BB
:103370000068444C10F03801414808D00211082977
:1033800003D010290BD018290BD0104630BD21686E
:103390008906FBD52168C1F3C101C84030BD3A4858
:1033A00030BD364918310A68096802F00302334B10
:1033B0001C33C1F305111B68304D03F001032435A4
:1033C0002D68C5F3CC0515FB03F300EE103AB8EEFB
:1033D000400AE9B3294BDFED2D0A2033B7EE001A7E
:1033E00062B1DFED2B1A012A01D0022A3CD002EE95
:1033F000101AF8EE422A81EEA22A17E022689206FD
:103400000CD52268C2F3C102D04001EE900AF8EE5A
:10341000612A01EE901AF8EE611A05E001EE901AA9
:10342000DFED1C2AF8EE611A82EEA12A1868C0F3BB
:10343000080001EE900A1868F8EE611A40EE201AB2
:1034400031EE810A22EE000AC0F34620401C00E063
:1034500011E000EE900AF8EE600A80EE201ABCEE51
:10346000C10A10EE100A30BD01EE901ADFED0A2AF3
:10347000F8EE611AD8E7002030BD00001044025871
:103480000090D0030044025840787D0100000039CC
:103490000024744A0024744C20BCBE4B2DE9F05F1C
:1034A000040079D02078DFF8F8A3FE4EFE4DC00767
:1034B00047D0DAF80000316800F03800102815D045
:1034C000182803D101F0030002280FD06068B0F57E
:1034D000803F12D010B1B0F5A02F18D0286820F48A
:1034E00080302860286820F4802009E02868800364
:1034F00027D560680028D4D023E0286840F48030C5
:103500002860606888B1FDF70BFD074609E0286870
:1035100040F480202860F0E7FDF702FDC01B64281E
:1035200072D828688003F7D50BE0FDF7F9FC074651
:1035300004E0FDF7F5FCC01B6428F1D8286880037F
:10354000F7D4207841F20309D84F800766D5DAF81E
:103550000000316810F038000ED0182801D188071B
:103560000AD0E06880B3296821F01901014329607D
:10357000FDF7D6FC80462EE02868400702D5E068BB
:1035800000288ED02868E16820F0190008432860E0
:10359000FDF7C6FC804606E0D8E0FDF7C1FCA0EBD5
:1035A00008000228BCD828684007F6D5FDF7B2FC11
:1035B00048451AD82069402811D0396821F47C3157
:1035C00041EA0030386029E016E0FDF7A9FCA0EBE5
:1035D00008000228A4D828684007F6D5E6E738682E
:1035E00020F47C3040F40030ECE73868217C20F097
:1035F000FE4040EA0160E5E7286820F0010028600D
:10360000FDF78EFC804606E000E1FDF789FCA0EBAB
:103610000800022884D828684007F6D42078C0061D
:103620005AD5DAF80000316800F03800DFF870B2DF
:103630000828ABF1040B10D0182803D101F00300C7
:1036400001280AD0E0690028286836D040F08000C0
:103650002860FDF765FC804621E02868C00521D57B
:10366000E069802872D11DE0206A20281FD03968C7
:1036700021F0F84141EA806038602DE0DBF800106D
:1036800094F8202021F07C5141EA0261CBF800102F
:1036900022E0FDF745FCA0EB080002289AD8286834
:1036A000C005F6D5FDF736FC4845E7D8DCE73868B5
:1036B00020F0F84040F08040DEE720F080002860F5
:1036C000FDF72EFC074604E0FDF72AFCC01B02288C
:1036D000A0D82868C005F7D42078000728D57149FC
:1036E00060694C31002888460846096810D041F0CE
:1036F00001010160FDF714FC074604E0FDF710FC32
:10370000C01B022886D8D8F800008007F6D50FE045
:1037100021F001010160FDF703FC074604E0FDF71D
:10372000FFFBC01B022871D8D8F800008007F6D430
:103730002078800623D5A0690028286810D040F49E
:1037400080502860FDF7ECFB074605E038E1FDF707
:10375000E7FBC01B022859D828688004F7D50EE083
:1037600020F480502860FDF7DBFB074604E0FDF7FE
:10377000D7FBC01B022849D828688004F7D42078DA
:1037800040074DD5DFF82881D8F8001041F480714A
:10379000C8F80010FDF7C4FB074604E0FDF7C0FBC6
:1037A000C01B642832D8D8F80000C005F6D53D4FBC
:1037B000A068483701280AD008B1052813D0386816
:1037C00020F001003860386820F0040002E038681A
:1037D00040F001003860A06841F2883990B1FDF7EF
:1037E0009FFB80460AE0386840F004003860EEE74E
:1037F000FDF796FBA0EB0801494507D8386880071C
:10380000F6D50DE0FDF78CFB804606E083E0FDF782
:1038100087FBA0EB080149457DD838688007F6D4BE
:10382000616AD9B3DAF800004FF6F87BDFF87480EC
:1038300008F10808C0F3C200032808F10409A8F140
:10384000040A69D02868022920F08070286003D01B
:10385000FDF766FB044688E0FDF762FB074604E0DF
:10386000FDF75EFBC01B02287CD828688001F7D4D6
:10387000306840F2F3318843E16A40EA0110A16AFE
:103880000843306094F83400218E4002491EA0F5B0
:10389000007080B2C1F3080108430BE0B3E0000000
:1038A0001044025828440258004402580444025864
:1038B00000480258218F4FF4FE02491E02EA0141DE
:1038C000084394F83C101202491E02EA01610843C1
:1038D000C8F80000DAF80010504621F00101CAF8DB
:1038E0000010D9F80020A36C22EA0B0242EAC302BE
:1038F000C9F80020DAF80010226C21F00C01114305
:10390000CAF80010DAF80010626C21F002011143CD
:103910000160016801E025E02BE041F480310160A5
:10392000016841F400310160016841F480210160C7
:10393000016841F001010160286840F08070286052
:10394000FDF7EEFA044604E0FDF7EAFA001B022850
:1039500008D828688001F7D555E0FDF7E1FA001B8B
:10396000022802D90320BDE8F09F28688001F4D422
:1039700049E03268D8F80000012921D0A36A02F09A
:10398000030199421CD1E16AC2F30512914217D199
:10399000216BC0F30802491E8A4211D1616BC0F34A
:1039A0004622491E91420BD1A16BC0F30642491E2B
:1039B000914205D1E16BC0F30660491E814201D0FE
:1039C0000120D0E7D9F800004F46A16CC0F3CC002D
:1039D000814218D0DAF80000564620F00100CAF8FB
:1039E0000000FDF79DFA0546FDF79AFAA842FBD0C4
:1039F0003868A16C20EA0B0040EAC10038603068EA
:103A000040F0010030600020ADE700002DE9F041FA
:103A100004001D4616460F4603D0D4F8880018B19E
:103A200008E00120BDE8F081002084F884002046F1
:103A300000F0B8FC2420C4F888002068016821F058
:103A400001010160A06A10B1204602F0EBFA2046A5
:103A500002F0CCFB0128E5D02068816841F4804168
:103A600081602068816821F40041394381607005DC
:103A700040EA054120680268064B1A400A4302608A
:103A80002068016841F0010101602046BDE8F04175
:103A900002F02CBBFFFF00FC2DE9F041040027D011
:103AA0000025A562554F2068554A564BB84206D0AE
:103AB000904204D0984202D0E1680F2918D8E16BF7
:103AC000012606EB511CE1680831C908B84201FB28
:103AD0000CF105D0904203D0984201D0082907D8B4
:103AE000B84203D0904201D0984204D1102902D9A3
:103AF0000120BDE8F08194F8810020B9204684F8C7
:103B0000805000F081F8022084F88100206801686C
:103B100021F0010101602068816801F4F812A169B7
:103B2000B1F1806F10D16168B1F5800F01D019B18A
:103B30000AE0A16B21B107E0A16BB1F1805F03D175
:103B4000016841F4805101606068400209D5E06875
:103B5000072806D320680168236D21F4807119437A
:103B600003E02068016821F480710160A16AE069C6
:103B70000843E16B11430843E1680843216888600A
:103B8000616A606BA2690843A16B11430843216914
:103B9000084361690843216A084361680843E16C8E
:103BA0000843A1680843A16C0843A16D084321683C
:103BB000C860606868B92068816821F4C05141F428
:103BC000006181602068816821F4C06141F48061F6
:103BD00081602068016D21F001010165606840028B
:103BE00006D52068C168626D21F000411143C160B3
:103BF000C4F8845084F8816000207AE700300140E6
:103C000000380040003C00402DE9F041B6B00446C9
:103C1000142130A8FCF714FCC0216846FCF710FC06
:103C20002C4E02272A494FF005082068103E294DE6
:103C30000024884221D1811418940020CDE900107D
:103C40006846FEF711FD08B1FCF79DFC286840F4BA
:103C500080502860286800F480503590306840F02B
:103C600002003060306830A900F002003590382042
:103C700030901948CDE9317423E01849884224D1A5
:103C8000002119944014CDE900016846FEF7ECFCD0
:103C900008B1FCF778FC286840F4005028602868D8
:103CA00000F400503590306840F01000306030680B
:103CB00030A900F010003590642030900848CDE91C
:103CC0003174CDE93348FDF725F836B0BDE8F08111
:103CD00000300140F0440258000402580034014012
:103CE000001002582DE9F84F1D4617468A46044633
:103CF000FDF716F9064694F8810001283ED1BAF185
:103D0000000F6ED0002FFCD094F88000012835D031
:103D10004FF0010984F88090032084F881004FF06F
:103D20000008C4F88480C4F85CA0A4F86070A4F80B
:103D30006270C4F86480A4F86880A4F86A80C4F84B
:103D40007480C4F87080A068B0F5C02F206818D0C7
:103D5000C16821F4C02141F40031C160206841688C
:103D60006FF30F01394341602068016841F00101A0
:103D700001606068B0F5800F08D00CE00220BDE85B
:103D8000F88F016841F400610160E7E7206801688D
:103D900041F400710160E0680F281AD81EE0206825
:103DA000416989070BD5E16D09680162E06D001D6D
:103DB000E065B4F86200401EA4F8620009E0FDF777
:103DC000AFF8801BA84202D3681C02D094E0002DFB
:103DD0002FD0B4F862000028E1D171E007282AD87A
:103DE0006AE087E02068416989071BD5B4F8621052
:103DF00001290BD9E16B49B1E16D09680162E06D00
:103E0000001DE065B4F86200801E08E0E16D0988DD
:103E10000184E06D801CE065B4F86200401EA4F8E7
:103E2000620008E0FDF77CF8801BA84202D3681C02
:103E300001D061E0B5B3B4F862000028D2D13FE010
:103E40002068416989072ED5B4F8621003290CD97E
:103E5000E16B402909D9E16D09680162E06D001D3F
:103E6000E065B4F86200001F19E0B4F8621001299F
:103E70000BD9E16B49B1E16D09880184E06D801CCB
:103E8000E065B4F86200801E09E0E16D097880F811
:103E90002010E06D401CE065B4F86200401EA4F8FC
:103EA000620009E028E0FDF73BF8801BA84202D33E
:103EB000681C01D020E0FDB1B4F862000028BFD139
:103EC00000222B4608212046009601F097FE28B1DB
:103ED000D4F8840040F02000C4F88400204601F0AB
:103EE0002FFE84F8819084F88080D4F88400002824
:103EF0003FF445AF012042E7204601F021FED4F80F
:103F0000840040F48070C4F8840084F88190032019
:103F100084F8808033E7704770477047F0B590F8B9
:103F20003C20012A3CD0012580F83C50022280F838
:103F30003D2003685A689C681A4E1B4FB34201D05B
:103F4000BB4204D122F4700C4A6842EA0C0222F00F
:103F5000700C0A6842EA0C025A600268B24213D03E
:103F6000B2F1804F10D0114B9A420DD0104B9A42B3
:103F70000AD0104B9A4207D0BA4205D00E4B9A4253
:103F800002D00E4B9A4204D1896824F08003194371
:103F9000916080F83D50002180F83C100846F0BD4B
:103FA0000220F0BD00000140000401400004004078
:103FB00000080040000C0040001800400040014094
:103FC00010B5040003D094F83D0010B107E00120C3
:103FD00010BD002084F83C00204600F023F80220A9
:103FE00084F83D002068211D01F092FF012084F833
:103FF000480084F83E0084F83F0084F8400084F8CC
:10400000410084F8420084F8430084F8440084F8B6
:10401000450084F8460084F8470084F83D000020FD
:1040200010BD000008B500680B49884212D10B484A
:10403000016841F01001016000680022052100F0D4
:10404000100000903620FDF7B7FDBDE8084036208F
:10405000FDF7A4BD08BD000000100040E844025870
:1040600090F83D10012901D001207047022180F80D
:104070003D100168CA6842F00102CA600068134935
:10408000884214D0B0F1804F11D0114988420ED02F
:10409000104988420BD01049884208D00F49884205
:1040A00005D00F49884202D00E49884207D1816865
:1040B0000D4A1140062906D0B1F5803F03D00168B2
:1040C00041F0010101600020704700000000014044
:1040D0000004004000080040000C004000040140C3
:1040E00000180040004001400700010070472DE922
:1040F000F04104460068C66805694FF00007A9074B
:1041000013D5B10711D5F91E016101202077206870
:1041100080698007204602D0FFF7E8FF04E000F046
:104120008BF8204600F089F82777680716D57007C6
:1041300014D521686FF00400086102202077206800
:10414000806910F4407F204602D0FFF7CFFF04E0E3
:1041500000F072F8204600F070F82777280715D590
:10416000300713D521686FF008000861042020771C
:104170002068C0698007204602D0FFF7B7FF04E03F
:1041800000F05AF8204600F058F82777E80616D5D0
:10419000F00614D521686FF0100008610820207720
:1041A0002068C06910F4407F204602D0FFF79EFFD0
:1041B00004E000F041F8204600F03FF82777E807D8
:1041C00008D0F00706D021686FF001000861204692
:1041D00000F034F8280601D4A80408D5300606D526
:1041E00021686FF4025008612046FFF795FEE8054C
:1041F00008D5300606D521686FF480700861204626
:10420000FFF789FE680608D5700606D521686FF0AD
:1042100040000861204600F023F8A8060AD5B00641
:1042200008D521686FF0200008612046BDE8F04104
:10423000FFF773BEBDE8F08170477047006806491C
:10424000884201D1FDF70EBA0449884202D101200B
:1042500023F09EB970470000001400400010004099
:10426000704790F88410012918D0012180F884103B
:104270002421C0F8881001680A680B6823F0010344
:104280000B6022F000510022426603681960202171
:10429000C0F8881080F884201046704702207047CC
:1042A00070B5044690F8840001281DD0012084F8E0
:1042B00084002420C4F8880020680568026822F081
:1042C000010202602068826822F060620A43826014
:1042D000204601F085FE206805602020C4F8880093
:1042E000002084F8840070BD022070BD70B50446C3
:1042F00090F8840001281DD0012084F88400242037
:10430000C4F8880020680568026822F00102026093
:104310002068826822F060420A438260204601F0F1
:104320005FFE206805602020C4F88800002084F823
:10433000840070BD022070BD10B5040003D0D4F815
:10434000880010B107E0012010BD002084F884002F
:10435000204600F027F82420C4F88800206801686F
:1043600021F001010160A06A10B1204601F05AFE5F
:10437000204601F03BFF0128E6D02068416821F487
:10438000904141602068816821F02A0181602068A5
:10439000016841F0010101602046BDE8104001F0D4
:1043A000A5BE0000F0B5B7B00446142130A8FCF754
:1043B00047F8C0216846FCF743F82C4902262068DC
:1043C00007272B4D0024884224D100201F9401216F
:1043D000CDE900106846FEF747F908B1FCF7D3F8BD
:1043E00023481030016841F010010160006800F0BE
:1043F00010003590286840F001002860286830A936
:1044000000F0010035904FF4C06030901948CDE9BC
:10441000316425E01849884226D100201E940221EB
:10442000CDE900106846FEF71FF908B1FCF7ABF8BC
:104430000F480830016841F400310160006800F461
:1044400000303590286840F008002860286830A9BE
:1044500000F008003590702030900848CDE93164B4
:10446000CDE93347FCF756FC37B0F0BD00100140F2
:10447000E04402580000025800440040000C02587A
:104480002DE9F05F054600680E46074602F0ACFBDA
:10449000C6EB06114FF0070840074FF0040905EB83
:1044A000810401D5484633E02868314602F09CFB80
:1044B000C0054FF0080A08D507EB46114FF480708D
:1044C000C1F8080584F84DA028E02868314602F0BC
:1044D0008BFB000705D507EB4611C1F808A50620A0
:1044E0000CE02868314602F07FFB400509D507EB58
:1044F00046114FF48060C1F80805092084F84D008A
:104500000CE02868314602F06FFB00060AD58020D7
:1045100007EB4611C1F8080584F84D80314628683C
:1045200002F081FA2868314602F05EFB80052868B7
:10453000314604D502F077FA4FF400705AE102F0E8
:1045400053FBC0074FF0200B4FF0010A4FF000085B
:104550004FD007EB4617C7F808B5E07E012807D112
:1045600084F81B80D7F8040520F48030C7F80405D0
:10457000A87930B1206BD7F81015C1F31201401A99
:10458000A06384F84DA05246C4F84480C7F808A53B
:1045900094F8260030B1022804D003280AD001285C
:1045A00008D013E02868314602F03DFA1020C7F821
:1045B00008050BE0D7F8000540F00050C7F80005EB
:1045C0003146284684F84C20FCF7B2FCA879012833
:1045D00007D1208DA16B0144491EB1FBF0F0C0074B
:1045E00005D094F83C0080F0010084F83C00BDE860
:1045F000F09F2868314602F0F7FA80060CD507EBE9
:104600004611C1F808B5A07E0128F0D184F81BA09E
:10461000032084F84D00B4E02868314602F0E4FA43
:1046200080074FF0050B75D507EB46100222C0F846
:10463000082594F84D10012916D0062919D007290C
:104640001CD009291AD0052933D0032963D00429A5
:104650007DD008297ED00229C9D094F84C2031465B
:104660002846FCF765FCC2E784F84D2084F84CA08E
:10467000F3E784F84D2084F84CB0EEE784F84D2041
:10468000616C491C6164022910D9C4F84480414618
:10469000A27E012A07D1E1762177D0F8041521F412
:1046A0008031C0F8041584F84C90D6E784F84C208B
:1046B00022E084F84D20E17E0129CED194F8261025
:1046C0000329F3D1A16C491CA164022911D9C4F8B2
:1046D000488084F81B80616C032901D284F81CA0F7
:1046E000D0F8041521F48031C0F8041584F84C90FA
:1046F00002E084F84C20B0E794F8261009B10229B2
:10470000ABD1D0F8001521F0804141F00041C0F854
:104710000015A2E724E084F84D20E17E01299CD118
:1047200084F84C20D0F8041541F48031C0F8041509
:10473000D0F80C1541F04001C0F80C15D0F80C155C
:1047400021F02001C0F80C15D6E700E002E084F863
:104750004D20ABE784F84D20606C401C6064A2E7FC
:104760002868314602F040FA400610D507EB4611A2
:104770004020C1F8080584F84DB0A07E08B9C4F8FF
:10478000448031462868BDE8F05F02F04CB92868E3
:10479000314602F029FAC0067FF565AF94F826008D
:1047A000032803D028B1022803D00FE0C4F84480C6
:1047B00006E0C4F84480A87910B1E07E012818D141
:1047C00084F84D903146286802F02DF9E07E0128EA
:1047D0000FD107EB461084F81B80D0F8041521F4A4
:1047E0008031C0F80415D0F80C1541F02001C0F854
:1047F0000C15102007EB4611C1F80805F7E62DE966
:10480000F05F054600680F46064602F0EDF9C7EB7B
:1048100007114FF0040A400705EB810405D506EBAC
:104820004711C1F808A5072089E02868394602F039
:10483000DBF980064FF000084FF001094FF0020B42
:1048400028D506EB47112020C1F808050326607E15
:10485000012809D184F81980394684F84CB084F8CD
:104860004D60286802F0DFF8A07E012810D1E07EBC
:1048700000280DD194F82600012801D084F81B905F
:10488000394684F84D60286802F0CDF8C4F84480B9
:10489000BDE8F09F2868394602F0A6F9800506D5E4
:1048A00006EB47114FF40070C1F8080549E028688D
:1048B000394602F099F9C00720D0C4F8448039463F
:1048C000286802F091F9400606D506EB471184F8F6
:1048D00019904020C1F80805E07E48B106EB47106A
:1048E00084F81B80D0F8041521F48031C0F8041539
:1048F00006EB47114846C1F8089520E0286839467C
:1049000002F072F940060ED5052084F84D00A07E15
:1049100008B984F819903946C4F84480286802F030
:1049200082F8402028E02868394602F05DF9000747
:104930000DD506EB47110820C1F80805062084F8BC
:104940004D0039462868BDE8F05F02F06CB8286871
:10495000394602F049F9C00613D5C4F8448084F8FA
:104960004DA0607E18B9207E08B984F819903946A8
:10497000286802F058F8102006EB4711C1F8080526
:1049800086E72868394602F02FF900061CD5A87979
:1049900070B1606C401C6064022811D9C4F8448076
:1049A00052463946284684F84CA0FCF7C1FA09E083
:1049B000072084F84D002868394602F034F801E0F9
:1049C00084F84CB08020D7E72868394602F00CF90B
:1049D000400509D5092084F84D002868394602F0C1
:1049E00022F84FF48060C7E72868394602F0FCF8E7
:1049F0008007C5D506EB47115A46C1F808B594F8AB
:104A00004D00012817D003283AD0042840D00528AB
:104A10004ED006284FD0072801D00928B0D184F8FD
:104A20004D20606C401C606402284AD9C4F8448060
:104A300084F84CA04FE084F84D2084F84C9094F812
:104A40002600022801D0032845D1A87928B994F876
:104A50003D0080F0010084F83D00A87901283AD19A
:104A6000606B20B3218D0844401EB0FBF1F0C007FD
:104A700031D094F83D0080F0010084F83D002AE038
:104A800084F84D20E07E012825D184F84C2022E0D6
:104A900084F84D2084F84C20E07E01281BD184F856
:104AA0001B80D1F8040520F48030C1F8040512E021
:104AB00084F84D20E9E784F84D20052084F84C0067
:104AC00009E084F84C20D1F8000520F0804040F047
:104AD0000040C1F8000594F84C2039462846FCF700
:104AE00027FAD5E67CB504680546D4F84004019061
:104AF000D4F8400420F02E0000900198800709D5DA
:104B00000198C00702D02846FCF710FA009840F040
:104B1000020000900198000724D5009840F008009A
:104B20000090019840071AD5687A022803D0E879E6
:104B300001280CD00FE00198C0F3414002282868FA
:104B400003D0012102F034F805E00221FAE74EF625
:104B50006020C4F804042846FCF70FFB02E0284656
:104B6000FCF70AFB01988006009802D540F020006F
:104B70000090C4F840047CBD2DE9F0410246006875
:104B80000746016A01F00F06C1F34343022BC1F34C
:104B90000A152FD1002D2DD0C6EB061102EB810492
:104BA000E16A002926D0A26B636B2A449A4223D87B
:104BB0002A4602F04DF8E06A2844E062A06B2844DF
:104BC000A06307EB4610D0F81015228DAA42C1F35E
:104BD000C9410FD100290DD0D0F8001521F0804136
:104BE00041F00041C0F8001594F83C0080F001004D
:104BF00084F83C00BDE8F081042084F84C00F9E71B
:104C0000FEE701688A69D243920701D400228A62D2
:104C100000688169C943C90703D0816941F0010176
:104C2000816170472DE9F0470446006888461746C1
:104C30000026816935464FF02009C90641D510216B
:104C4000C1612FE0B8F1FF3F2CD0FCF769F9C11B1F
:104C5000414502D8B8F1000F24D12068416894F88A
:104C6000422001F480418369DB431B0415D4B1F574
:104C7000804F12D0202A10D0416841F48041416019
:104C8000FCF74EF9074608E0FCF74AF9C01B192863
:104C900003D9012645F0200504E020688069C0435F
:104CA0008006F1D420688069C043800602D5002EBA
:104CB000C8D003E016B92168C1F81C90012645F060
:104CC000040521688869C20505D545F001054FF442
:104CD0008072CA610126410506D5226845F00805A3
:104CE0004FF48061D1610126800507D5216845F028
:104CF00002054FF40070C861012600E086B120462D
:104D0000FFF77FFF54F8240B4168074A11404160C8
:104D1000206A2843206284F81D900020A077207725
:104D20003046BDE8F087000000E800FE10B50068DE
:104D3000C1F3090141EA0241029C1943426821433F
:104D400021F000414FF4806303EA5453024C2343A3
:104D50009A430A43426010BDFF63FF032DE9F0410F
:104D60001D4617460E460446DDF8188028E04246E8
:104D700029462046FFF756FF10B10120BDE8F0811B
:104D8000681C1DD0FCF7CCF8A0EB0800A84200D8A6
:104D9000B5B92068806936EA00000FD00020B8421B
:104DA0000ED1606C40F020006064202084F8410047
:104DB000002084F8420084F84000DEE70120EEE79E
:104DC0002068806936EA000004D00020B842CED0C6
:104DD0000020D3E70120F9E72DE9F04700259146AF
:104DE0000E4604462F464FF020083CE04A46314626
:104DF0002046FFF717FF00B1012520688169C943EC
:104E000089061AD4CDB981698169C943C90613D409
:104E10001021C161042060642068C0F81C802068F3
:104E20004268164B1A40426084F8418084F8427010
:104E3000012584F8407000E06764FCF771F8A0EB8E
:104E40000900B04200D876B96DB920688069C043C6
:104E5000400708D5606C40F02000606484F8418011
:104E6000012584F8407020688069C043400701D55F
:104E7000002DBBD02846BDE8F087000000E800FE0A
:104E800070B516460D4604461FE0324629462046B8
:104E9000FFF7C8FE08B1012070BDFCF741F8801B88
:104EA000A84200D88DB920688069C04380060CD51F
:104EB000606C40F020006064202084F841000020F5
:104EC00084F8420084F84000E5E720688069C04328
:104ED0008006DAD4002070BD70B516460D46044633
:104EE00021E0324629462046FFF79CFE08B101200A
:104EF00070BD681C17D0FCF713F8801BA84200D8BF
:104F00008DB920688069C04380070CD5606C40F083
:104F100020006064202084F84100002084F84200D2
:104F200084F84000E3E720688069C0438007D8D454
:104F3000002070BD10B5094C002208212046FBF767
:104F4000E4FFC820FBF76EFD012220460821FBF795
:104F5000DCFFBDE81040C820FBF764BD001002581C
:104F60000148FCF725BC0000480A0024F0B504689D
:104F70008B88E568C5F30B452B441D04882303EBA0
:104F8000C213E65806F47046E65004680F68E668F7
:104F9000C6F30B46761C3E442E43E65003688C89CC
:104FA000DD68C5F30A052C4425048C2404EBC214E7
:104FB0001E5906F470461E5103688F68DE68C6F3FA
:104FC0000A06761C3E442E431E510468942303EBCC
:104FD000C213E55825F00705E55005680C69EC504B
:104FE00091F8313005681F0291F832301C040B7EB5
:104FF0001E069C2303EBC21355F803C04FF0000CB0
:1050000045F803C091F8305034433D4325430468CC
:10501000E5500468982303EBC213E55825F0FF051B
:10502000E55005684C69EC500468A02303EBC213FB
:10503000E55840F20776B543E550D1E907452C43E2
:105040000568EC500468AC2303EBC213E55844F840
:1050500003C005684C6AEC500B698BB3012B32D04E
:10506000042B32D0022B30D0032B2ED0072B2CD088
:1050700001230568B02404EBC2142E5906F0E02683
:105080002E51D1E90065AD1B0E8D5D435E43ED1DD4
:1050900045EA064305682B510468B42303EBC213A9
:1050A000E5586FF30A05E5500468C96AE1500068E5
:1050B000842101EBC211425842F001024250F0BD7E
:1050C000FFE70423D5E70323D3E70223D1E71FB586
:1050D00000240094019402940394FCF72DFD012018
:1050E0008DF80F404FF01051019112218DF80810EA
:1050F00003218DF80B108DF80E008DF80000684626
:105100008DF80D408DF80A408DF801408DF809406A
:105110008DF80C40FCF7E6FC0420FCF71BFD1FBDDE
:105120000A48094910B501600021017141714161CE
:10513000816101210162FBF767FB002803D0BDE814
:105140001040FBF720BA10BD004C02587408002430
:10515000104802220E4910B501600021C0E9011279
:10516000C160C0E91112C164016541658165C16515
:10517000FBF7FAFB08B1FBF706FA06480121FBF73B
:1051800091FB002803D0BDE81040FBF7FCB910BD2F
:1051900000100052980800241748102215490223D5
:1051A00010B5016000218160C16001744174817497
:1051B00042610122C0E90623C0E908328262C2626C
:1051C000C0E90C2104228163C163C0E91012C0E967
:1051D0001212C0E914128165C1650166C0E9191295
:1051E000FBF732FC002803D0BDE81040FBF7CBB939
:1051F00010BD000000A00040000900240B4A00215F
:105200000B4810B523F088FD0A4C0021074A2432D0
:105210002060094823F080FD044A002160600748AF
:10522000483223F079FDA06010BD000044F40290E4
:10523000AD5C009004000024D95C0090E95C009013
:105240002DE9F04F87B014216846FBF7F9F855486F
:10525000016841F010010160016801F01001059141
:10526000016841F080010160016801F08001059151
:10527000016841F004010160016801F00401059139
:10528000016841F001010160016801F0010105912F
:10529000016841F002010160016801F0020105911D
:1052A000016841F00801016000680122DFF8F8B0F0
:1052B000192100F0080005905846FBF726FEDFF89C
:1052C000EC80002201214046FBF71FFEDFF8E09052
:1052D00001224FF441514846FBF717FEDFF8D4A0F6
:1052E0004FF48047002239465046FBF70EFE01245A
:1052F000694600250920CDE90004CDE9024558465C
:10530000FBF708FD10206946CDE9000458460294D9
:105310000394FBF7FFFC00946946CDE90145404644
:105320000395FBF7F7FC0226009603206946CDE9BA
:1053300001054046FBF7EEFC20206946CDE900055B
:105340001D480295FBF7E6FC4FF440506946CDE955
:105350000004484602940394FBF7DCFC009769467E
:10536000CDE9014550460395FBF7D4FCE0036946BF
:10537000CDE9000550460295FBF7CCFC402069467C
:10538000CDE90004CDE902454846FBF7C3FC009691
:105390006946CDE901545846FBF7BCFC07B0BDE8AF
:1053A000F08F0000E044025800100258000002583C
:1053B00000040258000C0258000802581348012249
:1053C000114910B50160124941600021C0E9021283
:1053D000016141618161C1610162FBF725FF08B193
:1053E000FBF7D1F809480021FBF7C9FE08B1FBF72C
:1053F000CAF806480021FBF7EDFE002803D0BDE8FF
:105400001040FBF7C0B810BD005C0040A0090024AC
:10541000B175703013480122114910B5016012496D
:1054200041600021C0E90212016141618161C161F5
:105430000162FBF7F9FE08B1FBF7A5F80948002166
:10544000FBF79DFE08B1FBF79EF806480021FBF72D
:10545000C1FE002803D0BDE81040FBF794B810BD92
:10546000001C0058F4090024B175703010B58EB0DE
:1054700034216846FAF7E4FF2B4800242949C0E9A3
:10548000001409048460C0E9034101214161816184
:105490000421C16101624FF4A27141624FF4F271C3
:1054A000816240F25311C16240F2F311016380F84E
:1054B000344080F8354080F83640FCF7DFF908B119
:1054C000FBF761F84FF4A070029402224FF4F071E0
:1054D000CDE90040CDE90312FF22CDE905244FF4C8
:1054E0008062079205228DF83040CDE90A01CDE9AE
:1054F00008248DF8314000220B4869468DF832406F
:10550000FCF72CF908B1FBF73EF808480022099097
:1055100069460548FCF722F9002801D0FBF733F86B
:105520000EB010BD00100050480A002420BB01241A
:1055300015480322134910B501604FF48001416002
:105540000021C0E902124FF080620161C0E905123A
:10555000C1611201016241628162C162C0E90D2133
:10556000C163016441648164C16401654165816511
:10557000FEF792FA002803D0BDE81040FBF703B80D
:1055800010BD000000300140F00A00241648082237
:10559000144910B501604FF4800141600021C0E959
:1055A0000212D2050161C0E905124FF0C042C0E904
:1055B000072141624FF080428162C162C0E90D2142
:1055C000C163016441648164C164016541658165B1
:1055D000FEF762FA002803D0BDE81040FAF7D3BF07
:1055E00010BD000000340140780B00243EB5104887
:1055F00000240E490094019402940160EF21C0E957
:10560000011440F2E731C16080218161FEF7D8FCCE
:1056100008B1FAF7B8FF0648694600940294FEF70D
:105620007DFC002801D0FAF7AEFF3EBD001000401F
:10563000000C002418480C22164910B501604FF4E4
:10564000E131416000218160C160C0E904128161E3
:10565000C161016241628162FEF76EFE08B1FAF734
:1056600092FF0D480021FEF741FE08B1FAF78BFFCB
:1056700009480021FEF714FE08B1FAF784FF064836
:10568000FEF7EFFD002803D0BDE81040FAF77BBF1E
:1056900010BD0000001001404C0C002419480C22E1
:1056A000174910B501604FF4E1314160002181607C
:1056B0000B46C160C0E9041281610A46C161016202
:1056C00041628162FEF7A2F908B1FAF75CFF0D486A
:1056D0000021FEF70BFE08B1FAF755FF094800213B
:1056E000FEF7DEFD08B1FAF74EFF0648FEF7B9FDFA
:1056F000002803D0BDE81040FAF745BF10BD0000F8
:1057000000440040E00C00240D4802220B4910B573
:105710000160092101710021C2718171427281729F
:10572000C172017341738173C173FCF763FD00287B
:1057300003D0BDE81040FAF726BF10BD00000840B6
:10574000740D00240C4802220A4910B50160102192
:1057500041710121C1710021817142728172C17256
:105760000174FBF786FC002803D0BDE81040FAF76F
:105770000ABF10BD0000044058120024FEE7FEE7F7
:105780000148FCF773BA0000740D00240148FBF7D0
:10579000D0BB0000581200242DE9F04106680546F0
:1057A0000C46306C06EB4411D1F8083B4FF400472F
:1057B00095F806C005F29C424FF0200EBCF1010F97
:1057C00008D0DFF898C0604538D1180431D5C1F849
:1057D000087B3FE0224E5FEA037C04D5B04239D912
:1057E0001804F4D436E05FEA836C02D5C1F808EB04
:1057F00030E013F0280F2DD1B04201D91804E6D4BF
:1058000004EBC400D1F8101B05EB8000D0F8743213
:10581000C1F31201591AC0F8681200F51570ACB93D
:1058200003691BB1C2681144C1600FE028680121FF
:105830000AE098060AD5C1F808EB07E034B9D5F8B4
:10584000640218B90021304601F028F82846E1B278
:10585000FCF7FBF90020BDE8F08100000A31544F4D
:105860000A30544F2DE9F84F0E46D0F8008081469B
:1058700001EBC60100EB8104D4E90910143488421D
:1058800002D90120BDE8F88F081AA168814200D230
:105890000846C01C08EB461A870815E0451AA068A0
:1058A000A84200D20546E81CABB2870899F806006A
:1058B00000904046E168F2B201F08CFAE0682844BA
:1058C000E060606928446061DAF8180980B2B84283
:1058D00005D3D4E90401814201D20028DED1D4E904
:1058E0000401884208D8012006F00F018840D8F84A
:1058F00034188143C8F834180020C3E7022A09D3BA
:10590000531C07D00023036043608360C0E9031287
:1059100001207047002070472DE9F047DFF808812B
:1059200004460E464FF00009D8F80000C043800737
:1059300009D03D4D283D286820F080602860FBF7A5
:10594000EFFA074607E00120BDE8F087FBF7E8FA29
:10595000C01B022860D828680001F7D4D8F80010CE
:10596000226821F47C3141EA0231C8F80010207A23
:105970004FF4FE02A1884002491EA0F5007080B2DB
:10598000C1F308010843A189491E02EA0141084305
:10599000217C1202491E02EA0161084322491031AA
:1059A00008602148001D0168626921F0C0011143AF
:1059B00001600168A26921F02001114301600168C2
:1059C00021F010010160184914310A684FF6F8738C
:1059D0009A43E36942EAC3020A60016841F0100198
:1059E00001606EB10168012E0ED041F4001101601A
:1059F000286840F080602860FBF792FA04460DE0CA
:105A0000016841F40021F2E741F48011EFE7FBF770
:105A100087FA001B022801D9032095E728680001B6
:105A2000F5D5484690E70000284402582DE9F04794
:105A3000DFF8088104460E464FF00009D8F8000050
:105A4000C043800709D03D4D283D286820F0805094
:105A50002860FBF765FA074607E00120BDE8F087FC
:105A6000FBF75EFAC01B022860D828688000F7D4D4
:105A7000D8F80010228821F07C7141EA0251C8F860
:105A80000010207A4FF4FE02A1884002491EA0F5C2
:105A9000007080B2C1F308010843A189491E02EADF
:105AA00001410843217C1202491E02EA01610843B8
:105AB0002249183108602148001D0168626921F4FB
:105AC0004061114301600168A26921F40071114332
:105AD0000160016821F48071016018491C310A6875
