:020000042400D6
:1000040040BA704740BA704740BA704740BA704728
:1000140040BA704740BA704740BA704740BA704718
:1000240040BA7047C0BA7047C0BA7047C0BA704788
:10003400C0BA7047C0BA7047C0BA7047C0BA7047F8
:10004400C0BA7047C0BA70474FEA3000704700002A
:100054004FEA3000704700004FEA3000704700005C
:100064004FEA3000704700004FEA3000704700004C
:100074004FEA3000704700004FEA3000704700003C
:100084004FEA3000704700004FEA3000704710B567
:10009400012402F0BBFE00F0A4F80446012C01D1B7
:1000A400002010BD00F02AF90446012C01D10020E3
:1000B400F7E700F0AEFB0446012C01D10020F0E785
:1000C4000120EEE72DE9F04D04460F4692464FF02D
:1000D400000BB4F1104F02D3B4F1114F02D300203E
:1000E400BDE8F08D04F1E044E0B2C0F58076BE4294
:1000F40000D93E4600F002F98346BBF1010F01D15D
:100104000020EDE7254604EB070800BFB2B22946FC
:10011400504600F0C2FA012803D100F07AFB002017
:10012400DEE73544B24405F58070404502D9A8EBBA
:10013400050001E04FF4807006464545E6D300F023
:1001440068FB8346BBF1010F01D10020C8E7012001
:10015400C6E72DE9F04104460D4604F1E04405F1FB
:10016400E045A0B2241A00F0C9F80646012E02D1D7
:100174000020BDE8F0810DE024F07047384600F01F
:100184002AFA0646012E03D100F043FB0020F0E7D3
:1001940004F58034A542EFD200F03BFB0646012E65
:1001A40001D10020E5E70120E3E710B5012400F0C8
:1001B400A5F80446012C01D1002010BD00F03DFA41
:1001C4000446012C01D10020F7E700F022FB04468D
:1001D400012C01D10020F0E72046EEE70146002083
:1001E400704710B59CB0202114A802F0A0FF4C2148
:1001F40001A802F09CFF00243D48006820F00400A0
:100204003B49086000BF002000903A48006820F095
:100214000100384908600846006800F001000090B9
:1002240033480C30006840F4404031490C310860D8
:100234000846006800F44040009000BF00BF00BFC3
:100244002B480C30006800F40050B0F5005FF7D183
:1002540001200190000402900020049008900220E4
:100264000A9002210B9105210C91C0210D910221CC
:100274000E9110910F91002112910821119101A862
:1002840000F011FF044614B101201CB010BD3F2042
:1002940014900320159000201690082017904020F9
:1002A4001890199000011A9040201B90042114A862
:1002B40001F04AF904460CB10120E6E70E48006853
:1002C40040F080000C49086000BF0B48F43000681F
:1002D40040F002000849F43108600846006800F064
:1002E4000200009000BF00BF00F029FC0020CCE712
:1002F4000C4802582C0400580044025870B5FE4DB6
:100304004D44002403E0002005F8010B641C4C2C30
:10031400F9D3FA48F84949440860084601F0CDFE8B
:1003240008B1012070BD0120F349494448602021EF
:10033400F148484481601021C160182101614FF4E3
:1003440080614161002181618021C16100210162DC
:1003540001F05EFE08B10120E4E70020E2E710B5F9
:1003640086B0044600BFE648006840F48040E44993
:1003740008600846006800F48040009000BF00BF99
:10038400DF485838006840F48040DD495839086037
:100394000846006820F48040086000BFD8480C304C
:1003A400006840F00400D6490C3108600846006833
:1003B40000F00400009000BF00BF00BF08460068C2
:1003C40040F0020008600846006800F00200009057
:1003D40000BF00BF00BF0846006840F0100008607E
:1003E4000846006800F01000009000BF00BF00BF86
:1003F4000846006840F0100008600846006800F0F5
:100404001000009000BF00BF00BF0846006840F025
:10041400100008600846006800F01000009000BF5B
:1004240000BF00BF0846006840F01000086008469E
:10043400006800F01000009000BF00BF4FF400609F
:1004440001900220029001200390032004900920CF
:10045400059001A9AB4801F0E3FB042001900020C2
:1004640003900920059001A9A74801F0D9FB802039
:1004740001900A20059001A9A44801F0D1FB4FF492
:10048400807001900A20059001A9A04801F0C8FBE2
:100494004FF4007001900A20059001A99B4801F0D7
:1004A400BFFB4FF4806001900A20059001A9974892
:1004B40001F0B6FB06B010BD10B504464FF4006160
:1004C400904801F097FC04218F4801F093FC8021AF
:1004D4008E4801F08FFC4FF480718C4801F08AFC47
:1004E4004FF40071894801F085FC4FF4806187481E
:1004F40001F080FC82485838006840F4804080490C
:10050400583908600846006820F4804008607C4838
:10051400006820F480407A49086010BD10B594B09A
:100524000446382106A802F002FE1821684602F0AB
:10053400FEFD4FF480700C904001099000200E9055
:100544001190129013900520069000200D904FF00A
:1005540080700F9000200B900090012001901020DB
:1005640002900020049001200390800505904FF034
:10057400FF336A4606A96048484402F0C9F810B13E
:10058400012014B010BD0020FBE710B58EB0044666
:100594003821684602F0CBFD4FF48070069040018C
:1005A4000390002008900B900C900D900620009072
:1005B40000200790099005900A90019041F288323A
:1005C40069464D48484401F080FE10B101200EB048
:1005D40010BD0020FBE710B58EB0044638216846F4
:1005E40002F0A5FD44484844FFF7CFFF4FF4807064
:1005F400069040010390002008900B900C900D9001
:10060400D8200090002005904FF48060079001945A
:1006140000200A90421E69463748484401F055FEBE
:1006240010B101200EB010BD33484844FFF776FFE7
:10063400012800D1F6E70020F4E700B58FB0382197
:1006440001A802F074FD2C484844FFF79EFF4FF4C4
:100654008070079040010490002009900C900D9048
:100664000E90C72001904FF4806008900020029003
:100674000A900690421E01A91F48484401F025FE35
:1006840010B101200FB000BD1B484844FFF746FFDE
:10069400012800D1F6E70020F4E770B58EB00446D7
:1006A4000D4616463821684602F041FD124848447A
:1006B400FFF76BFF4FF48070069040010390002019
:1006C40008900B900C904FF080500D9032200090C9
:1006D400002005904FF4806007904FF0407009901F
:1006E4000A96019541F2883269460348484401F06C
:1006F400ECFD78B101200BE018000000005000521E
:10070400D444025800080258000402580010025849
:100714000EB070BD4FF0FF3221465748484401F0F7
:1007240080FE08B10120E6E753484844FFF7F6FE8F
:10073400012801D10020DEE70020DCE770B58EB08F
:1007440004460D4616463821684602F0F0FC4FF484
:100754008070069040010390002008900B900C904C
:100764000D90EC2000900620059040020790800335
:1007740009900A96019541F2883269463E484844F8
:1007840001F0A3FD10B101200EB070BD002221467E
:100794003948484401F0B4FE08B10120F4E70020D0
:1007A400F2E710B590B00024382102A802F0BFFC93
:1007B4004FF4807008904001059000200A900D903D
:1007C4000E900F909F200290002009904FF08070AF
:1007D4000B900020079003200C9041F2883202A96C
:1007E4002548484401F071FD41F2883201A92248AC
:1007F400484401F085FE9DF8040000049DF80510AE
:1008040040EA01209DF8061040EA0104204610B099
:1008140010BD00B591B0382103A802F088FC002077
:10082400019002904FF480700990400106900020DE
:100834000B900E900F901090EB2003904FF44060BB
:100844000A9080030C9006200890002002900190EA
:1008540001AA03A90848484402F026F810B101206F
:1008640011B000BD0020FBE710B50348484402F076
:1008740080F8002010BD000018000000704770B51B
:100884000446FE484844007808B9012070BDFB487E
:10089400484400784FF47A71B1FBF0F0F8494944C8
:1008A4000968B1FBF0F5284602F086F908B1012089
:1008B400ECE7102C08D200222146501E02F004F965
:1008C400F0484844046001E00120DFE70020DDE750
:1008D40010B5032002F0E6F800F033FDEA49096898
:1008E400C1F30321E94A7A44515C01F01F0120FA63
:1008F40001F4E548006800F00F001146085C00F0C0
:100904001F0024FA00F0E24949440860DC484844E6
:1009140004600F20FFF762FC08B1012010BDFFF74F
:10092400ADFF0020FAE7704710B5DA48D6496431C4
:10093400086000200860D848091D0860002008608D
:1009440040F27120091D086000200860D348091D89
:100954000860002008601820091D08600020086055
:10096400CF48091D0860002008604FF49B70091DE2
:10097400086000200860CB48091D0860002008605A
:10098400C948091D086000200860FFF7CCFF00205B
:1009940010BDC64848440068B84949440978084429
:1009A400C249494408607047C048484400687047D9
:1009B400B44848440068704770B504460025AF4801
:1009C40048440078A0420DD0AC48484406780470EE
:1009D400AC4848440068FFF701FC054615B1A74838
:1009E40048440670284670BDA448484400787047BF
:1009F40070B50446FFF7D8FF06462546681C18B1B3
:100A04009E4848440078054400BFFFF7CDFF801B93
:100A1400A842FAD370BD4FF0E020006920F0020034
:100A24004FF0E021086170474FF0E020006940F08A
:100A340002004FF0E021086170479D4870479D48CF
:100A44000068000C70479B480068C0F30B007047B7
:100A54009948006870479848001D00687047964898
:100A64000830006870479549096821F07001014316
:100A7400924A116070479149096821F002010143CB
:100A84008E4A116070478D49091D096821F03F01A4
:100A940001438A4A121D1160704710B587480068E7
:100AA40040F0010085490860FFF77EFF044606E038
:100AB400FFF77AFF001B0A2801D9032010BD7F48E5
:100AC400006800F008000028F2D00020F6E77B4818
:100AD400006820F001007949086070477849096886
:100AE40021F460010143764A11607047744A126828
:100AF40082430A43724B1A6070477148006840F49D
:100B040080706F49086070476D48006820F48070F9
:100B14006B490860704738B90B0C6A4A126863F372
:100B24001F42684B1A6009E0664A121D12686FF38F
:100B34000F0242EA1142634B1B1D1A607047604862
:100B44001C30006840F001005D491C3108607047AA
:100B54005B481C30006820F0010059491C310860D2
:100B6400704757481C30006840F4803054491C31A9
:100B74000860704752481C30006820F480305049A7
:100B84001C31086070474E491C31096821F002018C
:100B940001434B4A1C3211607047494A243212689F
:100BA40022F0FF0241EA00131A43454B24331A6032
:100BB40070474048406840F001003E494860704733
:100BC4003C48406820F001003A4948607047394881
:100BD400406840F002003749486070473548406833
:100BE40020F002003349486070473248406840F0C2
:100BF40004003049486070472E48406820F00400E3
:100C04002C49486070472B48406840F080002949CF
:100C1400486070472748406820F0800025494860B4
:100C240070472448406840F4807022494860704707
:100C34002048406820F480701E494860704722496B
:100C4400096821F0407101431F4A116070471E4832
:100C5400006800F04070704710B54209520102F17B
:100C6400B042526800F01F040123A3409A43430991
:100C74005B0103F1B0435A60420927E00C00000015
:100C84001000000008000000184402585A28000010
:100C9400140000003150010023C0000AFF0728039C
:100CA400FFC3FFE83330D731AADE20000400000080
:100CB400000009010010005C00E8F11F003C00582E
:100CC400040400580807005800400052520102F181
:100CD400B042126800F01F040123A3409A43430961
:100CE4005B0103F1B0431A6001F48012B2F5801F76
:100CF4000ED14209520102F1B042126800F01F0401
:100D04000123A3401A4343095B0103F1B0431A6072
:100D140001F40012B2F5001F0ED14209520102F192
:100D2400B042526800F01F040123A3401A43430950
:100D34005B0103F1B0435A6010BD4109490101F15F
:100D4400B041896800F01F0301229A40114342090F
:100D5400520102F1B0429160704700F01F0201217C
:100D640091404209120102F1B042C2F88810704762
:100D740030B501F48033B3F5803F23D18AB94309F8
:100D84001B0103F1B043D3F8803000F01F050124A8
:100D9400AC40A3434409240104F1B044C4F88030B6
:100DA40010E043091B0103F1B043D3F8803000F095
:100DB4001F050124AC4023434409240104F1B04439
:100DC400C4F8803001F40033B3F5003F23D18AB96D
:100DD40043091B0103F1B043D3F8843000F01F052D
:100DE4000124AC40A3434409240104F1B044C4F8F1
:100DF400843010E043091B0103F1B043D3F884307D
:100E040000F01F050124AC4023434409240104F1EC
:100E1400B044C4F8843030BD70B50B467BB9440986
:100E2400640104F1B044E46800F01F060125B540F4
:100E3400AC4345096D0105F1B045EC600EE0440991
:100E4400640104F1B044E46800F01F060125B540D4
:100E54002C4345096D0105F1B045EC60C0F3001465
:100E640024B944090B4D05EB441104E04409094D30
:100E74002D1D05EB44110C681F2505EA40060325CA
:100E8400B540AC431F2505EA400502FA05F52C439D
:100E94000C6070BD1000005810B5FB48006800F0ED
:100EA4000F0007280ED2F848006820F00F00C01D7C
:100EB400F54908600846006800F00F00072801D0D3
:100EC400012010BDFFF770FD0446F048006840F0B3
:100ED4000100EE49086006E0FFF766FD001B0228EA
:100EE40001D90320EDE7E948006800F00400002878
:100EF400F2D0E648001D006840F08040E349091D37
:100F040008600020E14910310860E148E1494944A2
:100F14000860E14949440860E04848440068FFF734
:100F24005DF908B10120CCE7FFF73EFD044608E077
:100F3400FFF73AFD001B41F28831884201D90320B2
:100F4400BFE7D2481030006800F038000028EFD125
:100F5400FFF72AFD0446CD480068D1490840CB4933
:100F6400086008E0FFF720FD001B41F28831884249
:100F740001D90320A5E7C548006800F40030002823
:100F8400F0D1FFF711FD0446C048006820F08070DE
:100F9400BE49086006E0FFF707FD001B022801D9DF
:100FA40003208EE7B948006800F000700028F2D1F1
:100FB400FFF7FAFC0446B548006820F08060B349A6
:100FC400086006E0FFF7F0FC001B022801D90320AB
:100FD40077E7AE48006800F000600028F2D1FFF720
:100FE400E3FC0446A948006820F08050A749086043
:100FF40006E0FFF7D9FC001B022801D9032060E7B3
:10100400A248006800F000500028F2D19F4918312E
:101014000860091D0860091D0860A2489B49283121
:101024000860A148091D0860A048091D0860002047
:10103400091D08609D48091D08600020091D0860FD
:101044009A48091D08600020091D08608F4800683F
:1010540020F480208D49086000208C4960310860AC
:10106400401E8A49683108608848D030006840F4DE
:1010740080308649D03108608348006800F00F0052
:1010840007280ED98048006820F00F00C01D7E4953
:1010940008600846006800F00F00072801D001200E
:1010A4000FE700200DE770B5014609B9012070BDB6
:1010B400087800F00100002862D0744810300068FD
:1010C40000F03804714828300568102C05D0182C1D
:1010D4000ED105F0030002280AD16C480068C0F361
:1010E400404000284BD04868002848D10120DEE762
:1010F40000BF4868B0F5803F06D16448006840F4FA
:101104008030624E306028E0486858B95F48006813
:1011140020F480305D4E30603046006820F480203A
:1011240030601AE04868B0F5A02F0BD1574800682A
:1011340040F48020554E30603046006840F48030E2
:1011440030600AE05148006820F480304F4E30602F
:101154003046006820F48020306000BF486838B111
:1011640000BF4A480068C0F340400028F9D006E0B8
:1011740000BF46480068C0F340400028F9D100BFD2
:10118400486A00287DD041481030006800F03800DB
:10119400182877D0486A022875D13C48006820F0A6
:1011A40080703A4C206000BF38480068C0F340604B
:1011B4000028F9D100BFD1E90A4044EA0010334CB9
:1011C4002834246840F2F335AC4320432F4C2834B0
:1011D4002060088E401EC0F308004C6B641E4FF460
:1011E4007E4505EA442420430C8F641EED0105EA84
:1011F400044420433C24645C641E2D0205EA046418
:101204002043224C3034206000BF201F006820F0AF
:101214000100241F20601D48343000684FF6F87424
:10122400A0438C6C40EAC400184C34342060174846
:101234002C30006820F00C000C6C2043134C2C3430
:1012440020602046006820F002004C6C20430F4CC4
:101254002C3420602046006840F480302060204612
:10126400006840F4003020602046006840F480208C
:1012740020602046006840F00100206003480068B8
:1012840016E05CE02EE01FE000200052004402580B
:101294000090D003100000001400000008000000BB
:1012A40045EDF6FF000202020000FF018002010189
:1012B40040F08070F84C206000BFF7480068C0F32D
:1012C40040600028F9D03AE0F348006820F08070CC
:1012D400F14C206000BFF0480068C0F34060002873
:1012E400F9D12CE0EC4828300368EB483030026830
:1012F400486A012821D003F00304886A84421CD17F
:10130400C3F30514C86AA04217D1C2F30804086BDA
:10131400401E844211D1486B401EC2F34624A042B1
:101324000BD1886B401EC2F30644A04205D1C86BA2
:10133400401EC2F30664A04201D00120B7E600209B
:10134400B5E6F0B5D44E1036366806F0380636B138
:10135400082E13D0102E13D0182E7DD112E0CE4EAD
:101364003668C6F340163EB1CB4E3668C6F3C107A5
:10137400CA4E26FA07F000E0C848E3E0C848E1E0B6
:10138400C848DFE0C44E2836366806F00304C24E6F
:1013940028363668C6F30511BF4E2C36366806F07B
:1013A4000105BD4E34363668C6F3CC0616FB05F689
:1013B40001EE106AB8EE410A00296FD024B1012C65
:1013C4004ED0022C6BD16BE0B34E3668C6F3401698
:1013D40036B3B14E3668C6F3C107B04E26FA07F3EA
:1013E40001EE103AF8EE411A01EE101AB8EE411A65
:1013F40081EE812A9FEDAC1AC0EE011AA64E30365A
:101404003668C6F3080601EE106AB8EE411A31EEEA
:10141400811AF7EE001A31EE211A62EE010A1EE07B
:1014240001EE101AB8EE411ADFEDA01A81EE812AFE
:101434009FED9D1AC0EE011A974E30363668C6F3FA
:10144400080601EE106AB8EE411A31EE811AF7EE81
:10145400001A31EE211A00E072E062EE010A5BE04C
:1014640001EE101AB8EE411A9FED912AC2EE011A4C
:101474009FED8D1A80EE012A874E30363668C6F30A
:10148400080601EE106AB8EE411A32EE011AB7EE00
:10149400002A31EE021A61EE810A3DE04EE01DE0C1
:1014A40001EE101AB8EE411ADFED821A81EE812A9C
:1014B4009FED7D1AC0EE011A774E30363668C6F3BA
:1014C400080601EE106AB8EE411A31EE811AF7EE01
:1014D400001A31EE211A62EE010A1DE001EE101A23
:1014E400B8EE411A9FED722AC2EE011A9FED6E1AF0
:1014F40080EE012A684E30363668C6F3080601EEDF
:10150400106AB8EE411A32EE011AB7EE002A31EE33
:10151400021A61EE810A00BF00BF5F4E30363668A2
:10152400C6F34626721C01EE102AB8EE411AC0EE2C
:10153400811ABCEEE11A11EE100A00E0002001E06D
:10154400574800BF00BFF0BD2DE9F04104460D46E9
:1015540014B90120BDE8F0815748006800F00F007D
:10156400A8420ED25448006820F00F002843524984
:1015740008600846006800F00F00A84201D001206E
:10158400E8E7207800F00400042811D1424918311A
:101594002069096801F07001884209D93E48183071
:1015A400006820F07000216908433B491831086045
:1015B400207800F00800082811D137491C316069EF
:1015C400096801F07001884209D933481C30006869
:1015D40020F07000616908432F491C3108602078AD
:1015E40000F01000102811D12B491C31A0690968A2
:1015F40001F4E061884209D927481C30006820F4CE
:10160400E060A169084324491C310860207800F097
:101614002000202811D120492031E069096801F017
:101624007001884209D91C482030006820F07000FD
:10163400E1690843184920310860207800F002006D
:10164400022811D114491831E068096801F00F012A
:10165400884209D910481830006820F00F00E1686A
:1016640008430D4918310860207800F0010078B370
:1016740009481830006820F47060A16808430649DE
:10168400183108606068022818D103480068C0F364
:10169400404078BB01205DE7004402580090D0032D
:1016A40000093D0040787D01000000460024744C90
:1016B4000024744A20BCBE4B0020005260680328FA
:1016C40007D1F9480068C0F3406098B9012041E7A8
:1016D40025E06068012806D1F3480068C0F30020C3
:1016E40040B9012036E7F0480068C0F3800008B92B
:1016F40001202FE7FFE7EC481030006820F00700D6
:1017040061680843E8491031086000BFE6481030BA
:10171400006800F038006168B0EBC10FF6D12078A2
:1017240000F00200022811D1DF491831E06809688D
:1017340001F00F01884209D2DB481830006820F01C
:101744000F00E1680843D84918310860D748006899
:1017540000F00F00A8420ED9D448006820F00F0012
:101764002843D24908600846006800F00F00A842E8
:1017740001D00120EEE6207800F00400042811D105
:10178400C94918312069096801F07001884209D2F9
:10179400C5481830006820F0700021690843C24928
:1017A40018310860207800F00800082811D1BE49DB
:1017B4001C316069096801F07001884209D2BA4895
:1017C4001C30006820F0700061690843B6491C3180
:1017D4000860207800F01000102811D1B2491C31A3
:1017E400A069096801F4E061884209D2AE481C305E
:1017F400006820F4E060A1690843AB491C3108602B
:10180400207800F02000202811D1A7492031E06978
:10181400096801F07001884209D2A34820300068A9
:1018240020F07000E16908439F4920310860FFF708
:1018340088FD9D4918310968C1F303219C4A7A4403
:10184400515C01F01F0120FA01F697481830006836
:1018540000F00F001146085C00F01F0026FA00F0AB
:10186400944949440860944848440660934848446D
:101874000068FEF7B3FC074638466BE670B586B0E1
:1018840006460C4615464EBB00BF8748E03000684C
:1018940040F001008449E03108600846006800F027
:1018A4000100009000BF00BF4FF48070019002203F
:1018B40002900320049000200390059001A9804821
:1018C40000F0AEF978481030006820F0FE7044EA69
:1018D4000501084374491031086028E000BF7248CC
:1018E400E030006840F004006F49E03108600846C9
:1018F400006800F00400009000BF00BF4FF40070C7
:10190400019002200290032004900020039005908F
:1019140001A96C4800F084F963481030006820F095
:101924007E4044EAC51108435F491031086006B09F
:1019340070BD5D48006840F400205B490860704752
:101944005948006820F4002057490860704710B5D2
:10195400FFF7F7FC544918310968C1F303215A4AC7
:101964007A44515C01F01F0120FA01F44E4818300A
:10197400006800F00F001146085C00F01F0024FA14
:1019840000F04C49494408604B4848440460084608
:10199400006810BD00B5FFF7DAFF43491C31096840
:1019A400C1F30211484A7A44463A515C01F01F01DE
:1019B400C84000BD00B5FFF7CAFF3B491C310968A8
:1019C400C1F30221404A7A44663A515C01F01F0196
:1019D400C84000BD10B504463F202060324800686E
:1019E40000F48020B0F5802F03D14FF4A020606074
:1019F4000CE02D48006800F48030B0F5803F03D13E
:101A04004FF48030606001E0002060602648006888
:101A140000F08000802801D1E06101E00020E06155
:101A2400FFF70DF841F20301884206D81E48001D55
:101A34000068C0F38460206205E01B480C30006835
:101A4400C0F3056020621848006800F0010010B17E
:101A54000120E06001E00020E060FEF7F0FF41F2C9
:101A64000301884206D81048001D0068C0F3053001
:101A7400206105E00C48001D0068C0F30660206189
:101A840009487030006800F00400042802D10520E1
:101A9400A0601DE004487030006800F00100A8B1A7
:101AA4000120A06014E0000000440258002000520D
:101AB40002190000140000001000000008000000DB
:101AC4000000025800080258E01700000020A0603F
:101AD4005148006800F0010010B10120606101E08C
:101AE400002060614C487438006800F48050B0F500
:101AF400805F02D10120A06101E00020A06146487E
:101B04007438006800F08070B0F1807F02D1022048
:101B1400606201E0012060623F484C38006800F0D8
:101B24000301A1623C484C380068C0F30511E1622E
:101B3400394844380068C0F30800401C2063364824
:101B440044380068C0F30660401CE06332484438FF
:101B54000068C0F34620401C60632F484438006886
:101B6400C0F30640401CA0632B484838006800F0CE
:101B74000C012164284848380068C0F340016164BE
:101B8400254840380068C0F3CC01A16410BD3F2251
:101B94000260214A643A126802F0070242601E4A57
:101BA4005C3A126802F4706282601B4A5C3A126802
:101BB40002F00F02C260184A5C3A126802F0700226
:101BC4000261154A583A126802F070024261124AE0
:101BD400583A126802F4E06282610F4A543A126879
:101BE40002F07002C2610D4A126802F00F020A602C
:101BF4007047704710B508481038006800F48060DA
:101C0400B0F5806F06D1FFF7F4FF4FF4806002490E
:101C14000C39086010BD00007444025800200052C2
:101C2400F8B502460023E44DDEE001279F400E682C
:101C340006EA0704002C71D04E68012E08D04E68C5
:101C4400022E05D04E68112E02D04E68122E13D1EA
:101C540090685F000326BE40B0435F00CE68BE407C
:101C640030439060506801269E40B0430E79C6F31D
:101C740000169E4030435060D0685F000326BE408B
:101C8400B0435F008E68BE403043D0604E68022E81
:101C940002D04E68122E13D1DF0802F1200656F846
:101CA40027005E07F70E0F26BE40B0435F07FF0E06
:101CB4000E69BE403043DF0802F1200646F82700D3
:101CC40010685F000326BE40B0430E7906F0030699
:101CD4005F00BE40304310604E6806F08056B6F197
:101CE400805F1BD100BFB54E366846F00206B34F85
:101CF4003E603E46366806F00206009600BF00BF0E
:101D0400AF4E9F0856F827009E07370F0F26BE4098
:101D1400B043AC4EB24202D100262EE063E0AA4E9C
:101D2400B24201D1012628E0A84EB24201D10226D6
:101D340023E0A74EB24201D103261EE0A54EB242D3
:101D440001D1042619E0A44EB24201D1052614E0C3
:101D5400A24EB24201D106260FE0A14EB24201D1F9
:101D640007260AE09F4EB24201D1082605E09E4EA6
:101D7400B24201D1092600E00A269F073F0FBE4068
:101D840030438F4E9F0846F827002868A0434E68CA
:101D940006F48036B6F5803F00D120432860686899
:101DA400A0434E6806F40036B6F5003F00D1204348
:101DB40068604FF0B0463068A0434E6806F4801661
:101DC400B6F5801F00D120434FF0B04630607068F4
:101DD400A0434E6806F40016B6F5001F00D1204358
:101DE4004FF0B04670605B1C0E68DE40002E7FF43E
:101DF4001CAFF8BDF0B50C4600216F4B98E00126EE
:101E04008E4006EA0402002A7ED06D4E8F0856F8F2
:101E140027508E07370F0F26BE403540694EB0421B
:101E240001D100262DE0684EB04201D1012628E000
:101E3400664EB04201D1022623E0654EB04201D184
:101E440003261EE0634EB04201D1042619E0624E1F
:101E5400B04201D1052614E0604EB04201D10626FD
:101E64000FE05F4EB04201D107260AE05D4EB0425A
:101E740001D1082605E05C4EB04201D1092600E0FC
:101E84000A268F073F0FBE40AE421FD11E689643FD
:101E94001E605E6896435E604FF0B04636689643B7
:101EA4004FF0B0473E603E46766896437E608E07AC
:101EB400370F0F2606FA07F5414E8F0856F82760AC
:101EC400AE433F4F4FEA910C47F82C6006684FEA47
:101ED400410C032707FA0CF73E430660CF0800F1D4
:101EE400200656F827604F074FEAD76C0F2707FAEA
:101EF4000CF7BE434FEAD10C00F1200747F82C60E1
:101F0400C6684FEA410C00E011E0032707FA0CF71A
:101F1400BE43C660476801268E40B7434760866863
:101F24004FEA410C032707FA0CF7BE438660491CAD
:101F340024FA01F6002E7FF462AFF0BD0246136965
:101F44000B400BB1012000E0002070470AB1816111
:101F540001E00B048361704742690A408A4202D15E
:101F64000A04826100E08161704708B502464FF4BB
:101F7400803000900098084300900098D061D161AF
:101F84000098D061D0690090D06900F4803008B125
:101F9400002008BD0120FCE7704710B50446064840
:101FA40008300068204028B1034808300460204607
:101FB400FFF7F2FF10BD000080000058F4440258FF
:101FC400080400580000025800040258000802588F
:101FD400000C02580010025800140258001802584D
:101FE400001C0258002002580024025830B5044650
:101FF400039D00BF20688068084008B1012000E00C
:1020040000209042F6D1002030BD816470477047B3
:10201400F8B50446FEF7C8FC06460CB90120F8BD25
:10202400206A402800D000BF94F8410038B9204607
:10203400FEF795F941F288312046FFF7E6FF206864
:10204400006820F47061A068401E41EA0020216805
:102054000860A06C33460022202100902046FFF740
:10206400C5FF054635BB2179E06840EA0160E169B6
:102074000843216A084321680968FE4A114008435D
:1020840021680860208A616941EA0040A169084327
:1020940021684968F84A114008432168486020686B
:1020A400006840F00100216808600020606401209D
:1020B40084F841002846B2E7704710B504460CB9CD
:1020C400012010BD2068006820F00100216808602C
:1020D4002046FEF7F1F90020606484F8410000BF57
:1020E400EFE710B54B6A33B1B2F1406F03D08B6A9E
:1020F4005B1E046823618B69002B76D00B6AE3B303
:102104008B680468E361CB69FBB1D1E90B342343E9
:102114004C6B23434C6A23438C8A43EA84430C6903
:1021240023430C6A2343CC682343CC6923438C693F
:1021340023430C682343134304686361B2F1406F83
:1021440002D04B680468A361BEE0D1E90B34234399
:102154004C6B23434C6A23438C8A43EA84430C69C3
:1021640023430C6A2343CC6923438C6923430C68BF
:102174002343134304686361A6E0FFE7CB69EBB133
:10218400D1E90B3423434C6B23434C6A23438C8A9D
:1021940043EA84430C6A2343CC682343CC69234336
:1021A4008C6923430C682343134304686361B2F1CD
:1021B400406FC9D04B680468A36185E0D1E90B3452
:1021C40023434C6B23434C6A23438C8A43EA844362
:1021D4000C6A2343CC6923438C6923430C6823434F
:1021E4001343046863616FE0FFE70B6AC3B38B6852
:1021F4000468E361CB69EBB1D1E90B3423434C6B45
:1022040023434C6A23438C8A43EA84430C69234363
:102214000C6A2343CC682343CC6923438C6923434E
:10222400134304686361B2F1406F4DD04B68046896
:10223400A36149E0D1E90B3423434C6B23434C6A3B
:1022440023438C8A43EA84430C6923430C6A234363
:10225400CC6923438C69234313430468636133E0EB
:10226400FFE7CB69DBB1D1E90B3423434C6B234348
:102274004C6A23438C8A43EA84430C6A2343CC6824
:102284002343CC6923438C69234313430468636168
:10229400B2F1406F18D04B680468A36114E04B6A34
:1022A40093B1D1E90B3423434C6B23434C6A23434E
:1022B4008C8A43EA84430C6A2343CC6923438C69A4
:1022C400234313430468636110BD2DE9F8430446B6
:1022D4000D461746FEF768FB8046A86900B100BFAB
:1022E400E86900B100BF286A00B100BF00BF94F8DC
:1022F4004000012802D10220BDE8F883012084F8BF
:10230400400000BF94F84100012828D100206064F7
:10231400022084F8410043460022202120460097F1
:10232400FFF764FE0646DEB9002229462046FFF781
:10233400D8FE686A78B943460122022120460097F4
:10234400FFF754FE06465EB902202168C8600120EA
:1023540084F8410004E0012084F8410000E00226F2
:1023640000BF002084F8400000BF3046C4E7F8B541
:1023740004460D46FEF718FB0746A86900B100BFE6
:10238400E86900B100BF286A00B100BF00BF94F83B
:102394004000012801D10220F8BD012084F840004A
:1023A40000BF94F84100012833D10020606402206A
:1023B40084F84100A06C3B46002220210090204676
:1023C400FFF714FE0646FEB9686A10B903202168B7
:1023D400C860002229462046FFF783FE686A58B980
:1023E40000BF002084F8400000BF2068006840F46B
:1023F40040302168086012E0012084F8410000BFE9
:10240400002084F840000AE000BF002084F8400067
:1024140005E0022600BF002084F8400000BF3046DB
:10242400BAE72DE9F84504460E4617460025FEF79F
:10243400BBFA8046206800F1200A00BF94F84000EF
:10244400012802D10220BDE8F885012084F840006B
:1024540000BF94F8410001284AD100206064002E96
:1024640040D0122084F8410020680069401CE062DA
:10247400206803E02FFFFF00FEF8E0FF0069401C26
:10248400A06266622068406920F04060216848616B
:1024940013E043460122042120460097FFF7A6FDDE
:1024A400054605B10CE0606A00788AF80000606AAD
:1024B400401C6062E06A401EE062E06A0028E8D1E5
:1024C40000BF5DB943460122022120460097FFF771
:1024D4008DFD054615B902202168C860012084F8E5
:1024E400410006E0606C40F008006064012500E0F3
:1024F400022500BF002084F8400000BF2846A2E760
:102504002DE9F84F04460E4617460025FEF74CFA0F
:1025140080462068D0F818A0206800F1200B00BF86
:1025240094F84000012802D10220BDE8F88F012070
:1025340084F8400000BF94F8410001284AD10020EB
:102544006064002E40D0222084F841002068006995
:10255400401CA06320680069401C606326632068F7
:10256400406920F0406040F0806021684861206844
:10257400C0F818A013E04346012206212046009724
:10258400FFF734FD054605B10CE09BF80000216B14
:102594000870206B401C2063A06B401EA063A06BDE
:1025A4000028E8D100BF5DB943460122022120463C
:1025B4000097FFF71BFD054615B902202168C86086
:1025C400012084F8410006E0606C40F0080060647B
:1025D400012500E0022500BF002084F8400000BF70
:1025E4002846A2E710B50246002300BF92F8400037
:1025F400012801D1022010BD012082F8400000BF53
:1026040092F8410001282DD10020506401B312201A
:1026140082F8410010680069401CD06210680069AB
:10262400401C9062516203201468E06010684069A5
:1026340020F040601468606100BF002082F8400010
:1026440000BF1068006840F4E020146820600FE0C8
:10265400506C40F008005064012300BF002082F851
:10266400400005E0022300BF002082F8400000BFC4
:102674001846C0E730B5024600231068846900BFDD
:1026840092F84000012801D1022030BD012082F8D7
:10269400400000BF92F84100012831D1002050646D
:1026A40021B3222082F8410010680069401C906325
:1026B40010680069401C5063116303201568E860CA
:1026C4001068406920F0406040F0806015686861DF
:1026D4001068846100BF002082F8400000BF1068C9
:1026E400006840F4E020156828600FE0506C40F06A
:1026F40008005064012300BF002082F8400005E078
:10270400022300BF002082F8400000BF1846BCE747
:102714002DE9F84504460E4615469846FEF744F959
:102724008246B06900B100BFF06900B100BF306AF1
:1027340000B100BF00BF94F84000012802D102207C
:10274400BDE8F885012084F8400000BF94F84100FA
:1027540001283AD100206064422084F841005346A5
:10276400002220212046CDF80080FFF73FFC0746D9
:1027740057BB286821688862686821684862A8682D
:102784002168C8622068006820F44000296941F487
:102794008001084321680860E868B0624FF0006275
:1027A40031462046FFF79DFC53460122082120466E
:1027B400CDF80080FFF71AFC07462FB908202168DE
:1027C400C860012084F8410000E0022700BF002017
:1027D40084F8400000BF3846B2E72DE9F8430446C8
:1027E4000E461546FEF7E0F88046B06900B100BF1A
:1027F400F06900B100BF306A00B100BF00BF94F8B7
:102804004000012802D10220BDE8F883012084F8A9
:10281400400000BF94F8410001283DD100206064CD
:10282400422084F84100A06C4346002220210090FD
:102834002046FFF7DBFB07464FBB28682168886208
:10284400686821684862A8682168C862D5E90401FB
:1028540008432168096821F440010843216808609D
:1028640009202168C860E868B0624FF00062314610
:102874002046FFF736FC00BF002084F8400000BF6C
:102884002068006840F41020216808600AE000BF56
:10289400002084F8400005E0022700BF002084F8EF
:1028A400400000BF3846AFE72DE9F84304460D4623
:1028B4001646FEF779F88046A86900B100BFE869BA
:1028C40000B100BF286A00B100BF00BF94F8400007
:1028D400012802D10220BDE8F883012084F84000D9
:1028E40000BF94F8410001282CD1002060648220AC
:1028F40084F84100A06C4346002220210090204629
:10290400FFF774FB0746F7B92068006820F0080059
:102914007168084321680860706808280BD1306822
:102924002168086310202168C8602068006840F4AA
:102934008010216808604FF0406229462046FFF766
:10294400D0FB00E0022700BF002084F8400000BF55
:102954003846C0E770477047704770477047704704
:1029640070477047014691F8410070470146486C32
:102974007047F8B504460025FEF716F8064694F8A5
:10298400410000F0020050B300BF002084F8400072
:1029940000BF2068006840F0020021680860A06C55
:1029A40033460122022100902046FFF71FFB054613
:1029B4005DB902202168C860A06C33460022202142
:1029C40000902046FFF712FB054645B92068406990
:1029D40020F0406021684861012084F841002846C5
:1029E400F8BD10B50246002300BF92F8400001284C
:1029F40001D1022010BD012082F8400000BF92F8EE
:102A0400410001280BD191601068006820F47064C3
:102A14009068401E44EA00201468206000E002230D
:102A240000BF002082F8400000BF1846E2E70146DC
:102A340008680068C0F30320401C704710B50246C4
:102A4400002300BF92F84000012801D1022010BDEC
:102A5400012082F8400000BF92F84100012808D10B
:102A6400D1611068006820F0800008431468206079
:102A740000E0022300BF002082F8400000BF184697
:102A8400E5E7000010B5002804DB0A07130EDA4A54
:102A9400135406E00A07140ED84A00F00F031B1F54
:102AA400D45410BD00BF00F00702D44B0C3B19688E
:102AB4004FF6FF031940D24B0B4343EA0221CF4B9D
:102AC4000C3B196000BF70472DE9F04D80460D4660
:102AD400164600F08AF9074639462A46334601F07D
:102AE4000700C0F1070BBBF1040F02D94FF0040B30
:102AF40001E0C0F1070BDA4600F1040BBBF1070F4C
:102B040002D24FF0000B01E0A0F1030BDC464FF0C2
:102B1400010B0BFA0AFBABF1010B0BEA020B0BFAEC
:102B24000CFB4FF0010E0EFA0CFEAEF1010E0EEA94
:102B3400030E4BEA0E0421464046FFF7A3FFBDE80F
:102B4400F08D0146084600280DDB00BF00BF00F0F1
:102B54001F0301229A4043099B0003F1E023C3F8B9
:102B6400002100BF00BF00BF704710B501460846F2
:102B740000280BDB00F01F0301229A40A14B4409FB
:102B840043F82420BFF34F8FBFF36F8F00BF10BDF6
:102B940000BFBFF34F8F99480C38006800F4E06021
:102BA40097490843001D95490C390860BFF34F8FBE
:102BB40000BF00BF00BFFDE770B504462546681E90
:102BC400B0F1807F01D301200FE0681E4FF0E021B7
:102BD40048610F214FF0FF30FFF754FF00204FF002
:102BE400E021886107200861002070BDBFF35F8F7A
:102BF40082480C30006820F4803080490C31086031
:102C040000207E497C310860704740F001017B4A16
:102C14007C32116079490C31096841F48031774A7A
:102C24000C321160BFF34F8FBFF36F8F7047417841
:102C3400724A803211600178F9B1121D4168116045
:102C4400017B0907C27A41EA0261827A41EAC24100
:102C5400427B41EA8241827B41EA4241C27B41EAB2
:102C64000241427A41EA0221027A41EA42010278AF
:102C74001143624A8832116005E000215F4A8432C0
:102C84001160121D1160704710B500F0AEF810BD50
:102C94002DE9F04504462046002803DB564F3F5CEF
:102CA4003F0907E0554F00F00F0CACF1040C17F886
:102CB4000C703F093D460E4606F00700C0F10708B8
:102CC400B8F1040F02D94FF0040801E0C0F107087D
:102CD400C44600F10408B8F1070F02D24FF000080F
:102CE40001E0A0F10308474625FA07F84FF0010A6E
:102CF4000AFA0CFAAAF1010A08EA0A08C2F80080E2
:102D04004FF0010808FA07F8A8F1010808EA0508D5
:102D1400C3F8008000BFBDE8F08510B50146084641
:102D2400002808DB00F01F0301229A40354B803352
:102D3400440943F8242000BF10BD10B501460846DD
:102D440000280EDB2F4A8032430952F8232000F07A
:102D54001F040123A3401A400AB1012202E0002209
:102D640000E00022104610BD10B5014608460028B8
:102D740007DB00F01F0301229A40234B440943F868
:102D8400242000BF10BD10B50146084600280EDB04
:102D94001D4A8032430952F8232000F01F04012306
:102DA400A3401A400AB1012202E0002200E00022FE
:102DB400104610BD042808D14FF0E021096941F004
:102DC40004014FF0E022116107E04FF0E0210969AE
:102DD40021F004014FF0E02211617047704710B5F3
:102DE400FFF7FCFF10BD0320704704480C3800684F
:102DF400C0F302207047000000E400E018ED00E09A
:102E04000000FA0580E100E080E200E0B1480068DB
:102E140040F47000AF490860AF48006800F00F004C
:102E2400072806D2AC48006820F00F00C01DAA494C
:102E34000860AA48006840F00100A8490860002022
:102E4400A64910310860A5480068A5490840A3496F
:102E54000860A148006800F00F00072806D99E48C2
:102E6400006820F00F00C01D9B49086000209B49AA
:102E740018310860091D0860091D086099489749C0
:102E8400283108609848091D08609848091D0860A1
:102E94000020091D08609548091D08600020091DCF
:102EA40008609248091D08600020091D08608B48CD
:102EB400006820F480208949086000208749603137
:102EC40008608B4800686FF30F00B0F1005F02D216
:102ED40001208849086043F2D2008749086048030A
:102EE4007C49803908607047F0B57C4F10373F68E3
:102EF40007F0380737B1082F0CD0102F0CD0182F3B
:102F040073D10BE0754F3F68C7F3C10C7B4F27FAB1
:102F14000CF1BFE07A49BDE07A49BBE06F4F283736
:102F24003F6807F003046D4F28373F68C7F3051067
:102F34006A4F2C373F6807F00105684F34373F6804
:102F4400C7F3CC0717FB05F701EE107AB8EE410A78
:102F540000287DD024B1012C29D0022C64D145E075
:102F64005E4F3F68C7F3C10C644F27FA0CF301EEC0
:102F7400103AB8EE412A01EE100AB8EE411AC2EE38
:102F8400011A9FED611A80EE012A544F30373F68D1
:102F9400C7F3080701EE107AB8EE411A32EE011AAF
:102FA400B7EE002A31EE021A61EE810A5CE001EE0E
:102FB400100AB8EE411ADFED551A81EE812A9FED11
:102FC400521AC0EE011A454F30373F68C7F308075D
:102FD40001EE107AB8EE411A31EE811AF7EE001ABA
:102FE40031EE211A62EE010A3EE051E001EE100AD0
:102FF400B8EE411A9FED462AC2EE011A9FED421A1D
:1030040080EE012A354F30373F68C7F3080701EED9
:10301400107AB8EE411A32EE011AB7EE002A31EEF8
:10302400021A61EE810A1FE001EE100AB8EE411A9D
:103034009FED362AC2EE011A9FED331A80EE012A63
:10304400264F30373F68C7F3080701EE107A00E0D7
:103054001CE0B8EE411A32EE011AB7EE002A31EE46
:10306400021A61EE810A00BF00BF1C4F30373F686F
:10307400C7F346277A1C01EE102AB8EE411AC0EEB7
:10308400811ABCEEE11A11EE101A00E0002101E0F1
:103094001B4900BF00BF114F18373F68C7F3032710
:1030A400DFF870C0FC441CF80760F1400B4F183780
:1030B4003F6807F00F071CF8077007F01F0721FA95
:1030C40007F7DFF854C0CC44CCF80070134F4F44DA
:1030D4003960F0BD88ED00E0002000520044025841
:1030E4007FEDF6EA000202020000FF018002010106
:1030F4000010005C08810051004000520090D00391
:1031040000093D0040787D01000000460024744A17
:1031140020BCBE4B9C000000140000001000000006
:10312400D2B201E000F8012B491EFBD27047002205
:10313400F6E710B513460A4604461946FFF7F0FFB2
:10314400204610BD00000000010203040102030434
:10315400060708090000000000000000100000003D
:0C316400010000000090D0030090D00398
:020000042400D6
:10317000556C747261506F72745F53544D333248A2
:103180003735305F5732355131323800000000009A
:10319000000000000000000000000000000000002F
:1031A000000000000000000000000000000000001F
:1031B000000000000000000000000000000000000F
:1031C00000000000000000000000000000000000FF
:1031D000000000000300000000000090000000015B
:1031E00000100000FF0000000001000000000100CE
:1031F00000000000000000000000000000000000CF
:1032000000000000000000000000000000000000BE
:1032100000000000000000000000000000000000AE
:10322000000000000000000000000000000000009E
:08323000000000000000000096
:0400000500000000F7
:00000001FF
