:020000040800F2
:10000000D80D0020AD020008FF320008C9300008FA
:10001000FD320008DD040008214700080000000050
:10002000000000000000000000000000F938000897
:10003000DF040008000000007F340008FB380008DF
:10004000C7020008C7020008C7020008C70200086C
:10005000C7020008C7020008C7020008C70200085C
:10006000C7020008C7020008C7020008C70200084C
:10007000C7020008C7020008C7020008C70200083C
:10008000C7020008C7020008C7020008C70200082C
:10009000C7020008C7020008C7020008C70200081C
:1000A000C7020008C7020008C7020008C70200080C
:1000B000C7020008C7020008C7020008C7020008FC
:1000C000C7020008C7020008C7020008C7020008EC
:1000D000C7020008C7020008C7020008C7020008DC
:1000E000C7020008C702000800000000C70200089D
:1000F000C7020008C7020008C7020008C7020008BC
:10010000C7020008C7020008C7020008C7020008AB
:10011000C7020008C7020008C7020008C70200089B
:10012000C7020008C7020008C7020008C70200088B
:10013000C7020008C7020008C7020008C70200087B
:1001400000000000000000000000000000000000AF
:10015000C7020008C7020008C7020008C70200085B
:10016000C7020008C7020008C7020008C70200084B
:10017000C7020008C7020008C7020008C70200083B
:10018000C7020008C7020008C7020008C70200082B
:10019000C7020008C7020008C7020008C70200081B
:1001A000C7020008C7020008C7020008C70200080B
:1001B000AD360008C7020008C7020008C7020008E1
:1001C000C7020008C7020008C7020008C7020008EB
:1001D000C702000805330008C7020008C70200086C
:1001E000C7020008C7020008C7020008C7020008CB
:1001F000C7020008C7020008C7020008C7020008BB
:10020000C7020008C7020008C7020008C7020008AA
:10021000C7020008C7020008C7020008C70200089A
:10022000C7020008C7020008C7020008000000005B
:10023000C7020008C702000800000000C70200084B
:10024000C7020008C7020008C7020008C70200086A
:10025000C7020008C7020008C7020008C70200085A
:10026000C7020008C7020008C7020008C70200084A
:10027000C7020008C7020008C7020008000000000B
:10028000C7020008C7020008C702000800000000FB
:1002900000000000C7020008DFF80CD000F07AF878
:1002A0000048004765470008D80D002006488047F1
:1002B00006480047FEE7FEE7FEE7FEE7FEE7FEE74B
:1002C000FEE7FEE7FEE7FEE7D939000899020008DD
:1002D0002DE9F05F0546002092469B46884606467B
:1002E000814640241BE0284641464746224600F00E
:1002F00041F853465A46C01A914110D31146184648
:10030000224600F028F82D1A67EB01084F462246D6
:100310000120002100F01FF817EB00094E41201EBC
:10032000A4F10104DFDC484631462A464346BDE8D5
:10033000F09FD2B201E000F8012B491EFBD27047BA
:100340000022F6E710B513460A4604461946FFF7A1
:10035000F0FF204610BD202A04DB203A00FA02F10B
:10036000002070479140C2F1200320FA03F31943A3
:1003700090407047202A04DB203A21FA02F0002145
:10038000704721FA02F3D040C2F1200291400843A5
:1003900019467047064C074D06E0E06840F001033F
:1003A00094E8070098471034AC42F6D3FFF778FF83
:1003B000DC470008FC47000870B5164D002403E038
:1003C000002005F8010B641C4C2CF9D3124811498C
:1003D0000860084600F02CFF08B1012070BD012024
:1003E0000C49486001210B4881601021C16019212E
:1003F00001614FF480614161002181618021C1610F
:100400000021016201F01AF808B10120E6E700209E
:10041000E4E70000140000200050005208B500245A
:100420004FF010400090012080F3108800BF02F0D0
:100430009FF800204FF0E02108614861886100BF0B
:1004400008E04FF0FF310D4840F824100C4840F808
:100450002410641C082CF4D3002080F3108800BF03
:10046000009845680099086880F3088800BF00205C
:1004700080F3148800BFA84700BFFEE780E100E0DA
:1004800080E200E000B591B0382103A8FFF758FFE3
:100490000020019002904FF4807009904001069076
:1004A00000200B900E900F901090EB2003904FF4D3
:1004B00040600A9080030C90062008900020029073
:1004C000019001AA03A9044801F00EF810B101201F
:1004D00011B000BD0020FBE714000020FEE77047CC
:1004E0007047000070B5044600F0F0F90546601C46
:1004F00002D004480078044400F0E8F9401BA04210
:10050000FAD370BD000000202DE9F04F4F4D0022BE
:100510004FF0010A4FF00F0B92E000BF0AFA02F908
:1005200019EA01037ED022F0030606F1B0469407D3
:10053000D6F808C4270FDFF818810BFA07FE4045EC
:100540000EEA0C0402D14FF0000C40E0DFF804C1C9
:10055000604502D14FF0010C39E0DFF8FCC0604586
:1005600002D14FF0020C32E0DFF8F0C0604502D15A
:100570004FF0030C2BE0DFF8E8C0604502D14FF0EC
:10058000040C24E0DFF8DCC0604502D14FF0050C1C
:100590001DE0DFF8D4C0604502D14FF0060C16E034
:1005A000DFF8C8C0604502D14FF0070C0FE0DFF85C
:1005B000C0C0604502D14FF0080C08E0DFF8B4C0BD
:1005C000604502D14FF0090C01E04FF00A0C0CFA23
:1005D00007FCA44513D12C689C432C606F684FF036
:1005E000B0449F436F6067689F43676027689F437D
:1005F0002760D6F8084424EA0E04C6F808440768C1
:100600000323D4084FEA42084FEA427C03FA08F376
:100610004FEADC6C1F4307600BFA0CF600EB840416
:10062000276A00E00BE0B7432762C4689C43C460BC
:10063000446824EA0904446084689C438460521C32
:1006400031FA02F37FF46AAFBDE8F08F8000005802
:10065000000002580004025800080258000C02581A
:10066000001002580014025800180258001C0258CA
:1006700000200258002402582DE9F84F03247D4D34
:1006800000234FF001094FF0B04B4FF00F0AE9E0A3
:1006900009FA03F73A4076D00E7906F00306012EE8
:1006A00001D0022E18D1D0F808C04FEA430ECE6810
:1006B00004FA0EF82CEA080C06FA0EF646EA0C06C6
:1006C0008660D0F804C00E792CEA070CC6F3001639
:1006D0009E4046EA0C0646600E79F643B6070BD0FC
:1006E000C6684FEA43088F6804FA08FC26EA0C063D
:1006F00007FA08F73743C7600E7906F00306022EA3
:1007000012D1DE080F694FEA437C00EB8606B6463D
:10071000366A4FEADC6C0AFA0CF807FA0CF726EA9C
:1007200008063743CEF820700F7906684FEA430871
:1007300007F0030704FA08FC07FA08F726EA0C0694
:10074000374307604E6816F4403F1CD04A4E376866
:1007500047F00207376036689F0706F002060096EA
:1007600023F0030606F1B046B6463F0FD6F80864FC
:10077000DFF808810AFA07FC404526EA0C0603D197
:100780004FF0000C41E06CE0DFF8F4C0604502D1AE
:100790004FF0010C39E0DFF8ECC0604502D14FF0BA
:1007A000020C32E0DFF8E0C0604502D14FF0030CEC
:1007B0002BE0DFF8D8C0604502D14FF0040C24E0F4
:1007C000DFF8CCC0604502D14FF0050C1DE0DFF82A
:1007D000C4C0604502D14FF0060C16E0DFF8B8C087
:1007E000604502D14FF0070C0FE0DFF8B0C0604564
:1007F00002D14FF0080C08E0DFF8A4C0604502D138
:100800004FF0090C01E04FF00A0C0CFA07FC4CEA1F
:10081000060CCEF808C44F68DBF80060FF0226EA39
:10082000020600D516435F46CBF80060D1F804C03D
:10083000DBF804605FEA8C2C26EA020600D516433A
:100840007E606E684F6826EA0206BF0300D5164335
:100850006E602E684F6826EA0206FF0300D5164335
:100860002E605B1C0A6832FA03F67FF411AFBDE814
:10087000F88F000080000058F4440258000002582D
:100880000004025800080258000C025800100258D8
:100890000014025800180258001C02580020025888
:1008A00000240258426921EA02030A4043EA024155
:1008B000816170470AB1816170470904FBE700005C
:1008C00001480068000C70470010005C0148806817
:1008D000704700000000002002488168027811443F
:1008E0008160704700000020032010B500F0AAF8D6
:1008F00001F084FF0F4A104914681368C4F30322FF
:1009000003F00F038A5CC95C02F01F0201F01F01B3
:10091000D0400A4A20FA01F111600949086000201C
:1009200000F010F808B1012010BD00F03FF80020E1
:1009300010BD000018440258CC47000810000020E9
:100940000C00002070B50D4D04462878A0B14FF47E
:100950007A71B1FBF0F00A490968B1FBF0F002F0DE
:10096000BAFA48B9102C07D200222146501E00F0D6
:1009700049F800206C6070BD012070BD00000020AF
:100980000C00002028B190F83D10022903D08021EE
:10099000816601207047042180F83D100068C1681D
:1009A00021F00101C160002070470000054808B532
:1009B000016841F002010160006800F0020000904F
:1009C00008BD0000F444025800280DDB410900F086
:1009D0001F028900012001F1E0219040C1F880014F
:1009E000BFF34F8FBFF36F8F7047002809DB4109BA
:1009F00000F01F028900012001F1E0219040C1F8C0
:100A0000000170470E4BF0B41B680D46C3F3022380
:100A1000C3F10706042E00D90426191D072901D2A7
:100A2000002300E0DB1E012404FA06F19C40491E6D
:100A30002940641E994014402143F0BC03F071BE6C
:100A40000CED00E0064900F0070210B54FF6FF0478
:100A50000868044B204040EA02201843086010BD9B
:100A60000CED00E00000FA0501680123C0F8D8345D
:100A7000002280F8CC248869044A40F00060886134
:100A8000486D1043486500207047000003000010C7
:100A9000704770477047704770470A0601F00F01B2
:100AA00001EBC10100EB810101D5143101E001F539
:100AB0001571006803F096BC2DE9FC5F05680446DB
:100AC000284603F025FD00287ED1206803F04CFD68
:100AD000002879D0D5F80808C0F30D20C4F8D40454
:100AE000206803F041FD800704D52068416901F0CA
:100AF00002014161206803F037FDC10604F29C4009
:100B0000009035D52068816921F0100181612F6A3C
:100B100007F00F01C7F3434001EBC101022804EBCA
:100B2000810606F5157602D0062812D01BE047F69E
:100B3000F070074217D0C7F30A12F168174628462B
:100B400003F016FD7169F068394471613844F06052
:100B500009E000990822284603F00AFD7069C7F3EE
:100B60000A11084470612068816941F010018161B7
:100B7000206803F0F9FC00034FF0080B4FF0000A67
:100B80004FF001097CD52068002603F0CCFC074615
:100B900074E0F80770D02068F1B203F0DDFC804605
:100BA000C00707D005EB4611C1F8089B3146204627
:100BB00002F0AEFB5FEA087024D505EB4611C1F8E0
:100BC00008BBFA49206800E03EE2026C00EB4610E8
:100BD00001928A42D0F8081B05D9090403D54FF4C5
:100BE0000041C0F8081B204600F0EBFAEF490198DD
:100BF000884207D9A079012804D120680121009AF0
:100C000003F0C4FB5FEAC86004D505EB4611102071
:100C1000C1F8080B5FEA88701DD56869000605D524
:100C2000D5F8040840F48061C5F8041806EBC60046
:100C300004EB800090F8571200F51570012905D1DA
:100C400080F803A02046F1B200F001FA05EB46114E
:100C50000220C1F8080B5FEA886004D505EB461155
:100C60002020C1F8080B5FEA884005D505EB461146
:100C70004FF40050C1F8080B7F08761C002F88D174
:100C8000206803F071FC40036ED5206803F044FC3B
:100C90000026074666E0F80762D02068F1B203F04C
:100CA00049FC8046C00723D0D5F8342806F00F0150
:100CB00005EB461309FA01F18A43C5F83428C3F855
:100CC0000899A07901280FD106EBC60004EB80003B
:100CD000D0E907211144016236B9606A20B9206861
:100CE0000121009A03F052FB2046F1B2FFF7D2FE39
:100CF0005FEA087003D505EB4611C1F808B95FEA51
:100D0000C86004D505EB46111020C1F808095FEA58
:100D1000486004D505EB46114020C1F808095FEA98
:100D2000887016D53146284603F0C7FB06EBC6008F
:100D300004EB8000C17D1430012905D180F803A0A7
:100D40002046F1B200F082F905EB46110220C1F80D
:100D500008095FEA086003D53146204602F03EFBF1
:100D60007F08761C002F96D1206803F0FDFB002839
:100D700011DAD5F8040820F00101C5F8041894F838
:100D8000CC0401283BD0204600F019FA20684169C4
:100D900001F000414161206803F0E6FB00050BD53E
:100DA000D5F80808C00702D0204600F00BFA2068EA
:100DB000416901F400614161206803F0D5FB000145
:100DC0000AD52068416901F00061416194F8CC04C2
:100DD000E0B1204600F0F6F9206803F0C5FBC0043E
:100DE00072D5D5F8040820F00101C5F80418206870
:100DF000102103F062FB00214FF67F322DE000212D
:100E0000204684F8CCA4FFF743FEBFE784F8CC94D7
:100E10002068406D0121C0F38300C4F8D00420464F
:100E2000FFF736FED8E700BF05EB4110C0F80829F0
:100E3000D0F8003923F40013C0F80039C0F8082BAB
:100E4000D0F8003B23F40013C0F8003BD0F8003B7F
:100E500043F00063C0F8003B491C20798842E3D886
:100E6000D5F81C0840F00111C5F81C18E07B68B1EA
:100E7000D5F8840840F00B01C5F88418D5F844086B
:100E800040F00B012846C5F844180DE0D5F81408C9
:100E900042F22B010843C5F81408D5F8100840F0B9
:100EA0000B012846C5F81018D0F8000820F4FE61A0
:100EB000C5F80018A1792068009A03F067FA206845
:100EC000416901F480514161206803F04DFB8004C9
:100ED00015D5206803F018F9206803F00CFBE071C9
:100EE00001F046FCE2790146206803F091FB2046C0
:100EF00000F064F92068416901F400514161206803
:100F000003F032FB000707D5204600F059F92068AE
:100F1000416901F008014161206803F025FB0006EA
:100F200016D5A869012620F08001A9610DE000BF57
:100F300006EBC60004EB800090F85702012803D1AD
:100F40002046F1B2FFF7A9FD761C2079B042EFD818
:100F5000206803F009FBC0021FD501264F4614E0AC
:100F600006EBC60105EB461004EB8101D0F8000941
:100F70000A7E012A08D1002806DAF0B2CF7540F0C7
:100F800080012046FFF789FD761C2079B042E7D822
:100F90002068416901F480114161206803F0E4FA9E
:100FA000800234D501204B4629E000000A30544F1E
:100FB00000EBC00205EB401104EB8202D1F8001BEC
:100FC00092F85862012E19D1002917DA94F8D464E6
:100FD00001F4803106F00106B1420FD182F8573298
:100FE000A96941F08002AA616969090606D4D5F8A9
:100FF000040840F40070C5F8040803E0401C21799F
:101000008142D5D82068416901F40011416120680E
:1010100003F0AAFA400007D52046FFF73AFD206802
:10102000416901F080414161206803F09DFA400769
:101030000AD520684568680702D52046FFF72CFDD1
:101040002068416829434160BDE8FC9F70477047B4
:10105000F8B5040004D094F89504002510B106E01A
:101060000120F8BD204684F8945400F057F803207E
:1010700084F89504206803F083F9207C8DF8000043
:1010800094E80F0003F04EF80226B0BB2068002160
:1010900003F08EFA88BB002001270CE000EBC001B2
:1010A000421C04EB81014F750D76CD610D624D62DE
:1010B0000875C885D0B221798142EFD8002011E0AF
:1010C00000EBC001421C04EB810181F8555281F80C
:1010D0005852C1F85C52C1F86052C1F8645281F8AC
:1010E0005402D0B221798142EAD8207C8DF80000E8
:1010F00094E80F0003F08EF810B184F89564AFE720
:10110000207B657484F89574012802D12046FFF78E
:10111000ABFC206803F070F80020F8BD10B5B6B045
:101120000446142130A8FFF70BF9C0216846FFF7E9
:1011300007F91F492068884238D100204FF48021E8
:101140004FF440122292CDE90010684600F00AFCEC
:1011500008B1FFF7C5F900F061F81648016841F0E1
:101160000101016000680A23022200F001003590AD
:1011700000204FF4C051309130A9CDE93120CDE9A4
:1011800033030D48FFF778FA0A480838016841F040
:101190000061016000680022114600F00060359097
:1011A0006520FFF72FFC6520FFF71FFC36B010BD50
:1011B00000000840E04402580000025870477047A1
:1011C0007047704770470000134970B50A68D243F2
:1011D000520705D5096801F00701814213D118E0D3
:1011E0000A6822F0070202430A60FFF76FFB0A4D0C
:1011F0004FF47A760446083D07E000BFFFF766FB30
:10120000001BB04201D9012070BD2868C043800492
:10121000F4D4002070BD00000C4802580248016858
:1012200041F08071016070470C4802587047704768
:1012300010B504000CD02068016821F001010160A4
:10124000204600F097F90020606484F8410010BD4A
:10125000012010BD7047704770B504460068826871
:101260000168530734D54B0332D594F84110203030
:1012700012290FD094F8411022291BD01EE0E16AF8
:1012800001B3616A09780170616A491C6162E16AAF
:10129000491EE162216889684907F0D40EE0A16B1C
:1012A00081B10178226B1170216B491C2163A16B04
:1012B000491EA163216889684907F0D42046FFF7D9
:1012C000CAFF70BD2068016821F480210160F5E744
:1012D00093074FF001056CD58B036AD50221C160DD
:1012E0002068016821F4E021016094F8410012288F
:1012F00015D094F84100222825D094F84100022806
:1013000049D094F841000828DBD12068416921F0D8
:101310004061416184F84150606CD8B345E0206879
:101320000168490709D5016821F004010160E06BFB
:101330000068C16821F00101C16084F84150204675
:1013400000F0B9F970BD2068016849070AD5016845
:1013500021F004010160E06B0068C16821F0010127
:10136000C16011E020300AE0A16B69B10178226B05
:101370001170216B491C2163A16B491EA163216877
:10138000896811F47C5FEFD184F84150204600F069
:101390008FF970BD05E084F841502046FFF747FF04
:1013A000F7E72046FFF742FFF3E72046FFF752FF3B
:1013B000EFE7130711D50B030FD50821C160206893
:1013C0000168490205D5016821F41021016084F803
:1013D0004150204600F06DF9DBE7D30722D0CB0364
:1013E00020D5C5602068016821F470210160606C1F
:1013F00040F0020060642068016849070FD5016869
:1014000021F004010160E16B0B488865E06BFFF798
:10141000B9FA0028BDD0606C40F00400606484F824
:101420004150C2E7D206B4D5C902B2D51021C1607D
:10143000204600F03FF9ACE729360008F8B504462D
:10144000FFF744FA05461CB194F8410010B107E0DB
:101450000120F8BD204600F0B5F841F28830A064C4
:1014600020686FF0FF02A168036802EB012223F4F9
:10147000F85111430160A06C002220212B460090FE
:10148000204602F0EEF80028E3D12268D4E90735BF
:101490002679E168176845EA0665DFF844C0194314
:1014A000104B29430025012607EA0C073943116038
:1014B0002268D4E90517B4F810C0D2F804E0394323
:1014C0000EEA030E4EEA0C431943516021680A6884
:1014D00042F001020A60656484F84160F8BD0000D2
:1014E0002FFFFF00FEF8E0FF2DE9F843164688467F
:1014F0000446FFF7EBF9034694F8400001280ED0AC
:10150000012084F84000002794F84100012808D009
:101510005FF0020584F840702846BDE8F883022099
:10152000FBE7A06C8221676484F84110002220212F
:101530000090204602F095F80500EBD12068726813
:10154000016821F0080111430160706808280AD180
:1015500022681021306810632068C160206801682B
:1015600041F4801101604FF040624146204601F095
:1015700087FFCFE710B500680D49884217D10D48A5
:10158000016821F4804101600B480421FEF7BCFF93
:101590000A484FF4F061FEF7B7FF09484FF40061C5
:1015A000FEF7B2FFBDE810405C20FFF70DBA10BD9A
:1015B00000500052D444025800040258001002584F
:1015C00000080258F0B5B7B00446142130A8FEF761
:1015D000B7FEC0216846FEF7B3FE30492068884256
:1015E0005AD1002013904FF000710446CDE900104D
:1015F000684600F0B7F908B1FEF772FF28480168A5
:1016000041F480410160006800F480403590244836
:101610000C30016841F002010160016801F0020133
:101620003591016841F010010160016801F010017D
:101630003591016841F0040101600068022532AA79
:1016400000F0040035900420CDE93005032615484C
:10165000092782E8D00030A9FFF70EF80A2132945A
:101660004FF4F060CDE93361CDE930050E4830A983
:10167000FFF702F8A80232AACDE930050B4830A9DD
:1016800082E8D000FEF7F8FF00225C201146FFF749
:10169000B9F95C20FFF7A9F937B0F0BD005000524E
:1016A000D44402580004025800100258000802589E
:1016B000704770477047704710B501F059F80549F9
:1016C0000968054AC1F30211515C01F01F01C840CD
:1016D00010BD000020440258CC470008494930B5ED
:1016E000484C0B1D0A68143409681D68246802F010
:1016F0000303C5F30012C1F30531C4F3CC04002980
:1017000014FB02F200EE102AF8EE400A75D03F4AB0
:101710009FED3D1AB7EE000A6BB1DFED3D1A012BCC
:1017200001D0022B64D002EE101A1168F8EE422AA2
:1017300081EEA22A21E0334C283C23689B0612D577
:10174000344B246801EE901A1168C4F3C104F8EE1A
:10175000612AE34001EE903AC1F30801F8EE611A04
:1017600081EEA22A0BE001EE901ADFED2B2A00BFDA
:10177000F8EE611A116882EEA12AC1F3080101EEA8
:10178000901A1168F8EE611A40EE811A71EE800A23
:1017900062EE200AC1F3462101EE101AB8EE411A9A
:1017A00031EE001AC0EE811ABCEEE11A80ED001A8B
:1017B0001168C1F3064101EE101AB8EE411A31EE7C
:1017C000001AC0EE811ABCEEE11A80ED011A116810
:1017D000C1F3066101EE101AB8EE411A31EE000AAB
:1017E00080EE801ABCEEC10A80ED020A30BD04E032
:1017F00001EE901ADFED092ABAE70021016041608D
:101800008160F3E728440258000000393844025848
:101810000024744A0090D0030024744C20BCBE4BBA
:10182000494930B5484C0B1D0A681C3409681D68CD
:10183000246802F00303C5F30022C1F30551C4F389
:10184000CC04002914FB02F200EE102AF8EE400A44
:1018500075D03F4A9FED3D1AB7EE000A6BB1DFED40
:101860003D1A012B01D0022B64D002EE101A116830
:10187000F8EE422A81EEA22A21E0334C283C23686C
:101880009B0612D5344B246801EE901A1168C4F3FC
:10189000C104F8EE612AE34001EE903AC1F3080179
:1018A000F8EE611A81EEA22A0BE001EE901ADFED4C
:1018B0002B2A00BFF8EE611A116882EEA12AC1F34B
:1018C000080101EE901A1168F8EE611A40EE811AD3
:1018D00071EE800A62EE200AC1F3462101EE101A71
:1018E000B8EE411A31EE001AC0EE811ABCEEE11AD0
:1018F00080ED001A1168C1F3064101EE101AB8EE2E
:10190000411A31EE001AC0EE811ABCEEE11A80EDE8
:10191000011A1168C1F3066101EE101AB8EE411AFE
:1019200031EE000A80EE801ABCEEC10A80ED020A98
:1019300030BD04E001EE901ADFED092ABAE700217C
:10194000016041608160F3E72844025800000039DB
:10195000404402580024744A0090D0030024744C80
:1019600020BCBE4B2DE9FE4F0546DFF8E48350F85E
:10197000081B0024F64FC943019005F128002646B4
:1019800008F12408009008011DD4A86E50B1B0F5EC
:10199000801F0CD0B0F5001F0ED0B0F5401F1ED038
:1019A00001240FE0386840F40030386017E00198F7
:1019B000022101F081FE03E00098022101F00CFFFA
:1019C00004000CD026462888C043C00523D4A86D47
:1019D00005281ED2DFE800F00C11161B1B00AA6EB2
:1019E000D8F8001021F440111143C8F80010EAE7BC
:1019F000386840F40030386009E00198002101F0B7
:101A00005BFE03E00098002101F0E6FE044674B19D
:101A100000E0012426462888C043800528D4E86DCC
:101A200080281ED00CDC90B140280ED114E0AA6DA5
:101A3000D8F8001021F007011143C8F80010EAE7B8
:101A4000C02813D0B0F5807F10D001240FE0386893
:101A500040F40030386009E00198002101F02CFECC
:101A600003E00098002101F0B7FE04469CB1264631
:101A70002888DFF8DC92C04309F12C0940052CD4FA
:101A8000D5F8A800B0F5800F20D00DDCA0B1B0F5DE
:101A9000001F0FD115E0EA6DD8F8001021F4E071B5
:101AA0001143C8F80010E3E7B0F5C00F13D0B0F54C
:101AB000000F10D001240FE0386840F40030386087
:101AC00009E00198002101F0F7FD03E000980021F2
:101AD00001F082FE04467CB126462888C0430005FA
:101AE0002DD4D5F8AC00B0F1007F21D00EDCA8B128
:101AF000B0F1807F10D116E0D5F8A820D9F80010F9
:101B000021F460011143C9F80010E6E7B0F1407F0D
:101B100013D0B0F1806F10D001240FE0386840F48A
:101B20000030386009E00198002101F0C5FD03E0B4
:101B30000098002101F050FE044674B12646286842
:101B4000C04380011FD4E86CD8B110280FD02028E2
:101B500012D0302815D0012414E0D5F8AC20D9F8E3
:101B6000001021F0E0611143C9F80010E7E7386880
:101B700040F40030386004E00198022101F09CFD3F
:101B8000044674B126462888C043C0042BD4286E6E
:101B9000B0F5005F20D00DDCA0B1B0F5805F0FD1B3
:101BA00015E06B48EA6C2030016821F030011143E8
:101BB0000160E8E7B0F5405F13D0B0F5804F10D07A
:101BC00001240FE0386840F40030386009E00198E3
:101BD000002101F071FD03E00098002101F0FCFDFF
:101BE00004468CB126462888C043800429D4686EF8
:101BF000B0F5403F23D010DC08B3B0F5803F14D0DF
:101C0000B0F5003F0FD115E02A6ED8F8001021F48E
:101C1000E0411143C8F80010E5E7B0F5802F0ED081
:101C2000B0F5A02F0BD001240AE00198012101F0AA
:101C300043FD03E00098012101F0CEFD044694B17C
:101C400026462888C04340042AD4D5F8B000B0F115
:101C5000405F23D010DC08B3B0F1805F14D0B0F146
:101C6000005F0FD115E06A6ED8F8001021F4E02172
:101C70001143C8F80010E4E7B0F1804F0ED0B0F186
:101C8000A04F0BD001240AE00198012101F014FDBE
:101C900003E00098012101F09FFD044674B126463F
:101CA0002888C04300041FD4286FD8B1B0F1805FEA
:101CB0000ED0B0F1005F10D0012414E0D5F8B020B0
:101CC000D9F8001021F0E0411143C9F80010E7E70E
:101CD000386840F40030386004E00198012101F0D8
:101CE000EBFC044674B126462868C043C0011ED4EC
:101CF000A86CD0B101280ED0022811D0032814D02E
:101D0000012413E02A6FD8F8001021F0405111434C
:101D1000C8F80010E8E7386840F40030386004E0A4
:101D20000198022101F0C8FC0446ACB1264628689F
:101D3000DFF81CB0C043ABF11C0B400252D4054885
:101D4000016841F480710160FEF7C0FD824611E038
:101D50002C44025800480258FA48AA6C016821F045
:101D6000030111430160E2E7FEF7B0FDA0EB0A00BA
:101D7000642835D8F4480068C005F5D58CBBDFF879
:101D8000C4A3B5F8B4100AF1240ADAF8000001F48B
:101D9000407100F44070884211D0DAF80010DAF88F
:101DA000002021F4407142F48032CAF80020DAF8B1
:101DB000002022F48032CAF80020CAF80010D5F8BA
:101DC000B400B0F5807F1AD1FEF780FD029012E0DA
:101DD000FEF77CFD0299411A41F2883081420AD90E
:101DE000032426462878DFF85CA3C0430AF1080ADA
:101DF000C00721D03CE0DAF800008007E8D5D5F82C
:101E0000B410C1F30120032858460DD0016821F415
:101E10007C510160B5F8B420DAF80010C2F30B026F
:101E20001143CAF80010DDE7C84A036802EA11123C
:101E300023F47C511143ECE7E86F182816D005DC39
:101E4000A0B1082808D0102804D10AE020280DD01D
:101E500028280BD001240AE00198012101F02CFC74
:101E600003E00098012101F0B7FC044664B1264666
:101E70002878C04380071ED4A86F062819D2DFE84F
:101E800000F0160C11161616EA6FDAF8001021F0A1
:101E900038011143CAF80010EAE70198012101F066
:101EA0000BFC03E00098012101F096FC04467CB194
:101EB00000E0012426462878C04340071FD4D5F807
:101EC0009400062819D2DFE800F0160C1116161639
:101ED000AA6FDAF8001021F007011143CAF80010C8
:101EE000E9E70198012101F0E7FB03E000980121F7
:101EF00001F072FC0446A4B100E0012426462878D3
:101F0000C04380062BD4D5F89000B0F1405F24D0B8
:101F100011DC10B3B0F1805F15D0B0F1005F10D1CB
:101F200016E0D5F89420D9F8001021F007011143EC
:101F3000C9F80010E3E7B0F1804F0ED0B0F1A04F28
:101F40000BD001240AE00198002101F0B5FB03E069
:101F50000098022101F040FC044694B126462878FE
:101F6000C04340062BD4D5F89C00B0F5406F24D078
:101F700011DC10B3B0F5806F15D0B0F5006F10D143
:101F800016E0D5F89020DAF8001021F0E041114376
:101F9000CAF80010E3E7B0F5805F0ED0B0F5A05F9F
:101FA0000BD001240AE00198002101F085FB03E039
:101FB0000098022101F010FC044694B126462878CE
:101FC000C04300062BD4D5F8A000B0F5C04F24D0F4
:101FD00011DC10B3B0F5005F15D0B0F5804F10D113
:101FE00016E0D5F89C20D9F8001021F4E0511143F7
:101FF000C9F80010E3E7B0F5004F0ED0B0F5204F60
:102000000BD001240AE00198002101F055FB03E008
:102010000098022101F0E0FB044654B126462878DE
:10202000C04300071ED4D5F88400B0F5805F0AD005
:102030000FE0D5F8A020D9F8001021F46041114339
:10204000C9F80010EBE70098022101F0C5FB00B1D0
:102050000126D5F88420DAF8001021F4405111430C
:10206000CAF800102878C043C00613D4D5F89800E9
:10207000B0F5807F05D10098022101F0ADFB00B1E1
:102080000126D5F89820D9F8001021F440711143A9
:10209000C9F800102868C043000316D4D5F8A4007E
:1020A00038B1B0F5803F09D0B0F5003F0BD0012426
:1020B0000AE00198002101F0FFFA03E000980221F4
:1020C00001F08AFB04468CB126462868C0434003D1
:1020D00022D4D5F88800B0F5801F11D0B0F5001FCC
:1020E00013D0B0F5401F15D0012414E0D5F8A4207A
:1020F000D9F8001021F440311143C9F80010E4E789
:10210000386840F40030386004E00098012101F0A4
:1021100063FB04465CB126462868C043C00323D451
:10212000286DA8B1B0F5803F17D001241BE0D5F889
:102130008820DAF8001021F440111143CAF8001089
:10214000EAE700004C44025800480258CFFFFF0065
:10215000386840F40030386004E00198022101F052
:10216000ABFA0446E4B126462868C043800005D493
:102170000098022101F030FB00B101262868C0431D
:1021800080031BD4D5F88000B0B1B0F5807F0FD0AC
:10219000B0F5007F10D0B0F5407F0DD001240CE0E9
:1021A0005A482A6D016821F4803111430160DBE750
:1021B000386840F400303860ECB326462868C043E5
:1021C000C00207D46A6FD8F8001021F00041114313
:1021D000C8F800102868C043C00008D4D5F8B8205B
:1021E000DBF8001021F480411143CBF8001028687F
:1021F000C043800207D4EA6ED8F8001021F0807145
:102200001143C8F800102868C04340000CD4DBF824
:10221000001021F40041CBF80010DBF80010D5F8D5
:10222000BC201143CBF800102868C04308D43748BD
:102230006A6D016800E018E021F04051114301602F
:102240002868C043000208D4D5F88C20DAF80010C2
:1022500021F440011143CAF8001028790024C0433A
:1022600000F0010020430AD00FE0D5F88020DAF812
:10227000001021F440711143CAF800109EE7019844
:10228000002101F019FA00B106462879C04300F098
:102290000200204305D10198012101F00DFA00B19F
:1022A00006462879C04300F00400204305D1019878
:1022B000022101F001FA00B106462879C04300F07E
:1022C0000800204305D10098002101F085FA00B1F3
:1022D00006462879C04300F01000204305D100983D
:1022E000012101F079FA00B106462879C04300F0D7
:1022F0002000044304D10098022101F06DFA00B9D6
:1023000016B10120BDE8FE8F0020FBE74C440258C7
:10231000704700002DE9F05F04000F467ED0DFF823
:102320003882D8F8000000F00F00B8420CD2D8F87C
:10233000001021F00F013943C8F80010D8F8000050
:1023400000F00F00B84269D12078844D40070AD5CB
:102350002069296801F07001884204D9296821F0B8
:1023600070010143296020787C4E361D00070AD594
:102370006069316801F07001884204D9316821F048
:102380007001014331602078C0060AD5A069316828
:1023900001F4E061884204D9316821F4E06101432D
:1023A00031602078DFF8B4B180060BF1080B0CD552
:1023B000E1695846DBF8002002F07002914204D92E
:1023C000026822F070020A430260207880070AD572
:1023D000E068296801F00F01884204D9296821F0DA
:1023E0000F01014329602078C0073ED05B49A268F5
:1023F0002868183920F4706010432860606802284B
:1024000018D0032819D00968012819D049070029D4
:102410004ADADFF848A1AAF1080A00E044E0DAF855
:10242000002022F007020243CAF80020FEF74EFA0D
:10243000814612E009688903E9E709688901E6E74E
:10244000C905E4E7FEF742FAA0EB090141F2883042
:10245000814202D90320BDE8F09F6168DAF80000EC
:1024600000F03800B0EBC10FECD1207880070AD51E
:10247000E068296801F00F01884204D2296821F040
:102480000F0101432960D8F80010404601F00F0108
:10249000B9420BD9016821F00F013943016000688E
:1024A00000F00F00B84201D00120D4E720784007A7
:1024B0000AD52069296801F07001884204D2296890
:1024C00021F0700101432960207800070AD5606976
:1024D000316801F07001884204D2316821F0700146
:1024E000014331602078C0060AD5A069316801F443
:1024F000E061884204D2316821F4E0610143316037
:10250000207880060CD5E1695846DBF8002002F0FF
:102510007002914204D2026822F070020A43026003
:1025200000F06CF90E492A682B68C2F3032203F00D
:102530000F038A5CC95C02F01F0201F01F01D0404A
:10254000084A20FA01F1116007490860074800684D
:10255000BDE8F05FFEF7F6B90020005218440258BB
:10256000CC470008100000200C00002004000020D0
:102570002DE9F047704C206800F00F00072809D2C1
:10258000206820F00F00C01D2060206800F00F00C0
:1025900007287CD1FEF79AF9DFF8A0810546D8F824
:1025A000000040F00100C8F8000004E0FEF78EF9DA
:1025B000401B022875D8D8F800004007F6D55F48C0
:1025C00000275E4E001D103603685D4943F08043CE
:1025D000036037605B4801605B4801605B480068EE
:1025E000FEF7B0F9002852D1FEF770F9054641F226
:1025F000883904E0FEF76AF9411B494551D8306833
:1026000010F0380FF6D1FEF761F951490546D8F8B8
:1026100000000840C8F8000005E000BFFEF756F9CA
:10262000401B64283DD8D8F800008003F6D4FEF79C
:102630004DF90546D8F8000020F08070C8F8000079
:1026400005E000BFFEF742F9401B022829D8D8F860
:1026500000008001F6D4FEF739F90546D8F80000ED
:1026600020F08060C8F8000005E000BFFEF72EF9FA
:10267000401B022815D8D8F800000001F6D4FEF758
:1026800025F90546D8F8000020F0805001E04EE022
:1026900007E0C8F8000007E0FEF718F9401B022821
:1026A00002D90320BDE8F087D8F800008000F3D4F9
:1026B000224D384627491835274B2E1D321D2F60D5
:1026C0001E4F264D283730603E1D1060321D3B6086
:1026D000131D35601D1D11602A1D161D1860331D48
:1026E0002960106031601860D8F800304FF0FF3575
:1026F0001249124A23F48023104ED0316032C8F8B8
:102700000030683610603560086840F4803008603A
:10271000206800F00F0007280BD9206820F00F0078
:10272000C01D2060206800F00F00072801D00120A4
:10273000B8E70020B6E7000000200052004402582D
:102740000090D0030C0000201000002004000020A6
:1027500045EDF6FF80020101000202020000FF01C8
:102760000248016841F400210160704700440258AA
:1027700030B500F043F80B4A0B490C4B1568146850
:10278000C5F3032204F00F048A5C095D02F01F0206
:1027900001F01F01D040064A20FA01F119601060D3
:1027A000084630BD18440258CC47000810000020ED
:1027B0000C00002000B5FFF7DBFF05490968054A5A
:1027C000C1F30211515C01F01F01C84000BD0000BF
:1027D0001C440258CC47000800B5FFF7C9FF054963
:1027E0000968054AC1F30221515C01F01F01C8408C
:1027F00000BD00001C440258CC470008454970B594
:1028000045480968434B103B11F0380208D00111CC
:10281000082A03D0102A0BD0182A0BD0084670BD06
:1028200019688906FBD51968C1F3C101C84070BD9C
:102830003A4870BD3749374D18310C1D24350A68A8
:10284000096826682D6802F0030406F00102C1F34E
:102850000511C5F3CC0515FB02F200EE102AB8EE07
:10286000400AE9B32F4ADFED2E0AB7EE001A6CB129
:10287000DFED2D1A012C01D0022C43D002EE101AEC
:102880001068F8EE422A81EEA22A1EE01C68A40617
:1028900011D51B6801EE901A1168C3F3C103F8EE5D
:1028A000612AD84001EE900AC1F30800F8EE611ADF
:1028B00081EEA22A0BE001EE901ADFED1C2A00BF88
:1028C000F8EE611A106882EEA12AC0F3080001EE4A
:1028D000900AF8EE611A40EE201A31EE810A00E00B
:1028E00015E022EE000A1068C0F34620401C00EEFE
:1028F000900AF8EE600A80EE201ABCEEC10A10EED3
:10290000100A70BD01EE901ADFED092AD8E7002009
:1029100070BD0000104402580090D00340787D0143
:1029200000000039304402580024744A0024744CDA
:1029300020BCBE4B064810B50068400506D5FFF721
:10294000E7FC03494FF48060091D086010BD0000DA
:10295000644402582DE9F05F04007DD0FF4F2078D9
:10296000FE4D1837DFF8F493103DC00748D0D9F872
:102970000000396800F03800102815D0182803D15D
:1029800001F0030002280FD06068B0F5803F12D03C
:1029900010B1B0F5A02F18D0286820F4803028603E
:1029A000286820F4802009E02868800328D5606822
:1029B0000028D2D024E0286840F480302860606885
:1029C00088B1FDF783FF064609E0286840F48020BF
:1029D0002860F0E7FDF77AFF801B64286FD828682D
:1029E0008003F7D50CE0FDF771FF064605E000BF58
:1029F000FDF76CFF801B6428F0D828688003F7D4AB
:102A0000207841F20308D54E0C3E800769D5D9F8ED
:102A10000000396810F038000ED0182801D188075E
:102A20000AD0E06890B3296821F0190101432960B8
:102A3000FDF74CFF824631E02868400702D5E06888
:102A400000288AD0E168286820F01900084328602F
:102A5000FDF73CFF824607E0DFE000BFFDF736FFF1
:102A6000A0EB0A000228B9D828684007F6D500BFB5
:102A7000FDF726FF40451BD82069402812D0316859
:102A800021F47C3141EA003030602AE018E000BFD8
:102A9000FDF71CFFA0EB0A0002289FD8286840071A
:102AA000F6D5E5E7306820F47C3040F40030EBE701
:102AB000207C316821F0FE4141EA0060E4E70DE14D
:102AC000286820F001002860FDF700FF824605E03D
:102AD000FDF7FCFEA0EB0A0002288DD8286840070D
:102AE000F6D42078C0065DD5D9F80000DFF86CB2C6
:102AF000396800F03800ABF1040B082810D0182812
:102B000003D101F0030001280AD0E06900282868F9
:102B100038D040F080002860FDF7D8FE824623E0E0
:102B20002868C00523D5E069802876D11FE0206A97
:102B3000202821D0316821F0F84141EA80603060DE
:102B400030E000BF94F82010DBF8002022F07C5227
:102B500042EA0161CBF8001024E000BFFDF7B6FEA9
:102B6000A0EB0A00022898D82868C005F6D5FDF722
:102B7000A7FE4045E6D8DAE7306820F0F84040F09C
:102B80008040DCE720F080002860FDF79FFE0646CD
:102B900005E000BFFDF79AFE801B02289DD828683B
:102BA000C005F7D42078000729D56C4861696430E6
:102BB00000298046016811D041F001010160FDF754
:102BC00085FE064605E000BFFDF780FE801B02285B
:102BD000C9D8D8F800008007F6D510E021F001012F
:102BE0000160FDF773FE064605E000BFFDF76EFECF
:102BF000801B022872D8D8F800008007F6D420780D
:102C0000800623D5A0690028286810D040F48050A1
:102C10002860FDF75BFE064605E036E1FDF756FE4F
:102C2000801B02285AD828688004F7D50EE020F4CB
:102C300080502860FDF74AFE064604E0FDF746FE98
:102C4000801B02284AD828688004F7D420784007DF
:102C50004FD5DFF80C81D8F8001041F48071C8F826
:102C60000010FDF733FE064605E000BFFDF72EFE1F
:102C7000801B642832D8D8F80000C005F6D5374E3E
:102C8000A068603601280AD008B1052813D0306842
:102C900020F001003060306820F0040002E030686D
:102CA00040F001003060A06841F2883A90B1FDF731
:102CB0000DFE80460AE0306840F004003060EEE728
:102CC000FDF704FEA0EB0801514507D830688007E6
:102CD000F6D50EE0FDF7FAFD804607E084E000BF80
:102CE000FDF7F4FDA0EB080151457DD83068800761
:102CF000F6D4606AB0B3DFF86480D9F8001008F148
:102D000020084FF6F87B08F10409C1F3C20103293A
:102D1000A8F1040A69D00228286820F08070286091
:102D200003D0FDF7D3FD044684E0FDF7CFFD064652
:102D300005E000BFFDF7CAFD801B022877D8286890
:102D40008001F7D4E26A40F2F331386854F8283F42
:102D5000884340EA02101843386004E010440258E7
:102D600000480258B5E0217B434622894FF4FE0C0F
:102D7000208A4FF0FE474902267D521E401EA1F5D3
:102D80000071C2F308088AB2761E0CEA004042EADB
:102D900008020243504607EA06610A431A60DAF85D
:102DA000002022F00102CAF80020D9F80020266A8B
:102DB00022EA0B0242EAC602C9F80020DAF8001043
:102DC000A26921F00C011143CAF800100168E26900
:102DD00021F0020111430160016841F4803101607A
:102DE000016841F4003101E021E027E00160016861
:102DF00041F480210160016841F00101016028680F
:102E000040F080702860FDF761FD044605E000BFDA
:102E1000FDF75CFD001B022809D828688001F7D562
:102E200057E000BFFDF752FD001B022802D9032026
:102E3000BDE8F09F28688001F4D44AE03968012891
:102E4000D8F8000021D0A26A01F0030393421CD1FC
:102E5000E26AC1F305118A4217D1216BC0F308025F
:102E6000491E8A4211D1616BC0F34622491E91422C
:102E70000BD1A16BC0F30642491E914205D1E16B13
:102E8000C0F30660491E814201D00120D0E7A16C49
:102E90004E46D9F80000C0F3CC00814219D0DAF8D0
:102EA0000000554620F00100CAF80000FDF70EFDB5
:102EB0004FEA0007FDF70AFDB842FBD0A26C30686C
:102EC00020EA0B0040EAC2003060286840F00100B0
:102ED00028600020ACE7401EB0F1807F10B501D320
:102EE000012010BD4FF0E02460610F21601701F058
:102EF00018FC0020A0610721216110BD30B590F8B9
:102F00008410012918D0012280F884202421C0F8DF
:102F100088100022202401680B680D6823F00053FC
:102F200025F001050D60426601680B60C0F888401D
:102F300080F88420104630BD022030BD70B50446B4
:102F400090F8840001281DD0012284F884202420D8
:102F5000C4F8880020680568026822F00102026057
:102F60002068826822F060620A438260204600F096
:102F7000A5FD2268202100201560C4F8881084F87F
:102F8000840070BD022070BD70B5044690F88400C6
:102F900001281DD0012284F884202420C4F8880050
:102FA00020680568026822F00102026020688268D9
:102FB00022F060420A438260204600F07FFD2268D2
:102FC000202100201560C4F8881084F8840070BDAA
:102FD000022070BD10B5040003D0D4F8880010B1F1
:102FE00007E0012010BD002084F88400204600F096
:102FF00027F82420C4F888002068016821F0010126
:103000000160A06A10B1204600F07AFD204600F071
:103010005BFE0128E6D02068416821F490414160C0
:103020002068816821F02A0181602068016841F0F0
:10303000010101602046BDE8104000F0C5BD000060
:1030400010B5B6B00446142130A8FDF779F9C021B7
:103050006846FDF775F91949206888422BD1002090
:103060001F9001210446CDE900106846FEF77AFC66
:1030700008B1FDF735FA1248016841F0100101600E
:10308000006800F0100035900D481038016841F0DC
:1030900001010160006830AB022100F001003590B1
:1030A0004FF4C060072283E81300064830A9CDE939
:1030B0003342FDF7E1FA36B010BD000000100140C8
:1030C000F044025800000258FEE700002DE9F043EA
:1030D00087B014216846FDF733F94948016841F08B
:1030E00010010160016801F010010591016841F0D3
:1030F00004010160016801F004010591016841F0DB
:1031000080010160016801F080010591016841F0D2
:1031100001010160016801F001010591016841F0C0
:1031200002010160016801F002010591016841F0AE
:103130000801016000680122DFF8C880170300F071
:103140000800394605904046FDF7B4FBDFF8B8901B
:10315000012211464846FDF7ADFB03264FF67C00E1
:10316000002469460294CDE900064846FDF784FA3A
:10317000264D7800CDE90004694628460294FDF703
:103180007BFA4DF2FF706946CDE9000628460294AD
:10319000FDF772FA48F2FF106946CDE900061C48B7
:1031A0000294FDF769FA4EF6FB706946CDE9000618
:1031B00040460294FDF760FA0125694640460295B3
:1031C0000395CDE90075FDF757FA4FF6FF70694694
:1031D000CDE900060F480294FDF74EFACDE90254FE
:1031E0006946484600950195FDF746FA0220694672
:1031F0008DE831004846FDF73FFA07B0BDE8F0839F
:10320000E044025800040258001002580008025816
:1032100000000258000C02582DE9F0410D48002131
:1032200020240B4A4FF0800CE700C0E9057103230E
:1032300010251826C0E907C180E87C00FEF7FEF8DB
:10324000002803D0BDE8F041FDF74AB9BDE8F081A0
:1032500000500052140000201848002110B5164CF0
:103260000C224FF4E1330460C0E90131C160C0E9D0
:1032700004128161C161016241628162FFF7AAFEAD
:1032800008B1FDF72DF90D480021FFF77DFE08B1CB
:10329000FDF726F909480021FFF750FE08B1FDF7B8
:1032A0001FF90648FFF72AFE002803D0BDE81040AA
:1032B000FDF716B910BD00000010014060000020AD
:1032C0000D48092310B50B4C022200210460037144
:1032D000C271817142728172C172017341738173D3
:1032E000C173FDF7B5FE002803D0BDE81040FDF71F
:1032F000F7B810BD00000840F4000020FEE7FFF71B
:1033000019BB00000148FDF7D7BB0000F400002006
:103310002DE9F041044680790D46202723680128D5
:103320004FF4004604F29C4203EB4511D3F840C031
:10333000D1F8080B09D0DFF89CE0F4453AD102043B
:1033400033D500BFC1F8086B40E0234B5FEA007E35
:1033500004D59C453AD90004F4D437E05FEA806E86
:1033600002D5C1F8087B31E010F0280F2ED19C4522
:1033700001D90004E6D4D1F8101B05EBC50004EB1D
:103380008000C1F31201D0F87432A3EB0101C0F840
:10339000681200F51570ADB903691BB1C26811441C
:1033A000C1600FE0206801210AE080060AD5C1F85B
:1033B000087B07E035B9D4F8640218B90021184633
:1033C00000F0E4FF2046E9B2FDF765FB0020BDE810
:1033D000F08100000A31544F0A30544F2DE9F84F64
:1033E0000E460568814601EBC60100EB8104D4E975
:1033F00009201434904202D90120BDE8F88FA16859
:10340000101A814200D20846C01C05EB46188708F6
:103410001BE000BFA268A0EB010A524500D2924611
:1034200099F806100AF1030000911FFA8AF3E16887
:1034300087082846F2B201F05FF9E16801EB0A0063
:10344000E060616901EB0A006061D8F8180980B298
:10345000B84205D3D4E90401814201D20028D9D170
:10346000D4E90401884208D8D5F83418012006F0C0
:103470000F0290408143C5F834180020BDE7704723
:103480002DE9F0434B6A4FF040652BB1AA4203D0BF
:1034900004688B6A5B1E23618B69002B68D00C6A01
:1034A000B4B303688C68DC61CC69FCB1D1E90B383A
:1034B000D1F824C04E6B8F8A43EA080346EA0C0613
:1034C00033430E6A43EA8743D1E9037C43EA0C03A2
:1034D00033438E693B430F682343046833433B43C4
:1034E00065E0006849688161BDE8F083D1E90B3689
:1034F0004F6A4C6B8D8A33433C430E6923430C6AFD
:1035000043EA85438D693343096823432B4362E0D3
:10351000FFE7CC69B4F1000918D0D1E90B484F6A34
:103520004E6BB1F814C044EA08043E430F683443BC
:10353000CE6844EA8C44344344EA09041C430368DB
:103540003C431443AA425C61CBD1CDE7D1E90B46A1
:103550004F6A4D6BB1F814C034433D4300682C43AF
:10356000096844EA8C441C430C4314434461BBE7A0
:103570000B6AABB303688C68DC61CC69E4B1D1E958
:103580000B38D1F824C04E6B8F8A43EA080346EA11
:103590000C0633430E6A43EA8743D1E9037C43EACE
:1035A0000C0333438E693B43234304683343134383
:1035B000AA42636195D197E7D1E90B364F6A4C6B0C
:1035C0008D8A33433C430E6923430C6A43EA8543A7
:1035D00089693343234300680B431343436183E703
:1035E000FFE7CC6984B1D1E90B384F6A4E6BB1F873
:1035F00014C043EA08033E433343CE6843EA8C4396
:10360000334323430468D2E74C6A002C9DD0D1E9B0
:103610000B368F8A4D6B0168334325432B4343EAB6
:103620008740104348615FE710B5006C002181635B
:10363000C16290F84110082905D0012180F841109D
:10364000FDF708FE10BD02680221D16001680A681A
:1036500042F400320A600068016841F00201016032
:1036600010BD2DE9F041984616460F460446069DCA
:1036700008E0681C06D0FDF729F9A0EB0800A84275
:103680000AD84DB120688068384000D00120B0428F
:10369000EFD10020BDE8F081042084F84100606C87
:1036A00040F0010060640120F4E700000148FDF7EC
:1036B000D3BD0000140000202DE9F047454D04461D
:1036C00089464FF0000A2868C04380070AD0414E5F
:1036D000283E306820F080603060FDF7F7F807463C
:1036E000B04608E00120BDE8F08700BFFDF7EEF826
:1036F000C01B022867D8D8F800000001F6D4206863
:1037000029684FF4FE0721F47C313E0241EA003083
:103710002860207AA389B4F804C040022D4D2D49B9
:103720005B1E227CACF1010C1035091DA0F5007068
:1037300080B2521ECCF3080C07EA034340EA0C00A7
:10374000184306EA0262104328600868626920F0A4
:10375000C000104308600A68A06922F020020243FA
:103760000A60281D0A6822F010020A6002684FF6FB
:10377000F873E4699A4342EAC40202600868B9F146
:10378000000F40F010020A6011D00868B9F1010F73
:1037900011D040F400100860D8F80000444640F012
:1037A0008060C8F80000FDF791F805460DE0086854
:1037B00040F40020EFE740F48010ECE7FDF786F8D6
:1037C000401B022801D903208DE720680001F5D5B0
:1037D000504688E7284402582DE9F047454D0446F5
:1037E00089464FF0000A2868C04380070AD0414E3E
:1037F000283E306820F080503060FDF767F80746BB
:10380000B04608E00120BDE8F08700BFFDF75EF894
:10381000C01B022867D8D8F800008000F6D42088A2
:1038200029684FF4FE0721F07C713E0241EA005006
:103830002860207AA389B4F804C040022D4D2D4998
:103840005B1E227CACF1010C1835091DA0F500703F
:1038500080B2521ECCF3080C07EA034340EA0C0086
:10386000184306EA0262104328600868626920F47F
:103870004060104308600A68A06922F400720243A5
:103880000A60281D0A6822F480720A6002684FF6F6
:10389000F873E4699A4342EAC40202600868B9F125
:1038A000000F40F480720A6011D00868B9F1010F6E
:1038B00011D040F080700860D8F80000444640F015
:1038C0008050C8F80000FDF701F805460DE00868D3
:1038D00040F48000EFE740F40000ECE7FCF7F6FF6F
:1038E000401B022801D903208DE720688000F5D510
:1038F000504688E7284402587047FCF7EDBF0000A7
:10390000F0B59DB04C216846FCF71AFD202113A8A4
:10391000FCF716FD0220FDF757FC2C4900242C482B
:103920000A6822F001020A600A68026842F4404212
:103930000260026802F440421B9202689204FCD5C5
:10394000244A136843F002031360126802F0020273
:103950001B92026842F44042026002680A6842F028
:1039600001020A60096801F001011B9101688904E4
:10397000FCD50DF1280C02200990012306930521A6
:10398000C0228CE80700C6030F9008250D90212760
:103990000E90CDE91054CDE9007668461294FEF7FA
:1039A000D9FF40201A903F210301CDE91650032290
:1039B000CDE9180313AB13A883E816000421FEF722
:1039C000A9FCFEF7CDFE1DB0F0BD00002C04005890
:1039D00018480258F44402582E48F0B52E4A01689F
:1039E00041F470010160106800F00F00072804D254
:1039F000106820F00F00C01D106028490020274CDF
:103A000010340B68264D43F001030B6020600B68F7
:103A10002B400B60136803F00F03072B04D91368C6
:103A200023F00F03DB1D13601C4C1E4A18341E4B81
:103A3000261D371D2060194C1C4D28343060261D72
:103A40003860371D23603B1D35601C1D3A60251D05
:103A50002E1D1860331D22602860326018600A68CD
:103A60000E4B134C22F4802260330A6018602068E9
:103A70006FF30F00B0F1005F03D20E490120C1F8CF
:103A8000080143F2D2000C49024B4A03803B086014
:103A90001A60F0BD88ED00E000200052004402589A
:103AA0007FEDF6EA80020101000202020000FF0140
:103AB0000010005C008000510040005230B5416EA3
:103AC000B9B101680D4B03F108048A688968C2F333
:103AD0004262490F5D5C615C2D01B5FBF1F1A0F81C
:103AE0006A10995CA25C0901B1FBF2F1A0F86810C0
:103AF00030BD0121A0F86A10F8E70000BC470008BB
:103B000090F82810090706D50168836B4A6822F4EB
:103B100000421A434A6090F82810C90706D001688D
:103B2000C36A4A6822F400321A434A6090F82810A7
:103B3000890706D50168036B4A6822F480321A436C
:103B40004A6090F82810490706D50168436B4A6817
:103B500022F480221A434A6090F82810C90606D53C
:103B60000168C36B8A6822F480521A438A6090F815
:103B70002810890606D50168036C8A6822F4005271
:103B80001A438A6090F82810490611D50168436CE1
:103B90004A6822F480121A434A60416CB1F5801FD2
:103BA00006D10168836C4A6822F4C0021A434A6055
:103BB00090F82810090606D50168C26C486820F400
:103BC00000201043486070472DE9F8430025044663
:103BD000C0F89050FCF77AFE8046206820266FF0EF
:103BE0007E470068000713D5002243463104204673
:103BF000009700F03FFA58B1216851E8000F20F01B
:103C0000800041E80002002AF6D1C4F8886021E073
:103C100020680068400722D5002243464FF4800107
:103C20002046009700F026FAC8B1206850E8001F2F
:103C300021F4907140E80012002AF6D12068083083
:103C400050E8001F21F0010140E80012002AF5D1E0
:103C5000C4F88C60032084F88450BDE8F883C4F86D
:103C60008860C4F88C60E5662567002084F884507D
:103C7000F3E7000010B5026852E8001F21F49071CC
:103C800042E80013002BF6D10E4B0268083252E8CE
:103C9000001F194042E80014002CF6D1C16E012922
:103CA00008D1026852E8001F21F0100142E8001319
:103CB000002BF6D100212022C0F88C20C16641677C
:103CC00010BD0000FEFFFFEF2DE9F04304468068C1
:103CD000D84E87B0D84B2168D4E90427D4F81CC04B
:103CE00010430A68002547EA0C0738433240024374
:103CF0000A602068E268416821F440511143416044
:103D00002268A1699A4201D0206A01439768DFF8CE
:103D10002CC3CB4ECB4807EA0C070F4397602168B2
:103D2000676ACA6A22F00F023A43CA622268B24244
:103D30000ED1006800F03800182873D047DCB8B303
:103D4000082879D010286FD178E028287ED17BE030
:103D5000BD498A4209D1006800F00700062875D2E3
:103D6000DFE800F0546A6C6E7072B8498A4209D17B
:103D7000006800F00700062868D2DFE800F0475D21
:103D80005F616365B2498A4209D1006800F00700AB
:103D900006285BD2DFE800F03A5052545658AD493D
:103DA0008A420BD1006800F0070006284ED200E0DE
:103DB00010E0DFE800F02B4143454749A6498A421D
:103DC0000AD1006800F03800182839D0B7DD202863
:103DD000BBD13CE001203AE0A0498A4209D1006809
:103DE00000F00700062831D2DFE800F01026282A6C
:103DF0002C2E9B498A420BD1006800F00700062850
:103E000024D2DFE800F003191B1D1F2100201EE053
:103E10009A421BD18B48001D006800F0070006285D
:103E200014D202E00CE007E010E0DFE800F0030548
:103E300007090B0D02200AE0042008E0082006E034
:103E4000102004E0202002E0402000E0802085498E
:103E5000DFF814829A42854A4FF400434FEA211753
:103E60004FF000064ED110281AD006DC022809D0E7
:103E700004280BD008287CD10DE020283ED0402813
:103E800077D13DE0FDF718FC014610E06846FDF7EC
:103E900025FC01990BE003A8FDF7C2FC049906E09C
:103EA0001068800605D51068C0F3C100C140002924
:103EB00070D0606A676838F8102007EB4703B1FBE1
:103EC000F2F0834255D8B0EB073F52D800230846A2
:103ED0001946FCF7FDF902467808130E120243EA70
:103EE000012110183A4671410023FCF7F1F9604AAC
:103EF000A0F5407191423CD821688FE03946D8E75F
:103F00001946D6E7D4F81CC04FF6EF799C4546D148
:103F1000082819D005DC58B101280CD0042875D127
:103F20000DE0102815D0202835D040286ED134E07F
:103F3000FEF740FC01E0FEF74FFC014610E068464A
:103F4000FDF7CCFB01990BE003A8FDF769FC049990
:103F500006E01068800604D51068C0F3C100C140B7
:103F6000C1B1636A606838F81330B1FBF3F14900FE
:103F700000E04BE001EB5001B1FBF0F0A0F11001CB
:103F8000494543D84FF6F0732168C0F34202184008
:103F9000104343E043E03946E3E71946E1E70828E8
:103FA00019D005DC58B101280CD004282ED10DE021
:103FB000102815D020282BD0402827D12AE0FEF742
:103FC000F9FB01E0FEF708FC014610E06846FDF74A
:103FD00085FB01990BE003A8FDF722FC049906E09C
:103FE0001068800604D51068C0F3C100C140B1B1AB
:103FF000636A606838F81330B1FBF3F101EB5001EC
:10400000B1FBF0F0A0F11001494505D9012506E00A
:104010003946EDE71946EBE7216880B2C860012018
:10402000A4F86A00A4F8680028466667A66707B087
:10403000BDE8F083F369FFCF000C0058FFF4FF11D7
:104040000010014054440258004400400048004021
:10405000004C004000500040001401400078004037
:10406000007C00400090D003A447000800440258A0
:10407000FFFC0F002DE9F047994617460D46044610
:10408000089E4FF0000833E0701C31D0FCF71EFC96
:10409000A0EB0900B04218D8BEB1206801684907FA
:1040A00026D5802D24D0402D22D0C169C9430907CF
:1040B0000DD4082505622046FFF7DCFDC4F89050BA
:1040C000012084F88480BDE8F0870320FBE7C06905
:1040D000C04300050CD421684FF4006008622046FC
:1040E000FFF7C8FD2021C4F8901084F88480ECE725
:1040F0002068C06935EA000004D00020B842C3D06F
:104100000020E0E70120F9E7D0F800196FF30A0179
:10411000C0F80019D0F8041841F48071C0F80418F0
:104120000020704770B50D460446C2F307211E46B5
:104130000498012922D0E06840F04000E060204669
:1041400000F03CF8C6F307210029A16B2ED021F422
:104150008031A163C5F3074101290ED1E16D154AF4
:1041600089B2E165E16D1143E165A16841F00601A5
:10417000A160A16841F02001A16070BDA26BC3B233
:104180000D49012B22F48030A063E06800EA0100B1
:10419000E060E06820F44010E06003D1E06840F4A3
:1041A0008010E060204600F009F8D3E741F4803148
:1041B000CFE700000000EE03BFFFBDFF08B5002100
:1041C0004FF070620091009B5B1C009393420CD8EF
:1041D0000369002BF7DA0091016941F001010161E7
:1041E0000099491C0091914201D9032008BD016941
:1041F000C907F5D1002008BDD0F8001E21F0030149
:10420000C0F8001ED0F8041841F00201C0F80418EC
:10421000002070472DE9F04F00250F4690460446D8
:104220002E46284604EB8001C1F80451401C0F289B
:10423000F8D3C3F307405FEA0009204610D0806B33
:1042400040F40011C4F83810C8F30720C4F8005E29
:104250000128204617D0D0F8001841F0030119E0DA
:10426000D0F8040840F00201C4F80418A06B20F450
:104270000011A163206840F040012160206840F0F7
:1042800080012160E0E7D4F80018380E204601D004
:1042900041F00101C0F80018102100F00EF900B142
:1042A0000126204600F0EDF800B101264FF67F3AD6
:1042B0004FF0006CC4F810584FF0904BC4F81458ED
:1042C000C4F81C580020FAB214E000BF04EB4011FF
:1042D000D1F80039002B06DA10B1C1F800B904E0BA
:1042E000C4F800C901E0C1F80059C1F81059C1F87B
:1042F00008A9401C8242E9D8002013E004EB4011D9
:10430000D1F8003B002B06DA10B1C1F800BB04E085
:10431000C4F800CB01E0C1F8005BC1F8105BC1F844
:1043200008AB401C8242E9D8D4F81008C7F3074212
:10433000002A6FF0804120F48072C4F81028A56133
:10434000616103D1A06940F01000A061A069C8F3C9
:104350000741094A1043A06119B1A06940F0080063
:10436000A061B9F1010F03D1A06904490843A0611C
:104370003046BDE8F08F000000383C80040000406B
:10438000816821F0010181600020704710B5144C54
:10439000036CA34203D9D0F8003B002B1EDB0023A3
:1043A000C0F8103B0129D0F8101B41F40021C0F8DF
:1043B000101BD0F8101B41F01801C0F8101BD0F8EA
:1043C000101B41F0C041C0F8101B07D1C0F8142BDE
:1043D000D0F8001B41F08021C0F8001B002010BD68
:1043E0000A30544F38B5002242F210740023009274
:1043F0000A784D78012D00EB421219D0D2F8005BFB
:10440000002D3CDAD2F8005B45F00065C2F8005B95
:104410000A7800EB4212D2F8005B45F08045C2F802
:10442000005B009A521C0092A24221D9012326E08F
:10443000D2F80059002D22DAD2F8005945F0006573
:10444000C2F800590A7800EB4212D2F8005945F040
:104450008045C2F80059009A521C0092A242E5D849
:104460000A7800EB4212D2F80029002AF3DB06E0BA
:104470000A7800EB4212D2F8002B002AD1DB184652
:1044800038BD08B500214FF070620091009B5B1CA5
:10449000009393420AD80369002BF7DA00911023A6
:1044A00003610099491C0091914201D9032008BD84
:1044B0000169C906F5D4002008BD18B500224FF0E7
:1044C00070630092009C641C00949C420CD80469A8
:1044D000002CF7DA2024009244EA8111016100994E
:1044E000491C0091994201D9032018BD0169890630
:1044F000F5D4002018BDD0F8080810F0060004D04C
:10450000022803D0062801D00F20704702207047F0
:10451000406900F001007047D0F81818D0F81C0866
:10452000084080B27047D0F81818D0F81C0808402E
:10453000000C704710B5D0F8102801F00F0300EB05
:104540004114D0F83418D4F80809D94001F0010119
:1045500042EAC111084010BD00EB4111D1F8081B1F
:10456000D0F81408084070474169806908407047D6
:104570000346084630B5940802F00301002203F513
:10458000805303E01D68521C40F8045BA242F9D33B
:1045900000290CD01C680023491EDD00090403F12A
:1045A0000103090C24FA05F200F8012BF4D130BD07
:1045B00070B50446C06801294FF0000520F0C040E6
:1045C000E06001D079B120E0E06840F00050E060A8
:1045D0000A20FBF787FF60690A3510F0010F10D140
:1045E000C82DF5D30DE0E06840F08040E0600A207F
:1045F000FBF778FF60690A3510F0010F01D0C82D74
:10460000F5D3C82D01D0002070BD012070BD000081
:10461000022A3ED1264A274B0A449A4201D20F2150
:1046200038E0254A254B0A449A4201D20E2131E056
:10463000234A244B0A449A4201D20D212AE0224AFD
:10464000224B0A449A4201D20C2123E0204B214AFA
:104650000B44934201D20B211CE01F4B1F4A0B4419
:10466000934201D20A2115E01D4B1E4A0B4493428E
:104670000FD31D4B1D4A0B44934201D2082109E080
:104680001B4B1C4A1944914201D2072102E006212A
:1046900000E00921C2684FF4705322F47052C260E6
:1046A00003EA8123C1681943C160002070470000FC
:1046B000405327FF00350C00401E1BFF40420F00F7
:1046C00000DC0BFF804F1200808CF9FE20D6130017
:1046D00060B6E5FE60E3160000D3CEFE40771B0017
:1046E000C05BB3FEC091210000CA91FE2075380066
:1046F000E05459FEE09C410010B5029C74B900EBF7
:104700000232DB1C00209B0802F5805204E000BF4F
:1047100051F8044B1460401C9842F9D3002010BD9E
:10472000FEE7090700284FEA116104DB00F1E020F1
:1047300080F80014704700F00F0000F1E02080F8CE
:10474000141D704702E008C8121F08C1002AFAD1E0
:1047500070477047002001E001C1121F002AFBD101
:1047600070470000FCF7C0F8FFF7CAF8FBF724FE1B
:10477000FEF7ACFCFEF750FDFEF76EFDFEF7A0FD68
:10478000FBF780FEFBF74AFE054D4FF48054642092
:10479000FBF7A8FE21462846FCF784F8F7E700005F
:1047A00000040258010002000400060008000A008C
:1047B0000C001000200040008000000101010103F6
:1047C00007010000080402040801010100000000C4
:1047D000010203040102030406070809FC4700085C
:1047E00000000020140000004447000810480008A2
:1047F00014000020C40D0000544700080100000010
:1048000010000000000000000090D0030090D003D2
:040000050800029954
:00000001FF
