:0200000490006A
:10000000A03D0524750300905F4B0090D9430090FC
:100010005D4B009099050090575E00900000000035
:10002000000000000000000000000000B502009089
:10003000A90600900000000011030090E15000901C
:100040008F0300908F0300908F0300908F03009028
:100050008F0300908F0300908F0300908F03009018
:100060008F0300908F0300908F0300908F03009008
:100070008F0300908F0300908F0300908F030090F8
:100080008F0300908F0300908F0300908F030090E8
:100090008F0300908F0300908F0300908F030090D8
:1000A0008F0300908F0300908F0300908F030090C8
:1000B0008F0300908F0300908F0300908F030090B8
:1000C0008F0300908F0300908F0300908F030090A8
:1000D0008F0300908F0300908F0300908F03009098
:1000E0008F0300908F030090000000008F030090AA
:1000F0008F0300908F0300908F0300908F03009078
:100100008F0300908F0300908F0300908F03009067
:100110008F0300908F030090C5520090D152009041
:100120008F0300908F0300908F0300908F03009047
:100130008F0300908F0300908F0300908F03009037
:1001400000000000000000000000000000000000AF
:100150008F0300908F0300908F0300908F03009017
:100160008F0300908F0300908F0300908F03009007
:100170008F0300906D4B00908F0300908F030090D1
:100180008F0300908F0300908F0300908F030090E7
:100190008F0300908F0300908F0300908F030090D7
:1001A000094400908F030090790600908F0300901F
:1001B0008F0300908F0300908F0300908F030090B7
:1001C0008F0300908F0300908F0300908F030090A7
:1001D0008F030090614B00908F0300908F0300907D
:1001E0008F0300908F0300908F0300908F03009087
:1001F0008F0300908F0300908F0300908F03009077
:100200008F0300908F0300908F0300908F03009066
:100210008F0300908F0300908F0300908F03009056
:100220008F0300908F0300908F0300900000000068
:100230008F0300908F030090000000008F03009058
:100240008F0300908F0300908F0300908F03009026
:100250008F0300908F0300908F0300908F03009016
:100260008F0300908F0300908F0300908F03009006
:100270008F0300908F0300908F0300900000000018
:100280008F0300908F0300908F0300900000000008
:10029000000000008F030090DFF814D000F03EF95A
:1002A00000F0D0F80048004785E8009000F015F90C
:1002B000A03D05242C4B19680868B0E8F04F80F386
:1002C0000988BFF36F8F4FF0000080F311887047EB
:1002D0000000000008480068006880F308884FF0BC
:1002E000000080F3148862B661B6BFF34F8FBFF38E
:1002F0006F8F00DF00BF00BF08ED00E0DFF80C00EB
:10030000016841F470010160704700BF88ED00E0B2
:10031000EFF30980BFF36F8F134B1A681EF0100FB5
:1003200008BF20ED108A20E9F04F106009B44FF0AB
:10033000500080F31188BFF34F8FBFF36F8F0FF022
:10034000CBFB4FF0000080F3118809BC19680868E6
:10035000B0E8F04F1EF0100F08BFB0EC108A80F329
:100360000988BFF36F8F704720000024EFF30580EA
:10037000704700000648804706480047FEE7FEE752
:10038000FEE7FEE7FEE7FEE7FEE7FEE7FEE7FEE745
:10039000E1510090990200902DE9F05F05460020A0
:1003A00092469B4688460646814640241BE02846E6
:1003B00041464746224600F07BF853465A46C01A4B
:1003C000914110D311461846224600F062F82D1ACA
:1003D00067EB01084F4622460120002100F059F842
:1003E00017EB00094E41201EA4F10104DFDC484652
:1003F00031462A464346BDE8F09F40EA01039B0789
:1004000003D009E008C9121F08C0042AFAD203E089
:1004100011F8013B00F8013B521EF9D27047D2B2ED
:1004200001E000F8012B491EFBD270470022F6E7DD
:1004300010B513460A4604461946FFF7F0FF20465A
:1004400010BD000070B5054C054D03E02068204448
:100450008047241DAC42F9D170BD00008893029002
:10046000989302902DE9F041074615460E4610205C
:100470000EF08AFA04000AD06760C4E9026500F051
:1004800027F80168216004600020BDE8F0810120A8
:10049000FBE7202A04DB203A00FA02F10020704733
:1004A0009140C2F1200320FA03F3194390407047B2
:1004B000202A04DB203A21FA02F00021704721FAB9
:1004C00002F3D040C2F12002914008431946704720
:1004D000004870473C02002470472DE9F041064671
:1004E000FFF7F6FF8046454613E016B1E068B042DC
:1004F0000ED120682860D4E90101D8F8007088473F
:1005000020460EF0C5F8D8F80000B842EBD100E064
:1005100025462C68002CE8D1BDE8F081064C074D3B
:1005200006E0E06840F0010394E8070098471034C3
:10053000AC42F6D3FFF7B4FE489302906893029062
:10054000704770B58C1810F8015B15F0070301D1E6
:1005500010F8013B2A1106D110F8012B03E010F826
:10056000016B01F8016B5B1EF9D12B0705D4002349
:10057000521E0DD401F8013BFAE710F8013BCB1AEB
:10058000921C03E013F8015B01F8015B521EF9D5E0
:10059000A142D8D3002070BDFEE700002E4B002200
:1005A00070B51C6824F001041C602C4C2368C3F354
:1005B0000B150123A5F54066243E0ED02568C5F332
:1005C0000B15A5F54066273E07D02468C4F30B142D
:1005D000A4F55065223D2BD017E0214A1268A2B93C
:1005E000204A14684FF08A45B5EB045F18D01468B0
:1005F000C4F30B04A4F58065833D11D01268C2F3E7
:100600000B02A2F58064853C0AD0174A9360936878
:10061000002BFCD11060106888421BD0002070BDF8
:10062000124A13601368002BFCD1104A083AF1E714
:100630000F4C2468C4F30B04A4F58065863D01D0FB
:10064000104670BD0B4A13601368002BFCD1094A99
:10065000083ADFE7012070BD002000E000ED00E077
:10066000002004E00010005C00300240084C0258FA
:10067000F08F0046084C02460948416889070ED5AC
:10068000016889050BD5016821F400710160022120
:1006900081600448006840680168496908477047FC
:1006A0000010005224020024704772B6FEE7F0B535
:1006B0001F2305460020CC0717D001265B1E05D35B
:1006C00003F01F0706FA07F40C42F7D07AB1082AA4
:1006D00009D0102A04D0182A07D1072B05D206E02A
:1006E000082B02D203E0102B01D30120F0BD00281B
:1006F000FCD12B68596129688B6823F018031343D8
:100700008B60F0BD10B5040010D0607F20B90020D0
:100710002077204600F030F802206077207938B149
:10072000D4E902122046FFF7C2FF48B1012010BDF4
:100730002168104848612068816821F018018160B3
:100740006079A0B1206921680861206881686269C8
:1007500021F060011143816020688168A26921F065
:1007600080011143816001206077002010BD4FF0AF
:10077000FF30E8E7B71DC10408B5006806498842A4
:1007800008D10648016841F400210160006800F4C6
:100790000020009008BD0000004C0258E0440258C0
:1007A000F0B590F86020012A20D0012780F8607011
:1007B000022280F86120C1EBC10200EB8202138E9D
:1007C000D56A948F45EA0346138F28321B0543EA06
:1007D0004453224C1E430A2D0AD0092D08D0137B06
:1007E00046EA036349B10B2D1AD01DE00220F0BD8B
:1007F000D36803F07F433343F4E701684D6AA543B0
:100800001D434D6203681168996151680A2901D03E
:1008100009291BD1D168026821F07F41916215E05E
:10082000118B0F4C43EA81430168CD69A5431D43F9
:10083000CD6103681168196151680A2901D009293D
:1008400004D1D168026821F07F41116280F86170A3
:10085000002180F860100846F0BD00000F0033FF53
:100860000F003FFF70B5040004D094F8610000252C
:1008700010B106E0012070BD204684F8605000F001
:1008800031F8022084F861006168E0690143206862
:100890000268134B1A4011430160A168A06901432B
:1008A0002068426B40F207139A431143416320686A
:1008B000016CE2686FF30F0111430164208AA18A81
:1008C000000540EA41512068426B22F44012114376
:1008D00041636566012084F86100002070BD00005E
:1008E000BFFFF8FF08B500680B49884212D10B48DA
:1008F000016841F01001016000680022114600F01B
:10090000100000905A2000F01DFEBDE808405A205B
:1009100000F00ABE08BD000000100052D444025886
:1009200070B5044600F014F90546601C02D0044876
:100930000078044400F00CF9401BA042FAD370BDCB
:100940000C0000242DE9F84F694C00224FF0B04A0A
:100950004FF0010B4FF003084FF00F09C0E00BFA06
:1009600002F6334073D00D7905F00305012D01D057
:10097000022D15D18768550008FA05FC27EA0C07F7
:10098000D1F80CC00CFA05FC4CEA070CC0F808C002
:100990004568B5430E79C6F3001696402E4346606F
:1009A0000D79ED43AD0708D0C668550008FA05F784
:1009B000BE438F68AF403743C7600D7905F003052C
:1009C000022D11D1D50800EB85073E6A5507ED0EC3
:1009D00009FA05FC26EA0C06D1F810C00CFA05FC51
:1009E0004CEA060CC7F820C00668550008FA05F75F
:1009F000BE430F7907F00307AF40374307604D68E8
:100A000015F4403F6BD03B4D2E6846F002062E6039
:100A10002D6822F0030606F1B04605F002050095A8
:100A2000D6F8087495074FEA157C09FA0CF5AF4320
:100A3000314DA84201D100252EE0304DA84201D110
:100A4000012529E02E4DA84202D1022524E046E0EE
:100A50002C4DA84201D103251EE02B4DA84201D107
:100A6000042519E0294DA84201D1052514E0284D9F
:100A7000A84201D106250FE0264DA84201D1072545
:100A80000AE0254DA84201D1082505E0234DA842E2
:100A900001D1092500E00A2505FA0CF53D43C6F809
:100AA0000854DAF8005056464F689D43FF0200D5BF
:100AB0001D43356075684F689D43BF0200D51D43D7
:100AC000756065684E689D43B60300D51D4365603B
:100AD00025684E689D43F60300D51D432560521CD2
:100AE0000B6833FA02F57FF43AAFBDE8F88F0000E7
:100AF00080000058F44402580000025800040258D4
:100B000000080258000C0258001002580014025845
:100B100000180258001C02580020025800240258F5
:100B20000069084000D001207047426921EA0203B1
:100B30000A4043EA0241816170470AB1816170470E
:100B40000904FBE701480068000C70470010005CD6
:100B500001488068704700000C000024704770470F
:100B600070472DE9F04104460068064605F00BF891
:100B7000012876D1206805F0C4F8002871D02068DB
:100B800005F0BFF8800203D521684FF400104861DA
:100B9000206805F0B6F8C00203D521684FF4801034
:100BA0004861206805F0ADF8400103D521684FF099
:100BB00080604861206805F0A4F8800702D52168AC
:100BC00002204861206805F09CF8800018D5216853
:100BD0004FF000504861D6F84004C00710D11021F2
:100BE000304604F0A5FF304604F086FF607A022804
:100BF00003D12068012105F038F82046FFF7AFFF48
:100C0000206805F07EF8C00102D5204603F056FBAF
:100C1000206805F076F8000705D5204600F043F877
:100C2000216808204861206805F06BF8800123D511
:100C3000206805F016F8002507464FF0010814E07B
:100C400005F00F0108FA01F038420DD006EB45100F
:100C5000D0F80005E9B20004204603D502F0FCFFFD
:100C600002E01CE003F0B7F96D1C6079A842E7D8F8
:100C700021684FF000704861206805F042F8C043D9
:100C8000C0060CD42068816921F0100181612046E2
:100C900003F05EFB2068816941F010018161BDE8CD
:100CA000F08170477047704790F84120202A24D186
:100CB00090F84020012A20D0012280F840202422F0
:100CC00080F841200268136823F001031360026872
:100CD000136823F480531360026813680B43136096
:100CE00001680A6842F001020A60202180F8411080
:100CF000002180F84010084670470220704790F8A5
:100D00004120202A22D190F84020012A1ED0012221
:100D100080F84020242280F841200268136823F0E4
:100D2000010313600268136823F4706343EA01212E
:100D3000116001680A6842F001020A60202180F80F
:100D40004110002180F8401008467047022070478B
:100D500070B5040004D094F84100002510B106E0FD
:100D6000012070BD204684F8405000F04FF8242048
:100D700084F841002068016821F0010101602168C8
:100D8000606820F0706008612068816821F400418B
:100D90008160E0680128A06830D040F404402168F8
:100DA0008860E0680228206841682AD021F4006148
:100DB000416020684168144A114341602068C1685D
:100DC00021F40041C160D4E904010843A16940EA6B
:100DD00001202168C860D4E9070108432168086040
:100DE0002068016841F0010101606564202084F8F9
:100DF0004100256384F84250002070BD40F400405B
:100E0000CDE741F40061D3E700800002F0B5B7B050
:100E10000446142130A8FFF709FBC0216846FFF7FC
:100E200005FB3849122620680427374C00258842E4
:100E30003AD1002021950821CDE90010684601F043
:100E400007F808B1FFF731FC206840F0040020608B
:100E5000206800F004003590206840F00100206018
:100E6000206830A900F0010035904FF400703090F8
:100E7000CDE931652548CDE93357FFF763FD4FF4E0
:100E800080703090CDE93165214830A9CDE93357E4
:100E9000FFF758FD1C480830016841F4000101606B
:100EA000006800F4000029E01A49884227D1002197
:100EB00026951020CDE90001684600F0C9FF08B171
:100EC000FFF7F3FB206840F008002060206830A99D
:100ED00000F0080035904FF440503090CDE9316576
:100EE0000D48CDE93357FFF72DFD07481430016851
:100EF00041F080010160006800F08000359037B05B
:100F0000F0BD0000005C0040E044025800080258B8
:100F100000000258001C0058000C0258024881686A
:100F200002781144816070470C000024032010B542
:100F300000F028FB01F00EFE0F4A11681268C1F3A1
:100F400003230E49CB5C03F01F03D84002F00F02CD
:100F5000895C0B4A01F01F0120FA01F11160094977
:100F60000860002000F010F808B1012010BD00F06A
:100F7000C9FA002010BD000018440258B80B0190B7
:100F80001C0000241800002410B5102804468AB064
:100F90002CD200220146372000F0D4FA372000F08E
:100FA000C3FA174804601748016841F02001016046
:100FB000006809A900F020000890684601F054FD7F
:100FC0000598B0B101F0A2FD40000F490F4AB0FBF7
:100FD000F1F10F48026040F2E732491E4160002102
:100FE000C0E90321816002F0DFFB28B101200AB0D3
:100FF00010BD01F08BFDE8E7054802F025FCF6E79F
:1010000010000024E844025840420F000014004041
:1010100098C504242DE9F041044690F8A000154637
:101020000F4601281DD0012684F8A060022084F814
:10103000A10005EB850000EBC500342204EB800025
:101040003830FFF7DAF92A463946204603F0E2F94C
:101050002068466284F8A160002084F8A000BDE802
:10106000F0810220FBE770472DE9F041044600685B
:10107000856B466B4FF004084FF00007690715D5E4
:10108000710713D5416B21F0040141632168C1F858
:101090003C80D4F8A41041F00101C4F8A41084F8F5
:1010A000A180204684F8A070FFF7DDFFA80716D5C1
:1010B000B00714D52068416B21F00201416321681B
:1010C0000220C863D4F8A40040F00200C4F8A400D1
:1010D00084F8A180204684F8A070FFF7C4FF05EAD9
:1010E00006004FF00108C0070ED02068416B21F0C8
:1010F000010141632168C1F83C8084F8A180204649
:1011000084F8A07000F090F8280710D530070ED5AD
:101110002068416B21F00801416321680820C86301
:1011200084F8A180204684F8A07000F09FF9BDE803
:10113000F081000070B5040004D094F8A1000025EF
:1011400010B106E0012070BD204684F8A05000F0E8
:10115000A3F8022084F8A1002068816921F0704181
:101160008161D4E901100143D4E903021043014332
:1011700020688269114381612068826829490A4098
:101180008260A08A020420688368A66933431343FF
:1011900083602068C2680A40C260A08B0204206895
:1011A000C368266A33431343C360206802690A4058
:1011B0000261A08C020420680369A66A33431343CA
:1011C0000361206842690A404261A08D01042068E1
:1011D0004269236B1A430A43426194F835000202C4
:1011E00094F8360001042068C36A03F07F43C362A9
:1011F0002068C36A114394F8346033430B43C362DD
:101200002068416B41F0060141632068816941F02B
:1012100001018161C4F8A450012084F8A1000020DC
:1012200070BD000000F800F010B5184C21680029CE
:101230002AD017490B6C174A11888B4215D1518857
:1012400000F0F2F8206890F86A10491C80F86A10E3
:10125000002180F87C1005F09BFA206806F04EFD16
:10126000BDE81040002007F022BC00F0DDF8246843
:101270002068016A20468847012084F87C00BDE888
:101280001040002007F015BC10BD0000240200240F
:1012900000100050AC0000242DE9F043B7B0044624
:1012A000142130A8FFF7C2F8C0216846FFF7BEF846
:1012B000DFF85881216841457ED100214FF0005070
:1012C0000E460225CDE9000101200A900620CDE955
:1012D0000B050F20CDE90D504FF440600F90280210
:1012E000CDE91001684600F0B3FD08B1FFF7DDF964
:1012F0004748016841F008010160006800F00800FB
:1013000035904348001F016841F004010160016805
:1013100001F004013591016841F0010101600168AB
:1013200001F001013591016841F00201016001689D
:1013300001F002013591016841F01001016001687E
:1013400001F010013591016841F008010160006869
:1013500030A90E2700F008003590C12081E8610017
:1013600003242C48CDE93347FFF7ECFA30A9782065
:1013700081E861002848CDE93347FFF7E3FA30A858
:10138000DFF8989030A980E870000920CDE933405B
:101390004846FFF7D7FA30A94FF4784081E861005A
:1013A0001F48CDE93347FFF7CDFA30A94FF47060FD
:1013B00081E86100484600E025E0CDE93347FFF7CA
:1013C000C1FA30A94FF4816081E861001548CDE988
:1013D0003347FFF7B7FA00220521582000F0B2F892
:1013E000582000F0A1F84FF4F271C8F84010D8F876
:1013F000341041F00101C8F83410D8F8241041F03D
:101400000201C8F8241037B0BDE8F0830010005086
:10141000E444025800080258000002580004025830
:1014200000100258000C025810B590F8A020012AB4
:1014300018D0012380F8A030022280F8A12050F8B3
:10144000A02B546B24F001045463074A116450F834
:10145000A01C4A6B42F001024A63437000210170F4
:10146000084610BD022010BD00100050704700005B
:10147000134A41781160124908310A6822F00102CA
:101480000A600B1F42681A60027BC37A120742EAA5
:101490000362837A42EAC342437B42EA8342837B0C
:1014A00042EA4342C37B42EA0342437A42EA0322CE
:1014B000037A007842EA430202430A607047000060
:1014C00098ED00E0BFF35F8F0448016821F480319C
:1014D00001600249002070310860704724ED00E08F
:1014E000074940F00100086005487038016841F480
:1014F00080310160BFF34F8FBFF36F8F70470000E3
:1015000094ED00E0074882B0016841F002010160FB
:10151000006800220F2100F002000090901E02B02F
:1015200000F010B8F4440258002809DB012100F053
:101530001F0291404009800000F1E020C0F8001136
:10154000704700000E4BF0B41B68C3F30223C3F1D5
:101550000704042C00D904241D1D072D01D20023EB
:1015600000E0DB1E012606FA04F56D1E0D409D40CD
:101570009E40761E164045EA0601F0BC0CF0E6BF20
:101580000CED00E0064A00F0070110684FF6FF037B
:10159000184040EA012003490843106070470000EA
:1015A0000CED00E00000FA05704770477047704787
:1015B00070470A0601F00F0101EBC10100EB810148
:1015C00001D5143101E001F51571006804F046BA47
:1015D0002DE9F84F05680446284604F0D4FA00289F
:1015E0007DD1206804F08DFB002878D0D5F808085C
:1015F000C0F30D20C4F8D404206804F082FB8007F7
:1016000004D52068416901F002014161206804F0BD
:1016100078FBC10604F29C40009034D520688169B3
:1016200021F0100181612F6A07F00F0000EBC0006C
:1016300004EB8006C7F34340022806F5157602D076
:10164000062811D01AE047F6F070074216D0C7F30B
:101650000A12F1681746284604F057FBF068384430
:10166000F0607069384408E000990822284604F0C8
:101670004CFB7069C7F30A110844706120688169E6
:1016800041F010018161206804F03BFB00034FF042
:10169000010A7AD52068002604F012FBDFF8B0B406
:1016A00080466FE05FEAC87069D02068F1B204F04C
:1016B00020FB0746C00707D005EB4611C1F808AB71
:1016C0003146204603F058FA380722D505EB46117B
:1016D0000820C1F8080B2068D0F8409000E035E2FF
:1016E00000EB4610D0F8082BD94505D9110403D5D5
:1016F0004FF40041C0F8081B204600F030FAD945ED
:1017000007D9A079012804D120680121009A04F0AA
:1017100079F9F80604D505EB46111020C1F8080B3D
:10172000B8071DD56869000605D5D5F8040840F44A
:101730008061C5F8041806EBC60004EB800090F841
:10174000571200F51570012905D10021C1702046FE
:10175000F1B200F000FA05EB46110220C1F8080BC7
:10176000B80604D505EB46102021C0F8081BB804C4
:1017700005D505EB46104FF40051C0F8081B761C48
:101780004FEA5808B8F1000F8CD1206804F0B9FA7C
:1017900040036DD5206804F08CFA0026804664E092
:1017A0005FEAC8705ED02068F1B204F090FA074694
:1017B000C00723D006F00F020AFA02F0D5F8342849
:1017C0008243C5F8342805EB4610C0F808A9A07973
:1017D00001280FD106EBC60004EB8000D0E90721F9
:1017E0001144016236B9606A20B920680121009A6B
:1017F00004F008F92046F1B2FFF7D8FE380704D507
:1018000005EB46110820C1F80809F80604D505EBD8
:1018100046111020C1F80809780604D505EB4610DA
:101820004021C0F80819B80716D53146284604F0FB
:101830007FF906EBC60004EB8000C17D143001295E
:1018400005D10021C1702046F1B200F083F905EB0B
:1018500046110220C1F80809380603D53146204652
:1018600003F0F0F9761C4FEA5808B8F1000F97D151
:10187000206804F046FA002811DAD5F8040820F0B0
:101880000101C5F8041894F8CC0401283BD0204687
:1018900000F063F92068416901F00041416120686E
:1018A00004F02FFA00050BD5D5F80808C00702D0C0
:1018B000204600F055F92068416901F4006141615A
:1018C000206804F01EFA00010AD52068416901F081
:1018D0000061416194F8CC04E8B1204600F040F981
:1018E000206804F00EFAC00474D5D5F8040820F07E
:1018F0000101C5F804182068102104F019F900212D
:101900004FF67F322DE0002084F8CC0401462046BB
:10191000FFF74AFEBEE784F8CCA42068406D0121A1
:10192000C0F38300C4F8D0042046FFF73DFED7E79C
:1019300005EB4110C0F80829D0F8003923F4001352
:10194000C0F80039C0F8082BD0F8003B23F400138E
:10195000C0F8003BD0F8003B43F00063C0F8003B08
:10196000491C20798842E3D8D5F81C0840F00111C1
:10197000C5F81C18E07B002828460DD0D0F8840854
:1019800040F00B01C5F88418D5F8440840F00B016D
:101990002846C5F844180DE0D0F8140842F22B018F
:1019A0000843C5F81408D5F8100840F00B01284684
:1019B000C5F81018D0F8000820F4FE61C5F800182A
:1019C000A1792068009A04F01DF82068416901F4AB
:1019D00080514161206804F094F9800415D5206895
:1019E00004F001F8206804F0C1F8E07101F06CF82F
:1019F000E2790146206804F0A7F9204600F0ACF82F
:101A00002068416901F400514161206804F079F9CE
:101A1000000707D5204600F0A1F82068416901F0D1
:101A200008014161206804F06CF9000615D5A86929
:101A300020F08001A96101260CE006EBC60004EB52
:101A4000800090F85702012803D12046F1B2FFF739
:101A5000B0FD761C2079B042EFD8206804F051F92F
:101A6000C0021FD50126574614E005EB4610D0F8FA
:101A7000001906EBC60004EB8000027E012A08D1A3
:101A8000002906DAC775F0B240F080012046FFF762
:101A900090FD761C2079B042E7D82068416901F4B6
:101AA00080114161206804F02CF9800231D50120B9
:101AB000534626E005EB4011D1F8001B00EBC002B5
:101AC00004EB820292F85862012E19D1002917DA2C
:101AD00094F8D46401F4803106F00106B1420FD1CC
:101AE00082F85732A96941F08002AA616969090642
:101AF00006D4D5F8040840F40070C5F8040803E0E3
:101B0000401C21798142D5D82068416901F4001137
:101B10004161206804F0F5F8400007D52046FFF742
:101B200044FD2068416901F080414161206804F072
:101B3000E8F840070AD520684568680702D52046BE
:101B4000FFF736FD2068416829434160BDE8F88F02
:101B50000A30544F7047704770477047704770475E
:101B600070470000124970B50A68D243520705D584
:101B7000096801F00701814212D117E00A6822F0DA
:101B8000070202430A60FEF7E3FF094D4FF47A763D
:101B90000446083D06E0FEF7DBFF001BB04201D91A
:101BA000012070BD2868C0438004F4D4002070BDBB
:101BB0000C48025810B500F087FF05490968054A2E
:101BC000C1F30211515C01F01F01C84010BD0000BB
:101BD00020440258B80B0190484910B50A680968BA
:101BE00002F00302454B1B1DC1F305311B68434C3A
:101BF0001434C3F300132468C4F3CC0414FB03F3BC
:101C000000EE103AB8EE400AE9B33C4B9FED3C1AA7
:101C10001033F7EE000A62B1DFED3A1A012A01D063
:101C2000022A5ED002EE101AF8EE422A81EEA22AB3
:101C30001AE0324A283A1468A4060DD51268C2F395
:101C4000C104314AE24001EE902AF8EE612A01EE29
:101C5000901AF8EE611A05E001EE901ADFED2B2ADA
:101C6000F8EE611A82EEA12A1968C1F3080101EEAB
:101C7000901A1968F8EE611A40EE011A31EEA00AC6
:101C800022EE000A00E033E0C1F3462101EE101A13
:101C9000B8EE411A31EE201AC0EE011ABCEEE11A7C
:101CA00080ED001A1968C1F3064101EE101AB8EE72
:101CB000411A31EE201AC0EE011ABCEEE11A80ED95
:101CC000011A1968C1F3066101EE101AB8EE411A43
:101CD00071EE200A80EE201ABCEEC10A80ED020AE5
:101CE00010BD01EE901ADFED0A2AF8EE611AB9E78D
:101CF000002101604160816010BD0000284402584D
:101D0000000000390024744A0090D0030024744C71
:101D100020BCBE4B484910B50A68096802F00302AE
:101D2000454B1B1DC1F305511B68434C1C34C3F3C9
:101D300000232468C4F3CC0414FB03F300EE103A30
:101D4000B8EE400AE9B33C4B9FED3C1A1833F7EE6E
:101D5000000A62B1DFED3A1A012A01D0022A5ED0F0
:101D600002EE101AF8EE422A81EEA22A1AE0324A56
:101D7000283A1468A4060DD51268C2F3C104314A8A
:101D8000E24001EE902AF8EE612A01EE901AF8EE98
:101D9000611A05E001EE901ADFED2B2AF8EE611AC8
:101DA00082EEA12A1968C1F3080101EE901A1968A0
:101DB000F8EE611A40EE011A31EEA00A22EE000A96
:101DC00000E033E0C1F3462101EE101AB8EE411AEB
:101DD00031EE201AC0EE011ABCEEE11A80ED001AB5
:101DE0001968C1F3064101EE101AB8EE411A31EE3E
:101DF000201AC0EE011ABCEEE11A80ED011A196832
:101E0000C1F3066101EE101AB8EE411A71EE200A14
:101E100080EE201ABCEEC10A80ED020A10BD01EE70
:101E2000901ADFED0A2AF8EE611AB9E70021016085
:101E30004160816010BD0000284402580000003954
:101E40000024744A0090D0030024744C20BCBE4B84
:101E50002DE9FC5F044600680025FA4FC043DFF817
:101E6000E8832E46010104F10800019004F12800E6
:101E700000901DD4A06E50B1B0F5801F0CD0B0F50D
:101E8000001F0ED0B0F5401F1ED001250FE03868AE
:101E900040F40030386017E00198022102F02CFF76
:101EA00003E00098022102F0B1FF05000CD02E469D
:101EB0002088C043C00523D4A06D05281ED2DFE8CA
:101EC00000F00C11161B1B00D8F80010A26E21F4B4
:101ED00040111143C8F80010EAE7386840F40030B8
:101EE000386009E00198002102F006FF03E0009845
:101EF000002102F08BFF054675B100E001252E465A
:101F00002088C043800528D4E06D80281ED00CDCDA
:101F100090B140280ED114E0D8F80010A26D21F045
:101F200007011143C8F80010EAE7C02813D0B0F544
:101F3000807F10D001250FE0386840F40030386011
:101F400009E00198002102F0D7FE03E0009800218B
:101F500002F05CFF05468DB12E462088DFF8EC923A
:101F6000C04340052CD4D4F8A800B0F5800F20D091
:101F70000DDCA0B1B0F5001F0FD115E0D8F80010AE
:101F8000E26D21F4E0711143C8F80010E5E7B0F507
:101F9000C00F13D0B0F5000F10D001250FE0386846
:101FA00040F40030386009E00198002102F0A4FEFE
:101FB00003E00098002102F029FF05467DB12E467E
:101FC0002088C04300052DD4D4F8AC00B0F1007FC8
:101FD00021D00EDCA8B1B0F1807F10D116E0D9F885
:101FE0000010D4F8A82021F460011143C9F80010B2
:101FF000E6E7B0F1407F13D0B0F1806F10D001253B
:102000000FE0386840F40030386009E001980021A2
:1020100002F072FE03E00098002102F0F7FE054690
:1020200075B12E462068C04380011FD4E06CD8B142
:1020300010280FD0202812D0302815D0012514E008
:10204000D9F80010D4F8AC2021F0E0611143C9F8B0
:102050000010E7E7386840F40030386004E0019889
:10206000022102F049FE054675B12E462088C04384
:10207000C0042BD4206EB0F5005F20D00DDCA0B1E1
:10208000B0F5805F0FD115E06F48001F0168E26C6A
:1020900021F0300111430160E8E7B0F5405F13D053
:1020A000B0F5804F10D001250FE0386840F40030C3
:1020B000386009E00198002102F01EFE03E000985C
:1020C000002102F0A3FE05468DB12E462088C043B4
:1020D000800429D4606EB0F5403F23D010DC08B3F3
:1020E000B0F5803F14D0B0F5003F0FD115E0D8F81F
:1020F0000010226E21F4E0411143C8F80010E5E71A
:10210000B0F5802F0ED0B0F5A02F0BD001250AE03E
:102110000198012102F0F0FD03E00098012102F096
:1021200075FE054695B12E462088C04340042AD44A
:10213000D4F8B000B0F1405F23D010DC08B3B0F1A8
:10214000805F14D0B0F1005F0FD115E0D8F8001017
:10215000626E21F4E0211143C8F80010E4E7B0F109
:10216000804F0ED0B0F1A04F0BD001250AE00198AE
:10217000012102F0C1FD03E00098012102F046FEBA
:10218000054675B12E462088C04300041FD4206F39
:10219000D8B1B0F1805F0ED0B0F1005F10D0012552
:1021A00014E0D9F80010D4F8B02021F0E041114338
:1021B000C9F80010E7E7386840F40030386004E000
:1021C0000198012102F098FD054675B12E46206860
:1021D000C043C0011ED4A06CD0B101280ED002288B
:1021E00011D0032814D0012513E0D8F80010226F75
:1021F00021F040511143C8F80010E8E7386840F476
:102200000030386004E00198022102F075FD0546B7
:102210007DB12E462068DFF838B0C043400256D466
:102220000C48016841F480710160FEF791FC824620
:1022300018E00548001F0168A26C21F0030111435A
:102240000160E7E72C4402585044025858440258B1
:102250001044025800480258FEF77AFCA0EB0A002E
:1022600064282CD8FE480068C005F5D545BBFD485C
:102270000068B4F8B41000F4407001F44071884272
:102280000CD0F8480168026821F4407142F48032B1
:102290000260026822F4803202600160D4F8B40067
:1022A000B0F5807F1AD1FEF753FC824609E0FEF7B5
:1022B0004FFCA0EB0A0141F28830814201D903258D
:1022C00004E0E84800688007F1D53DB12E4620784B
:1022D000DFF894A3C043C00720D03BE0D4F8B4009B
:1022E000C0F3012103290ED0DBF8001021F47C514A
:1022F000CBF80010DB480168B4F8B420C2F30B023D
:1023000011430160E3E7DBF80020D84B22F47C5254
:1023100003EA10100243CBF80020EBE7E06F182827
:1023200016D005DCA0B1082808D0102804D10AE096
:1023300020280DD028280BD001250AE00198012182
:1023400002F0DAFC03E00098012102F05FFD05468F
:1023500065B12E462078C04380071ED4A06F0628A2
:1023600019D2DFE800F0160C11161616DAF8001074
:10237000E26F21F038011143CAF80010EAE7019832
:10238000012102F0B9FC03E00098012102F03EFDBA
:1023900005467DB100E001252E462078C043400768
:1023A0001FD4D4F89400062819D2DFE800F0160CE8
:1023B00011161616DAF80010A26F21F0070111436A
:1023C000CAF80010E9E70198012102F095FC03E04A
:1023D0000098012102F01AFD0546A5B100E0012593
:1023E0002E462078C04380062BD4D4F89000B0F15C
:1023F000405F24D011DC10B3B0F1805F15D0B0F194
:10240000005F10D116E0D9F80010D4F8942021F024
:1024100007011143C9F80010E3E7B0F1804F0ED077
:10242000B0F1A04F0BD001250AE00198002102F085
:1024300063FC03E00098022102F0E8FC054695B138
:102440002E462078C04340062BD4D4F89C00B0F52B
:10245000406F24D011DC10B3B0F5806F15D0B0F50B
:10246000006F10D116E0DAF80010D4F8902021F0B7
:10247000E0411143CAF80010E3E7B0F5805F0ED0E9
:10248000B0F5A05F0BD001250AE00198002102F011
:1024900033FC03E00098022102F0B8FC054695B138
:1024A0002E462078C04300062BD4D4F8A000B0F507
:1024B000C04F24D011DC10B3B0F5005F15D0B0F5DB
:1024C000804F10D116E0D9F80010D4F89C2021F4E8
:1024D000E0511143C9F80010E3E7B0F5004F0ED00A
:1024E000B0F5204F0BD001250AE00198002102F041
:1024F00003FC03E00098022102F088FC054655B178
:102500002E462078C04300071ED4D4F88400B0F5CE
:10251000805F0AD00FE0D9F80010D4F8A02021F491
:1025200060411143C9F80010EBE70098022102F066
:102530006DFC00B10126DAF80010D4F8842021F4F3
:1025400040511143CAF800102078C043C00613D48C
:10255000D4F89800B0F5807F05D10098022102F0F0
:1025600055FC00B10126D9F80010D4F8982021F4C8
:1025700040711143C9F800102068C043000316D40D
:10258000D4F8A40038B1B0F5803F09D0B0F5003FD1
:102590000BD001250AE00198002102F0ADFB03E019
:1025A0000098022102F032FC05468DB12E462068CB
:1025B000C043400322D4D4F88800B0F5801F11D066
:1025C000B0F5001F13D0B0F5401F15D0012514E061
:1025D000D9F80010D4F8A42021F440311143C9F8EF
:1025E0000010E4E7386840F40030386004E00098F8
:1025F000012102F00BFC05465DB12E462068C04368
:10260000C0031CD4206D70B1B0F5803F10D00125FF
:1026100014E0DAF80010D4F8882021F440111143B6
:10262000CAF80010EAE7386840F40030386004E087
:102630000198022102F060FB05462DB32E4620686A
:10264000C043800005D40098022102F0DFFB00B1F6
:1026500001262068C043800324D4D4F8800007E01A
:10266000004802587044025854440258CFFFFF00FB
:10267000B0B1B0F5807F0FD0B0F5007F10D0B0F5CD
:10268000407F0DD001250CE05A480168226D21F4ED
:10269000803111430160D2E7386840F4003038607F
:1026A000F5B32E462068C043C00207D4D8F8001006
:1026B000626F21F000411143C8F800102068C04348
:1026C000C00008D4DBF80010D4F8B82021F4804111
:1026D0001143CBF800102068C043800207D4D8F81B
:1026E0000010E26E21F080711143C8F800102068DC
:1026F000C04340000CD4DBF8001021F40041CBF8BB
:102700000010DBF80010D4F8BC201143CBF8001007
:102710002068C04308D43748016821F0405100E0E8
:1027200017E0626D114301602068C043000208D4C5
:10273000DAF80010D4F88C2021F440011143CAF8D3
:10274000001020790025C04300F0010028430AD082
:102750000FE0DAF80010D4F8802021F44071114322
:10276000CAF800109EE70198002102F0C5FA00B1F6
:1027700006462079C04300F00200284305D10198A5
:10278000012102F0B9FA00B106462079C04300F0F9
:102790000400284305D10198022102F0ADFA00B1EE
:1027A00006462079C04300F00800284305D1009870
:1027B000002102F02BFB00B106462079C04300F057
:1027C0001000284305D10098012102F01FFB00B141
:1027D00006462079C04300F02000054304D100984C
:1027E000022102F013FB00B916B10120BDE8FC9FE5
:1027F0000020FBE74C4402582DE9F05F04000D4631
:102800007ED0DFF84492D9F8000000F00F00A84213
:102810000CD2D9F8001021F00F012943C9F800109B
:10282000D9F8000000F00F00A84269D12078874E47
:1028300040070AD52069316801F07001884204D947
:10284000316821F07001014331602078DFF80082A7
:1028500000070CD560694146D8F8002002F07002EC
:10286000904204D90A6822F0700202430A6020787C
:10287000C0060CD5A0694146D8F8002002F4E062F9
:10288000904204D90A6822F4E06202430A60207888
:10289000DFF8C0B180060CD5E0695946DBF80020AE
:1028A00002F07002904204D90A6822F070020243DA
:1028B0000A60207880070AD5E068316801F00F01CE
:1028C000884204D9316821F00F010143316020783A
:1028D000C0073DD03068A16820F4706008433060C4
:1028E0005A4960681839022818D0032819D0096895
:1028F000012819D04907002949DADFF850A100E082
:1029000045E0AAF1080ADAF8001021F007010143B6
:10291000CAF80010FEF71CF9074611E009688903A0
:10292000E9E709688901E6E7C905E4E7FEF710F978
:10293000C11B41F28830814202D90320BDE8F09FDB
:10294000DAF80000616800F03800B0EBC10FEDD19B
:10295000207880070AD5E068316801F00F018842CD
:1029600004D2316821F00F0101433160D9F8001021
:10297000484601F00F01A9420BD9016821F00F016F
:1029800029430160006800F00F00A84201D0012037
:10299000D4E7207840070AD52069316801F070013A
:1029A000884204D2316821F07001014331602078FF
:1029B00000070CD560694146D8F8002002F070028B
:1029C000904204D20A6822F0700202430A60207822
:1029D000C0060CD5A0694246D8F8001001F4E061A9
:1029E000884204D2116821F4E0610143116020782B
:1029F00080060CD5E0695946DBF8002002F0700231
:102A0000904204D20A6822F0700202430A6000F089
:102A1000A1F83168C1F303220F498A5C02F01F025A
:102A2000D040326802F00F02895C0C4A01F01F01AD
:102A300020FA01F111600A4908600A480068BDE8FF
:102A4000F05FFEF7A1BA00000020005218440258BF
:102A50001C44025820440258B80B01901C0000246A
:102A600018000024100000243F220260144A12685B
:102A700002F007024260124A0832136803F47063DE
:102A80008360136803F00F03C360126802F07002E2
:102A900002610B4A0C32136803F070034361126841
:102AA00002F4E0628261064A1032126802F070029B
:102AB000C2610448006800F00F0008607047000021
:102AC000104402580020005200B500F043F80B4AB1
:102AD00011681268C1F303230949CB5C03F01F039B
:102AE000D84002F00F02895C064A01F01F0120FA6B
:102AF00001F11160044A1060084600BD18440258F4
:102B0000B80B01901C0000241800002400B5FFF74A
:102B1000DBFF05490968054AC1F30211515C01F068
:102B20001F01C84000BD00001C440258B80B0190B2
:102B300000B5FFF7C9FF05490968054AC1F302213D
:102B4000515C01F01F01C84000BD00001C44025848
:102B5000B80B0190434830B50068444C10F0380180
:102B6000414808D00211082903D010290BD0182998
:102B70000BD0104630BD21688906FBD52168C1F312
:102B8000C101C84030BD3A4830BD364918310A68E5
:102B9000096802F00302334B1C33C1F305111B68B3
:102BA000304D03F0010324352D68C5F3CC0515FB2A
:102BB00003F300EE103AB8EE400AE9B3294BDFED1B
:102BC0002D0A2033B7EE001A62B1DFED2B1A012A6D
:102BD00001D0022A3CD002EE101AF8EE422A81EE11
:102BE000A22A17E0226892060CD52268C2F3C1021D
:102BF000D04001EE900AF8EE612A01EE901AF8EE4C
:102C0000611A05E001EE901ADFED1C2AF8EE611A58
:102C100082EEA12A1868C0F3080001EE900A186835
:102C2000F8EE611A40EE201A31EE810A22EE000A17
:102C3000C0F34620401C00E011E000EE900AF8EEE0
:102C4000600A80EE201ABCEEC10A10EE100A30BDF8
:102C500001EE901ADFED0A2AF8EE611AD8E700209B
:102C600030BD0000104402580090D00300440258C8
:102C700040787D01000000390024744A0024744C1F
:102C800020BCBE4B2DE9F05F040079D02078DFF83E
:102C9000F8A3FE4EFE4DC00747D0DAF800003168B9
:102CA00000F03800102815D0182803D101F00300D7
:102CB00002280FD06068B0F5803F12D010B1B0F597
:102CC000A02F18D0286820F480302860286820F4CD
:102CD000802009E02868800327D560680028D4D0C8
:102CE00023E0286840F480302860606888B1FDF7F0
:102CF0002FFF074609E0286840F480202860F0E7AD
:102D0000FDF726FFC01B642872D828688003F7D51A
:102D10000BE0FDF71DFF074604E0FDF719FFC01BA0
:102D20006428F1D828688003F7D4207841F2030999
:102D3000D84F800766D5DAF80000316810F0380007
:102D40000ED0182801D188070AD0E06880B329681E
:102D500021F0190101432960FDF7FAFE80462EE0BB
:102D60002868400702D5E06800288ED02868E1680E
:102D700020F0190008432860FDF7EAFE804606E0CF
:102D8000D8E0FDF7E5FEA0EB08000228BCD82868D3
:102D90004007F6D5FDF7D6FE48451AD820694028E9
:102DA00011D0396821F47C3141EA0030386029E0E3
:102DB00016E0FDF7CDFEA0EB08000228A4D8286895
:102DC0004007F6D5E6E7386820F47C3040F4003060
:102DD000ECE73868217C20F0FE4040EA0160E5E73E
:102DE000286820F001002860FDF7B2FE804606E06A
:102DF00000E1FDF7ADFEA0EB0800022884D82868AA
:102E00004007F6D42078C0065AD5DAF800003168B9
:102E100000F03800DFF870B20828ABF1040B10D0D6
:102E2000182803D101F0030001280AD0E069002826
:102E3000286836D040F080002860FDF789FE804683
:102E400021E02868C00521D5E069802872D11DE005
:102E5000206A20281FD0396821F0F84141EA8060BB
:102E600038602DE0DBF8001094F8202021F07C5130
:102E700041EA0261CBF8001022E0FDF769FEA0EB09
:102E8000080002289AD82868C005F6D5FDF75AFE32
:102E90004845E7D8DCE7386820F0F84040F080404B
:102EA000DEE720F080002860FDF752FE074604E0D0
:102EB000FDF74EFEC01B0228A0D82868C005F7D435
:102EC0002078000728D5714960694C310028884670
:102ED0000846096810D041F001010160FDF738FE95
:102EE000074604E0FDF734FEC01B022886D8D8F858
:102EF00000008007F6D50FE021F001010160FDF729
:102F000027FE074604E0FDF723FEC01B022871D808
:102F1000D8F800008007F6D42078800623D5A06971
:102F20000028286810D040F480502860FDF710FE7B
:102F3000074605E038E1FDF70BFEC01B022859D813
:102F400028688004F7D50EE020F480502860FDF753
:102F5000FFFD074604E0FDF7FBFDC01B022849D832
:102F600028688004F7D4207840074DD5DFF8288101
:102F7000D8F8001041F48071C8F80010FDF7E8FDA2
:102F8000074604E0FDF7E4FDC01B642832D8D8F8FA
:102F90000000C005F6D53D4FA068483701280AD08B
:102FA00008B1052813D0386820F00100386038686F
:102FB00020F0040002E0386840F001003860A068AA
:102FC00041F2883990B1FDF7C3FD80460AE03868C8
:102FD00040F004003860EEE7FDF7BAFDA0EB080111
:102FE000494507D838688007F6D50DE0FDF7B0FDF4
:102FF000804606E083E0FDF7ABFDA0EB0801494504
:103000007DD838688007F6D4616AD9B3DAF8000051
:103010004FF6F87BDFF8748008F10808C0F3C200AF
:10302000032808F10409A8F1040A69D028680229D4
:1030300020F08070286003D0FDF78AFD044688E008
:10304000FDF786FD074604E0FDF782FDC01B022860
:103050007CD828688001F7D4306840F2F331884387
:10306000E16A40EA0110A16A0843306094F8340034
:10307000218E4002491EA0F5007080B2C1F3080104
:1030800008430BE0B3E00000104402582844025803
:10309000004402580444025800480258218F4FF45B
:1030A000FE02491E02EA0141084394F83C10120254
:1030B000491E02EA01610843C8F80000DAF800106E
:1030C000504621F00101CAF80010D9F80020A36C85
:1030D00022EA0B0242EAC302C9F80020DAF8001023
:1030E000226C21F00C011143CAF80010DAF800102C
:1030F000626C21F0020111430160016801E025E0EA
:103100002BE041F480310160016841F4003101603D
:10311000016841F480210160016841F00101016012
:10312000286840F080702860FDF712FD044604E036
:10313000FDF70EFD001B022808D828688001F7D58E
:1031400055E0FDF705FD001B022802D90320BDE86C
:10315000F09F28688001F4D449E03268D8F8000074
:10316000012921D0A36A02F0030199421CD1E16A2E
:10317000C2F30512914217D1216BC0F30802491E18
:103180008A4211D1616BC0F34622491E91420BD194
:10319000A16BC0F30642491E914205D1E16BC0F319
:1031A0000660491E814201D00120D0E7D9F8000015
:1031B0004F46A16CC0F3CC00814218D0DAF8000071
:1031C000564620F00100CAF80000FDF7C1FC054694
:1031D000FDF7BEFCA842FBD03868A16C20EA0B00CA
:1031E00040EAC1003860306840F0010030600020E3
:1031F000ADE700002DE9F04104001D4616460F46DC
:1032000003D0D4F8880018B108E00120BDE8F081AF
:10321000002084F88400204600F0B0FC2420C4F88C
:1032200088002068016821F001010160A06A10B1E6
:10323000204602F0DDF8204602F0BEF90128E5D074
:103240002068816841F4804181602068816821F4B0
:10325000004139438160700540EA054120680268F9
:10326000064B1A400A4302602068016841F00101E0
:1032700001602046BDE8F04102F01EB9FFFF00FCEE
:103280002DE9F041040027D00025A562554F2068A4
:10329000554A564BB84206D0904204D0984202D0CC
:1032A000E1680F2918D8E16B012606EB511CE16893
:1032B0000831C908B84201FB0CF105D0904203D097
:1032C000984201D0082907D8B84203D0904201D0D3
:1032D000984204D1102902D90120BDE8F08194F868
:1032E000810020B9204684F8805000F081F8022047
:1032F00084F881002068016821F0010101602068E4
:10330000816801F4F812A169B1F1806F10D1616890
:10331000B1F5800F01D019B10AE0A16B21B107E02E
:10332000A16BB1F1805F03D1016841F4805101606C
:103330006068400209D5E068072806D32068016864
:10334000236D21F48071194303E02068016821F4A2
:1033500080710160A16AE0690843E16B1143084391
:10336000E168084321688860616A606BA26908436C
:10337000A16B114308432169084361690843216A2D
:10338000084361680843E16C0843A1680843A16CE5
:103390000843A16D08432168C860606868B9206867
:1033A000816821F4C05141F4006181602068816826
:1033B00021F4C06141F4806181602068016D21F0D9
:1033C000010101656068400206D52068C168626D30
:1033D00021F000411143C160C4F8845084F8816039
:1033E00000207AE70030014000380040003C0040F7
:1033F0002DE9F041B6B00446142130A8FDF716F8C7
:10340000C0216846FDF712F82C4E02272A494FF0DA
:1034100005082068103E294D0024884221D18114DE
:1034200018940020CDE900106846FEF711FD08B1A0
:10343000FDF73BF9286840F480502860286800F4C4
:1034400080503590306840F002003060306830A91C
:1034500000F002003590382030901948CDE93174E1
:1034600023E01849884224D1002119944014CDE961
:1034700000016846FEF7ECFC08B1FDF716F9286874
:1034800040F400502860286800F4005035903068FF
:1034900040F010003060306830A900F01000359026
:1034A000642030900848CDE93174CDE93348FDF708
:1034B00049FA36B0BDE8F08100300140F0440258CE
:1034C0000004025800340140001002582DE9F84F62
:1034D0001D4617468A460446FDF73AFB064694F811
:1034E000810001283ED1BAF1000F6ED0002FFCD030
:1034F00094F88000012835D04FF0010984F88090BD
:10350000032084F881004FF00008C4F88480C4F8D8
:103510005CA0A4F86070A4F86270C4F86480A4F899
:103520006880A4F86A80C4F87480C4F87080A068C9
:10353000B0F5C02F206818D0C16821F4C02141F433
:103540000031C160206841686FF30F013943416069
:103550002068016841F0010101606068B0F5800FEA
:1035600008D00CE00220BDE8F88F016841F400614A
:103570000160E7E72068016841F400710160E068DC
:103580000F281AD81EE02068416989070BD5E16D24
:1035900009680162E06D001DE065B4F86200401E3C
:1035A000A4F8620009E0FDF7D3FA801BA84202D319
:1035B000681C02D094E0002D2FD0B4F862000028DF
:1035C000E1D171E007282AD86AE087E020684169E4
:1035D00089071BD5B4F8621001290BD9E16B49B1F9
:1035E000E16D09680162E06D001DE065B4F86200FC
:1035F000801E08E0E16D09880184E06D801CE065B3
:10360000B4F86200401EA4F8620008E0FDF7A0FADA
:10361000801BA84202D3681C01D061E0B5B3B4F8A6
:1036200062000028D2D13FE02068416989072ED589
:10363000B4F8621003290CD9E16B402909D9E16D76
:1036400009680162E06D001DE065B4F86200001FCA
:1036500019E0B4F8621001290BD9E16B49B1E16DB1
:1036600009880184E06D801CE065B4F86200801E6A
:1036700009E0E16D097880F82010E06D401CE065FC
:10368000B4F86200401EA4F8620009E028E0FDF7EB
:103690005FFA801BA84202D3681C01D020E0FDB174
:1036A000B4F862000028BFD100222B460821204632
:1036B000009601F093FC28B1D4F8840040F020007B
:1036C000C4F88400204601F02BFC84F8819084F833
:1036D0008080D4F8840000283FF445AF012042E701
:1036E000204601F01DFCD4F8840040F48070C4F83A
:1036F000840084F88190032084F8808033E7704749
:1037000070477047F0B590F83C20012A3CD0012565
:1037100080F83C50022280F83D2003685A689C687B
:103720001A4E1B4FB34201D0BB4204D122F4700C9D
:103730004A6842EA0C0222F0700C0A6842EA0C0263
:103740005A600268B24213D0B2F1804F10D0114BD0
:103750009A420DD0104B9A420AD0104B9A4207D091
:10376000BA4205D00E4B9A4202D00E4B9A4204D177
:10377000896824F080031943916080F83D5000214E
:1037800080F83C100846F0BD0220F0BD000001406A
:10379000000401400004004000080040000C00400C
:1037A000001800400040014010B5040003D094F818
:1037B0003D0010B107E0012010BD002084F83C005E
:1037C000204600F023F8022084F83D002068211DE7
:1037D00001F084FD012084F8480084F83E0084F85C
:1037E0003F0084F8400084F8410084F8420084F8E7
:1037F000430084F8440084F8450084F8460084F8C7
:10380000470084F83D00002010BD000008B50068A6
:103810000B49884212D10B48016841F01001016048
:1038200000680022052100F0100000903620FDF70E
:1038300089FEBDE808403620FDF776BE08BD0000D1
:1038400000100040E844025890F83D10012901D0D2
:1038500001207047022180F83D100168CA6842F0DB
:103860000102CA6000681349884214D0B0F1804F49
:1038700011D0114988420ED0104988420BD010490E
:10388000884208D00F49884205D00F49884202D0AB
:103890000E49884207D181680D4A1140062906D099
:1038A000B1F5803F03D0016841F0010101600020C3
:1038B0007047000000000140000400400008004084
:1038C000000C00400004014000180040004001408E
:1038D0000700010070472DE9F04104460068C66802
:1038E00005694FF00007A90713D5B10711D5F91ED7
:1038F000016101202077206880698007204602D07E
:10390000FFF7E8FF04E000F08BF8204600F089F8AC
:103910002777680716D5700714D521686FF0040063
:103920000861022020772068806910F4407F2046DB
:1039300002D0FFF7CFFF04E000F072F8204600F05D
:1039400070F82777280715D5300713D521686FF051
:1039500008000861042020772068C069800720469D
:1039600002D0FFF7B7FF04E000F05AF8204600F05D
:1039700058F82777E80616D5F00614D521686FF0B9
:1039800010000861082020772068C06910F4407F8B
:10399000204602D0FFF79EFF04E000F041F82046E9
:1039A00000F03FF82777E80708D0F00706D0216835
:1039B0006FF001000861204600F034F8280601D4B9
:1039C000A80408D5300606D521686FF402500861B6
:1039D0002046FFF795FEE80508D5300606D5216894
:1039E0006FF4807008612046FFF789FE680608D5ED
:1039F000700606D521686FF040000861204600F08F
:103A00001BF8A8060AD5B00608D521686FF020007B
:103A100008612046BDE8F041FFF773BEBDE8F081C4
:103A20007047704700680349884201D1FDF776BAB4
:103A30007047000000140040704790F8841001297E
:103A400018D0012180F884102421C0F88810016862
:103A50000A680B6823F001030B6022F0005100227A
:103A60004266036819602021C0F8881080F884201D
:103A7000104670470220704770B5044690F88400E5
:103A800001281DD0012084F884002420C4F8880077
:103A900020680568026822F00102026020688268DE
:103AA00022F060620A438260204601F07FFC2068B9
:103AB00005602020C4F88800002084F8840070BDD0
:103AC000022070BD70B5044690F8840001281DD016
:103AD000012084F884002420C4F888002068056848
:103AE000026822F0010202602068826822F06042CF
:103AF0000A438260204601F059FC206805602020BE
:103B0000C4F88800002084F8840070BD022070BDD5
:103B100010B5040003D0D4F8880010B107E00120EC
:103B200010BD002084F88400204600F027F82420EF
:103B3000C4F888002068016821F001010160A06AD2
:103B400010B1204601F054FC204601F035FD01285B
:103B5000E6D02068416821F4904141602068816886
:103B600021F02A0181602068016841F001010160B3
:103B70002046BDE8104001F09FBC0000F0B5B7B092
:103B80000446142130A8FCF751FCC0216846FCF71C
:103B90004DFC2C490226206807272B4D0024884223
:103BA00024D100201F940121CDE900106846FEF7C2
:103BB0004FF908B1FCF779FD23481030016841F056
:103BC00010010160006800F010003590286840F096
:103BD00001002860286830A900F0010035904FF4FA
:103BE000C06030901948CDE9316425E01849884219
:103BF00026D100201E940221CDE900106846FEF770
:103C000027F908B1FCF751FD0F480830016841F46D
:103C100000310160006800F400303590286840F001
:103C200008002860286830A900F00800359070204E
:103C300030900848CDE93164CDE93347FCF782FE86
:103C400037B0F0BD00100140E044025800000258B7
:103C500000440040000C02582DE9F05F0546006862
:103C60000E46074602F01DF8C6EB06114FF0070896
:103C700040074FF0040905EB810401D5484633E0C5
:103C80002868314602F00DF8C0054FF0080A08D543
:103C900007EB46114FF48070C1F8080584F84DA079
:103CA00028E02868314601F0FCFF000705D507EB46
:103CB0004611C1F808A506200CE02868314601F03D
:103CC000F0FF400509D507EB46114FF48060C1F8BD
:103CD0000805092084F84D000CE02868314601F001
:103CE000E0FF00060AD5802007EB4611C1F8080561
:103CF00084F84D803146286801F049FF2868314634
:103D000001F0CFFF80052868314604D501F03FFF60
:103D10004FF400705AE101F0C4FFC0074FF0200BD0
:103D20004FF0010A4FF000084FD007EB4617C7F8D5
:103D300008B5E07E012807D184F81B80D7F8040578
:103D400020F48030C7F80405A87930B1206BD7F88B
:103D50001015C1F31201401AA06384F84DA0524619
:103D6000C4F84480C7F808A594F8260030B10228AA
:103D700004D003280AD0012808D013E0286831466F
:103D800001F005FF1020C7F808050BE0D7F8000583
:103D900040F00050C7F800053146284684F84C2012
:103DA000FCF7DEFEA879012807D1208DA16B014424
:103DB000491EB1FBF0F0C00705D094F83C0080F03C
:103DC000010084F83C00BDE8F09F2868314601F00E
:103DD00068FF80060CD507EB4611C1F808B5A07E38
:103DE0000128F0D184F81BA0032084F84D00B4E032
:103DF0002868314601F055FF80074FF0050B75D557
:103E000007EB46100222C0F8082594F84D1001294E
:103E100016D0062919D007291CD009291AD005293E
:103E200033D0032963D004297DD008297ED002290C
:103E3000C9D094F84C2031462846FCF791FEC2E7E1
:103E400084F84D2084F84CA0F3E784F84D2084F8E2
:103E50004CB0EEE784F84D20616C491C6164022986
:103E600010D9C4F844804146A27E012A07D1E176E8
:103E70002177D0F8041521F48031C0F8041584F8B6
:103E80004C90D6E784F84C2022E084F84D20E17E67
:103E90000129CED194F826100329F3D1A16C491C35
:103EA000A164022911D9C4F8488084F81B80616C90
:103EB000032901D284F81CA0D0F8041521F4803124
:103EC000C0F8041584F84C9002E084F84C20B0E768
:103ED00094F8261009B10229ABD1D0F8001521F0D1
:103EE000804141F00041C0F80015A2E724E084F8C9
:103EF0004D20E17E01299CD184F84C20D0F8041596
:103F000041F48031C0F80415D0F80C1541F040019F
:103F1000C0F80C15D0F80C1521F02001C0F80C15D4
:103F2000D6E700E002E084F84D20ABE784F84D20AE
:103F3000606C401C6064A2E72868314601F0B1FE65
:103F4000400610D507EB46114020C1F8080584F85B
:103F50004DB0A07E08B9C4F8448031462868BDE859
:103F6000F05F01F014BE2868314601F09AFEC006E9
:103F70007FF565AF94F82600032803D028B1022806
:103F800003D00FE0C4F8448006E0C4F84480A87968
:103F900010B1E07E012818D184F84D903146286890
:103FA00001F0F5FDE07E01280FD107EB461084F803
:103FB0001B80D0F8041521F48031C0F80415D0F826
:103FC0000C1541F02001C0F80C15102007EB46112C
:103FD000C1F80805F7E62DE9F05F054600680F46D1
:103FE000064601F05EFEC7EB07114FF0040A4007DA
:103FF00005EB810405D506EB4711C1F808A507209C
:1040000089E02868394601F04CFE80064FF0000830
:104010004FF001094FF0020B28D506EB4711202085
:10402000C1F808050326607E012809D184F81980AB
:10403000394684F84CB084F84D60286801F0A7FD3B
:10404000A07E012810D1E07E00280DD194F8260032
:10405000012801D084F81B90394684F84D60286807
:1040600001F095FDC4F84480BDE8F09F286839460A
:1040700001F017FE800506D506EB47114FF40070DE
:10408000C1F8080549E02868394601F00AFEC00772
:1040900020D0C4F844803946286801F002FE40066A
:1040A00006D506EB471184F819904020C1F80805A1
:1040B000E07E48B106EB471084F81B80D0F8041569
:1040C00021F48031C0F8041506EB47114846C1F8C9
:1040D000089520E02868394601F0E3FD40060ED53A
:1040E000052084F84D00A07E08B984F8199039465F
:1040F000C4F84480286801F04AFD402028E0286880
:10410000394601F0CEFD00070DD506EB471108201A
:10411000C1F80805062084F84D0039462868BDE836
:10412000F05F01F034BD2868394601F0BAFDC006E1
:1041300013D5C4F8448084F84DA0607E18B9207E61
:1041400008B984F819903946286801F020FD10203C
:1041500006EB4711C1F8080586E72868394601F0E3
:10416000A0FD00061CD5A87970B1606C401C60648D
:10417000022811D9C4F8448052463946284684F8AA
:104180004CA0FCF7EDFC09E0072084F84D002868FE
:10419000394601F0FCFC01E084F84CB08020D7E700
:1041A0002868394601F07DFD400509D5092084F8CD
:1041B0004D002868394601F0EAFC4FF48060C7E7FB
:1041C0002868394601F06DFD8007C5D506EB47111B
:1041D0005A46C1F808B594F84D00012817D00328B5
:1041E0003AD0042840D005284ED006284FD00728C2
:1041F00001D00928B0D184F84D20606C401C606467
:1042000002284AD9C4F8448084F84CA04FE084F8CE
:104210004D2084F84C9094F82600022801D0032801
:1042200045D1A87928B994F83D0080F0010084F8C0
:104230003D00A87901283AD1606B20B3218D084454
:10424000401EB0FBF1F0C00731D094F83D0080F083
:10425000010084F83D002AE084F84D20E07E01282A
:1042600025D184F84C2022E084F84D2084F84C209D
:10427000E07E01281BD184F81B80D1F8040520F4CE
:104280008030C1F8040512E084F84D20E9E784F895
:104290004D20052084F84C0009E084F84C20D1F82A
:1042A000000520F0804040F00040C1F8000594F87F
:1042B0004C2039462846FCF753FCD5E67CB504680B
:1042C0000546D4F840040190D4F8400420F02E00B4
:1042D00000900198800709D50198C00702D02846B0
:1042E000FCF73CFC009840F00200009001980007A9
:1042F00024D5009840F008000090019840071AD596
:10430000687A022803D0E87901280CD00FE00198E0
:10431000C0F341400228286803D0012101F0A5FC28
:1043200005E00221FAE74EF66020C4F804042846AE
:10433000FCF7B8FC02E02846FCF7B3FC01988006C5
:10434000009802D540F020000090C4F840047CBDE5
:104350002DE9F041024600680746016A01F00F06A8
:10436000C1F34343022BC1F30A152FD1002D2DD0E9
:10437000C6EB061102EB8104E16A002926D0A26B8C
:10438000636B2A449A4223D82A4601F0BEFCE06AB5
:104390002844E062A06B2844A06307EB4610D0F8E5
:1043A0001015228DAA42C1F3C9410FD100290DD0A9
:1043B000D0F8001521F0804141F00041C0F800150F
:1043C00094F83C0080F0010084F83C00BDE8F081E6
:1043D000042084F84C00F9E7FEE7000010B5094C12
:1043E000002208212046FCF7A8FBC820FCF798FA19
:1043F000012220460821FCF7A0FBBDE81040C820A0
:10440000FCF78EBA001002580148FCF72DBE0000E0
:10441000A8B90424F0B504688B88E568C5F30B459A
:104420002B441D04882303EBC213E65806F47046A0
:10443000E65004680F68E668C6F30B46761C3E44F7
:104440002E43E65003688C89DD68C5F30A052C44C9
:1044500025048C2404EBC2141E5906F470461E5128
:1044600003688F68DE68C6F30A06761C3E442E4356
:104470001E510468942303EBC213E55825F0070589
:10448000E55005680C69EC5091F8313005681F0261
:1044900091F832301C040B7E1E069C2303EBC213E2
:1044A00055F803C04FF0000C45F803C091F83050A8
:1044B00034433D4325430468E5500468982303EBE7
:1044C000C213E55825F0FF05E55005684C69EC502E
:1044D0000468A02303EBC213E55840F20776B54306
:1044E000E550D1E907452C430568EC500468AC233E
:1044F00003EBC213E55844F803C005684C6AEC505E
:104500000B698BB3012B32D0042B32D0022B30D06D
:10451000032B2ED0072B2CD001230568B02404EBED
:10452000C2142E5906F0E0262E51D1E90065AD1BCC
:104530000E8D5D435E43ED1D45EA064305682B5134
:104540000468B42303EBC213E5586FF30A05E55082
:104550000468C96AE1500068842101EBC211425825
:1045600042F001024250F0BDFFE70423D5E70323E8
:10457000D3E70223D1E71FB50024009401940294ED
:104580000394FCF79FFF01208DF80F404FF010516E
:10459000019112218DF8081003218DF80B108DF870
:1045A0000E008DF8000068468DF80D408DF80A4029
:1045B0008DF801408DF809408DF80C40FCF758FF4C
:1045C0000420FCF78DFF1FBD0A48094910B50160A2
:1045D0000021017141714161816101210162FCF79A
:1045E00091F8002803D0BDE81040FCF75EB810BD7C
:1045F000004C025874080024104802220E4910B5DD
:1046000001600021C0E90112C160C0E91112C1645A
:10461000016541658165C165FCF724F908B1FCF7C6
:1046200044F806480121FCF7BBF8002803D0BDE898
:104630001040FCF73AB810BD001000529808002452
:104640000B4A00210B4810B50AF018FB0A4C002158
:10465000074A2432206009480AF010FB044A00216E
:104660006060074848320AF009FBA06010BD0000F6
:10467000240B01908D50009000000024AD5000905C
:10468000B55000902DE9F04F87B014216846FBF734
:10469000CDFE5548016841F010010160016801F04C
:1046A00010010591016841F080010160016801F08D
:1046B00080010591016841F004010160016801F089
:1046C00004010591016841F001010160016801F0F8
:1046D00001010591016841F002010160016801F0EA
:1046E00002010591016841F00801016000680122A2
:1046F000DFF8F8B0192100F0080005905846FCF7E3
:104700001CFADFF8EC80002201214046FCF715FA84
:10471000DFF8E09001224FF441514846FCF70DFAD2
:10472000DFF8D4A04FF48047002239465046FCF70A
:1047300004FA0124694600250920CDE90004CDE9E9
:1047400002455846FCF7FEF810206946CDE9000402
:10475000584602940394FCF7F5F800946946CDE9B5
:10476000014540460395FCF7EDF80226009603202C
:104770006946CDE901054046FCF7E4F8202069468A
:10478000CDE900051D480295FCF7DCF84FF44050D8
:104790006946CDE90004484602940394FCF7D2F838
:1047A00000976946CDE9014550460395FCF7CAF8E4
:1047B000E0036946CDE9000550460295FCF7C2F8D2
:1047C00040206946CDE90004CDE902454846FCF7A2
:1047D000B9F800966946CDE901545846FCF7B2F89D
:1047E00007B0BDE8F08F0000E04402580010025806
:1047F0000000025800040258000C02580008025839
:1048000013480122114910B501601249416000218D
:10481000C0E90212016141618161C1610162FCF77D
:1048200097FA08B1FBF741FF09480021FCF73CFA71
:1048300008B1FBF73AFF06480021FCF760FA0028B0
:1048400003D0BDE81040FBF730BF10BD005C004056
:1048500000090024B175703013480122114910B5C8
:104860000160124941600021C0E902120161416109
:104870008161C1610162FCF76BFA08B1FBF715FFBA
:1048800009480021FCF710FA08B1FBF70EFF0648B3
:104890000021FCF734FA002803D0BDE81040FBF7F4
:1048A00004BF10BD001C005854090024B1757030BD
:1048B00010B58EB034216846FBF7B8FD2B480024B4
:1048C0002949C0E9001409048460C0E903410121B9
:1048D000416181610421C16101624FF4A2714162B1
:1048E0004FF4F271816240F25311C16240F2F31150
:1048F000016380F8344080F8354080F83640FCF79A
:1049000019FC08B1FBF7D1FE4FF4A070029402220B
:104910004FF4F071CDE90040CDE90312FF22CDE95B
:1049200005244FF48062079205228DF83040CDE9CE
:104930000A01CDE908248DF8314000220B48694670
:104940008DF83240FCF766FB08B1FBF7AEFE084875
:104950000022099069460548FCF75CFB002801D05D
:10496000FBF7A3FE0EB010BD00100050A8B9042440
:10497000A809002415480322134910B501604FF41B
:10498000800141600021C0E902124FF080620161A4
:10499000C0E90512C1611201016241628162C16216
:1049A000C0E90D21C163016441648164C164016592
:1049B00041658165FEF764FC002803D0BDE8104026
:1049C000FBF773BE10BD00000030014050BA042454
:1049D00016480822144910B501604FF48001416067
:1049E0000021C0E90212D2050161C0E905124FF0B1
:1049F000C042C0E9072141624FF080428162C1623A
:104A0000C0E90D21C163016441648164C164016531
:104A100041658165FEF734FC002803D0BDE81040F5
:104A2000FBF743BE10BD000000340140D8BA042497
:104A30003EB5104800240E49009401940294016090
:104A4000EF21C0E9011440F2E731C16080218161AA
:104A5000FEF7AAFE08B1FBF728FE06486946009457
:104A60000294FEF74FFE002801D0FBF71EFE3EBD6C
:104A70000010004060BB042410B50AF097FDBDE8AB
:104A800010400AF095BD704718480C22164910B521
:104A900001604FF4E131416000218160C160C0E9F3
:104AA00004128161C161016241628162FFF730F8E5
:104AB00008B1FBF7FAFD0D480021FFF703F808B134
:104AC000FBF7F3FD09480021FEF7D6FF08B1FBF71D
:104AD000ECFD0648FEF7B1FF002803D0BDE810400A
:104AE000FBF7E3BD10BD000000100140ACBB042487
:104AF00019480C22174910B501604FF4E1314160AB
:104B0000002181600B46C160C0E9041281610A4640
:104B1000C161016241628162FEF76CFB08B1FBF783
:104B2000C4FD0D480021FEF7CDFF08B1FBF7BDFD28
:104B300009480021FEF7A0FF08B1FBF7B6FD0648C3
:104B4000FEF77BFF002803D0BDE81040FBF7ADBDAA
:104B500010BD00000044004040BC0424FEE7FEE716
:104B60000148FCF735BD0000D4BC04240148FBF724
:104B7000F8BF0000B8C104242DE9F04106680546DD
:104B80000C46306C06EB4411D1F8083B4FF400475B
:104B900095F806C005F29C424FF0200EBCF1010FC3
:104BA00008D0DFF898C0604538D1180431D5C1F875
:104BB000087B3FE0224E5FEA037C04D5B04239D93E
:104BC0001804F4D436E05FEA836C02D5C1F808EB30
:104BD00030E013F0280F2DD1B04201D91804E6D4EB
:104BE00004EBC400D1F8101B05EB8000D0F8743240
:104BF000C1F31201591AC0F8681200F51570ACB96A
:104C000003691BB1C2681144C1600FE0286801212B
:104C10000AE098060AD5C1F808EB07E034B9D5F8E0
:104C2000640218B90021304600F0ECFE2846E1B2DB
:104C3000FCF7BDFC0020BDE8F08100000A31544FB4
:104C40000A30544F2DE9F84F0E46D0F800808146C7
:104C500001EBC60100EB8104D4E909101434884249
:104C600002D90120BDE8F88F081AA168814200D25C
:104C70000846C01C08EB461A870815E0451AA068CC
:104C8000A84200D20546E81CABB2870899F8060096
:104C900000904046E168F2B201F0CAF8E0682844AA
:104CA000E060606928446061DAF8180980B2B842AF
:104CB00005D3D4E90401814201D20028DED1D4E930
:104CC0000401884208D8012006F00F018840D8F876
:104CD00034188143C8F834180020C3E7022A09D3E6
:104CE000531C07D00023036043608360C0E90312B4
:104CF00001207047002070472DE9F047DFF8088158
:104D000004460E464FF00009D8F80000C043800763
:104D100009D03D4D283D286820F080602860FBF7D1
:104D200017FF074607E00120BDE8F087FBF710FFFB
:104D3000C01B022860D828680001F7D4D8F80010FA
:104D4000226821F47C3141EA0231C8F80010207A4F
:104D50004FF4FE02A1884002491EA0F5007080B207
:104D6000C1F308010843A189491E02EA0141084331
:104D7000217C1202491E02EA0161084322491031D6
:104D800008602148001D0168626921F0C0011143DB
:104D900001600168A26921F02001114301600168EE
:104DA00021F010010160184914310A684FF6F873B8
:104DB0009A43E36942EAC3020A60016841F01001C4
:104DC00001606EB10168012E0ED041F40011016046
:104DD000286840F080602860FBF7BAFE04460DE0CA
:104DE000016841F40021F2E741F48011EFE7FBF79D
:104DF000AFFE001B022801D9032095E728680001B7
:104E0000F5D5484690E70000284402582DE9F047C0
:104E1000DFF8088104460E464FF00009D8F800007C
:104E2000C043800709D03D4D283D286820F08050C0
:104E30002860FBF78DFE074607E00120BDE8F087FC
:104E4000FBF786FEC01B022860D828688000F7D4D4
:104E5000D8F80010228821F07C7141EA0251C8F88C
:104E60000010207A4FF4FE02A1884002491EA0F5EE
:104E7000007080B2C1F308010843A189491E02EA0B
:104E800001410843217C1202491E02EA01610843E4
:104E90002249183108602148001D0168626921F427
:104EA0004061114301600168A26921F4007111435E
:104EB0000160016821F48071016018491C310A68A1
:104EC0004FF6F8739A43E36942EAC3020A60016845
:104ED00041F4807101606EB10168012E0ED041F085
:104EE00080710160286840F080502860FBF730FE38
:104EF00004460DE0016841F48001F2E741F400014D
:104F0000EFE7FBF725FE001B022801D9032095E7F8
:104F100028688000F5D5484690E7000028440258EC
:104F200010B502685169936943F008039361026800
:104F3000936943F0100393610268136823F001033F
:104F400013600268136940F26F34A343136102686F
:104F5000936823F44043936090F88120042A0CD096
:104F60008A060AD5D0F8842042F08002C0F8842056
:104F70000268936943F02003936190F88120032A2B
:104F80000CD04A060AD5D0F8842042F00402C0F8BA
:104F900084200268936943F0400393618A050AD52F
:104FA000D0F8842042F00102C0F88420026893699E
:104FB00043F400739361C9050AD5D0F8841041F019
:104FC0000801C0F8841001688A6942F480728A611D
:104FD0000021A0F86210A0F86A1010BD2DE9F04180
:104FE0001C4616460D460746DDF8188009E0FBF71B
:104FF000AFFDA0EB0800A04202D3601C01D00BE083
:1050000054B13868406935EA000007D00020B0424A
:10501000EDD00020BDE8F0810320FBE70120F6E79A
:1050200038B50A4C00221021ADF800002046FBF7ED
:1050300084FD0748FF2301226946FEF747FA012253
:1050400020461021FBF779FD38BD00000010025802
:10505000D8BA042438B50B4C40F4807000221021DB
:10506000ADF800002046FBF768FD0748FF2301224A
:105070006946FEF72BFA012220461021FBF75DFD61
:1050800038BD000000100258D8BA0424064D4FF471
:1050900000544FF47A7621462846FBF746FD304609
:1050A00009F0A8FCF7E7000000040258142009F0FA
:1050B000A1FCFBE74FF47A7009F09CFC074C02213D
:1050C0002046FBF72DFD20B9002220460121FBF7E9
:1050D00034FD142009F08EFCF1E7000000100258A6
:1050E0004FF0E02010B500690BF028FA012803D03A
:1050F000BDE810400AF09CBD10BD000030B59DB069
:105100004C216846FBF792F9202113A8FBF78EF992
:105110000220FCF727FD2F4A0024106820F0010030
:10512000106010682C48016841F44041016001683A
:1051300001F440411B9101688904FCD527490B68A3
:1051400043F002030B60096801F002011B91016842
:1051500041F4404101600168116841F001011160B2
:10516000116801F001011B9101688904FCD521201F
:10517000009005214FF4803001900120069002201C
:105180000990CDE90A01C021CDE90C100F2112943C
:105190000825CDE90E10CDE910546846FDF772FDE3
:1051A00008B172B6FEE714A93F201390032081E8EE
:1051B0003100402017901A900101CDE91801042117
:1051C00013A8FDF719FB002801D072B6FEE71DB049
:1051D00030BD00002C04005818480258F44402580E
:1051E0002E4810B5016841F4700101602C4A106826
:1051F00000F00F00072804D2106820F00F00C01D37
:1052000010602849086840F001000860254B002024
:10521000103318600B68244C23400B60136803F0B4
:105220000F03072B04D9136823F00F03DB1D136052
:105230001C4A18321060121D1060121D1060194BAC
:105240001A4A28331A601B1D194A1A601B1D194A75
:105250001A601B1D18601B1D1A601B1D18601B1D8A
:105260001A601A1D10600A6822F480220A600D4933
:1052700060310860104800686FF30F00B0F1005F04
:1052800003D20E490120C1F8080143F2D2000C49B3
:105290000860C00601498039086010BD88ED00E053
:1052A00000200052004402587FEDF6EA000202029C
:1052B0000000FF01800201010010005C008000512D
:1052C000004000520148FEF706BB000060BB04240A
:1052D0000148FEF700BB000098C504242DE9F04703
:1052E00002684FF0804A294C294D2A4EA0422A4F8D
:1052F0002A4B09D0504507D0A84205D0B04203D070
:10530000B84201D0984204D122F0700C4A6842EAB7
:105310000C02DFF88CC0DFF88C80A042DFF88890A8
:105320000FD050450DD0A8420BD0B04209D0B842A2
:1053300007D0984205D0604503D0404501D048458C
:1053400003D122F44075CA682A434D6922F08002D5
:105350002A4302608A68C2620A688262A04207D059
:10536000984205D0604503D0404501D0484501D161
:1053700009690163012141610169C90703D001691C
:1053800021F001010161BDE8F0870000000001404B
:105390000004004000080040000C004000040140F0
:1053A00000400140004401400048014030B5416EDA
:1053B000B9B1026891689268C1F342610B4C520F17
:1053C000A35C1D0104F108039A5CB5FBF2F2A0F89E
:1053D0006A20625C595C1201B2FBF1F1A0F868101E
:1053E00030BD0121A0F86A10F8E70000A80B019079
:1053F00090F82810090706D501684A68836B22F4E3
:1054000000421A434A6090F82810C90706D0016884
:105410004A68C36A22F400321A434A6090F828109E
:10542000890706D501684A68036B22F480321A4363
:105430004A6090F82810490706D501684A68436B0E
:1054400022F480221A434A6090F82810C90606D533
:1054500001688A68C36B22F480521A438A6090F80C
:105460002810890606D501688A68036C22F4005268
:105470001A438A6090F82810490611D501684A68D5
:10548000436C22F480121A434A60416CB1F5801FCC
:1054900006D101684A68836C22F4C0021A434A604C
:1054A00090F82810090606D501684A68C06C22F4F5
:1054B000002202434A6070472DE9F8430025044664
:1054C000C0F89050FBF744FB8046206800686FF0FE
:1054D0007E474FF02006000713D5002243463104D3
:1054E0002046009700F036FA58B1206850E8001FB7
:1054F00021F0800140E80012002AF6D1C4F888604B
:1055000021E020680068400722D5002243464FF47E
:1055100080012046009700F01DFAC8B1206850E8CD
:10552000001F21F4907140E80012002AF6D1206893
:10553000083050E8001F21F0010140E80012002A65
:10554000F5D1C4F88C60032084F88450BDE8F8835A
:10555000C4F88860C4F88C60E5662567002084F88C
:105560008450F3E710B5016851E8002F22F49072DF
:1055700041E80023002BF6D10E4B0168083151E8B9
:10558000002F1A4041E80024002CF6D1C16E0129F9
:1055900008D1016851E8002F22F0100241E80023F1
:1055A000002BF6D12021C0F88C100021C166416784
:1055B00010BD0000FEFFFFEF2DE9F0430446006838
:1055C0000025DFF8548387B02269A168E36911439D
:1055D00062691A4311430268D04B1A400A430260C1
:1055E00020684168E26821F440511143416021681C
:1055F000A069414501D0226A10438A68C84B1A400D
:1056000002438A602068C16A626A21F00F01114377
:10561000C162C4492268C4488A420ED1006800F0C1
:105620003800182873D047DCB8B3082879D0102880
:105630006FD178E028287ED17BE0BC498A4209D12D
:10564000006800F00700062875D2DFE800F0546A11
:105650006C6E7072B6498A4209D1006800F007008A
:10566000062868D2DFE800F0475D5F616365B149F5
:105670008A4209D1006800F0070006285BD2DFE803
:1056800000F03A5052545658AB498A420BD1006848
:1056900000F0070006284ED200E010E0DFE800F03E
:1056A0002B4143454749A5498A420AD1006800F089
:1056B0003800182839D0B7DD2028BBD137E00121C8
:1056C0003AE09F498A4209D1006800F007000628A5
:1056D00031D2DFE800F01026282A2C2E99498A4280
:1056E0000BD1006800F00700062824D2DFE800F0A4
:1056F00003191B1D1F2100211EE042451BD18A48B2
:10570000001D006800F00700062814D202E00CE03B
:1057100007E010E0DFE800F0030507090B0D0221A8
:105720000AE0042108E0082106E0102104E020211D
:1057300002E0402100E0802183487B4B4FF4004C85
:10574000824E4FF000090711543B42454DD11029BC
:1057500019D006DC022909D004290AD008297DD1F4
:105760000CE020293DD0402978D13CE0FCF722FA1A
:1057700010E06846FCF730FA01980BE003A8FCF74C
:10578000C9FA049806E01968890605D51968C1F3B5
:10579000C101C840002823D0616A36F8112066682C
:1057A000B0FBF2F106EB46038B4257D8B1EB063F54
:1057B00054D800234F461946FAF7EEFD09020202BB
:1057C00041EA106170081018324679410023FAF757
:1057D000E3FD5F4AA0F5407191423FD82168C8605F
:1057E00086E03846D8E76046D6E7E2694FF6EF78BC
:1057F000624545D1082918D005DC59B101290CD0E2
:10580000042974D10CE0102914D0202934D0402967
:105810006DD133E0FDF77AF913E0FDF789F910E077
:105820006846FCF7D9F901980BE003A8FCF772FA77
:10583000049806E01968890604D51968C1F3C10106
:10584000C84080B3616A36F81110B0FBF1F0410036
:10585000606801EB5001B1FBF0F000E047E0A0F11F
:105860001002424543D84FF6F0710140C0F34200A8
:1058700001432068C1603BE03846E3E76046E1E76A
:10588000082919D005DC59B101290DD004292ED1E0
:105890000DE0102915D0202937D0402927D136E036
:1058A000FDF734F914E023E0FDF742F910E0684613
:1058B000FCF792F901980BE003A8FCF72BFA049887
:1058C00006E01968890604D51968C1F3C101C8400A
:1058D00070B1616A36F81110B0FBF1F1606801EB4C
:1058E0005001B1FBF0F0A0F11001414511D90125A3
:1058F0000120A4F86A00A4F868002846C4F874904F
:10590000C4F8789007B0BDE8F0833846E1E7604618
:10591000DFE780B262E70000000C0058F369FFCFB8
:10592000FFF4FF11001001405444025800440040AD
:1059300000480040004C004000500040001401406E
:1059400000780040007C00400090D003900B019054
:10595000FFFC0F002DE9F0471F4690460D46044618
:10596000089E4FF0000932E0701C30D0FBF7F0F8D1
:10597000C01BB04218D8BEB120680168490726D5BF
:10598000802D24D0402D22D0C169C94309070DD4F0
:10599000082505622046FFF7E5FDC4F89050012078
:1059A00084F88490BDE8F0870320FBE7C069C0431A
:1059B00000050CD421684FF4006008622046FFF710
:1059C000D1FD2020C4F8900084F88490ECE7206892
:1059D000C06935EA000004D000204045C4D0002052
:1059E000E0E70120F9E7D0F800196FF30A01C0F8E9
:1059F0000019D0F8041841F48071C0F80418002090
:105A00007047000010B5036C134CA34203D9D0F8C3
:105A1000003B002B1EDB0023C0F8103BD0F8103BEE
:105A200043F40023C0F8103BD0F8103B43F01803B8
:105A3000C0F8103BD0F8103B43F0C043C0F8103B17
:105A4000012907D1C0F8142BD0F8001B41F08021A8
:105A5000C0F8001B002010BD0A30544F38B500229A
:105A600000920B784D7800EB431442F21073012D35
:105A700019D0D4F8005B002D3CDAD4F8005B45F077
:105A80000065C4F8005B0C7800EB4414D4F8005BAC
:105A900045F08045C4F8005B009C641C00949C4267
:105AA00021D9012226E0D4F80059002D22DAD4F8B9
:105AB000005945F00065C4F800590C7800EB441417
:105AC000D4F8005945F08045C4F80059009C641C86
:105AD00000949C42E5D80C7800EB4414D4F80049BB
